:100000000C9428010C9459010C9459010C94590139
:100010000C9459010C9459010C9459010C945901F8
:100020000C9459010C9459010C9459010C945901E8
:100030000C9459010C9459010C9459010C945901D8
:100040000C9459010C9459010C9459010C945901C8
:100050000C9459010C9459010C9459010C94A4036B
:100060000C9459010C9418040C94EE030C9459014F
:100070000C9459010C9459010C9459010C94590198
:100080000C9459010C9459010C9459010C94590188
:100090000C9459010C9459010C9459010C94590178
:1000A0000C9459010C9459010C9459010C94590168
:1000B0000C9459010C9459010C9459010C94590158
:1000C0000C9459010C9459010C9459010C94590148
:1000D0000C9459010C9459010C9459010C94590138
:1000E0000C9459010C9458020C94E6040C94600290
:1000F0000C945C020C94B4020C94A0020C941602B2
:100100000C940A020C9428020C9410020C943402F1
:100110000C944C020C943A020C941C020C94520263
:100120000C9422020C9404020C948F020C94400252
:100130000C9446020C944C030C942E020C94FA027C
:100140000C94CF010C94C20200002100240027006F
:100150002A002D00300033000101000004010701D6
:100160000A0100002200250028002B002E0031008B
:10017000340002010000050108010B010505050519
:10018000070508080808020202020A0A080804040F
:10019000040401010101010101010303030303033D
:1001A0000303040707070C0C0C0C0C0C0C0C0202CC
:1001B000020206060606060606060B0B0B0B0B0BC9
:1001C0000B0B010210202008081020401020408056
:1001D000020102010804020101020408102040800B
:1001E0008040201008040201800402018040201099
:1001F00008040201080402010102040810204080E2
:10020000010204081020408000000A0B02090C0DB6
:100210000E080703040100000000000000000000B9
:1002200000000000000000000000000000000000CE
:10023000000000001211100000000000000000008B
:100240000000000000000000000000000000E604C4
:1002500011241FBECFEFD1E2DEBFCDBF00E00CBF47
:1002600012E0A0E0B2E0EAE3FAE000E00BBF02C077
:1002700007900D92A231B107D9F722E0A2E1B2E0D6
:1002800001C01D92A83BB207E1F711E0C8E2D1E03E
:1002900000E006C021970109802FFE010E9413058E
:1002A000C732D10780E00807A9F70E944E040C94DA
:1002B0001B050C9400000F931F939FB7F894409177
:1002C000B4025091B5026091B6027091B70286B542
:1002D000A89B06C08F3F21F04F5F5F4F6F4F7F4F4E
:1002E0009FBF762F652F542F4427480F511D611D46
:1002F000711D440F551F661F771F440F551F661F42
:10030000771F04E110E020E030E0FFB7F89480911F
:10031000B4029091B502A091B602B091B702E6B5D1
:10032000A89B05C0EF3F19F00196A11DB11DFFBFAD
:10033000BA2FA92F982F88278E0F911DA11DB11DAF
:10034000880F991FAA1FBB1F880F991FAA1FBB1FC9
:10035000841B950BA60BB70B883E9340A105B105F6
:10036000A0F2015011092109310948515C4F6F4F2A
:100370007F4F011511052105310539F61F910F91A8
:100380000895382FE5E1F2E08491EFECF1E024915B
:10039000E9E8F1E094919923A1F0811118C0E92FC7
:1003A000F0E0EE0FFF1FEE59FE4FA591B4918FB70D
:1003B000F894311107C09C91E22FE095E923EC936A
:1003C0008FBF0895EC91E22BEC938FBFFACF815051
:1003D000823128F7E82FF0E08827EE50FE4F8F4F4C
:1003E0000C9413055C02580252024C024602CF01E3
:1003F00040023A0234022E02280222021C02160295
:10040000CF0110020A02040280912001877F8093AD
:100410002001C5CF809120018F7D80932001BFCF27
:10042000809120018F7780932001B9CF8091A00027
:10043000877F8093A000B3CF8091A0008F7D8093B1
:10044000A000ADCF8091A0008F778093A000A7CFB0
:1004500080919000877F80939000A1CF8091900041
:100460008F7D809390009BCF809190008F778093B9
:10047000900095CF8091B0008F7D8093B0008FCF9A
:100480008091B0008F778093B00089CF80918000F9
:10049000877F8093800083CF809180008F7D8093C1
:1004A00080007DCF809180008F778093800077CF10
:1004B00084B58F7D84BD73CF84B58F7784BD6FCFB6
:1004C000CF92DF92EF92FF920F931F93CF93DF9320
:1004D0004115510509F16A018C017B01D0E0C0E0B2
:1004E00004C02196CC16DD0669F0D7016D917D011F
:1004F000D801ED91FC910190F081E02DC801199592
:10050000892B79F7CE01DF91CF911F910F91FF9049
:10051000EF90DF90CF900895D0E0C0E0F3CFFC01E2
:10052000938D848D981720F4891B990B019708955A
:100530002FE330E0291B3109820F932F911D08957D
:10054000FC01918D828D981761F0A28DAE0FBF2FA7
:10055000B11D5D968C91928D9F5F9F73928F90E0FD
:1005600008958FEF9FEF0895FC01918D828D98176C
:1005700031F0828DE80FF11D858D90E008958FEFA9
:100580009FEF0895FC01918D228D892F90E0805C72
:100590009F4F821B91098F739927089582E192E002
:1005A0000E94C20221E0892B09F420E0822F0895E5
:1005B000FC01A48DA80FB92FB11DA35ABF4F2C91D8
:1005C000848D90E001968F739927848FA689B789CF
:1005D0002C93A089B1898C91837080648C93938DC6
:1005E000848D981308950288F389E02D80818F7D92
:1005F00080830895EF92FF920F931F93CF93DF9321
:10060000EC0181E0888F9B8D8C8D981799F1062FD6
:10061000EB8CF12C8FEFE81AF80A8FE3E822FF2425
:100620001E2D03C00FB607FE1CC08C8D8117D1F3A1
:10063000EB8DEC0FFD2FF11DE35AFF4F00839FB7A9
:10064000F894EB8EEA89FB898081806280839FBF6A
:1006500081E090E0DF91CF911F910F91FF90EF909B
:100660000895E889F989808185FFDFCFCE010E9456
:10067000D802DBCFE889F989808185FFC8CF9FB791
:10068000F894EE89FF896083E889F9898081837015
:10069000806480839FBFDCCFCF93DF93EC01888D94
:1006A0008823B9F0EA89FB89A889B989808185FD09
:1006B00003C08C9186FD0DC00FB607FCF7CF80817B
:1006C00085FFF4CF8C9185FFF1CFCE010E94D80237
:1006D000E9CFDF91CF91089580E090E0892B21F060
:1006E0000E94CE02811125C080E090E0892B41F06C
:1006F00080E090E0892B21F00E94000081111EC053
:1007000080E090E0892B41F080E090E0892B21F09F
:100710000E940000811115C080E090E0892B41F01B
:1007200080E090E0892B21F00E940000811104C03C
:1007300008950E940000D8CF0C9400000E94000091
:10074000DFCF0E940000E8CF1F920F920FB60F92EA
:1007500011242F933F938F939F93AF93BF938091D7
:10076000B0029091B102A091B202B091B302309167
:10077000AF0223E0230F2D3768F126E8230F0296FE
:10078000A11DB11D2093AF028093B0029093B102DE
:10079000A093B202B093B3028091B4029091B502DB
:1007A000A091B602B091B7020196A11DB11D809330
:1007B000B4029093B502A093B602B093B702BF9172
:1007C000AF919F918F913F912F910F900FBE0F90FE
:1007D0001F9018950196A11DB11DD4CF1F920F92A5
:1007E0000FB60F9211240BB60F922F933F934F9396
:1007F0005F936F937F938F939F93AF93BF93EF9389
:10080000FF9382E192E00E94D802FF91EF91BF91A5
:10081000AF919F918F917F916F915F914F913F9198
:100820002F910F900BBE0F900FBE0F901F90189539
:100830001F920F920FB60F9211240BB60F922F93A7
:100840008F939F93EF93FF93E0912202F091230205
:100850008081E0912802F091290282FF0DC0808101
:10086000FF91EF919F918F912F910F900BBE0F9061
:100870000FBE0F901F901895208180912B028F5FE3
:100880008F7390912C02891759F3E0912B02F0E0BD
:10089000EE5EFD4F258F80932B02E2CF789484B5D6
:1008A000826084BD84B5816084BD85B5826085BD6C
:1008B00085B5816085BD80916E00816080936E00FA
:1008C00010928100809181008260809381008091EC
:1008D000810081608093810080918000816080939D
:1008E00080008091B10084608093B1008091B0005D
:1008F00081608093B000809191008260809391002C
:10090000809191008160809391008091900081603E
:10091000809390008091A10082608093A1008091DB
:10092000A10081608093A1008091A00081608093EC
:10093000A00080912101826080932101809121019A
:10094000816080932101809120018160809320014A
:1009500080917A00846080937A0080917A0082602E
:1009600080937A0080917A00816080937A008091F0
:100970007A00806880937A001092C100EFECF1E079
:100980002491E9E8F1E08491882399F090E0880FC0
:10099000991FFC01E85BFE4FA591B4918E599E4FC3
:1009A000FC01859194918FB7F8949C91292B2C93FD
:1009B0008FBF81E00E94C1010E945B0180E00E9424
:1009C000C1010E945B010E946C03F3CFE2E1F2E0FF
:1009D0001382128288EE93E0A0E0B0E084839583D6
:1009E000A683B78384E092E09183808385EC90E0D6
:1009F0009587848784EC90E09787868780EC90E0E9
:100A0000918B808B81EC90E0938B828B82EC90E0D9
:100A1000958B848B86EC90E0978B868B118E128E53
:100A2000138E148E0895EE0FFF1F881F8BBF079043
:0A0A3000F691E02D1994F894FFCF21
:100A3A0000000000FA0260028F024C03C202A00208
:020A4A00B402F4
:00000001FF
