:100000000C945C000C946E000C946E000C946E00CA
:100010000C946E000C946E000C946E000C946E00A8
:100020000C946E000C946E000C946E000C946E0098
:100030000C946E000C946E000C946E000C946E0088
:100040000C9427010C946E000C946E000C946E00BE
:100050000C946E000C946E000C946E000C946E0068
:100060000C946E000C946E00000000002400270029
:100070002A0000000000250028002B0004040404CE
:100080000404040402020202020203030303030342
:10009000010204081020408001020408102001021F
:1000A00004081020000000080002010000030407FB
:1000B000000000000000000011241FBECFEFD8E0B8
:1000C000DEBFCDBF21E0A0E0B1E001C01D92A930AC
:1000D000B207E1F70E9471010C94E0010C9400005A
:1000E0000F931F939FB7F89440910501509106011B
:1000F000609107017091080186B5A89B06C08F3FEB
:1001000021F04F5F5F4F6F4F7F4F9FBF762F652F5F
:10011000542F4427480F511D611D711D440F551F59
:10012000661F771F440F551F661F771F04E110E0FD
:1001300020E030E0FFB7F89480910501909106012E
:10014000A0910701B0910801E6B5A89B05C0EF3F5B
:1001500019F00196A11DB11DFFBFBA2FA92F982F2D
:1001600088278E0F911DA11DB11D880F991FAA1FF1
:10017000BB1F880F991FAA1FBB1F841B950BA60BC3
:10018000B70B883E9340A105B105A0F201501109BB
:100190002109310948515C4F6F4F7F4F01151105FF
:1001A0002105310539F61F910F910895E1EBF0E03B
:1001B0009491EDE9F0E02491E9E8F0E0E491EE2398
:1001C00099F0911117C0F0E0EE0FFF1FEE58FF4FAE
:1001D000A591B4919FB7F894811107C08C91E22F3B
:1001E000E095E823EC939FBF0895EC91E22BEC930C
:1001F0009FBFFACF933029F160F09730E1F098304B
:10020000A1F0943001F7909180009F7D9093800041
:10021000DACF913031F09230B1F694B59F7D94BD34
:10022000D2CF94B59F7794BDCECF9091B0009F7DF3
:100230009093B000C8CF9091B0009F779093B0009A
:10024000C2CF909180009F7790938000BCCF1F9287
:100250000F920FB60F9211242F933F938F939F937A
:10026000AF93BF938091010190910201A09103018E
:10027000B09104013091000123E0230F2D3768F184
:1002800026E8230F0296A11DB11D20930001809343
:10029000010190930201A0930301B09304018091A6
:1002A000050190910601A0910701B0910801019606
:1002B000A11DB11D8093050190930601A093070134
:1002C000B0930801BF91AF919F918F913F912F9172
:1002D0000F900FBE0F901F9018950196A11DB11D94
:1002E000D4CF789484B5826084BD84B5816084BDA8
:1002F00085B5826085BD85B5816085BD80916E00C4
:10030000816080936E0010928100809181008260F4
:100310008093810080918100816080938100809131
:1003200080008160809380008091B1008460809320
:10033000B1008091B00081608093B00080917A001C
:10034000846080937A0080917A00826080937A0042
:1003500080917A00816080937A0080917A00806831
:1003600080937A001092C100EDE9F0E02491E9E871
:10037000F0E08491882399F090E0880F991FFC01A8
:10038000E859FF4FA591B4918E589F4FFC0185917C
:1003900094918FB7F8949C91292B2C938FBFC0E038
:1003A000D0E081E00E94D6000E94700080E00E94B0
:1003B000D6000E9470002097A1F30E940000F1CFA8
:0403C000F894FFCFDF
:00000001FF
