:100000007DEF02F00000000000EF00F000000000B3
:0A0010000000000000000000F3D71C
:10001C00016A026A01013251025C02E13151015C58
:10002C0013E2036AC80E035C0CE20000000000003F
:10003C000000000000000000000000000000032A87
:0A004C00F1D7014A022AE6D712009C
:0600560031C183FF12001E
:0C005C0030C1ADFFACB201D0FDD71200E6
:10006800848230C131F1F3DF8484030E0101316FE2
:10007800000E326FCFDF8492030E0101316F000E44
:08008800326FC8DF8482120010
:10009000086A096A100E0C6E0134083609360450DD
:1000A000085E0550D8A0053C095ED8B007D00450C2
:1000B00008260550D8B0053C0926D89000360136F0
:0600C0000C2EEAD712002D
:1000C600848230C131F1C4DF8494030E0101316FA3
:1000D600000E326FA0DF8492030E0101316F000E15
:0800E600326F99DF84821200E1
:1000EE0001012C6B2C512A25E96E000E2B21EA6E94
:1000FE00EE50000A0CE02C512A25E96E000E2B2141
:10010E00EA6EEECF30F1A9DF01012C2BEBD71200F6
:10011E002CC12EF12DC12FF1100E046E270E056E7F
:10012E002AC100F02BC101F0ACDF300E00262EC12B
:10013E00E1FF2FC1E2FF00C0E6FF010E01012C25F9
:10014E002E6F000E2D212F6F100E046E270E056ED2
:10015E002AC100F02BC101F094DF08C000F009C0E5
:10016E0001F0E80E046E030E056E8BDF300E0026D6
:10017E002EC1E1FF2FC1E2FF00C0E6FF020E2C25CB
:10018E002E6F000E2D212F6FE80E046E030E056EDE
:10019E002AC100F02BC101F074DF08C000F009C0C5
:1001AE0001F0640E046E000E056E6BDF300E00263D
:1001BE002EC1E1FF2FC1E2FF00C0E6FF030E2C258A
:1001CE002E6F000E2D212F6F640E046E000E056E25
:1001DE002AC100F02BC101F054DF08C000F009C0A5
:1001EE0001F00A0E046E000E056E4BDF300E002677
:1001FE002EC1E1FF2FC1E2FF00C0E6FF040E2C2549
:10020E002E6F000E2D212F6F0A0E046E000E056E3E
:10021E002AC100F02BC101F034DF08C000F009C084
:10022E0001F0300E00262EC1E1FF2FC1E2FF00C00B
:10023E00E6FF050E2C25E16E000E2D21E26EE66A1C
:02024E0012009C
:1002500001012C6B2D6B2B512D5D02E12A512C5D80
:1002600004E32A512B1101E00DD09EBA0BD0140EDD
:10027000316F000E326FD2DE140E01012C27000EFA
:100280002D23E9D79EAA03D0AECF00F01200FF0EB7
:04029000006E1200EA
:1002940084928494140E0101316F000E326FBCDE1F
:1002A4008482380E0101306F0CDF050E0101316FBD
:1002B400000E326FB1DE380E0101306F02DF010E25
:1002C4000101316F000E326FA7DE380E0101306F6D
:1002D400F8DE080E0101306FF4DE0F0E0101306FFD
:1002E400F0DE010E0101306FECDE380E0101306FDB
:0C02F400E8DE800E0101306FE4DE120035
:0A030000020EC16E490EC26E12001B
:10030A000900F5CFE6FF0006FBE10106F9E112005C
:10031A0009D0410EC26E10D0490EC26E0DD0510ED8
:10032A00C26E0AD001012A51000AF3E02A51010AD9
:10033A00F3E02A51020AF3E0C284C2A401D0FDD735
:10034A00C4CF01F0000E026E01C003F002C004F037
:10035A00033603900436033603900436060E016E04
:10036A00C3CF00F0015004E00032009EFF0FFBD71C
:0E037A00000E016E035000120450011212001A
:1003880032D03F0E006E1200060E006E12005B0E99
:10039800006E12004F0E006E1200660E006E120004
:1003A8006D0E006E12007D0E006E1200070E006EBC
:1003B80012007F0E006E12006F0E006E1200770E94
:1003C800006E12007C0E006E1200580E006E1200B5
:1003D8005E0E006E1200790E006E1200710E006E35
:1003E8001200006A120001012A51000ACAE02A51CB
:1003F800010ACAE02A51020ACAE02A51030ACAE0DD
:100408002A51040ACAE02A51050ACAE02A51060AF2
:10041800CAE02A51070ACAE02A51080ACAE02A5142
:10042800090ACAE02A510A0ACAE02A510B0ACAE094
:100438002A510C0ACAE02A510D0ACAE02A510E0AAA
:0C044800CAE02A510F0ACAE0CCD712000B
:1004540001012D6B2D512A25F66E000E2B21F76E0E
:10046400000E2C21F86E0900F5CF00F0005210E0C8
:100474002D512A25F66E000E2B21F76E000E2C212D
:10048400F86E0900F5CF30F1E7DD01012D2BE2D73D
:02049400120054
:10049600AC9CAC8AAC98AC84AB8EAB9CAB88320E71
:0404A600AF6E120023
:1004AA000B6A0A6A096A00500402F4CF09F0F3CF12
:1004BA0008F001500502F4CF0BF0F3CF0AF0005018
:1004CA000502F3500926F4500A22E86A0B22015069
:1004DA000402F3500926F4500A22E86A0B2208C0E3
:1004EA0000F009C001F00AC002F00BC003F01200CC
:1004FA0054EC06F0060EC16EC30E926E010E936E98
:10050A00010E946E956A966AF19EBFDEBFDFF3DE36
:10051A00030E936E010E0101306FD0DD800E0101D2
:10052A00306FCCDD580E01012A6F000E2B6FDADD19
:10053A00C00E306FC3DD3D0E01012A6F000E2B6F16
:10054A00D1DD81A201D0FDD7010E306FB7DD800E5B
:10055A000101306FB3DD9F0E01012A6F000E2B6F70
:10056A00C1DD400E306FAADD110E0101306F77DD5B
:10057A00190E0101306F73DD150E0101306F6FDD49
:10058A00130E0101306F6BDD130E0101306F67DD51
:10059A00150E0101306F63DD190E0101306F5FDD49
:1005AA00110E0101306F5BDD0E0E0101306F57DD58
:1005BA00110E0101306F53DD0E0E0101306F4FDD58
:1005CA00050E0101306F4BDD0E0E0101306F47DD64
:1005DA00140E0101306F43DD0A0E0101306F3FDD59
:1005EA00110E0101306F3BDDC00E0101306F66DD77
:1005FA000101226B100E225D0DE2010E2215306FF1
:10060A002EDD640E0101316F000E326F02DD010131
:10061A00222BF0D7010E306F51DD800E0101306FB1
:10062A004DDDAC0E01012A6F000E2B6F5BDD200E33
:10063A00226F800E225D15E20F0E2215016E015007
:10064A00000A03E1C00E306F39DD22C130F107DD47
:10065A00320E0101316F000E326FDBDC0101222BF9
:10066A00E8D7640E316F000E326FD3DC010E010140
:10067A00306F24DD800E0101306F20DD880E01010C
:10068A002A6F000E2B6F2EDDC00E306F17DD950E10
:10069A0001012A6F000E2B6F25DDF40E316F010E5A
:1006AA00326FB7DC010E0101306F08DD800E0101E7
:1006BA00306F04DDCF0E01012A6F000E2B6F12DDA1
:1006CA00060EC16E226B040E225D2DE20CD0200EA6
:1006DA00806E15D0100E806E12D0080E806E0FD06C
:1006EA00040E806E0CD02251000AF1E02251010A58
:1006FA00F1E02251020AF1E02251030AF1E001017C
:10070A00236B100E235D0DE223C12AF138DE00C0EF
:10071A0083FFC80E316F000E326F7BDC0101232B81
:10072A00F0D7222BD0D7020EC16E836A030E936EC6
:10073A00010E306FC3DC800E0101306FBFDCDE0EAC
:10074A0001012A6F000E2B6FCDDCC00E306FB6DCB4
:10075A00B90E01012A6F000E2B6FC4DC81A201D0F1
:10076A00FDD7936A010E306FA9DC830E0101306F49
:10077A00A5DCC40E01012A6F000E2B6FB3DC236BBC
:10078A00030E235D14E2010E226F225100080DE2CE
:10079A0022C181FF22C183FFC80E316F000E326F62
:1007AA0038DC010122372291F0D7232BE9D7816A5D
:1007BA00836A226B040E225D0CE2FF0E811AFF0E81
:1007CA00831AC80E316F000E326F23DC0101222B0F
:1007DA00F1D7010E306F72DC800E0101306F6EDCD2
:1007EA002E0E01012A6F000E2B6F7CDC236B060E86
:1007FA00C16E928A01017F0E2315016E01507F0A94
:10080A001AE03F0E936E81A0238181A2238381A4E3
:10081A00238581A6238781A8238981AA238B80AA7D
:10082A00238D936A23C181FF0A0E316F000E326F46
:10083A000EEC00F0DFD7F40E0101316F010E326FBA
:10084A000EEC00F0816A020EC16E948E949C010E29
:10085A000101306F33DC800E0101306F2FDC150E81
:10086A0001012A6F000E2B6F3DDCC40E306F26DCAF
:10087A00250E01012A6F000E2B6F34DC610E2A6FE0
:10088A000C0E2B6F000E2C6FE0DD226B040E225D26
:10089A000FE2300E2225306F2EEC00F0820E01019D
:1008AA002A6F0C0E2B6F000E2C6FCFDD222BEED78A
:1008BA00E80E316F030E326F0EEC00F0010E0101EB
:1008CA00306F63EC00F0800E0101306F63EC00F0D2
:1008DA00680E01012A6F000E2B6F04DC8F0E2A6F3F
:1008EA000C0E2B6F000E2C6FB0DD226B200E225DDA
:1008FA0022E20F0E2215006E0CE1C00E306F63EC7F
:10090A0000F0A40E01012A6F0C0E2B6F000E2C6F43
:10091A009CDDD00E2A6F070E2B6F95DC00C023F1E9
:10092A0000C030F134EC00F023C130F12EEC00F0BD
:10093A000101222BDBD7640E316F000E326F0EECF1
:10094A0000F0010E0101306F63EC00F0800E01012E
:10095A00306F63EC00F0780E01012A6F000E2B6FE6
:10096A0077EC00F0226BC80E225D3BE22A6BD0DCEA
:10097A000A0E046E000E056E93DDCC0E046E000E98
:10098A00056E48EC00F000C023F1C60E0101306F7D
:10099A0063EC00F023C12AF1000E01012B6F240E33
:1009AA002C6F010E2D6F8FEC00F027C130F134EC63
:1009BA0000F02C0E0101306F34EC00F028C130F148
:1009CA0034EC00F0560E0101306F34EC00F00A0EE0
:1009DA000101316F000E326F0EEC00F00101222B83
:1009EA00C2D7010E306F63EC00F0800E0101306F48
:1009FA0063EC00F0480E01012A6F000E2B6F77ECB2
:100A0A0000F0226BC80E225D3CE2010E2A6F80DCE8
:100A1A000A0E046E000E056E43DDCC0E046E000E47
:100A2A00056E48EC00F000C023F1C60E0101306FDC
:100A3A0063EC00F023C12AF1000E01012B6F240E92
:100A4A002C6F010E2D6F8FEC00F027C130F134ECC2
:100A5A0000F02C0E0101306F34EC00F028C130F1A7
:100A6A0034EC00F0560E0101306F34EC00F00A0E3F
:100A7A000101316F000E326F0EEC00F00101222BE2
:100A8A00C1D794909690010E306F63EC00F0800EFF
:100A9A000101306F63EC00F0EF0E01012A6F000EC6
:100AAA002B6F77EC00F0226B050E225D0AE2827052
:100ABA00F40E316F010E326F0EEC00F00101222BA1
:100ACA00F3D78290010E306F63EC00F0800E0101C3
:100ADA00306F63EC00F0150E01012A6F010E2B6FC7
:100AEA0077EC00F0226B050E225D0AE28470F40EA8
:100AFA00316F010E326F0EEC00F00101222BF3D799
:100B0A008490010E306F63EC00F0800E0101306FAB
:100B1A0063EC00F0FC0E01012A6F000E2B6F77ECDC
:100B2A0000F0C00E306F63EC00F0060E01012A6F70
:100B3A00010E2B6F77EC00F09A0E2A6F0C0E2B6FBA
:0A0B4A00000E2C6F82DCFFD7FFD7EE
:100CA80010EE15F00D0E006E020E016E540EF66E6B
:0E0CB8000B0EF76E000EF86E85EC01F01200C8
:100B540054657374652053657269616C2054580040
:090B64003936303020384E3100E2
:0F0B6D00202054657374652043686176657300BA
:0B0B7C0050726573732E20524231004E
:100B8700205465737465204144432028503229005E
:100B97004C6967756520746F646F73204449500012
:100BA70054657374652053657269616C20525800EF
:100BB700205465737465204144432028503129002F
:0D0BC7002020205465737465204C434400C9
:0A0BD400202020202020204F6B007D
:0D0BDE002020205465737465204C434400B2
:0D0BEB002020205465737465204C434400A5
:0B0BF80050726573732E2052423100D2
:0B0C03005465737465204C4544730079
:0F0C0E00202020546573746520372053656700DC
:100C1D004465736C6967756520525443204449508F
:010C2D0000C6
:0D0C2E0054657374652052454C452031001B
:0A0C3B0020202020202046696D00D3
:0F0C4500205072657373696F6E652052535400AF
:0D0C540054657374652052454C45203200F4
:100C61000D0A2050696373696D6C61620D0A20542D
:100C7100657374652053657269616C2054580D0A5F
:010C81000072
:0D0C82002050696373696D4C61620D0A00BA
:0B0C8F0020446967697465210D0A00AC
:0A0C9A000D0A2046494D210D0A0005
:030CA4000D0A0036
:020000040030CA
:0D000100220D0EFF0180FF0FC00FE00F4029
:00000001FF
