:0400000064EF00F0B9
:060008003D82F4EF07F059
:100018003D80D8CF60F0E8CF61F0E0CF62F0FACF52
:1000280063F0FBCF64F0E9CF65F0EACF66F0E1CF8B
:1000380067F0E2CF68F0D9CF69F0DACF6AF0F3CF92
:100048006BF0F4CF6CF0F6CF6DF0F7CF6EF0F8CF21
:100058006FF0F5CF70F03DC071F03EC072F03FC058
:1000680073F040C074F000F074C040F073C03FF00B
:1000780072C03EF071C03DF070C0F5FF6FC0F8FF70
:100088006EC0F7FF6DC0F6FF6CC0F4FF6BC0F3FFE6
:100098006AC0DAFF69C0D9FF68C0E2FF67C0E1FF44
:1000A80066C0EAFF65C0E9FF64C0FBFF63C0FAFFF2
:1000B80062C0E0FF61C0E8FF60C0D8FF3D9010005B
:1000C80062EF0AF0C30E926E010E936E010E946EEB
:1000D800000E956E000E966E8282F19EB3EC08F0CB
:1000E80081EC0AF08BEC0AF00F0EC16E030E936ED2
:1000F800010E37EC0AF0800E37EC0AF0560E0001BC
:10010800776F7E0E786F12EC09F0C00E37EC0AF0AC
:10011800A40E0001776F7F0E786F12EC09F081B2A0
:10012800FED7010E37EC0AF0800E37EC0AF08C0E81
:100138000001776F7F0E786F12EC09F0000E000156
:100148008C6F090E8C6501D00CD0000E766FC80E2E
:10015800756F01EC0AF0180E37EC0AF000018C2BD1
:10016800F0D7000E8C6F090E8C6501D00CD0000EF4
:10017800766FC80E756F01EC0AF01C0E37EC0AF0AA
:1001880000018C2BF0D7000E8C6F090E8C6501D006
:100198000CD0000E766FC80E756F01EC0AF0100EC9
:1001A80037EC0AF000018C2BF0D7000E8C6F090E8B
:1001B8008C6501D00CD0000E766FC80E756F01ECFF
:1001C8000AF0140E37EC0AF000018C2BF0D7400E21
:1001D80037EC0AF0110E20EC0AF0190E20EC0AF0A8
:1001E800150E20EC0AF0130E20EC0AF0130E20EC8A
:1001F8000AF0150E20EC0AF0190E20EC0AF0110E88
:1002080020EC0AF00E0E20EC0AF0110E20EC0AF099
:100218000E0E20EC0AF0050E20EC0AF00E0E20EC73
:100228000AF0140E20EC0AF00A0E20EC0AF0110E67
:1002380020EC0AF0C00E37EC0AF0000E00018C6FBB
:100248000F0E8C6501D00ED08C51010B20EC0AF0FA
:10025800000E0001766F640E756F01EC0AF0000164
:100268008C2BEED7010E37EC0AF0800E37EC0AF033
:100278008C0E0001776F7F0E786F12EC09F0200E5C
:1002880000018C6F200E8C6101D017D08CC026F035
:100298000F0E2616D8A403D0C00E37EC0AF00001C2
:1002A8008C5120EC0AF0000E0001766F320E756F4B
:1002B80001EC0AF000018C2BE5D7000E766F640E76
:1002C800756F01EC0AF0010E37EC0AF0800E37EC7E
:1002D8000AF08C0E0001776F7F0E786F12EC09F030
:1002E800C00E37EC0AF0D90E0001776F7F0E786FD9
:1002F80012EC09F0010E0001766FF40E756F01EC37
:100308000AF0010E37EC0AF0800E37EC0AF0F60E10
:100318000001776F7F0E786F12EC09F08292010E60
:100328000001766FF40E756F01EC0AF08282010EFF
:1003380037EC0AF0800E37EC0AF02B0E0001776FCD
:100348007F0E786F12EC09F00F0EC16E000E0001DF
:100358008C6F030E8C650AD02CD0200E05D0100EA1
:1003680003D0080E01D0040E806E0DD08C51000A07
:10037800D8B4F3D7010AD8B4F2D7030AD8B4F1D75E
:10038800010AD8B4F0D7000E8B6F0F0E8B6501D021
:100398000ED08B515DEC08F0836E000E0001766F75
:1003A800C80E756F01EC0AF000018B2BEED78C2B71
:1003B800D0D70B0EC16E000E836E030E936E010E26
:1003C80037EC0AF0800E37EC0AF0140E0001776F54
:1003D8007E0E786F12EC09F0C00E37EC0AF0A40E0E
:1003E8000001776F7F0E786F12EC09F081B2FED7AB
:1003F800000E936E010E37EC0AF0830E37EC0AF00C
:10040800BA0E0001776F7F0E786F12EC09F0000EBC
:1004180000018B6F020E8B6501D017D0010E8C6F17
:100428008C51D8B410D08CC081FF8CC083FF000ED3
:10043800766FC80E756F01EC0AF000018C51020D41
:10044800F3CF8CF0EDD78B2BE5D7000E816E000E25
:10045800836E000E8C6F030E8C6501D00DD0FF0EDD
:10046800811AFF0E831A000E766FC80E756F01ECA5
:100478000AF000018C2BEFD7010E37EC0AF0800E42
:1004880037EC0AF03A0E0001776F7F0E786F12ECA6
:1004980009F0000E00018B6F0F0EC16E928A3F0E9D
:1004A800936EC00E37EC0AF0860E0001776F7E0E51
:1004B800786F12EC09F081B0FED7C60E37EC0AF05F
:1004C800E00E0001776F7F0E786F12EC09F0010ED5
:1004D8000001766FF40E756F01EC0AF0C00E37EC70
:1004E8000AF0950E0001776F7E0E786F12EC09F016
:1004F80081B2FED7C60E37EC0AF0E00E0001776F26
:100508007F0E786F12EC09F0010E0001766FF40E81
:10051800756F01EC0AF0C00E37EC0AF0A40E00016A
:10052800776F7E0E786F12EC09F081B4FED7C60E95
:1005380037EC0AF0E00E0001776F7F0E786F12EC4F
:1005480009F0010E0001766FF40E756F01EC0AF0E8
:10055800C00E37EC0AF0B30E0001776F7E0E786F8D
:1005680012EC09F081B6FED7C60E37EC0AF0E00EA1
:100578000001776F7F0E786F12EC09F0010E000111
:10058800766FF40E756F01EC0AF0C00E37EC0AF0C6
:10059800C20E0001776F7E0E786F12EC09F081B8F9
:1005A800FED7C60E37EC0AF0E00E0001776F7F0E1B
:1005B800786F12EC09F0010E0001766FF40E756F7A
:1005C80001EC0AF0C00E37EC0AF0E00E0001776F7C
:1005D8007E0E786F12EC09F081BAFED7C60E37ECA2
:1005E8000AF0E00E0001776F7F0E786F12EC09F0C9
:1005F800010E0001766FF40E756F01EC0AF0C00E63
:1006080037EC0AF0D10E0001776F7E0E786F12EC8E
:1006180009F080BAFED7C60E37EC0AF0E00E0001EA
:10062800776F7F0E786F12EC09F0010E0001766F7C
:10063800F40E756F01EC0AF0000E816E0B0EC16EA0
:10064800010E37EC0AF0800E37EC0AF0760E000146
:10065800776F7E0E786F12EC09F0C00E37EC0AF057
:10066800030E0001776F7E0E786F12EC09F0030E0F
:10067800936E81A002D081B2FCD781B072D0948EE3
:10068800949CC40E37EC0AF0ED0E0001776F7F0ED4
:10069800786F12EC09F0D10E0001756F7D0E766F40
:1006A800B8EC09F0000E00018C6F030E8C6501D0C8
:1006B8000ED08C51300F92EC0AF0650E0001756F68
:1006C8007F0E766FB8EC09F000018C2BEED7030E85
:1006D800766FE80E756F01EC0AF0010E37EC0AF040
:1006E800800E37EC0AF0660E0001776F7E0E786F89
:1006F80012EC09F0990E0001756F7F0E766FB8EC59
:1007080009F0000E00018C6F1F0E8C6501D023D0FC
:100718008CC026F00F0E2616D8A40AD0C00E37ECCF
:100728000AF0CC0E0001756F7F0E766FB8EC09F0F9
:10073800070E0001786FD00E776F66EC09F00001A4
:100748008B6F8B5120EC0AF000018B5192EC0AF070
:1007580000018C2BD9D7000E766F640E756F01ECF3
:100768000AF0010E37EC0AF0800E37EC0AF0360E6C
:100778000001776F7E0E786F12EC09F0000E000111
:100788008C6FC70E8C6501D041D0000EE4EC08F0E8
:1007980075C077F076C078F0000E00017A6F0A0E07
:1007A800796F4EEC0AF077C07BF078C07CF0000ED1
:1007B80000017E6FCC0E7D6F3CEC09F000017B518F
:1007C8008B6FC60E37EC0AF08BC07FF00001806B90
:1007D800850E816F000E826F67EC07F0000188516B
:1007E80020EC0AF02C0E20EC0AF00001895120ECD4
:1007F8000AF0560E20EC0AF0000E0001766F0A0E81
:10080800756F01EC0AF000018C2BBBD7010E37EC99
:100818000AF0800E37EC0AF0460E0001776F7E0E64
:10082800786F12EC09F0000E00018C6FC70E8C6512
:1008380001D041D0010EE4EC08F075C077F076C025
:1008480078F0000E00017A6F0A0E796F4EEC0AF00C
:1008580077C07BF078C07CF0000E00017E6FCC0E74
:100868007D6F3CEC09F000017B518B6FC60E37ECB5
:100878000AF08BC07FF00001806B850E816F000E3F
:10088800826F67EC07F00001885120EC0AF02C0E0B
:1008980020EC0AF00001895120EC0AF0560E20ECF9
:1008A8000AF0000E0001766F0A0E756F01EC0AF06F
:1008B80000018C2BBBD794909690010E37EC0AF070
:1008C800800E37EC0AF0720E0001776F7F0E786F9A
:1008D80012EC09F0000E00018C6F040E8C6501D03B
:1008E8000AD08270010E766FF40E756F01EC0AF073
:1008F80000018C2BF2D78290010E37EC0AF0800EA3
:1009080037EC0AF07F0E0001776F7F0E786F12ECDC
:1009180009F0000E00018C6F040E8C6501D00AD01E
:100928008470010E766FF40E756F01EC0AF0000109
:100938008C2BF2D78490030E936E010E37EC0AF0DD
:10094800800E37EC0AF0FE0E0001776F7E0E786F8E
:1009580012EC09F0C00E37EC0AF0A40E0001776F14
:100968007F0E786F12EC09F081B2FED7010E37ECDA
:100978000AF0800E37EC0AF0490E0001776F7F0EFF
:10098800786F12EC09F0070E926E8BEC0AF0000EED
:1009980000018C6F630E8C6501D040D0020EE4EC30
:1009A80008F075C077F076C078F0000E00017A6F15
:1009B8000A0E796F4EEC0AF0D89000017831266E55
:1009C8007731836F26C084F0C50E37EC0AF083C0F8
:1009D8007FF084C080F0850E0001816F000E826F69
:1009E80067EC07F00001875120EC0AF000018851FC
:1009F80020EC0AF02C0E20EC0AF00001895120ECC2
:100A08000AF0430E20EC0AF0000E0001766F140E77
:100A1800756F01EC0AF000018C2BBCD7010E37EC86
:100A28000AF0800E37EC0AF0EF0E0001776F7E0EA9
:100A3800786F12EC09F0828A000E00018C6F630E49
:100A48008C6501D040D0020EE4EC08F075C077F058
:100A580076C078F0000E00017A6F0A0E796F4EECBE
:100A68000AF0D89000017831266E7731836F26C05E
:100A780084F0C50E37EC0AF083C07FF084C080F0A4
:100A8800850E0001816F000E826F67EC07F0000190
:100A9800875120EC0AF00001885120EC0AF02C0E56
:100AA80020EC0AF00001895120EC0AF0430E20ECFA
:100AB8000AF0000E0001766F320E756F01EC0AF035
:100AC80000018C2BBCD7829A9480010E37EC0AF077
:100AD800800E37EC0AF00D0E0001776F7F0E786FED
:100AE80012EC09F0D59AD596D58CD590D592D584A7
:100AF800D58EF28ACD503F0B4009CD6ECD9ACD9858
:100B0800F294000ED76E060ED66E7D0E3C6EF28EF7
:100B1800000ECF6E000ECE6ECD808284000E0001D6
:100B28008C6F950E8C6501D067D0020EE4EC08F04E
:100B380075C077F076C078F0000E00017A6F0A0E63
:100B4800796F4EEC0AF0D89000017831266E773133
:100B5800836F26C084F0C20E37EC0AF083C07FF0A2
:100B680084C080F0850E0001816F000E826F67ECF3
:100B780007F00001875120EC0AF00001885120ECB1
:100B88000AF02C0E20EC0AF00001895120EC0AF042
:100B9800430E20EC0AF0C80E37EC0AF08DC07FF047
:100BA8008EC080F0850E0001816F000E826F67ECA9
:100BB80007F00001865120EC0AF00001875120EC73
:100BC8000AF00001885120EC0AF00001895120EC5C
:100BD8000AF0520E20EC0AF0500E20EC0AF0530EE8
:100BE80020EC0AF0000E0001766F0A0E756F01EC1A
:100BF8000AF000018C2B95D7F29E82940F0EC16EDD
:100C0800030E936E010E37EC0AF0800E37EC0AF0F3
:100C1800F20E0001776F7D0E786F12EC09F0C00EAE
:100C280037EC0AF0A40E0001776F7F0E786F12EC94
:100C380009F081B2FED7F80E936E010E37EC0AF078
:100C4800820E37EC0AF0570E0001776F7F0E786F2F
:100C580012EC09F0C10E37EC0AF0000E00018C6F9F
:100C680012D00F0E956E050E786FDC0E776FD9ECEB
:100C780006F0300F00018B6F000E956E8B5120EC43
:100C88000AF000018C2B0D0E8C65EBD7030E936ECA
:100C9800010E37EC0AF0800E37EC0AF0250E000141
:100CA800776F7E0E786F12EC09F0C00E37EC0AF001
:100CB800030E0001776F7E0E786F12EC09F0030EB9
:100CC800936E81A002D081B2FCD781B049D00A0EC0
:100CD80098EC0AF000018B6F8B5120EC0AF0A50EFE
:100CE8000001756F0A0E72EC0AF05A0E0001756F5A
:100CF8000A0E72EC0AF00A0E98EC0AF000018C6FEA
:100D08008BC075F00A0E72EC0AF0010E37EC0AF08F
:100D1800800E37EC0AF0250E0001776F7E0E786F93
:100D280012EC09F0C00E37EC0AF05A0E00018C19CB
:100D3800D8A407D0CF0E776F7F0E786F12EC09F02A
:100D480007D0AF0E0001776F7F0E786F12EC09F0B5
:100D5800030E0001766FE80E756F01EC0AF002D001
:100D680081A2FED7000E936E000E816E010E37EC45
:100D78000AF0800E37EC0AF0E30E0001776F7F0E61
:100D8800786F12EC09F0C00E37EC0AF01C0E000167
:100D9800776F7F0E786F12EC09F0C50E0001756F42
:100DA8007F0E766FB8EC09F0FFD7000E226E000EAA
:100DB800216E000E236E81CF20F06AD0000E246EC3
:100DC800020E246401D059D02450010DCD0EF32415
:100DD800F66E7D0EF420F76E0800F550FF0A8112BA
:100DE80083B60DD0000E0001766F140E756F01ECFE
:100DF8000AF083B604D083A6FED724282FD083B464
:100E08000ED0000E0001766F140E756F01EC0AF01B
:100E180083B405D083A4FED72450040F1FD083B217
:100E28000ED0000E0001766F140E756F01EC0AF0FB
:100E380083B205D083A2FED72450070F0FD083B00A
:100E48000FD0000E0001766F140E756F01EC0AF0DA
:100E580083B006D083A0FED724500A0F236E0DD08E
:100E68002450010DCD0EF324F66E7D0EF420F76E9E
:100E78000800F5508116242AA3D7000E0001766FCA
:100E8800050E756F01EC0AF0050E2126000E2222D0
:100E980000017751215C78512258D8A004D07751AD
:100EA8007811D8A403D02350D8B488D72350D8B405
:100EB80023680B0E2318D8A402D0000E236E20C07E
:100EC80081FF235012007FC07BF080C07CF0270E8A
:100ED80000017E6F100E7D6F3CEC09F000017B5124
:100EE800300F81C0D9FF82C0DAFFDF6E20EE01F03B
:100EF8008151D9268251DA22270E786F100E776F2A
:100F08007FC075F080C076F0DFEC09F075C07BF02B
:100F180076C07CF0030E00017E6FE80E7D6F3CEC1E
:100F280009F000017B51300FDF6E20EE02F0815195
:100F3800D9268251DA22030E786FE80E776F7FC0C8
:100F480075F080C076F0DFEC09F075C07BF076C0F4
:100F58007CF0000E00017E6F640E7D6F3CEC09F0A2
:100F680000017B51300FDF6E20EE03F08151D9264E
:100F78008251DA22000E786F640E776F7FC075F0A9
:100F880080C076F0DFEC09F075C07BF076C07CF0AD
:100F9800000E00017E6F0A0E7D6F3CEC09F0000127
:100FA8007B51300FDF6E20EE04F08151D92682513B
:100FB800DA227FC075F080C076F0000E786F0A0ED6
:100FC800776FDFEC09F000017551300FDF6E20EE0E
:100FD80005F08151D9268251DA22000EDF6E120007
:100FE800FACF0AF0FBCF0BF0E9CF0CF0EACF0DF007
:100FF800E1CF0EF0E2CF0FF0D9CF10F0DACF11F039
:10100800F3CF12F0F4CF13F0F6CF14F0F7CF15F0BA
:10101800F8CF16F0F5CF17F03DC018F03EC019F024
:101028003FC01AF040C01BF03C063C50D8A416D074
:10103800CF50086ECE50016E08C002F0000E046E4C
:10104800070E036E8FEC09F001C08DF002C08EF020
:101058007D0E3C6E000ECF6E000ECE6EF294000E2A
:10106800D76E060ED66E1BC040F01AC03FF019C0EE
:101078003EF018C03DF017C0F5FF16C0F8FF15C0C8
:10108800F7FF14C0F6FF13C0F4FF12C0F3FF11C03E
:10109800DAFF10C0D9FF0FC0E2FF0EC0E1FF0DC09C
:1010A800EAFF0CC0E9FF0BC0FBFF0AC0FAFF3D9244
:1010B80011001C6E22D03F0E1200060E12005B0EAD
:1010C80012004F0E1200660E12006D0E12007D0EF9
:1010D8001200070E12007F0E12006F0E1200770E1C
:1010E80012007C0E1200580E12005E0E1200790ECD
:1010F8001200710E1200000E12001C50000AD8B423
:10110800DAD7010AD8B4D9D7030AD8B4D8D7010A8C
:10111800D8B4D7D7070AD8B4D6D7010AD8B4D5D700
:10112800030AD8B4D4D7010AD8B4D3D70F0AD8B48D
:10113800D2D7010AD8B4D1D7030AD8B4D0D7010A74
:10114800D8B4CFD7070AD8B4CED7010AD8B4CDD7E8
:10115800030AD8B4CCD7010AD8B4CBD7CCD7849259
:101168008494000E0001766F140E756F01EC0AF07E
:101178008482380E37EC0AF0000E0001766F050EF7
:10118800756F01EC0AF0380E37EC0AF0000E00011A
:10119800766F010E756F01EC0AF0380E37EC0AF025
:1011A800080E37EC0AF00F0E37EC0AF0010E37EC98
:1011B8000AF0380E37EC0AF0800E37EC0AF012000D
:1011C800206E07D0010E03D0090E01D0110EC26E99
:1011D8000AD02050000AD8B4F5D7010AD8B4F4D7F9
:1011E800030AD8B4F3D7C282C2B2FED7C3CF1CF069
:1011F800060E1D6ED8901C321D2EFCD71C50C4CF75
:101208001EF01F6AD8901E361F36D8901E361F361D
:101218001E100001756F1F50766F1200000E236EAE
:1012280013D02350010D77C021F078C022F0F3507D
:101238002126F450222221C0F6FF22C0F7FF080021
:10124800F55020EC0AF0232A2350010D77C021F035
:1012580078C022F0F3502126F450222221C0F6FF54
:1012680022C0F7FF0800F5500009D8B41200D9D7FA
:10127800000E256E000E246E00017D517E11D8B43B
:101288001CD0010E236E04D0D8907D377E37232AD8
:101298007EAFFAD7D890243625367D517B5D7E51B6
:1012A8007C59D8A005D07D517B5F7E517C5B248022
:1012B800D8907E337D33232EEDD724C07BF025C014
:1012C8007CF01200000E216E000E206EABB402D02E
:1012D800ABA20ED0AB98AB880BD0000E0001766F96
:1012E800140E756F01EC0AF0140E2026000E212250
:1012F80000017751205C78512158D8A004D077514B
:101308007811D8A402D09EAAE8D79EAA02D0AE50DF
:101318001200A50E1200000E066E000E056E035098
:101328000410D8B41CD0010E076E04D0D890033630
:101338000436072A04AEFAD7D89005360636035085
:10134800015C04500258D8A005D00350015E045037
:10135800025A0580D89004320332072EEDD705C013
:1013680001F006C002F01200000E206E000E1F6E83
:1013780011D01F50000175251D6E205076211E6E5C
:101388001DC0F6FF1EC0F7FF0800F55092EC0AF0EA
:101398001F4A202A1F50000175251D6E20507621F6
:1013A8001E6E1DC0F6FF1EC0F7FF0800F5500009AD
:1013B800D8B41200DED7000177517811D8B418D00C
:1013C800010E1C6E04D0D890773778371C2A78AF76
:1013D800FAD77751755D78517659D8A004D07751EE
:1013E800755F7851765BD890783377331C2EF1D7B8
:1013F80075C075F076C076F01200000E1F6E000EF4
:101408001D6E000E1C6E10D0280E1E6E090E1F6F6A
:1014180000F000F01F2F0DEF0AF000F01E2F0AEF6A
:101428000AF000F01C4A1D2A000175511C5C765117
:101438001D58D8B01200E8D7206E848220509EEC48
:101448000AF08484000E0001766F030E756F01ECBC
:101458000AF08492000E0001766F030E756F01EC9E
:101468000AF084821200206E848220509EEC0AF0DA
:101478008494000E0001766F030E756F01EC0AF07C
:101488008492000E0001766F030E756F01EC0AF06E
:1014980084821200000177517903F3CF21F0F4CF51
:1014A80022F077517A03F350222678517903F350CA
:1014B800222621C077F022C078F0120000018E6B3E
:1014C8008D6B00EE28F0150EEE6AE806FDE13D9002
:1014D8003D92000EF86E000166EF00F01C6E1CC015
:1014E800A9FF75C0A8FFA684550EA76EAA0EA76E01
:1014F800A682A6B2FED7A6941200330EAF6EAC84B5
:10150800AC9CAC8AAC98AB8EAB9CAB881200010E3D
:10151800C26E0B0EC16E010EC06E12001C6E1CC096
:10152800ADFFACB21200FDD71C6E1CC0A9FFA6808F
:0C153800A85012001C6E1CC083FF1200A3
:107DCC0000010204000D0A2050696373696D6C6137
:107DDC00620D0A2054657374652053657269616C79
:107DEC002054580D0A004465732E204449532A2010
:107DFC0065204C454431002028733D524230206EA2
:107E0C003D52423129203F004465736C69677565AA
:107E1C0020525443204449500054657374652045E6
:107E2C004550524F4D20494E540020546573746593
:107E3C002041444320285031290020546573746537
:107E4C00204144432028503229004C696775652035
:107E5C00746F646F732044495000546573746520CB
:107E6C0053657269616C20525800546573746520B7
:107E7C0053657269616C20545800205242302020A6
:107E8C0020202020202020200020524231202020A1
:107E9C002020202020202000205242322020202090
:107EAC00202020202020002052423320202020207F
:107EBC00202020202000205242342020202020206E
:107ECC00202020200020524135202020202020205E
:107EDC00202020002052423520202020202020204D
:107EEC002020002020205465737465204151554595
:107EFC0043004465736C2E2052454C31204449504C
:107F0C00002020205465737465205245534652005E
:107F1C00205072657373696F6E6520525354002044
:107F2C00202054657374652037205365670020202A
:107F3C005465737465204368617665730020202056
:107F4C0054657374652054454D50005465737465C5
:107F5C00205465636C61646F002050696373696DB4
:107F6C004C61620D0A0054657374652052454C4592
:107F7C0020310054657374652052454C4520320005
:107F8C002020205465737465204C434400204469C0
:107F9C0067697465210D0A0050726573732E205247
:107FAC004231002020202020204552524F005465A1
:107FBC00737465204C454473000D0A2046494D21CD
:107FCC000D0A00202020202020204F4B00202020B4
:107FDC00202020204F6B0020202020202046696D7F
:107FEC00003936303020384E310020202042656573
:037FFC0070000012
:020000040020DA
:08000000FFFFFFFFFFFFFFFF00
:020000040030CA
:0E0000000008593CFFD180FF0FC00FE00F40F9
:0200000400F00A
:1000000000112233445566778899AABBCCDDEEFFF8
:00000001FF
