:1000000015EF02F00000000000EF00F0000000001B
:0A0010000000000000000000F3D71C
:0C001C00100E0D6E0D2EFED7000012001D
:10002800080E0C6E230E0D6E0D2EFED70C2EFCD76F
:020038001200B4
:04003A0000001200B0
:10003E00C7B409D01F0EC514016E0150000A03E1AA
:0A004E00010E006E1200006A12009D
:100058009E96C5869EB601D0FDD7C9CF01F0010195
:100068002451000A02E1C58A01D0C59A9E96C58826
:0C0078009EB601D0FDD701C000F01200C0
:100084009E9624C1C9FFC7A401D0FDD79EB601D056
:10009400FDD7C5BC02D0006A1200C584020E006EF2
:0200A400120048
:1000A600010124BF02D0839E01D0838E24BD02D0DD
:1000B600839C01D0838C24BB02D0839A01D0838A8F
:1000C60024B902D0839801D0838814B102D08480E9
:1000D60001D084908482AEDF849224B702D0839EBE
:1000E60001D0838E24B502D0839C01D0838C24B3A7
:1000F60002D0839A01D0838A24B102D0839801D09A
:10010600838814B102D0848001D08490848292DFE7
:0E011600849214A102D085DF01D07DDF12009B
:04012400C58412007C
:100128000101246B256B2551120802E124518E0828
:1001380008E381DF005201E004D00101244B252BA4
:10014800F2D70101120E255D02E18F0E245D03E353
:100158007B0E006E1200C580C5A001D0FDD7006AD5
:02016800120083
:0E016A00010114911FC124F199DF14811200CC
:10017800000E01011F15036E2051FF0B046E04C011
:1001880000F0016A00C022F1FF0E1F15236FC8DFBF
:10019800A00E246F73DF22C124F170DF23C124F184
:1001A8006DDFBEDFA10E246F69DF010E0101246F30
:0E01B8004FDF00C021F1B2DF21C100F01200C4
:1001C600949894968B988B9694889486C79EC79C91
:0601D600380EC66E120097
:1001DC000101196B19511725E96E000E1821EA6EF1
:1001EC00EE520BE019511725E96E000E1821EA6E3C
:0C01FC00EECF1FF1B4DF192BEDD712007D
:100208000900F5CFE6FF0006FBE10106F9E112005F
:10021800969296909598959A959C959E849284909E
:10022800839E839C839A8398FBDEFADEF9DE838AB9
:1002380083888482FEDE8492F3DE8482FADE8492EE
:10024800EFDE8482F6DE8492EBDE83988482F1DE30
:100258008492E6DE8482EDDE8492839A838E8482A1
:10026800E8DE8492DDDE839E83888482E2DE8492E7
:1002780083988482DEDE8492D3DE8482DADE8492FE
:1002880083888482D6DE8492CBDE83988482D1DE12
:100298008492838E838C838A83888482CADE849244
:0802A800BFDE01011481120008
:1002B000A6A202D00000FCD7A69C17C1A9FF18C1B6
:1002C000A8FFA69EA684F2CF00F0F29E550EA76E60
:1002D000AA0EA76EA68200BE02D0F29E01D0F28EB8
:0402E000A6941200CE
:1002E40001011E6B19C11AF1000E1B6F000E1715C8
:1002F400036E1851FF0B046E04C000F0016A00C0C5
:100304001CF1FF0E17151D6F0DDFA00E246FB8DE54
:100314001CC124F1B5DE1DC124F1B2DE1AC124F1E1
:10032400AFDEFEDE01011E2B17C11FF118C120F143
:1003340021DF000E01011B1902E100501A1904E02B
:0A0344000A0E1E5D01E2E0D7120070
:10034E00A69C17C1A9FFA69EA680A8CF00F01200FA
:10035E0032D03F0E006E1200060E006E12005B0EC3
:10036E00006E12004F0E006E1200660E006E12002E
:10037E006D0E006E12007D0E006E1200070E006EE6
:10038E0012007F0E006E12006F0E006E1200770EBE
:10039E00006E12007C0E006E1200580E006E1200DF
:1003AE005E0E006E1200790E006E1200710E006E5F
:1003BE001200006A120001011751000ACAE017511B
:1003CE00010ACAE01751020ACAE01751030ACAE02D
:1003DE001751040ACAE01751050ACAE01751060A56
:1003EE00CAE01751070ACAE01751080ACAE01751A6
:1003FE00090ACAE017510A0ACAE017510B0ACAE0E5
:10040E0017510C0ACAE017510D0ACAE017510E0A0D
:0C041E00CAE017510F0ACAE0CCD7120048
:10042A00E1EC04F0040EC16EFF0E926E936A010EA7
:10043A00946E956AFC0E966E836AE9DE640EC86E47
:10044A00BDDE010E246F2ADE800E246F27DE6D0EBC
:10045A00176F000E186FBDDE400E246F1FDE110EDF
:10046A001F6F7EDE190E1F6F7BDE150E1F6F78DE83
:10047A00130E1F6F75DE130E1F6F72DE150E1F6FC0
:10048A006FDE190E1F6F6CDE110E1F6F69DE0E0E06
:10049A001F6F66DE110E1F6F63DE0E0E1F6F60DEAA
:1004AA00050E1F6F5DDE0E0E1F6F5ADE140E1F6FD4
:1004BA0057DE0A0E1F6F54DE110E1F6F51DEC00E7B
:1004CA00246FECDD156B100E155D10E2010E15158B
:1004DA001F6F46DE820E0C6EDD0E0D6E0D2EFED7E0
:1004EA000C2EFCD700000000152BEDD7010E246F4F
:1004FA00D5DD800E246FD2DD600E176F000E186FE7
:10050A0068DE200E156F800E155D17E20F0E1515A9
:10051A00016E0150000A03E1C00E246FBFDD15C150
:10052A001FF11EDE410E0C6EEE0E0D6E0D2EFED765
:10053A000C2EFCD70000152BE6D7820E0C6EDD0EB2
:10054A000D6E0D2EFED70C2EFCD700000000010EFA
:10055A00246FA4DD800E246FA1DD7A0E176F000EC2
:10056A00186F37DEC00E246F99DD960E176F000ED6
:10057A00186F2FDE030E0B6E8A0E0C6E550E0D6E63
:10058A000D2EFED70C2EFCD70B2EFAD7000000003A
:10059A00010E246F83DD800E246F80DD870E176FB6
:1005AA00000E186F16DE818E156B040E155D26E29D
:1005BA0015C101F0100E006E015004E000360090E3
:1005CA00FF0FFBD700C081FF166B100E165D14E2F9
:1005DA0016C117F1BFDE00C083FF020E0B6E040EB8
:1005EA000C6EBA0E0D6E0D2EFED70C2EFCD70B2EEE
:1005FA00FAD70000162BE9D7152BD7D7836A010E35
:10060A00246F4CDD830E246F49DD240E176F000E14
:10061A00186FDFDD166B030E165D19E2010E156FFA
:10062A00100E155D12E215C181FF020E0B6E040E4B
:10063A000C6EBA0E0D6E0D2EFED70C2EFCD70B2E9D
:10064A00FAD7000015371591EBD7162BE4D7816A34
:10065A00156B040E155D11E20F0E811A020E0B6E58
:10066A00040E0C6EBA0E0D6E0D2EFED70C2EFCD794
:10067A000B2EFAD70000152BECD7010E246F0EDDD6
:10068A00800E246F0BDD150E176F000E186FA1DD9B
:10069A00166B0F0E1615016E01500F0A18E00F0E99
:1006AA00936E81A0168181A2168381A4168581A6E4
:1006BA001687936A16C181FF0D0E0C6EFB0E0D6E26
:1006CA000D2EFED70C2EFCD700000000E2D7816A5F
:1006DA00010E246FE3DC800E246FE0DC2F0E176F0F
:1006EA00000E186F76DDC00E246FD8DC510E176F1E
:1006FA00000E186F6EDD030E936E81A003D081A2E7
:10070A0001D0FBD781B04AD00A0E176F1BDE00C09A
:10071A0016F100C01FF124DD0A0E176FA50E186F1F
:10072A00C2DD0A0E0101176F5A0E186FBCDD0A0EE0
:10073A000101176F07DE00C015F10A0E176F16C107
:10074A0018F1B1DD010E0101246FA8DC800E246FBF
:10075A00A5DC400E176F000E186F3BDDC00E246F2C
:10076A009DDC15515A0A06E1D90E176F000E186F53
:10077A0030DD05D0CE0E176F000E186F2ADD060E7B
:10078A000B6E130E0C6EAD0E0D6E0D2EFED70C2ECB
:10079A00FCD70B2EFAD70000000003D081B201D09B
:1007AA00FDD7936A816A010E246F78DC800E246F6C
:1007BA0075DCE30E176F000E186F0BDDC00E246F89
:1007CA006DDC050E176F010E186F03DD030E936EB5
:1007DA0081A003D081A201D0FBD781B052D00A0EEA
:1007EA001F6F000E206FC3DC00C016F100C01FF19E
:1007FA00B7DC0A0E176F000E186FA50E196F6DDDA4
:10080A000A0E176F000E186F5A0E196F66DD0A0E60
:10081A001F6F000E206FABDC00C015F10A0E01013C
:10082A00176F000E186F16C119F157DD010E246FEC
:10083A0035DC800E246F32DCF40E176F000E186F51
:10084A00C8DCC00E246F2ADC15515A0A06E1AB0E29
:10085A00176F000E186FBDDC05D0A00E176F000EC3
:10086A00186FB7DC060E0B6E130E0C6EAD0E0D6E06
:10087A000D2EFED70C2EFCD70B2EFAD70000000047
:10088A0003D081B201D0FDD7936A816A010E246F29
:10089A0005DC800E246F02DCB50E176F000E186F90
:1008AA0098DCC00E246F53EC00F0BF0E176F000ED9
:0808BA00186F8FDCFFD7FFD798
:1009C20010EE15F0FF0E006E010E016EC20EF66EF5
:0E09D200080EF76E000EF86E04EC01F0120035
:0F08C20020205465737465204368617665730068
:0B08D1005465737465204C45447300AF
:1008DC00546573746520454550524F4D20494E5414
:0108EC00000B
:1008ED00546573746520454550524F4D20494E5403
:0108FD0000FA
:0F08FE002028733D5331206E3D533229203F0097
:0D090D002020205465737465204C43440085
:0D091A002020205465737465204C43440078
:0D0927002020205465737465204C4344006B
:0F093400202020546573746520372053656700B9
:0A094300202020202020204F6B0010
:0B094D002020202020204552524F00A7
:0A095800202020202020204F4B001B
:0A09620020202020202046696D00AF
:0F096C00205072657373696F6E6520525354008B
:0B097B002020202020204552524F0079
:0A098600202020202020204F4B00ED
:10099000546573746520454550524F4D2045585459
:0109A0000056
:1009A100546573746520454550524F4D2045585448
:0109B1000045
:0F09B2002028733D5331206E3D533229203F00E2
:020000040030CA
:0D000100220D0EFF0180FF0FC00FE00F4029
:00000001FF
