:0400000054EF00F0C9
:0E0008003782FACF1BF0FBCF1CF02AED05F07B
:100018003780D8CF01F0E8CF02F0E0CF03F0FACF75
:1000280004F0FBCF05F0E9CF06F0EACF07F0E1CF07
:1000380008F0E2CF09F0D9CF0AF0DACF0BF0F3CF0E
:100048000CF0F4CF0DF0F6CF0EF0F7CF0FF0F8CF9D
:1000580010F0F5CF11F000F011C0F5FF10C0F8FF57
:100068000FC0F7FF0EC0F6FF0DC0F4FF0CC0F3FF82
:100078000BC0DAFF0AC0D9FF09C0E2FF08C0E1FFE0
:1000880007C0EAFF06C0E9FF05C0FBFF04C0FAFF8E
:1000980003C0E0FF02C0E8FF01C0D8FF379010009E
:1000A8009BEF07F09268000E936E010E946E000E9F
:1000B800956E000E966E14EC06F0A9EC07F0B3EC02
:1000C80007F00F0EC16E070EB46E929A808A010E69
:1000D80064EC07F0800E64EC07F0A00E2F6E7F0E24
:1000E800306E99EC06F0400E64EC07F0110E4FEC00
:1000F80007F0190E4FEC07F0150E4FEC07F0130E32
:100108004FEC07F0130E4FEC07F0150E4FEC07F00D
:10011800190E4FEC07F0110E4FEC07F00E0E4FECD6
:1001280007F0110E4FEC07F00E0E4FEC07F0050E1E
:100138004FEC07F00E0E4FEC07F0140E4FEC07F0E3
:100148000A0E4FEC07F0110E4FEC07F0C00E64ECEE
:1001580007F0000E0001A56F0F0E0001A56501D084
:100168000ED00001A551010B4FEC07F0000E2A6ECE
:10017800640E296E34EC07F00001A52BEDD7809AA8
:10018800010E64EC07F0800E64EC07F0A00E2F6EF1
:100198007F0E306E99EC06F0200E0001A56F7F0EE1
:1001A8000001A56501D017D0A5C09AF00F0E000177
:1001B8009A17D8A403D0C00E64EC07F00001A5512B
:1001C8004FEC07F0000E2A6E320E296E34EC07F061
:1001D8000001A52BE4D7000E2A6E640E296E34ECBC
:1001E80007F0010E64EC07F0800E64EC07F0A00E37
:1001F8002F6E7F0E306E99EC06F0C00E64EC07F09F
:10020800E20E2F6E7F0E306E99EC06F0010E2A6E0C
:10021800F40E296E34EC07F0010E64EC07F0800E42
:1002280064EC07F0590E2F6E7F0E306E99EC06F0D5
:10023800818E000E0001A56F030E0001A56501D097
:100248002AD0A5C09AF0100E00019B6F00019A2BCE
:1002580003D00001D8909B3700019A2FFAD70001EC
:100268009B51816E000E0001A46F0F0E0001A46562
:1002780001D00ED00001A45182EC05F0836E000E6F
:100288002A6EC80E296E34EC07F00001A42BEDD7B6
:100298000001A52BD1D7000E836E010E64EC07F088
:1002A800830E64EC07F0C30E2F6E7F0E306E99EC50
:1002B80006F0000E0001A46F020E0001A46501D033
:1002C80019D0010E0001A56F0F0E0001A56501D020
:1002D8000ED0A5C081FF000E2A6EC80E296E34EC20
:1002E80007F00001A551020DF3CFA5F0EDD70001ED
:1002F800A42BE2D7000E816E000E0001A56F030E3D
:100308000001A56501D00BD00F0E811A000E2A6ED0
:10031800C80E296E34EC07F00001A52BF0D7010EAA
:1003280064EC07F0800E64EC07F0680E2F6E7F0E09
:10033800306E99EC06F0000E0001A46F1CD00F0E71
:10034800936E81B002D00001A48181B202D0000175
:10035800A48381B402D00001A48581B602D0000133
:10036800A487000E936EA4C081FF000E2A6E0A0EA9
:10037800296E34EC07F00001A4510F0B0F0AD8A422
:10038800DED7000E816E010E64EC07F0800E64EC7F
:1003980007F0DC0E2F6E7E0E306E99EC06F0C00E64
:1003A80064EC07F01D0E2F6E7F0E306E99EC06F090
:1003B800030E936E81B081A201D0FCD781B045D0E5
:1003C8000A0EC0EC07F00001A46F0001A4514FEC25
:1003D80007F0A50E296E0A0E8CEC07F05A0E296E4E
:1003E8000A0E8CEC07F00A0EC0EC07F00001A56FAE
:1003F800A4C029F00A0E8CEC07F0010E64EC07F09B
:10040800800E64EC07F0DC0E2F6E7E0E306E99ECD9
:1004180006F0C00E64EC07F05A0E0001A519D8A426
:1004280007D0D80E2F6E7F0E306E99EC06F006D0EE
:10043800B80E2F6E7F0E306E99EC06F0030E2A6E02
:10044800E80E296E34EC07F002D081A2FED7000E28
:10045800936E000E816E000E936E000E816E010E7B
:1004680064EC07F0800E64EC07F0770E2F6E7F0EB9
:10047800306E99EC06F0C00E64EC07F01D0E2F6E7E
:100488007F0E306E99EC06F0030E936E81B081A258
:1004980001D0FCD781B07CD0948E949C010E64EC82
:1004A80007F0800E64EC07F00D0E2F6E7F0E306E95
:1004B80099EC06F0C40E64EC07F0F60E2F6E7F0E72
:1004C800306E99EC06F0BB0E2A6E7E0E2B6E6FEC2A
:1004D80006F0000E0001A56F030E0001A56501D00E
:1004E8000ED00001A551300FBAEC07F0930E2A6E1A
:1004F8007F0E2B6E6FEC06F00001A52BEDD7030ED7
:100508002A6EE80E296E34EC07F0010E64EC07F051
:10051800800E64EC07F0FD0E2F6E7E0E306E99ECA7
:1005280006F0AD0E2A6E7F0E2B6E6FEC06F0000EF5
:100538000001A56F1F0E0001A56501D023D0A5C03D
:100548009AF00F0E00019A17D8A409D0C00E64ECD7
:1005580007F0D50E2A6E7F0E2B6E6FEC06F0070E95
:100568002F6ED00E2E6EECEC06F00001A46F000189
:10057800A4514FEC07F00001A451BAEC07F00001B8
:10058800A52BD8D7000E2A6E640E296E34EC07F01E
:100598000B0EC16E010E64EC07F0800E64EC07F0E0
:1005A800ED0E2F6E7E0E306E99EC06F0000E0001F7
:1005B800A56FC70E0001A56501D042D0010E42EC1F
:1005C80006F029C030F02AC031F0000E336E0A0E52
:1005D800326E79EC07F030C08FF031C090F0000E29
:1005E8000001926FCC0E916FD8EC05F000018F518D
:1005F8000001A46FC60E64EC07F0A4C096F00001D9
:10060800976B9E0E0001986F000E0001996F99EC90
:1006180004F00001A1514FEC07F02C0E4FEC07F04D
:100628000001A2514FEC07F0560E4FEC07F0000EF8
:100638002A6E0A0E296E34EC07F00001A52BB9D7F3
:10064800010E64EC07F0800E64EC07F0850E2F6E47
:100658007F0E306E99EC06F0000E0001A56F630E58
:100668000001A56501D048D0000E42EC06F029C073
:1006780030F02AC031F0000E336E0A0E326E79EC7B
:1006880007F0D89031323032D89031323032D890A9
:10069800313230326A0E302400019C6FFF0E312057
:1006A80000019D6FC50E64EC07F09CC096F09DC0DC
:1006B80097F09E0E0001986F000E0001996F99EC5B
:1006C80004F00001A0514FEC07F00001A1514FECDC
:1006D80007F02C0E4FEC07F00001A2514FEC07F089
:1006E800430E4FEC07F0000E2A6E0A0E296E34EC0A
:1006F80007F00001A52BB3D7010E64EC07F0800EBC
:1007080064EC07F02C0E2F6E7F0E306E99EC06F01D
:100718008284000E0001A56F630E0001A56501D05B
:1007280048D0000E42EC06F029C030F02AC031F063
:10073800000E336E0A0E326E79EC07F0D890313223
:100748003032D89031323032D890313230326A0E6D
:10075800302400019C6FFF0E312000019D6FC50EF3
:1007680064EC07F09CC096F09DC097F09E0E0001C7
:10077800986F000E0001996F99EC04F00001A051E8
:100788004FEC07F00001A1514FEC07F02C0E4FEC95
:1007980007F00001A2514FEC07F0430E4FEC07F0B1
:1007A800000E2A6E0A0E296E34EC07F00001A52B04
:1007B800B3D78294010E64EC07F0800E64EC07F066
:1007C8003B0E2F6E7F0E306E99EC06F0D59AD596BB
:1007D800D58CD590D592D584D58EF28ACD82CD9AF6
:1007E800CD98F294000ED76E060ED66E7D0E366E3C
:1007F800F28E000ECF6E000ECE6ECD808282000E7D
:100808000001A56F950E0001A56501D070D0000EFE
:1008180042EC06F029C030F02AC031F0000E336EE9
:100828000A0E326E79EC07F0D89031323032D89017
:1008380031323032D890313230326A0E30240001F1
:100848009C6FFF0E312000019D6FC20E64EC07F013
:100858009CC096F09DC097F09E0E0001986F000E08
:100868000001996F99EC04F00001A0514FEC07F0DA
:100878000001A1514FEC07F02C0E4FEC07F00001DE
:10088800A2514FEC07F0430E4FEC07F0C80E64EC92
:1008980007F08DC096F08EC097F09E0E0001986FFD
:1008A800000E0001996F99EC04F000019F514FEC84
:1008B80007F00001A0514FEC07F00001A1514FECE7
:1008C80007F00001A2514FEC07F0520E4FEC07F071
:1008D800500E4FEC07F0530E4FEC07F0000E2A6E47
:1008E8000A0E296E34EC07F00001A52B8BD7F29E77
:1008F8008292010E64EC07F0800E64EC07F0EC0EB7
:100908002F6E7F0E306E99EC06F0C00E64EC07F087
:100918004A0E2F6E7F0E306E99EC06F0CE0E2A6EC0
:100928007F0E2B6E6FEC06F0FFD796C08FF097C046
:1009380090F0270E0001926F100E916FD8EC05F021
:1009480000018F51300F98C0D9FF99C0DAFFDF6ED0
:10095800000120EE01F09851D9269951DA22270E8C
:100968002C6E100E2B6E96C029F097C02AF013EC4F
:1009780007F029C08FF02AC090F0030E0001926F93
:10098800E80E916FD8EC05F000018F51300FDF6E43
:10099800000120EE02F09851D9269951DA22030E6F
:1009A8002C6EE80E2B6E96C029F097C02AF013EC37
:1009B80007F029C08FF02AC090F0000E0001926F56
:1009C800640E916FD8EC05F000018F51300FDF6E87
:1009D800000120EE03F09851D9269951DA22000E31
:1009E8002C6E640E2B6E96C029F097C02AF013EC7B
:1009F80007F029C08FF02AC090F0000E0001926F16
:100A08000A0E916FD8EC05F000018F51300FDF6EA0
:100A1800000120EE04F09851D9269951DA2296C0A7
:100A280029F097C02AF0000E2C6E0A0E2B6E13ECDC
:100A380007F02950300FDF6E000120EE05F09851C5
:100A4800D9269951DA22000EDF6E12000600E9CF8E
:100A58001DF0EACF1EF0E1CF1FF0E2CF20F0D9CF92
:100A680021F0DACF22F0F3CF23F0F4CF24F0F6CF41
:100A780025F0F7CF26F0F8CF27F0F5CF28F0360687
:100A88003650D8A418D0CD90CF50196ECE50126ED3
:100A980019C013F0000E156E070E146EC3EC06F0A5
:100AA80012C08DF013C08EF07D0E366E000ECF6E24
:100AB800000ECE6ECD80F294000ED76E060ED66E66
:100AC80028C0F5FF27C0F8FF26C0F7FF25C0F6FFAE
:100AD80024C0F4FF23C0F3FF22C0DAFF21C0D9FFEE
:100AE80020C0E2FF1FC0E1FF1EC0EAFF1DC0E9FFF2
:100AF8001CC0FBFF1BC0FAFF37921100296E22D0E1
:100B08003F0E1200060E12005B0E12004F0E12006E
:100B1800660E12006D0E12007D0E1200070E1200F6
:100B28007F0E12006F0E1200770E12007C0E12005C
:100B3800580E12005E0E1200790E1200710E12008D
:100B4800000E12002950000AD8B4DAD7010AD8B426
:100B5800D9D7030AD8B4D8D7010AD8B4D7D7070A3F
:100B6800D8B4D6D7010AD8B4D5D7030AD8B4D4D7BD
:100B7800010AD8B4D3D70F0AD8B4D2D7010AD8B447
:100B8800D1D7030AD8B4D0D7010AD8B4CFD7070A27
:100B9800D8B4CED7010AD8B4CDD7030AD8B4CCD7A5
:100BA800010AD8B4CBD7CCD7000E0001946F000E41
:100BB800936F0001915100019211D8B42CD0010E0D
:100BC8000001956F06D00001D89091379237000147
:100BD800952B000192AFF7D70001D890933794373F
:100BE8000001915100018F5D00019251000190595F
:100BF800D8A00AD00001915100018F5F00019251E5
:100C08000001905B000193810001D89092339133E9
:100C18000001952FE1D793C08FF094C090F0120097
:100C280084928490000E2A6E140E296E34EC07F01C
:100C38008482380E64EC07F0000E2A6E050E296EC9
:100C480034EC07F0380E64EC07F0000E2A6E010E43
:100C5800296E34EC07F0380E64EC07F0080E64ECEB
:100C680007F00F0E64EC07F0010E64EC07F0380E85
:100C780064EC07F0800E64EC07F012002F6E07D0CA
:100C8800010E03D0050E01D0090EC26E0AD02F50F6
:100C9800000AD8B4F5D7010AD8B4F4D7030AD8B4EF
:100CA800F3D7C282C2B2FED7C3CF2BF0060E2C6E8A
:100CB800D8902B322C2EFCD72B50C4CF2DF02E6A77
:100CC800D8902D362E36D8902D362E362D10296EEA
:100CD8002E502A6E1200000E2E6E13D02E50010DCB
:100CE8002AC02CF02BC02DF0F3502C26F4502D22C6
:100CF8002CC0F6FF2DC0F7FF0800F550BAEC07F03E
:100D08002E2A2E50010D2AC02CF02BC02DF0F350A6
:100D18002C26F4502D222CC0F6FF2DC0F7FF08001A
:100D2800F5500009D8B41200D9D7000E336E13D08D
:100D38003350010D2FC031F030C032F0F35031265E
:100D4800F450322231C0F6FF32C0F7FF0800F550E8
:100D58004FEC07F0332A3350010D2FC031F030C06B
:100D680032F0F3503126F450322231C0F6FF32C04F
:100D7800F7FF0800F5500009D8B41200D9D7000EC3
:100D8800176E000E166E14501510D8B41CD0010E34
:100D9800186E04D0D89014361536182A15AEFAD71E
:100DA800D890163617361450125C15501358D8A020
:100DB80005D01450125E1550135A1680D89015326B
:100DC8001432182EEDD716C012F017C013F0120007
:100DD800000E316E000E306EABB402D0ABA20DD057
:100DE800AB98AB880AD0000E2A6E140E296E34EC2C
:100DF80007F0140E3026000E31222E50305C2F5092
:100E08003158D8A004D02E502F10D8A402D09EAAB2
:100E1800EAD79EAA02D0AE501200A50E12002B509F
:100E28002C10D8B418D0010E2D6E04D0D8902B36C3
:100E38002C362D2A2CAEFAD72B50295C2C502A5848
:100E4800D8A004D02B50295E2C502A5AD8902C3286
:100E58002B322D2EF1D729C029F02AC02AF01200F2
:100E6800000E2C6E000E2B6E0FD0000E2D6EC70ECE
:100E78002D6401D007D000F000F000F000F000F081
:100E88002D2AF5D72B4A2C2A29502B5C2A502C586E
:100E9800D8B01200EAD72E6E84822E50C6EC07F026
:100EA8008480000E2A6E030E296E34EC07F08492BB
:100EB800000E2A6E030E296E34EC07F084821200AD
:100EC8002E6E84822E50C6EC07F08490000E2A6E97
:100ED800030E296E34EC07F08492000E2A6E030E7E
:100EE800296E34EC07F08482120030503202F3CFBE
:100EF80034F0F4CF35F030503302F350352631500A
:100F08003202F350352634C030F035C031F01200CB
:100F18002A6E2AC0A9FF29C0A8FFA684550EA76E6D
:100F2800AA0EA76EA682A6B2FED7A694120000EE5D
:100F380060F02F0EEE6AE806FDE1366A37903792C8
:100F4800000EF86E000156EF00F0670EAF6EAC9C15
:100F5800AC8AAC98AC84AB8EAB9CAB881200010E0B
:100F6800C26E0B0EC16E010EC06E1200296E29C032
:100F7800ADFFACB21200FDD7296E29C0A9FFA6802B
:0C0F8800A8501200296E29C083FF12003F
:107EBA00000D0A2050696373696D6C61620D0A20B6
:107ECA0054657374652053657269616C2054580D4A
:107EDA000A00546573746520454550524F4D204938
:107EEA004E54002054657374652041444320285041
:107EFA0032290054657374652053657269616C2078
:107F0A0052580054657374652053657269616C2018
:107F1A005458002028733D5331206E3D5332292096
:107F2A003F00202020546573746520415155454314
:107F3A000020202054657374652052455346520030
:107F4A00205072657373696F6E6520525354002016
:107F5A0020205465737465203720536567002020FC
:107F6A00546573746520436861766573005465735C
:107F7A0074652053657269616C3F00202020546546
:107F8A007374652054454D50002050696373696DC0
:107F9A004C61620D0A002020205465737465204CE0
:107FAA0043440020446967697465210D0A00202052
:107FBA00202020204552524F005465737465204C8E
:107FCA00454473000D0A2046494D210D0A00202020
:107FDA0020202020204F4B00202020202020204F2E
:107FEA006B0020202020202046696D003936303071
:067FFA0020384E310000AA
:020000040020DA
:08000000FFFFFFFFFFFFFFFF00
:020000040030CA
:0E000000290C181EFF8180FF0FC00FE00F407B
:00000001FF
