:020000040000FA
:020000007C2959
:08000800F100030EF0000408F2
:10001000F2000A08F3008A018301A60A26080739BC
:10002000820719281C281E282228252827282A2844
:100030002A2881309F002A281F152A281E08A70079
:10004000EA262A2889309F002A281F152A281E08F8
:10005000A8002A280B112C2873088A007208840033
:10006000700E8300F10E710E09008207BD34B234A8
:10007000A9349F3496348D3485347E34773470348B
:100080006A34643482071634173418341A341C3432
:100090001D341F3421342334253427342934820776
:1000A000083404340234013482070034203410341C
:1000B0000834043402340134A500FA306820FA30E0
:1000C0006820FA306820FA306820A50B5D28080007
:1000D000A400FA30A3006400A30B6B28A40B6B28C8
:1000E00008004630A4008516A30B74288512A30BC4
:1000F0007728A40B73280800880000008914802842
:1001000089100130682008008800000089148828C0
:1001100089100F30A4008516A30B8C288512A30B21
:100120008F28A40B8B28963068200800990083162E
:10013000981C982883120800AE00BC01BD01BE01C6
:10014000AE0803190800BC0A3C080A3A031DAA2895
:10015000BC01BD0A3D080A3A031DB028BD01BE0A14
:10016000AE0BA32808001030B7003208B6003108E3
:10017000B500B201B101B401B3010310B50DB60D64
:10018000B30DB40D30083402031DC8282F08330204
:10019000031CD1282F08B302031CB4033008B40297
:1001A0000314B10DB20DB70BBD280800B801B90199
:1001B0003B0803103A18B807B80CB90CBA18B807BE
:1001C000B80CB90C3A19B807B80CB90CBA19B80779
:1001D000B80CB90C3A1AB807B80CB90CBA1AB80767
:1001E000B80CB90C3A1BB807B80CB90CBA1BB80755
:1001F000B80CB90C080087118316871183122821C7
:10020000A0303D2162214F083D2162212821A130EB
:100210003D21622151216B2132215008831687151F
:1002200083120800D10087118316871183122821B9
:10023000A0303D2162214F083D21622151083D211E
:10024000622132210A306820831687158312080044
:100250000716831607128312871576210712762157
:10026000871108000712831607128312762187155B
:1002700076210716762187110800D0000830D200B9
:10028000831607128312D00D031C071203180716DA
:10029000762187157621871176210712D20B432903
:1002A00008000830D20083160716831287157621BE
:1002B0000310071A0314D00D762187117621D20B73
:1002C0005629080083160716831287117621871591
:1002D00076218711080083160712831207167621EC
:1002E000871576218711762107120800772978294A
:1002F00079297A297B29080083161F308500003070
:100300008600F93087000030880004308900DF3033
:10031000810020308B0004309F00FF309200243099
:100320009800CF30990083129030980007309200E7
:10033000063090000030970000309D0095019B0131
:1003400085018601870188018901031AA6297F306A
:1003500084008001840304081F3A031DA9290910A1
:1003600038307C200430682038307C200130682010
:1003700006307C20013068200C307C200130682061
:1003800001307C2002306820640009100E307C208F
:10039000091402306820091420307C2020307C2091
:1003A0004D308420783068206F3084207330842072
:1003B0006130842069308420633084206F30842051
:1003C00020307C20C8306820453084206E30842066
:1003D000673084202E3084200910C1307C2009141D
:1003E000C830682050308420503068206C30842021
:1003F0006130842063308420323068206130842072
:1004000020307C20C830682020307C204D30842073
:1004100064306820633084204C3084206130842034
:1004200062308420323084202030842009100C3047
:100430007C200914FA30682071207120712071200D
:1004400004305C20091001307C200914023068203F
:1004500054307C2065307C2073307C2074307C20CC
:1004600065307C2020307C2064307C206F307C2004
:1004700020307C2044307C2069307C2073307C200C
:1004800070307C206C307C2061307C2079307C2086
:100490000910C1307C20091464307C2065307C2038
:1004A00020307C2037307C2020307C2053307C2052
:1004B00065307C2067307C206D307C2065307C206E
:1004C0006E307C2074307C206F307C2073307C2038
:1004D00071200230AD000130880006128617C83046
:1004E00068200310880D031C6F2A013088008613D2
:1004F0000617C83068200310880D031C792A0130C4
:10050000880006138616C83068200310880D031C67
:10051000832A0130880086120616C830682003102E
:10052000880D031C8D2AAD0B6B2A06128801091059
:1005300001307C2009140230682020307C205430A7
:100540007C2065307C2073307C2074307C206530CA
:100550007C2020307C2064307C206F307C20733005
:100560007C2020307C204C307C2065307C20643026
:100570007C2073307C2071200430AD000614FA30EA
:1005800068208614FA3068200615FA30682086152F
:10059000FA3068200610FA3068208610FA30682099
:1005A0000611FA3068208611FA306820AD0BBE2A99
:1005B000091001307C2009140230682054307C205E
:1005C00065307C2073307C2074307C2065307C204A
:1005D00020307C2064307C2061307C2073307C2093
:1005E00020307C2054307C2065307C2063307C209F
:1005F0006C307C2061307C2073307C200910C2304C
:100600007C20091450307C2072307C2065307C20A6
:1006100073307C2073307C2069307C206F307C20EC
:100620006E307C2065307C2020307C2053307C2054
:1006300031307C20712083160F30860083128601B2
:10064000A301A4010B30A5006400A30B2C2BA40B69
:100650002C2BA50B2C2B2E2B0618242B0910CD3060
:100660007C20091432307C2083160E3086008312E1
:1006700086017120A301A4010B30A5006400A30B27
:10068000462BA40B462BA50B462B482B86183E2B3E
:100690000910CD307C20091433307C2083160C30B7
:1006A0008600831286017120A301A4010B30A500EE
:1006B0006400A30B602BA40B602BA50B602B622B9B
:1006C0000619582B0910CD307C20091434307C20B9
:1006D000831608308600831286017120A301A401CD
:1006E0000B30A5006400A30B7A2BA40B7A2BA50B6F
:1006F0007A2B7C2B8619722B83160030860083128E
:100700008601712001305C20091001307C20091421
:100710000230682020307C2054307C2065307C20E2
:1007200073307C2074307C2065307C2020307C202D
:1007300064307C2061307C2020307C2052307C2052
:1007400053307C2032307C2033307C2032307C208F
:100750000910C1307C20091454307C2058307C2092
:100760003A307C2020307C2031307C2032307C209C
:1007700030307C2030307C202C307C2038307C2085
:100780002C307C206E307C202C307C2031307C2042
:1007900071200530AD004D3096206F3096207330BB
:1007A00096206130962069309620633096206F3015
:1007B000962020309620453096206E309620673067
:1007C0009620653096206E309620683096206130F5
:1007D00096207230962069309620613096200D3038
:1007E00096200A309620FA306820FA30682064009B
:1007F000AD0BCB2B091001307C200914023068208E
:1008000020307C2054307C2065307C2073307C206C
:1008100074307C2065307C2020307C2064307C204B
:1008200061307C2020307C2052307C2053307C2072
:1008300032307C2033307C2032307C200910C130B3
:100840007C20091452307C2058307C203A307C20A7
:100850007120A301A4011430A50009100E307C20E2
:100860000914023068200910C530AD007C2009143D
:100870006400A30B402CA40B402CA50B402C4A2C4D
:100880008C1E382C1A087C20AD0ACF302D06031D93
:10089000382C332C09100C307C200914091001303D
:1008A0007C2009140230682054307C2065307C2084
:1008B00073307C2074307C2061307C206E307C2052
:1008C00064307C206F307C2020307C2045307C20C0
:1008D00032307C2050307C2052307C204F307C20C5
:1008E0004D307C20712002305C200910C5307C2006
:1008F0000914CF01FB20D3004D301221FB20AD00A5
:10090000530812214D302D06031D962C50307C20AB
:1009100041307C2053307C2053307C204F307C2071
:1009200055307C20712002305C20A52C46307C2084
:1009300041307C204C307C2048307C204F307C2063
:1009400055307C20712002305C20091001307C2061
:1009500009140230682054307C2065307C207330CC
:100960007C2074307C2065307C2020307C206430FA
:100970007C2061307C2020307C204D307C20653014
:100980007C2064307C2069307C2064307C206130A5
:100990007C200910C0307C20091464307C20653034
:1009A0007C2020307C2054307C2065307C206E30D0
:1009B0007C2073307C2061307C206F307C203A308A
:1009C0007C2071208B17AD010830A5006400280839
:1009D000BA003230BB00D6203808B2003908B10066
:1009E000B001FF30AF00B32031089C200910CB309C
:1009F0007C2009143D08303E7C202C307C203C08B3
:100A0000303E7C2056307C20AD0BE62CA50BE62C2E
:100A10008B13091001307C200914023068205430F7
:100A20007C2065307C206D307C2070307C206530EF
:100A30007C2072307C2061307C2074307C207530CA
:100A40007C2072307C2061307C2020307C20413042
:100A50007C206D307C2062307C202E307C20712008
:100A60008B17AD010F30A50064000910C5307C2044
:100A7000091422080A3AF030031D2208303E7C2077
:100A800021080A3AF030031D2108303E7C2020085E
:100A90000A3AF030031D2008303E7C20DF307C20F5
:100AA00043307C20AD0B342DA50B342D8B13091056
:100AB00001307C2009140230682041307C207130E4
:100AC0007C2075307C2065307C2063307C20653054
:100AD0007C206E307C2064307C206F307C203A306B
:100AE0007C2071208B17AD011430A5006400091023
:100AF0008B307C20091422080A3AF030031D2208AA
:100B0000303E7C2021080A3AF030031D2108303E97
:100B10007C2020080A3AF030031D2008303E7C205B
:100B2000DF307C2043307C200715AD0B762DA50BE4
:100B3000762D8B130711091080307C200914523058
:100B40007C2065307C2073307C2066307C207230C5
:100B50007C2069307C2061307C206E307C206430C9
:100B60007C206F307C203A307C200910C4307C20FF
:100B7000091472307C206F307C2074307C2061300E
:100B80007C2063307C206F307C2065307C2073308B
:100B90007C202F307C2073307C2065307C206730B7
:100BA0007C2071208B173230AD00640009108B302F
:100BB0007C20091422080A3AF030031D2208303E36
:100BC0007C2021080A3AF030031D2108303E7C20A9
:100BD00020080A3AF030031D2008303E7C20DF3028
:100BE0007C2043307C2087148F018E011014FA3052
:100BF0006820FA30682010100F08BF000E08C000EF
:100C00000310BF0CC00C0310BF0C400C9C2009103B
:100C1000C0307C2009143E080319F030303E7C209F
:100C20003D08303E7C203C08303E7C20AD0BD52D6D
:100C30008B138710091001307C20023068200914C2
:100C400070307C202F307C2020307C2072307C2043
:100C500065307C2070307C2065307C2074307C20B6
:100C600069307C2072307C2020307C2074307C20E5
:100C700065307C2073307C2074307C2065307C2093
:100C80000910C0307C20091470307C2072307C2028
:100C900065307C2073307C2073307C2069307C2070
:100CA0006F307C206E307C2065307C2020307C20B2
:100CB00072307C2065307C2073307C2065307C2055
:100CC00074307C20712001305C200330AD00011CA9
:100CD000BE2EE030F3263930F3265930F326793032
:100CE000F326E230F3268930F326E030F32689300C
:100CF000F326E230F3268930F326E030F32639304C
:100D0000F3265930F3263930F326E230F3265930F2
:100D1000F326E030F3265930F326E230F32659303B
:100D2000F326E030F3263930F326A930F326893054
:100D3000F326E230F3267930F326E030F3267930DB
:100D4000F326E230F3267930F326E030F32639300B
:100D5000F3265930F3267930F326E230F326893032
:100D6000F326E030F3268930F326E230F32689308B
:100D7000F32601305C20AD0B692EE82EF030F3260F
:100D80009930F326A930F3269930F3260C30F32658
:100D9000F230F3267830F326F030F3267930F3265C
:100DA0009930F3267930F326A830F326F230F32673
:100DB0005830F326F030F3265930F3267930F326F5
:100DC0005930F3269830F32601305C20AD0BBE2E4F
:100DD0006400E82E8A150020A0000721A1000E2241
:100DE000A2008A01080064008A01CD004D08C039C4
:100DF000C03A0319122F4D0E0F39C8003520CC0010
:100E0000C60003304D054F20CB00C200CD0C4D0C69
:100E100003394F20C900C70048084220C1004A08D2
:100E2000C3001D2F07304D055420CE00CD0CCD0C36
:100E30004D0C0739CA00CA0A452FC60B1D2F4C0896
:100E4000C600C70B272F203085064908C700C10BF5
:100E50001D2F48084220C100C20B1D2F4B08C200A5
:100E6000C30B1D2FCE080319452FC4014A08C30028
:100E70004E08C2000430C500C40B3C2FC50B3C2FEC
:0C0E8000C20B3A2FC30B382F452F08007F
:1010000008308A000730270703188A0A8200003454
:101010000034003400340034003400340034003430
:101020000034003400340034003400340034003420
:101030000034003400340034003400340034003410
:1010400000340034003400340034013401340234FC
:1010500002340334033404340434053405340634D0
:1010600006340734073408340834093409340034AA
:1010700000340134013402340234033403340434C0
:101080000434053405340634063407340734083490
:101090000834093409340034003401340134023492
:1010A0000234033403340334043404340534053483
:1010B0000634063407340734083408340934093454
:1010C0000034003401340134023402340334033474
:1010D0000434043405340534063406340734073444
:1010E000083408340934093400340034013401343C
:1010F0000234023403340334043404340534053434
:101100000634063407340734083408340934093403
:101110000034003401340134023402340334033423
:1011200004340434053405340634063407340734F3
:1011300008340834093409340034003401340134EB
:1011400002340234033403340434043405340534E3
:1011500006340634073407340834083409340934B3
:1011600000340034013401340234023403340334D3
:1011700004340434053405340634063407340734A3
:10118000083408340934093400340034013401349B
:101190000234023403340334043404340534053493
:1011A0000634063407340734083408340934093463
:1011B0000034003401340134023402340334033483
:1011C0000434043405340534063406340734073453
:1011D000083408340934093400340034013401344B
:1011E0000234023403340334043404340434053444
:1011F0000534063406340734073408340834093417
:10120000093400340034013401340234023409302A
:101210008A000E30270703188A0A82000A340A342B
:101220000A340A340A340A340A340A340A340A34CE
:101230000A340A340A340A340A340A340A340A34BE
:101240000A340A340A340A340A340A340A340A34AE
:101250000A340A340A340A340A340A340A340A349E
:101260000A340A340A340A340A340A340A340A348E
:101270000A340A340A340A340A340A340134013490
:1012800001340134013401340134013401340134B6
:1012900001340134013401340134013401340134A6
:1012A0000134013402340234023402340234023490
:1012B000023402340234023402340234023402347E
:1012C000023402340234023402340234023403346D
:1012D0000334033403340334033403340334033456
:1012E0000334033403340334033403340334033446
:1012F0000334033403340434043404340434043431
:10130000043404340434043404340434043404341D
:10131000043404340434043404340434043405340C
:1013200005340534053405340534053405340534F5
:1013300005340534053405340534053405340534E5
:1013400005340534053406340634063406340634D0
:1013500006340634063406340634063406340634BD
:1013600006340634063406340634063406340734AC
:101370000734073407340734073407340734073495
:101380000734073407340734073407340734073485
:101390000734073407340834083408340834083470
:1013A000083408340834083408340834083408345D
:1013B000083408340834083408340834083409344C
:1013C0000934093409340934093409340934093435
:1013D0000934093409340934093409340934093425
:1013E0000934093409340034003400340034003442
:1013F000003400340034003400340034003400344D
:10140000003400340034003400340034003400343C
:101410000134013401340134013401340A308A00CA
:101420001530270703188A0A82000A340A340A345E
:101430000A340A340A340A340A340A340A340A34BC
:101440000A340A340A340A340A340A340A340A34AC
:101450000A340A340A340A340A340A340A340A349C
:101460000A340A340A340A340A340A340A340A348C
:101470000A340A340A340A340A340A340A340A347C
:101480000A340A340A340A340A340A340A340A346C
:101490000A340A340A340A340A340A340A340A345C
:1014A0000A340A340A340A340A340A340A340A344C
:1014B0000A340A340A340A340A340A340A340A343C
:1014C0000A340A340A340A340A340A340A340A342C
:1014D0000A340A340A340A340A340A340A340A341C
:1014E0000A340A340A340A340A340A340A340A340C
:1014F0000A340A340A340A340A340A340A340A34FC
:101500000A340A340A340A340A340A340A340A34EB
:101510000A340A340A340A340A340A340A340A34DB
:101520000A340A340A340A340A340A340A340A34CB
:101530000A340A340A340A340A340A340A340A34BB
:101540000A340A340A340A340A340A340A340A34AB
:101550000A340A340A340A340A340A340A340A349B
:101560000A340A340A340A340A340A340A340A348B
:101570000A340A340A340A340A340A340A340A347B
:101580000A340A340A340A340A340A340A340A346B
:101590000A340A340A340A340A340A340A340A345B
:1015A0000A340A340A340A340A340A340A340A344B
:1015B0000A340A340A340A340A340A340A340A343B
:1015C0000A340A340A340A340A340A340A340A342B
:1015D0000A340A340A340A340A340A340A340A341B
:1015E0000A340A340A340A340A340A340A340A340B
:1015F0000A340A3401340134013401340134013431
:101600000134013401340134013401340134013432
:101610000134013401340134013401340134013422
:0A16200001340134013401340134B7
:02400E00353F3C
:00000001FF
