:020000040000FA
:060000005BEF0DF01200A1
:020006000000F8
:0600080074EF07F0120086
:02000E001200DE
:06001800CFEF07F012001B
:02001E00D9CF38
:10002000E6FFE1CFD9FFE652DF6ADF50DF2A106E2C
:10003000116A10BE1168FD0EDB501024F66EFE0E24
:10004000DB501120F76E0800F550E66EDFCFE9FFB8
:10005000EA6AE9BEEA68830EE926000EEA22E55262
:10006000E750EF6E01E0E1D7840E106E000E116EC6
:1000700010C0F3FF11C0F4FF00D0E552E552E7CF06
:10008000D9FF1200D9CFE6FFE1CFD9FF0A0EE12652
:10009000060EC16E9268936A010E946E956A966A16
:1000A000E1EC09F073EC0BF0EAEC0AF0DAEC0CF09E
:1000B000010EE66EA3EC09F0E552800EE66EA3ECAD
:1000C00009F0E552C70EE66E150EE66EA8DFE552A2
:1000D000E552F3CF10F0F4CF11F010C0E6FF11C0DD
:1000E000E6FF1AEC0AF0E552E552400EE66EA3EC8C
:1000F00009F0E552110EE66EC2EC09F0E552190E58
:10010000E66EC2EC09F0E552150EE66EC2EC09F09F
:10011000E552130EE66EC2EC09F0E552130EE66EE0
:10012000C2EC09F0E552150EE66EC2EC09F0E5529C
:10013000190EE66EC2EC09F0E552110EE66EC2EC45
:1001400009F0E5520E0EE66EC2EC09F0E552110E12
:10015000E66EC2EC09F0E5520E0EE66EC2EC09F056
:10016000E552050EE66EC2EC09F0E5520E0EE66EA3
:10017000C2EC09F0E552140EE66EC2EC09F0E5524D
:100180000A0EE66EC2EC09F0E552110EE66EC2EC04
:1001900009F0E552C00EE66EA3EC09F0E552DF6A05
:1001A000100EDF5C0FE2DF50010BE66EC2EC09F0CF
:1001B000E552640EE66EE66A9EEC0CF0E552E552FE
:1001C000DF2AEED7010EE66EA3EC09F0E552800EB1
:1001D000E66EA3EC09F0E552C70EE66E150EE66E6C
:1001E0001EDFE552E552F3CF10F0F4CF11F010C04E
:1001F000E6FF11C0E6FF1AEC0AF0E552E552200EC8
:10020000DF6EDF50106E116AD890115004E6800E38
:10021000105C000E115816E2DF500F0B05E1C00E06
:10022000E66EA3EC09F0E552DFCFE6FFC2EC09F081
:10023000E552320EE66EE66A9EEC0CF0E552E552AF
:10024000DF2ADFD7640EE66EE66A9EEC0CF0E5521C
:10025000E552010EE66EA3EC09F0E552800EE66E63
:10026000A3EC09F0E552C70EE66E150EE66ED7DE7A
:10027000E552E552F3CF10F0F4CF11F010C0E6FFD5
:1002800011C0E6FF1AEC0AF0E552E552C00EE66E28
:10029000A3EC09F0E552BD0EE66E150EE66EBFDE6C
:1002A000E552E552F3CF10F0F4CF11F010C0E6FFA5
:1002B00011C0E6FF1AEC0AF0E552E552F40EE66EC4
:1002C000010EE66E9EEC0CF0E552E552010EE66E74
:1002D000A3EC09F0E552800EE66EA3EC09F0E552BE
:1002E000AE0EE66E150EE66E9ADEE552E552F3CFDF
:1002F00010F0F4CF11F010C0E6FF11C0E6FF1AECC9
:100300000AF0E552E552818EDF6A040EDF5C27E2D7
:10031000100EDF5206E0DFCFF3FFE846FE0BF306D8
:10032000FCE1816E010EDB6A100EF36E010EDBCF75
:10033000F4FFF350F45C11E2010EDBCFE6FFF2ECC8
:100340000BF0E552836EC80EE66EE66A9EEC0CF08A
:10035000E552E552010EDB2AE7D7DF2AD6D7836ABA
:10036000010EE66EA3EC09F0E552830EE66EA3ECF7
:1003700009F0E552A30EE66E150EE66E50DEE5526C
:10038000E552F3CF10F0F4CF11F010C0E6FF11C02A
:10039000E6FF1AEC0AF0E552E552010EDB6A030EA5
:1003A000F36E010EDBCFF4FFF350F45C15E2010EA7
:1003B000DF6E100EDF5C0DE2DF50816EC80EE66E60
:1003C000E66A9EEC0CF0E552E552DF50E824DF6E61
:1003D000F0D7010EDB2AE3D7816ADF6A040EDF5C07
:1003E0000BE20F0E811AC80EE66EE66A9EEC0CF068
:1003F000E552E552DF2AF2D7010EE66EA3EC09F0D2
:10040000E552800EE66EA3EC09F0E552940EE66E1E
:10041000150EE66E04DEE552E552F3CF10F0F4CF90
:1004200011F010C0E6FF11C0E6FF1AEC0AF0E55229
:10043000E552010EDB6A010EDB500F0B0F081EE0C8
:100440000F0E936E81B002D0010EDB8081B202D01C
:10045000010EDB8281B402D0010EDB8481B602D0B2
:10046000010EDB86936A010EDB50816E0A0EE66E8A
:10047000E66A9EEC0CF0E552E552DDD7816A010E8A
:10048000E66EA3EC09F0E552800EE66EA3EC09F0EF
:10049000E552830EE66E150EE66EC1DDE552E552BD
:1004A000F3CF10F0F4CF11F010C0E6FF11C0E6FF5B
:1004B0001AEC0AF0E552E552C00EE66EA3EC09F024
:1004C000E552740EE66E150EE66EA9DDE552E552B4
:1004D000F3CF10F0F4CF11F010C0E6FF11C0E6FF2B
:1004E0001AEC0AF0E552E552030E936E8150010BAF
:1004F00004E08150020B01E0F9D781B082D00A0EEE
:10050000E66E0FEC0DF0E552E76E010EE7CFDBFF74
:10051000DBCFE6FFC2EC09F0E552A50EE66E0A0E4F
:10052000E66E1DEC0DF0E552E5525A0EE66E0A0E2F
:10053000E66E1DEC0DF0E552E5520A0EE66E0FEC8C
:100540000DF0E552DF6E010EDBCFE6FF0A0EE66E20
:100550001DEC0DF0E552E552010EE66EA3EC09F03C
:10056000E552800EE66EA3EC09F0E552830EE66ECE
:10057000150EE66E54DDE552E552F3CF10F0F4CFE0
:1005800011F010C0E6FF11C0E6FF1AEC0AF0E552C8
:10059000E552C00EE66EA3EC09F0E5525A0EDF5CA0
:1005A00014E16A0EE66E150EE66E39DDE552E5528F
:1005B000F3CF10F0F4CF11F010C0E6FF11C0E6FF4A
:1005C0001AEC0AF0E552E55213D05F0EE66E150EF6
:1005D000E66E25DDE552E552F3CF10F0F4CF11F0D1
:1005E00010C0E6FF11C0E6FF1AEC0AF0E552E55232
:1005F000E80EE66E030EE66E9EEC0CF0E552E55258
:1006000002D081A2FED7936A816A010EE66EA3EC46
:1006100009F0E552800EE66EA3EC09F0E5524E0EAD
:10062000E66E150EE66EFBDCE552E552F3CF10F0F8
:10063000F4CF11F010C0E6FF11C0E6FF1AEC0AF08B
:10064000E552E552C00EE66EA3EC09F0E552740ED9
:10065000E66E150EE66EE3DCE552E552F3CF10F0E0
:10066000F4CF11F010C0E6FF11C0E6FF1AEC0AF05B
:10067000E552E552030E936E8150010B04E0815068
:10068000020B01E0F9D781B08CD00A0EE66EE66A63
:10069000CCEC08F0E552E552E76E010EE7CFDBFF48
:1006A000DBCFE6FFC2EC09F0E552A50EE66E0A0EBE
:1006B000E66EE66A2BEC09F0E552E552E5525A0E79
:1006C000E66E0A0EE66EE66A2BEC09F0E552E5529C
:1006D000E5520A0EE66EE66ACCEC08F0E552E55209
:1006E000DF6E010EDBCFE6FF0A0EE66EE66A2BEC4C
:1006F00009F0E552E552E552010EE66EA3EC09F071
:10070000E552800EE66EA3EC09F0E5524E0EE66E61
:10071000150EE66E84DCE552E552F3CF10F0F4CF0F
:1007200011F010C0E6FF11C0E6FF1AEC0AF0E55226
:10073000E552C00EE66EA3EC09F0E5525A0EDF5CFE
:1007400014E16A0EE66E150EE66E69DCE552E552BE
:10075000F3CF10F0F4CF11F010C0E6FF11C0E6FFA8
:100760001AEC0AF0E552E55213D05F0EE66E150E54
:10077000E66E55DCE552E552F3CF10F0F4CF11F000
:1007800010C0E6FF11C0E6FF1AEC0AF0E552E55290
:10079000E80EE66E030EE66E9EEC0CF0E552E552B6
:1007A00002D081A2FED7936A816A010EE66EA3ECA5
:1007B00009F0E552800EE66EA3EC09F0E5523E0E1C
:1007C000E66E150EE66E2BDCE552E552F3CF10F027
:1007D000F4CF11F010C0E6FF11C0E6FF1AEC0AF0EA
:1007E000E552E552C40EE66EA3EC09F0E552350E73
:1007F000E66E150EE66E13DCE552E552F3CF10F00F
:10080000F4CF11F010C0E6FF11C0E6FF1AEC0AF0B9
:10081000E552E552140EE66E150EE66E0FEC00F092
:10082000E552E552F3CF10F0F4CF11F010C0E6FF1F
:1008300011C0E6FF01EC0BF0E552E552DF6A040E51
:10084000DF5C1CE2300EDF24E66EF4EC0AF0E552C9
:10085000070EE66E150EE66E0FEC00F0E552E5525F
:10086000F3CF10F0F4CF11F010C0E6FF11C0E6FF97
:1008700001EC0BF0E552E552DF2AE1D7E80EE66E17
:10088000030EE66E9EEC0CF0E552E552010EE66EAC
:10089000A3EC09F0E552800EE66EA3EC09F0E552F8
:1008A000F70EE66E140EE66E0FEC00F0E552E55220
:1008B000F3CF10F0F4CF11F010C0E6FF11C0E6FF47
:1008C0001AEC0AF0E552E552EC0EE66E140EE66EF6
:1008D0000FEC00F0E552E552F3CF10F0F4CF11F039
:1008E00010C0E6FF11C0E6FF01EC0BF0E552E55247
:1008F000DF6A200EDF5C35E2DF500F0B19E1C00E1E
:10090000E66EA3EC09F0E552E90EE66E140EE66E13
:100910000FEC00F0E552E552F3CF10F0F4CF11F0F8
:1009200010C0E6FF11C0E6FF01EC0BF0E552E55206
:10093000D00EE66E070EE66E2CEC0BF0E552E5529B
:10094000E76E010EE7CFDBFFDBCFE6FFC2EC09F07D
:10095000E552010EDBCFE6FFF4EC0AF0E552DF2AA8
:10096000C8D7640EE66EE66A9EEC0CF0E552E552DE
:10097000010EE66EA3EC09F0E552800EE66EA3ECE4
:1009800009F0E552D90EE66E140EE66E0FEC00F09B
:10099000E552E552F3CF10F0F4CF11F010C0E6FFAE
:1009A00011C0E6FF1AEC0AF0E552E552DF6ADF50AB
:1009B000106E116AD890115004E6C80E105C000E3B
:1009C000115856E2010EE66EDFEC0CF0E552F3CF63
:1009D00010F0F4CF11F00A0E1102F3CF11F0100253
:1009E000F3CF10F0F4501126CC0E0B6E0C6A10C031
:1009F00006F011C007F035EC0DF006C010F007C08E
:100A000011F0010E10C0DBFFC60EE66EA3EC09F07C
:100A1000E552D950040FE66E000EDA20E66E010EA4
:100A2000DBCFE6FFE66AD9EC07F0E552E552E55286
:100A3000E552070EDBCFE6FFC2EC09F0E5522C0EC3
:100A4000E66EC2EC09F0E552080EDBCFE6FFC2EC21
:100A500009F0E552560EE66EC2EC09F0E5520A0EB8
:100A6000E66EE66A9EEC0CF0E552E552DF2A9FD76F
:100A7000010EE66EA3EC09F0E552800EE66EA3ECE3
:100A800009F0E552CB0EE66E140EE66E0FEC00F0A8
:100A9000E552E552F3CF10F0F4CF11F010C0E6FFAD
:100AA00011C0E6FF1AEC0AF0E552E552DF6A640E67
:100AB000DF5C60E2E66ADFEC0CF0E552F3CF10F0A9
:100AC000F4CF11F0510E1102F3CF11F01002F3CF59
:100AD00010F0F4501126640E0B6E0C6A10C006F074
:100AE00011C007F035EC0DF006C010F007C011F092
:100AF000020E10C0DBFF030E11C0DBFFC50EE66E59
:100B0000A3EC09F0E552D950040FE66E000EDA208E
:100B1000E66E020EDBCFE6FF030EDBCFE6FFD9EC7D
:100B200007F0E552E552E552E552060EDBCFE6FF4F
:100B3000C2EC09F0E552070EDBCFE6FFC2EC09F08C
:100B4000E5522C0EE66EC2EC09F0E552080EDBCF42
:100B5000E6FFC2EC09F0E552430EE66EC2EC09F086
:100B6000E5520A0EE66EE66A9EEC0CF0E552E5529E
:100B7000DF2A9DD7010EE66EA3EC09F0E552800E48
:100B8000E66EA3EC09F0E552BC0EE66E140EE66EBE
:100B90000FEC00F0E552E552F3CF10F0F4CF11F076
:100BA00010C0E6FF11C0E6FF1AEC0AF0E552E5526C
:100BB0008284DF6A640EDF5C60E2E66ADFEC0CF0E0
:100BC000E552F3CF10F0F4CF11F0510E1102F3CF34
:100BD00011F01002F3CF10F0F4501126640E0B6EDA
:100BE0000C6A10C006F011C007F035EC0DF006C01D
:100BF00010F007C011F0020E10C0DBFF030E11C091
:100C0000DBFFC50EE66EA3EC09F0E552D950040FE8
:100C1000E66E000EDA20E66E020EDBCFE6FF030E74
:100C2000DBCFE6FFD9EC07F0E552E552E552E5529D
:100C3000060EDBCFE6FFC2EC09F0E552070EDBCF74
:100C4000E6FFC2EC09F0E5522C0EE66EC2EC09F0AC
:100C5000E552080EDBCFE6FFC2EC09F0E552430E89
:100C6000E66EC2EC09F0E5520A0EE66EE66A9EEC0C
:100C70000CF0E552E552DF2A9DD78294010EE66E14
:100C8000A3EC09F0E552800EE66EA3EC09F0E55204
:100C9000AD0EE66E140EE66E0FEC00F0E552E55276
:100CA000F3CF10F0F4CF11F010C0E6FF11C0E6FF53
:100CB0001AEC0AF0E552E552D59AD596D58CD59026
:100CC000D592D584D58EF28ACD82CD9ACD98F294E4
:100CD000D76A060ED66E00017D0E806FF28ECF6A47
:100CE000CE6ACD808282DF6ADF50106E116AD890A2
:100CF000115004E6960E105C000E115801E39CD0D2
:100D0000E66ADFEC0CF0E552F3CF10F0F4CF11F00F
:100D1000510E1102F3CF11F01002F3CF10F0F45086
:100D20001126640E0B6E0C6A10C006F011C007F09D
:100D300035EC0DF006C010F007C011F0020E10C027
:100D4000DBFF030E11C0DBFFC20EE66EA3EC09F061
:100D5000E552D950040FE66E000EDA20E66E020E60
:100D6000DBCFE6FF030EDBCFE6FFD9EC07F0E55261
:100D7000E552E552E552060EDBCFE6FFC2EC09F084
:100D8000E552070EDBCFE6FFC2EC09F0E5522C0E70
:100D9000E66EC2EC09F0E552080EDBCFE6FFC2ECCE
:100DA00009F0E552430EE66EC2EC09F0E552C80EBA
:100DB000E66EA3EC09F0E552D950040FE66E000E82
:100DC000DA20E66E81C0E6FF82C0E6FFD9EC07F0CC
:100DD000E552E552E552E552050EDBCFE6FFC2ECE7
:100DE00009F0E552060EDBCFE6FFC2EC09F0E55252
:100DF000070EDBCFE6FFC2EC09F0E552080EDBCFB1
:100E0000E6FFC2EC09F0E552520EE66EC2EC09F0C4
:100E1000E552500EE66EC2EC09F0E552530EE66E56
:100E2000C2EC09F0E5520A0EE66EE66A9EEC0CF0A2
:100E3000E552E552DF2A58D7F29E8292010EE66E05
:100E4000A3EC09F0E552800EE66EA3EC09F0E55242
:100E5000A30EE66E140EE66E0FEC00F0E552E552BE
:100E6000F3CF10F0F4CF11F010C0E6FF11C0E6FF91
:100E70001AEC0AF0E552E552C00EE66EA3EC09F05A
:100E8000E552940EE66E140EE66E0FEC00F0E5529D
:100E9000E552F3CF10F0F4CF11F010C0E6FF11C00F
:100EA000E6FF1AEC0AF0E552E5528A0EE66E140EE1
:100EB000E66E0FEC00F0E552E552F3CF10F0F4CF00
:100EC00011F010C0E6FF11C0E6FF01EC0BF0E55297
:100ED000E552FFD70A0EE15C02E2E16AE552E16EFB
:100EE000E552E7CFD9FF1200DACFE4FFE2CFDAFF15
:100EF000E9CFE4FFEACFE4FFF6CFE4FFF7CFE4FF6A
:100F0000F3CFE4FFF4CFE4FFFACFE4FF00EE00F00C
:100F1000100EE80403E3EECFE4FFFBD7E652000136
:100F2000800780511EE1CD90CF50146E14C015F093
:100F3000146ACE501410816F15C082F0070E0B6E2C
:100F40000C6A81C006F082C007F035EC0DF006C0D7
:100F500081F007C082F000017D0E806FCF6ACE6AFB
:100F6000CD80F294D76A060ED66EE55200EE0FF0F1
:100F7000100EE80403E3E5CFEDFFFBD7E5CFFAFF62
:100F8000E5CFF4FFE5CFF3FFE5CFF7FFE5CFF6FFC1
:100F9000E5CFEAFFE5CFE9FFE5CFDAFF1100DACFD1
:100FA000E4FFE2CFDAFFE6520000E552E5CFDAFFD8
:020FB00011002E
:0E0FB200D9CFE6FFE1CFD9FFFD0EDBCF10F067
:100FC000FE0EDBCF11F0100E0B6E270E0C6E10C054
:100FD00006F011C007F035EC0DF006C010F007C0A8
:100FE00011F0300E1026000E1122FB0EDBCFE9FFB0
:100FF000FC0EDBCFEAFF10C0EFFFFD0EDBCF10F0E1
:10100000FE0EDBCF11F0100E0B6E270E0C6E10C013
:1010100006F011C007F035EC0DF002C010F003C06F
:1010200011F0E80E0B6E030E0C6E10C006F011C02E
:1010300007F035EC0DF006C010F007C011F0300ECF
:101040001026000E1122010EE76EFB0EDBCFE9FF2A
:10105000FC0EDBCFEAFFE750E926000EEA2210C0C3
:10106000EFFFFD0EDBCF10F0FE0EDBCF11F0E80E30
:101070000B6E030E0C6E10C006F011C007F035ECBD
:101080000DF002C010F003C011F0640E0B6E0C6A7C
:1010900010C006F011C007F035EC0DF006C010F0DE
:1010A00007C011F0300E1026000E1122020EE76E5E
:1010B000FB0EDBCFE9FFFC0EDBCFEAFFE750E926B2
:1010C000000EEA2210C0EFFFFD0EDBCF10F0FE0E87
:1010D000DBCF11F0640E0B6E0C6A10C006F011C06D
:1010E00007F035EC0DF002C010F003C011F00A0E4D
:1010F0000B6E0C6A10C006F011C007F035EC0DF055
:1011000006C010F007C011F0300E1026000E11229C
:10111000030EE76EFB0EDBCFE9FFFC0EDBCFEAFF31
:10112000E750E926000EEA2210C0EFFFFD0EDBCFEC
:1011300010F0FE0EDBCF11F00A0E0B6E0C6A10C021
:1011400006F011C007F035EC0DF002C010F003C03E
:1011500011F0300E1026000E1122040EE76EFB0E69
:10116000DBCFE9FFFC0EDBCFEAFFE750E926000EFC
:10117000EA2210C0EFFF050EE76EFB0EDBCFE9FFA2
:10118000FC0EDBCFEAFFE750E926000EEA22EF6A09
:08119000E552E7CFD9FF120080
:08119800D9CFE6FFE1CFD9FF3A
:1011A000030EE126FD0EDBCF10F0FE0EDBCF11F0BB
:1011B000000E1016010E111611C010F0116A10C0A9
:1011C000DBFFFF0EE76EFD0EDBCF10F0FE0EDBCF78
:1011D00011F0E7501016116A020E10C0DBFF77EC19
:1011E0000BF0010EDB5006E0A20EE66E83EC0BF076
:1011F000E55205D0A00EE66E83EC0BF0E552020E30
:10120000DBCFE6FF83EC0BF0E55277EC0BF0010E41
:10121000DB5006E0A30EE66E83EC0BF0E55205D042
:10122000A10EE66E83EC0BF0E552010EE66EADEC1E
:101230000BF0E552DF6E7DEC0BF0DF50106E030E0D
:10124000E15C03E200D0E16AE552E16E1050E55244
:10125000E7CFD9FF1200D9CFE6FFE1CFD9FF050EC6
:10126000E126FC0EDB50DE6EDD6AFD0EDBCF10F0FA
:10127000FE0EDBCF11F0000E1016010E111611C07C
:1012800010F0116A020E10C0DBFFFF0EE76EFD0EBC
:10129000DBCF10F0FE0EDBCF11F0E7501016116A15
:1012A000030E10C0DBFF040EDB6A77EC0BF0020EBE
:1012B000DB5006E0A20EE66E83EC0BF0E55205D0A3
:1012C000A00EE66E83EC0BF0E552030EDBCFE6FFDB
:1012D00083EC0BF0E552DFCFE6FF83EC0BF0E55239
:1012E0007DEC0BF0040EDB2AFD0EDBCFE6FFFE0EDD
:1012F000DBCFE6FF51DFE552E552106E116A105068
:10130000DF1803E11150DE52DD1808E00A0EF36E1B
:10131000040EDBCFF4FFF350F45CC7E3050EE15C91
:1013200002E2E16AE552E16EE552E7CFD9FF120031
:10133000D9CFE6FFE1CFD9FFFE0EDB50836EE55239
:10134000E7CFD9FF1200D9CFE6FFE1CFD9FF8482E2
:10135000FE0EDBCFE6FFECDFE5528490030EE66E77
:10136000E66A9EEC0CF0E552E5528492030EE66EBE
:10137000E66A9EEC0CF0E552E5528482E552E7CF36
:10138000D9FF1200D9CFE6FFE1CFD9FF8482FE0E4C
:10139000DBCFE6FFCDDFE5528480030EE66EE66A22
:1013A0009EEC0CF0E552E5528492030EE66EE66A7E
:1013B0009EEC0CF0E552E5528482E552E7CFD9FF6E
:1013C000120084928490140EE66EE66A9EEC0CF095
:1013D000E552E5528482380EE66EB5DFE552050E21
:1013E000E66EE66A9EEC0CF0E552E552380EE66ECB
:1013F000AADFE552010EE66EE66A9EEC0CF0E552BD
:10140000E552380EE66E9FDFE552080EE66E9BDF72
:10141000E5520F0EE66E97DFE552010EE66E93DFA2
:10142000E552380EE66E8FDFE552800EE66E8BDFFA
:10143000E5521200D9CFE6FFE1CFD9FFE652DF6ACD
:10144000DF50E76EFD0EDBCFE9FFFE0EDBCFEAFFDC
:10145000E750E926000EEA22EF5012E0DF50E76E77
:10146000FD0EDBCFE9FFFE0EDBCFEAFFE750E926FA
:10147000000EEA22EF50E66E85DFE552DF2AE0D764
:0A148000E552E552E7CFD9FF120054
:06148A000D0A2046494D49
:10149000210D0A00205072657373696F6E652052CA
:1014A00053540020202020202046696D0020202059
:1014B00054657374652052455346520020202054D1
:1014C00065737465204151554543002020205465C3
:1014D0007374652054454D50002054657374652025
:1014E0004144432028503229000D0A0020446967F6
:1014F000697465210D0A0054657374652053657223
:1015000069616C205258002050696373696D4C61A9
:10151000620D0A000D0A2050696373696D6C616287
:101520000D0A2054657374652053657269616C20DF
:1015300054580D0A003936303020384E3100546589
:101540007374652053657269616C2054580054654A
:1015500073746520454550524F4D20455854002026
:1015600020202020204552524F00202020202020E3
:10157000204F4B002028733D5331206E3D533229BC
:10158000203F00546573746520454550524F4D20EF
:10159000494E540020205465737465204368617679
:1015A0006573005465737465204C454473002020B6
:1015B0002054657374652037205365670020202010
:1015C000202020204F6B002020205465737465205C
:0415D0004C43440044
:0C15D400AC9CAC8AAC98AC84AB8EAB9C99
:1015E000AB88190EAF6E1200D9CFE6FFE1CFD9FF5D
:1015F000FE0EDB50AD6EACA2FED7E552E7CFD9FFB1
:101600001200D9CFE6FFE1CFD9FFE652DF6ADF5003
:10161000E76EFD0EDBCFE9FFFE0EDBCFEAFFE75002
:10162000E926000EEA22EF5012E0DF50E76EFD0ED1
:10163000DBCFE9FFFE0EDBCFEAFFE750E926000E25
:10164000EA22EF50E66ED0DFE552DF2AE0D7E5521E
:10165000E552E7CFD9FF1200D9CFE6FFE1CFD9FF9E
:10166000020EE126DE6ADD6ADECF10F0DDCF11F07A
:10167000FD0EDBCF12F0FE0EDBCF13F01250105C2C
:101680001350115809E3D950FD0FE96EFF0EDA200F
:10169000EA6EEE50ED100FE19E50200B0CE1140E9F
:1016A000E66EE66A9EEC0CF0E552E552140EDE267C
:1016B000000EDD22D9D79EAA03D0AE5003D002D0AF
:1016C000FF0E00D0106E020EE15C02E2E16AE5520C
:0C16D000E16E1050E552E7CFD9FF120088
:0416DC00000000000A
:1016E0000000000012009498828682881200828690
:1016F0008288F4DF82986EEF0BF082868298EEDFAC
:1017000082886EEF0BF0D9CFE6FFE1CFD9FFE6522A
:101710008296070EDF6EDFCF10F0103414E2FE0E5B
:10172000DB50DF5206E0DFCFF3FFE8327F0BF3063A
:10173000FCE1010BE8B08288E8A082988286CEDFC7
:101740008296DF06E8D78288C9DF8286C7DF829665
:10175000E552E552E7CFD9FF1200D9CFE6FFE1CF3E
:10176000D9FF020EE126010EDB6A829694888288F8
:10177000070EDF6EDFCF10F010341AE28286AEDF84
:101780008250100B01E0010EDF5206E0DFCFF3FFC5
:10179000E846FE0BF306FCE1106E010EDBCFE7FF1F
:1017A0001050E712010EE7CFDBFF8296DF06E2D78B
:1017B0009498FE0EDB5002E0829801D082888EDF82
:1017C00082868CDF8296010EDB50106E020EE15C89
:1017D00003E200D0E16AE552E16E1050E552E7CF36
:0417E000D9FF12001B
:0C17E400D9CFE6FFE1CFD9FFFE0EDB50AD
:1017F0000F0A4DE0010A48E0030A43E0010A3EE017
:10180000070A39E0010A34E0030A2FE0010A2AE05E
:101810000F0A25E0010A20E0030A1BE0010A16E096
:10182000070A11E0010A0CE0030A07E0010A02E0DE
:10183000000E31D03F0E2FD02ED0060E2CD02BD044
:101840005B0E29D028D04F0E26D025D0660E23D08F
:1018500022D06D0E20D01FD07D0E1DD01CD0070EC3
:101860001AD019D07F0E17D016D06F0E14D013D007
:10187000770E11D010D07C0E0ED00DD0580E0BD09C
:101880000AD05E0E08D007D0790E05D004D0710EB4
:0E18900002D001D000D0E552E7CFD9FF120000
:02189E00060E34
:1018A000F66E000EF76E000EF86E00010900F5509E
:1018B000B56F0900F550B66F03E1B56701D03DD0B3
:1018C0000900F550B06F0900F550B16F0900F550EF
:1018D000B26F09000900F550E96E0900F550EA6E93
:1018E000090009000900F550B36F0900F550B46F05
:1018F00009000900F6CFB7F0F7CFB8F0F8CFB9F08C
:10190000B0C0F6FFB1C0F7FFB2C0F8FF0001B3539B
:1019100002E1B45307E00900F550EE6EB307F8E2B8
:10192000B407F9D7B7C0F6FFB8C0F7FFB9C0F8FFE2
:0C1930000001B507000EB65BBFD7120027
:04193C00D9CFE6FF1A
:10194000E1CFD9FF030EE126DE6ADD6ADECF10F0BB
:10195000DDCF11F0FD0EDBCF12F0FE0EDBCF13F06A
:101960001250105C135011581BE2020EDB6A020E7B
:10197000DB50106E116AD890115004E6C80E105C4E
:10198000000E115808E200000000000000000000F6
:10199000020EDB2AECD7DF2A010E01E3DB2AD6D7C1
:1019A000030EE15C02E2E16AE552E16EE552E7CF47
:0419B000D9FF120049
:0C19B400040EC16E490EC26E1200D9CFA5
:1019C000E6FFE1CFD9FFC70EC216FE0EDB50070BB4
:1019D000080DF350C212C284C2B4FED7C450126EB6
:1019E000136AD89012361336D89012361336060E74
:1019F000C3CFE7FF070B04E0E742E79EE806FCE100
:101A0000E75000011210106E13C011F010C0F3FF68
:0E1A100011C0F4FF00D0E552E7CFD9FF12005D
:021A1E00D9CF1E
:101A2000E6FFE1CFD9FFFE0EDB50A96EA680A850DD
:101A300000D0E552E7CFD9FF1200D9CFE6FFE1CFC2
:101A4000D9FFFE0EDB50A96EFD0EDB50A86EA684FA
:101A5000550EA76EAA0EA76EA682A6B2FED7A694B2
:0A1A600000D0E552E7CFD9FF1200D5
:061A6A00036A026A100E7F
:101A7000E76ED89006360736023603360B50025C06
:101A80000C50035805E30B50025E0C50035A062A13
:061A9000E72EF0D7120062
:0A1A9600000EF36E00EE00F0060EE5
:101AA00001D81200EA6002D0EE6AFCD7F350E96078
:061AB0001200EE6AFCD7F3
:0A1AB60015EE00F025EE00F0F86ACE
:101AC0000F9C4FEC0CF007EC00F042EC00F0FBD761
:021AD000120002
:020000040030CA
:0E00000000220D0EFFFFFBFFFFFFFFFFFFFFC3
:00000001FF
