:020000040000FA
:06000000E2EF18F012000F
:020006001200E6
:0600080094EF0AF0120063
:02000E00C250DE
:08001000040B01E0010E1200D7
:06001800EFEF0AF01200F8
:02001E000100DF
:0C0020004E320000C90000000400000087
:04002C00D9CFE6FF43
:10003000E1CFD9FFE652DF6ADF50DF2A146E156A7E
:1000400014BE1568FD0EDB501424F66EFE0EDB5058
:100050001520F76E0800F550E66EDFCFE9FFEA6A7B
:10006000E9BEEA68830EE926000EEA22E552E7506F
:10007000EF6E01E0E1D7840E146E000E156E14C011
:10008000F3FF15C0F4FF00D0E552E552E7CFD9FFEA
:100090001200D9CFE6FFE1CFD9FF0C0EE126060E04
:1000A000C16EC30E926E010E936E946E956A966A3F
:1000B000F19E180EC86ED8EC14F0800EE66E080E95
:1000C000E66E3BEC18F0E552E552320EE66EE66A5B
:1000D0003C0EE66E7AEC16F0E552E552E552070E5C
:1000E000E66E920EE66EF8EC17F0E552E552030E5E
:1000F000936E010EE66EA2EC14F0E552800EE66EF1
:10010000A2EC14F0E552A70EE66E270EE66E8EDF27
:10011000E552E552F3CF14F0F4CF15F014C0E6FF2A
:1001200015C0E6FF0BEC15F0E552E552C00EE66E89
:10013000A2EC14F0E5529C0EE66E270EE66E76DF1A
:10014000E552E552F3CF14F0F4CF15F014C0E6FFFA
:1001500015C0E6FF0BEC15F0E552E55281B2FED773
:10016000010EE66EA2EC14F0E552800EE66EA2ECF3
:1001700014F0E5528F0EE66E270EE66E57DFE5525D
:10018000E552F3CF14F0F4CF15F014C0E6FF15C01C
:10019000E6FF0BEC15F0E552E552400EE66EA2ECE0
:1001A00014F0E552110EE66EBDEC14F0E552190E96
:1001B000E66EBDEC14F0E552150EE66EBDEC14F0E3
:1001C000E552130EE66EBDEC14F0E552130EE66E2A
:1001D000BDEC14F0E552150EE66EBDEC14F0E552E0
:1001E000190EE66EBDEC14F0E552110EE66EBDEC94
:1001F00014F0E5520E0EE66EBDEC14F0E552110E51
:10020000E66EBDEC14F0E5520E0EE66EBDEC14F099
:10021000E552050EE66EBDEC14F0E5520E0EE66EEC
:10022000BDEC14F0E552140EE66EBDEC14F0E55290
:100230000A0EE66EBDEC14F0E552110EE66EBDEC52
:1002400014F0E552C00EE66EA2EC14F0E552DF6A3F
:10025000100EDF5C0DE2DF50010BE66EBDEC14F01A
:10026000E552C80EE66EC2EC18F0E552DF2AF0D770
:10027000010EE66EA2EC14F0E552800EE66EA2ECE2
:1002800014F0E5528F0EE66E270EE66ECFDEE552D5
:10029000E552F3CF14F0F4CF15F014C0E6FF15C00B
:1002A000E6FF0BEC15F0E552E552200EDF6EDF5055
:1002B000146E156AD890155004E6800E145C000E7A
:1002C000155814E2DF500F0B05E1C00EE66EA2ECEC
:1002D00014F0E552DFCFE6FFBDEC14F0E552640EFA
:1002E000E66EC2EC18F0E552DF2AE1D7C80EE66EE2
:1002F000C2EC18F0E552010EE66EA2EC14F0E552E5
:10030000800EE66EA2EC14F0E5528F0EE66E270E1C
:10031000E66E8CDEE552E552F3CF14F0F4CF15F023
:1003200014C0E6FF15C0E6FF0BEC15F0E552E552F0
:10033000C00EE66EA2EC14F0E552850EE66E270EB6
:10034000E66E74DEE552E552F3CF14F0F4CF15F00B
:1003500014C0E6FF15C0E6FF0BEC15F0E552E552C0
:10036000640EE66E56EC18F0E552010EE66EA2EC55
:1003700014F0E552800EE66EA2EC14F0E552760E13
:10038000E66E270EE66E52DEE552E552F3CF14F02C
:10039000F4CF15F014C0E6FF15C0E6FF0BEC15F026
:1003A000E552E552060EC16EDF6A040EDF5C31E2F3
:1003B000DF50030A10E0010A0BE0030A06E0010A1D
:1003C00001E00CD0200E806E09D0100E806E06D099
:1003D000080E806E03D0040E806E00D0010EDB6A22
:1003E000100EF36E010EDBCFF4FFF350F45C0FE25E
:1003F000010EDBCFE6FF36EC15F0E552836E280EDA
:10040000E66E56EC18F0E552010EDB2AE9D7DF2A3A
:10041000CCD7020EC16E836A030E936E010EE66E98
:10042000A2EC14F0E552800EE66EA2EC14F0E55258
:10043000650EE66E270EE66EF9DDE552E552F3CF66
:1004400014F0F4CF15F014C0E6FF15C0E6FF0BEC76
:1004500015F0E552E552C00EE66EA2EC14F0E5523E
:100460009C0EE66E270EE66EE1DDE552E552F3CF17
:1004700014F0F4CF15F014C0E6FF15C0E6FF0BEC46
:1004800015F0E552E55281B2FED7936A010EE66E91
:10049000A2EC14F0E552830EE66EA2EC14F0E552E5
:1004A0005A0EE66E270EE66EC1DDE552E552F3CF39
:1004B00014F0F4CF15F014C0E6FF15C0E6FF0BEC06
:1004C00015F0E552E552010EDB6A030EF36E010EE4
:1004D000DBCFF4FFF350F45C15E2010EDF6EDF506A
:1004E00000080DE2DF50816EDF50836E280EE66E4D
:1004F00056EC18F0E552DF50E824DF6EF0D7010E1D
:10050000DB2AE3D7816A836ADF6A040EDF5C09E2D3
:10051000811E831E280EE66E56EC18F0E552DF2A87
:10052000F4D7010EE66EA2EC14F0E552800EE66EF2
:10053000A2EC14F0E5524B0EE66E270EE66E76DD69
:10054000E552E552F3CF14F0F4CF15F014C0E6FFF6
:1005500015C0E6FF0BEC15F0E552E552010EDB6A23
:10056000060EC16E928A010EDB507F0B7F0828E0D9
:100570003F0E936E81B002D0010EDB8081B202D0BB
:10058000010EDB8281B402D0010EDB8481B602D081
:10059000010EDB8681B802D0010EDB8881BA02D061
:1005A000010EDB8A80BA02D0010EDB8C936A010E49
:1005B000DB50816E140EE66EC2EC18F0E552D3D714
:1005C000640EE66E56EC18F0E552816A948E949CA7
:1005D000010EE66EA2EC14F0E552800EE66EA2EC7F
:1005E00014F0E5523B0EE66E270EE66E1FDDE55277
:1005F000E552F3CF14F0F4CF15F014C0E6FF15C0A8
:10060000E6FF0BEC15F0E552E552C40EE66EA2ECE7
:1006100014F0E552320EE66E270EE66E07DDE55267
:10062000E552F3CF14F0F4CF15F014C0E6FF15C077
:10063000E6FF0BEC15F0E552E552110EE66E270EC3
:10064000E66EF4DCE552E552F3CF14F0F4CF15F08A
:1006500014C0E6FF15C0E6FF88EC17F0E552E5523E
:10066000DF6A040EDF5C1BE2300EDF24E66E6DEC09
:1006700018F0E552040EE66E270EE66ED7DCE55262
:10068000E552F3CF14F0F4CF15F014C0E6FF15C017
:10069000E6FF88EC17F0E552E552DF2AE2D7C80EF4
:1006A000E66E56EC18F0E552010EE66EA2EC14F080
:1006B000E552800EE66EA2EC14F0E552F40EE66E02
:1006C000260EE66EB3DCE552E552F3CF14F0F4CF1C
:1006D00015F014C0E6FF15C0E6FF0BEC15F0E5526F
:1006E000E552E90EE66E260EE66EA0DCE552E55216
:1006F000F3CF14F0F4CF15F014C0E6FF15C0E6FFF9
:1007000088EC17F0E552E552DF6A200EDF5C52E21A
:10071000DF500F0B18E1C00EE66EA2EC14F0E552AC
:10072000E60EE66E260EE66E81DCE552E552F3CF6C
:1007300014F0F4CF15F014C0E6FF15C0E6FF88EC06
:1007400017F0E552E552040EDB6A050EDB6A9E5097
:10075000200B16E1040EDBCF14F0050EDBCF15F0F5
:10076000D00E145C070E15580BE2040EDB2A050EA2
:1007700001E3DB2A020EE66EC2EC18F0E552E7D781
:100780009EAA07D01CEC18F0E76E010EE7CFDBFF46
:1007900003D0DE522D0EDD6E010EDBCFE6FFBDEC89
:1007A00014F0E552010EDBCFE6FF6DEC18F0E552D8
:1007B000DF2AABD7C80EE66EC2EC18F0E552070E82
:1007C000926E020EC16E010EE66EA2EC14F0E552BE
:1007D000800EE66EA2EC14F0E552D60EE66E260E02
:1007E000E66E24DCE552E552F3CF14F0F4CF15F0B9
:1007F00014C0E6FF15C0E6FF0BEC15F0E552E5521C
:10080000DF6ADF50146E156AD890155004E6C80EE2
:10081000145C000E155870E2870EE66E9AEC18F024
:10082000E55224EC19F007EC00F0000901E0FBD7D9
:100830000BEC19F0F3CF14F0F4CF15F0060E0F0BFC
:1008400005E0D89015321432E806FBE10A0E1502D5
:10085000F3CF15F01402F3CF14F0F4501526CC0E9C
:100860000B6E0C6A14C006F015C007F084EC18F08B
:1008700006C014F007C015F0010E14C0DBFFC60E51
:10088000E66EA2EC14F0E552010EDBCFE6FFE66A5D
:10089000D10E146E260E156E166A14C0E6FF15C032
:1008A000E6FF16C0E6FFD950060FE66E000EDA200E
:1008B000E66E93EC15F0176E070EE15E1750090E09
:1008C000DBCFE6FFBDEC14F0E5522C0EE66EBDEC7E
:1008D00014F0E5520A0EDBCFE6FFBDEC14F0E55252
:1008E000560EE66EBDEC14F0E552140EE66EC2EC48
:1008F00018F0E552DF2A85D7010EE66EA2EC14F05F
:10090000E552800EE66EA2EC14F0E552C10EE66EE2
:10091000260EE66E16EC00F0E552E552F3CF14F029
:10092000F4CF15F014C0E6FF15C0E6FF0BEC15F090
:10093000E552E552DF6ADF50146E156AD890155003
:1009400004E6C80E145C000E155870E28F0EE66EB9
:100950009AEC18F0E55224EC19F007EC00F00009CD
:1009600001E0FBD70BEC19F0F3CF14F0F4CF15F046
:10097000060E0F0B05E0D89015321432E806FBE1A5
:100980000A0E1502F3CF15F01402F3CF14F0F45051
:100990001526CC0E0B6E0C6A14C006F015C007F0BD
:1009A00084EC18F006C014F007C015F0010E14C056
:1009B000DBFFC60EE66EA2EC14F0E552010EDBCFB3
:1009C000E6FFE66AD10E146E260E156E166A14C086
:1009D000E6FF15C0E6FF16C0E6FFD950060FE66E2B
:1009E000000EDA20E66E93EC15F0176E070EE15E4E
:1009F0001750090EDBCFE6FFBDEC14F0E5522C0ECC
:100A0000E66EBDEC14F0E5520A0EDBCFE6FFBDEC5E
:100A100014F0E552560EE66EBDEC14F0E552140EDD
:100A2000E66EC2EC18F0E552DF2A85D794909690D6
:100A3000010EE66EA2EC14F0E552800EE66EA2EC1A
:100A400014F0E552B40EE66E260EE66E16EC00F0DB
:100A5000E552E552F3CF14F0F4CF15F014C0E6FFE1
:100A600015C0E6FF0BEC15F0E552E552DF6A050E06
:100A7000DF5C08E28270640EE66E56EC18F0E55218
:100A8000DF2AF5D78290010EE66EA2EC14F0E55253
:100A9000800EE66EA2EC14F0E552A70EE66E260E6E
:100AA000E66E16EC00F0E552E552F3CF14F0F4CF09
:100AB00015F014C0E6FF15C0E6FF0BEC15F0E5528B
:100AC000E552DF6A050EDF5C08E28470640EE66EB4
:100AD00056EC18F0E552DF2AF5D78490030E936E9A
:100AE000010EE66EA2EC14F0E552800EE66EA2EC6A
:100AF00014F0E552980EE66E260EE66E16EC00F047
:100B0000E552E552F3CF14F0F4CF15F014C0E6FF30
:100B100015C0E6FF0BEC15F0E552E552C00EE66E8F
:100B2000A2EC14F0E5529C0EE66E270EE66E16EC73
:100B300000F0E552E552F3CF14F0F4CF15F014C0F5
:100B4000E6FF15C0E6FF0BEC15F0E552E55281B269
:100B5000FED7010EE66EA2EC14F0E552800EE66EB2
:100B6000A2EC14F0E5528A0EE66E260EE66E16EC46
:100B700000F0E552E552F3CF14F0F4CF15F014C0B5
:100B8000E6FF15C0E6FF0BEC15F0E552E552DF6A13
:100B9000640EDF5C76E2970EE66E9AEC18F0E55292
:100BA00024EC19F007EC00F0000901E0FBD70BEC96
:100BB00019F0F3CF14F0F4CF15F0060E0F0B05E08B
:100BC000D89015321432E806FBE10A0E1502F3CF75
:100BD00015F01402F3CF14F0F4501526010E0F0B8C
:100BE00005E0D89015321432E806FBE1020E14C07D
:100BF000DBFF030E15C0DBFFC50EE66EA2EC14F0A2
:100C0000E552020EDBCFE6FF030EDBCFE6FFD10E8F
:100C1000146E260E156E166A14C0E6FF15C0E6FFA8
:100C200016C0E6FFD950060FE66E000EDA20E66E1B
:100C300093EC15F0176E070EE15E1750080EDBCF30
:100C4000E6FFBDEC14F0E552090EDBCFE6FFBDEC8C
:100C500014F0E5522C0EE66EBDEC14F0E5520A0ECF
:100C6000DBCFE6FFBDEC14F0E552430EE66EBDECC3
:100C700014F0E552280EE66EC2EC18F0E552DF2AB9
:100C800087D7010EE66EA2EC14F0E552800EE66EF8
:100C9000A2EC14F0E5527B0EE66E260EE66E16EC24
:100CA00000F0E552E552F3CF14F0F4CF15F014C084
:100CB000E6FF15C0E6FF0BEC15F0E552E552828A1F
:100CC000DF6A640EDF5C76E2970EE66E9AEC18F04F
:100CD000E55224EC19F007EC00F0000901E0FBD725
:100CE0000BEC19F0F3CF14F0F4CF15F0060E0F0B48
:100CF00005E0D89015321432E806FBE10A0E150221
:100D0000F3CF15F01402F3CF14F0F4501526010EB2
:100D10000F0B05E0D89015321432E806FBE1020E05
:100D200014C0DBFF030E15C0DBFFC50EE66EA2ECA0
:100D300014F0E552020EDBCFE6FF030EDBCFE6FF39
:100D4000D10E146E260E156E166A14C0E6FF15C07D
:100D5000E6FF16C0E6FFD950060FE66E000EDA2059
:100D6000E66E93EC15F0176E070EE15E1750080E55
:100D7000DBCFE6FFBDEC14F0E552090EDBCFE6FF5A
:100D8000BDEC14F0E5522C0EE66EBDEC14F0E5520D
:100D90000A0EDBCFE6FFBDEC14F0E552430EE66E23
:100DA000BDEC14F0E552640EE66EC2EC18F0E552AC
:100DB000DF2A87D7829A9480010EE66EA2EC14F0A7
:100DC000E552800EE66EA2EC14F0E5526C0EE66E73
:100DD000260EE66E16EC00F0E552E552F3CF14F065
:100DE000F4CF15F014C0E6FF15C0E6FF0BEC15F0CC
:100DF000E552E552D59AD596D58CD590D592D58425
:100E0000D58EF28ACD82CD9ACD98F294D76A060E0D
:100E1000D66E00017D0E806FF28ECF6ACE6ACD80D5
:100E20008284DF6ADF50146E156AD890155004E68C
:100E3000960E145C000E155801E3BDD0970EE66EB9
:100E40009AEC18F0E55224EC19F007EC00F00009D8
:100E500001E0FBD70BEC19F0F3CF14F0F4CF15F051
:100E6000060E0F0B05E0D89015321432E806FBE1B0
:100E70000A0E1502F3CF15F01402F3CF14F0F4505C
:100E80001526010E0F0B05E0D89015321432E80636
:100E9000FBE1020E14C0DBFF030E15C0DBFFC20E28
:100EA000E66EA2EC14F0E552020EDBCFE6FF030E75
:100EB000DBCFE6FFD10E146E260E156E166A14C037
:100EC000E6FF15C0E6FF16C0E6FFD950060FE66E36
:100ED000000EDA20E66E93EC15F0176E070EE15E59
:100EE0001750080EDBCFE6FFBDEC14F0E552090EFB
:100EF000DBCFE6FFBDEC14F0E5522C0EE66EBDEC48
:100F000014F0E5520A0EDBCFE6FFBDEC14F0E5521B
:100F1000430EE66EBDEC14F0E552C80EE66EA2EC90
:100F200014F0E55281C0E6FF82C0E6FFD10E146ED8
:100F3000260E156E166A14C0E6FF15C0E6FF16C031
:100F4000E6FFD950060FE66E000EDA20E66E93EC4F
:100F500015F0176E070EE15E1750070EDBCFE6FFA8
:100F6000BDEC14F0E552080EDBCFE6FFBDEC14F04B
:100F7000E552090EDBCFE6FFBDEC14F0E5520A0E98
:100F8000DBCFE6FFBDEC14F0E552520EE66EBDEC91
:100F900014F0E552500EE66EBDEC14F0E552530E1F
:100FA000E66EBDEC14F0E552140EE66EC2EC18F0DD
:100FB000E552DF2A37D7F29E8294060EC16E180ED4
:100FC000946E010EE66EA2EC14F0E552800EE66E11
:100FD000A2EC14F0E552620EE66E260EE66E16ECFA
:100FE00000F0E552E552F3CF14F0F4CF15F014C041
:100FF000E6FF15C0E6FF0BEC15F0E552E55226ECD6
:1010000011F0C00EE66EA2EC14F0E552AB0EE66EE7
:10101000000EE66E0BEC15F0E552E552900EE66E12
:1010200056EC18F0E552DF6A140EDF5C16E226EC8F
:1010300011F0C00EE66EA2EC14F0E552B50EE66EAD
:10104000000EE66E0BEC15F0E552E552640EE66E0E
:1010500056EC18F0E552DF2AE7D7030E936E010E27
:10106000E66EA2EC14F0E552800EE66EA2EC14F0EF
:10107000E552510EE66E260EE66E16EC00F0E552D5
:10108000E552F3CF14F0F4CF15F014C0E6FF15C00D
:10109000E6FF0BEC15F0E552E552C00EE66EA2EC51
:1010A00014F0E5529C0EE66E270EE66E16EC00F08C
:1010B000E552E552F3CF14F0F4CF15F014C0E6FF7B
:1010C00015C0E6FF0BEC15F0E552E55281B2FED7F4
:1010D000F80E936E010EE66EA2EC14F0E552820E4D
:1010E000E66EA2EC14F0E552430EE66E260EE66EB6
:1010F00016EC00F0E552E552F3CF14F0F4CF15F002
:1011000014C0E6FF15C0E6FF0BEC15F0E552E55202
:10111000C10EE66EA2EC14F0E552DF6A0E0EDF5C43
:1011200017E20F0E956EDC0EE66E050EE66EDCEC39
:1011300013F0E552E552300FE76E010EE7CFDBFF0B
:10114000956ADBCFE6FFBDEC14F0E552DF2AE6D767
:10115000030E936E010EE66EA2EC14F0E552800EC3
:10116000E66EA2EC14F0E552320EE66E260EE66E46
:1011700016EC00F0E552E552F3CF14F0F4CF15F081
:1011800014C0E6FF15C0E6FF0BEC15F0E552E55282
:10119000C00EE66EA2EC14F0E552210EE66E260EAD
:1011A000E66E16EC00F0E552E552F3CF14F0F4CF02
:1011B00015F014C0E6FF15C0E6FF0BEC15F0E55284
:1011C000E5528150010B04E08150020B01E0F9D798
:1011D00081B082D00A0EE66EAEEC17F0E552E76EF3
:1011E000010EE7CFDBFFDBCFE6FFBDEC14F0E552ED
:1011F000A50EE66E0A0EE66EBCEC17F0E552E5525F
:101200005A0EE66E0A0EE66EBCEC17F0E552E55299
:101210000A0EE66EAEEC17F0E552DF6E010EDBCF84
:10122000E6FF0A0EE66EBCEC17F0E552E552010E41
:10123000E66EA2EC14F0E552800EE66EA2EC14F01D
:10124000E552320EE66E260EE66E16EC00F0E55222
:10125000E552F3CF14F0F4CF15F014C0E6FF15C03B
:10126000E6FF0BEC15F0E552E552C00EE66EA2EC7F
:1012700014F0E5525A0EDF5C15E1170EE66E260EED
:10128000E66E16EC00F0E552E552F3CF14F0F4CF21
:1012900015F014C0E6FF15C0E6FF0BEC15F0E552A3
:1012A000E55214D00C0EE66E260EE66E16EC00F03B
:1012B000E552E552F3CF14F0F4CF15F014C0E6FF79
:1012C00015C0E6FF0BEC15F0E552E552C80EE66ED0
:1012D00056EC18F0E55202D081A2FED7010EE66E60
:1012E000A2EC14F0E552800EE66EA2EC14F0E5528A
:1012F000FB0EE66E250EE66E16EC00F0E552E552AA
:10130000F3CF14F0F4CF15F014C0E6FF15C0E6FFDC
:101310000BEC15F0E552E552C00EE66EA2EC14F0AF
:10132000E552210EE66E260EE66E16EC00F0E55252
:10133000E552F3CF14F0F4CF15F014C0E6FF15C05A
:10134000E6FF0BEC15F0E552E5528150010B04E08D
:101350008150020B01E0F9D781B08CD00A0EE66E05
:10136000E66AFCEC11F0E552E552E76E010EE7CFBC
:10137000DBFFDBCFE6FFBDEC14F0E552A50EE66E19
:101380000A0EE66EE66A71EC12F0E552E552E5529D
:101390005A0EE66E0A0EE66EE66A71EC12F0E5523F
:1013A000E552E5520A0EE66EE66AFCEC11F0E552F3
:1013B000E552DF6E010EDBCFE6FF0A0EE66EE66A4F
:1013C00071EC12F0E552E552E552010EE66EA2EC28
:1013D00014F0E552800EE66EA2EC14F0E552FB0E1E
:1013E000E66E250EE66E16EC00F0E552E552F3CF00
:1013F00014F0F4CF15F014C0E6FF15C0E6FF0BECB7
:1014000015F0E552E552C00EE66EA2EC14F0E5527E
:101410005A0EDF5C15E1170EE66E260EE66E16EC30
:1014200000F0E552E552F3CF14F0F4CF15F014C0FC
:10143000E6FF15C0E6FF0BEC15F0E552E55214D0BF
:101440000C0EE66E260EE66E16EC00F0E552E55246
:10145000F3CF14F0F4CF15F014C0E6FF15C0E6FF8B
:101460000BEC15F0E552E552C80EE66E56EC18F09E
:10147000E55202D081A2FED7936A816A010EE66E20
:10148000A2EC14F0E552800EE66EA2EC14F0E552E8
:10149000F10EE66E250EE66E16EC00F0E552E55212
:1014A000F3CF14F0F4CF15F014C0E6FF15C0E6FF3B
:1014B0000BEC15F0E552E552C00EE66EA2EC14F00E
:1014C000E552E20EE66E250EE66E16EC00F0E552F1
:1014D000E552F3CF14F0F4CF15F014C0E6FF15C0B9
:1014E000E6FF0BEC15F0E552E552D80EE66E250E40
:1014F000E66E16EC00F0E552E552F3CF14F0F4CFAF
:1015000015F014C0E6FF15C0E6FF88EC17F0E552B1
:10151000E552FFD70C0EE15C02E2E16AE552E16EB2
:10152000E552E7CFD9FF1200DACFE4FFE2CFDAFFCE
:10153000E9CFE4FFEACFE4FFF6CFE4FFF7CFE4FF23
:10154000F3CFE4FFF4CFE4FFFACFE4FF00EE00F0C6
:10155000140EE80403E3EECFE4FFFBD7E6520001EC
:10156000800780511EE1CD90CF501B6E1BC01CF038
:101570001B6ACE501B10816F1CC082F0070E0B6ED1
:101580000C6A81C006F082C007F084EC18F006C037
:1015900081F007C082F000017D0E806FCF6ACE6AB5
:1015A000CD80F294D76A060ED66EE55200EE13F0A7
:1015B000140EE80403E3E5CFEDFFFBD7E5CFFAFF18
:1015C000E5CFF4FFE5CFF3FFE5CFF7FFE5CFF6FF7B
:1015D000E5CFEAFFE5CFE9FFE5CFDAFF1100DACF8B
:1015E000E4FFE2CFDAFFE6520000E552E5CFDAFF92
:0215F0001100E8
:0E15F20035EC10F0FB0EDBCFF3FFDB06F35001
:1016000000090AE083EC10F0FA0EEEEC10F0F3E1C2
:10161000151CF1E1010E01D0000E64EF10F035EC65
:1016200010F03B0EE12402E3E168E652E16E010EA8
:10163000DB6A020EDB6AF90EDBCFF6FFFA0EDBCFB8
:10164000F7FFFB0EDBCFF8FF0800F550DF6EDF5031
:1016500002E188EF0FF0250EDF5C02E07BEF0FF078
:10166000030EDB6A040EDB6A050EDB6A060EDB6A1C
:10167000070EDB6A9DEC0FF02D0EDF5C0CE02B0EED
:10168000DF5C09E0200EDF5C06E0230EDF5C03E098
:10169000300EDF5C1AE1DF50300A14E0130A0FE06D
:1016A000030A0AE00B0A05E0060AE4E1030EDB8008
:1016B000E1D7030EDB82DED7030EDB84DBD7030E1C
:1016C000DB86D8D7030EDB88D5D72A0EDF5C1BE17B
:1016D00099EC0FF0E7EC0FF010E0030EDB800668EA
:1016E0000768130EDBCF0BF0140EDBCF0CF05BECB6
:1016F00017F0040E04C0DBFF03D0130ED0EC0FF084
:101700009DEC0FF00BD0090EDB6A3EEC10F003E00D
:10171000B2EC10F0FAD7090ED0EC0FF0030EDBB0EC
:10172000DB982E0EDF5C1BE19DEC0FF02A0EDF5CD8
:101730000BE199EC0FF0E7EC0FF003E1130E22EC54
:1017400010F09DEC0FF00BD0090EDB6A3EEC10F0B0
:1017500003E0B2EC10F0FAD7090E22EC10F0680E9C
:10176000DF5C07E19DEC0FF0680EDF5C1DE1030E0E
:1017700018D0740EDF5C17E07A0EDF5C14E0480EC0
:10178000DF5C06E0540EDF5C03E05A0EDF5C02E132
:10179000020E07D06C0EDF5C03E06A0EDF5C04E132
:1017A000010E75EC10F0C9DBDF506E0A01E17FD34A
:1017B0001E0A01E192D1200A01E18FD13F0A01E125
:1017C00049D11A0A01E146D10D0A01E143D1200AAB
:1017D00001E140D13A0A01E13DD1200A01E13AD1CB
:1017E000260A01E135D10D0A01E132D11A0A01E1DF
:1017F000D9D0200A4AE0300A1FE0460A0EE0250A46
:1018000001E083D3D950F90FE96EFF0EDA20EA6EBA
:10181000010EEE5E000EEE5AEE5A83EC10F0250E2D
:10182000E66E95DB03E1151C01E169D37FEC10F056
:1018300001E26BD3DB2A69D3080EDB6A040EDB50AE
:10184000010806E2040EDB0447EC10F0DB508BDBF2
:10185000080EDB5009E0030EDB50010B05E172DBE3
:1018600001E04DD3080EDB6A64DBEFCFDFFFF7EC5E
:1018700010F003E1151C01E142D37FEC10F001E30D
:10188000DB2A60DB01E141D33AD3070EDB500208CB
:101890000FE1C3EC10F0030E8AEC10F00E0EEECF49
:1018A000DBFF0F0EEECFDBFF100EEECFDBFF20D005
:1018B000F70EDBCF17F0F80EDBCF18F0020E175E35
:1018C000000E185AF70E17C0DBFFF80E18C0DBFF2A
:1018D00017C0E9FF18C0EAFF7AEC10F0166A0E0E86
:1018E00014C0DBFF0F0E15C0DBFF100E16C0DBFFB0
:1018F0000E0EDBCFE6FF0F0EDBCFE6FF100EDBCFC9
:10190000E6FF36EC17F0E552E552E552130E05C03E
:10191000DBFF140E06C0DBFF060EDB5005E0130EE6
:10192000BEEC10F001E26ADBE2EC10F002E2130E12
:1019300037DBA5EC10F006E0040EBEEC10F002E27E
:10194000050E2EDB030EDBB005D0FCDA01E0D7D2AA
:10195000080EDB6A090EDB6A0E0EDBCFF6FF0F0EF8
:10196000DBCFF7FF100EDBCFF8FF0800F550DF6E7E
:10197000DF5014E0E8EC10F011E2F7EC10F003E1B6
:10198000151C01E1BCD2BBDB01E3DB2A090EDB2A1B
:10199000D9500E0FE96E000ECBDBE7D7D3DA01E1A9
:1019A000B4D2ADD2C6DA110EEECFDBFF120EEDCF00
:1019B000DBFF110EDBCFE6FF120EDBCFE6FF28ECDC
:1019C00017F0E552E552130EF3CFDBFF140EF4CF00
:1019D000DBFF060EDB5004E0130ED0DB01E20EDB72
:1019E000E2EC10F002E2130EDBDAAFDB05E0040EEE
:1019F000C5DB02E2050ED4DA030EDBB005D0A2DAB5
:101A000001E07DD2080EDB6A090EDB6A110EDBCF26
:101A1000E9FF120EDBCFEAFFEFCFDFFFDF5014E06C
:101A2000D7DB12E2E4DB03E1151C01E168D267DBDE
:101A300001E3DB2A090EDB2A110EDB2ADBCFE9FFEB
:101A4000120EE8E3DB2AE6D77DDA01E15ED257D257
:101A5000030EDB8E070EDB0410E195DB040E5ADB70
:101A60000A0EEECFDBFF0B0EEECFDBFF0C0EEECF40
:101A7000DBFF0D0EEECFDBFF6CD0070EDB50030853
:101A80002CE1030EDBAE0DD0B2DA020E76DAEFCF28
:101A900014F0156A166A176A14AE39D015681668FC
:101AA00035D0F70EDBCF15F0F80EDBCF16F0020EB7
:101AB000155E000E165AF70E15C0DBFFF80E16C0A5
:101AC000DBFF15C0E9FF16C0EAFFEFCF14F00A0EE6
:101AD00014C0DBFF0B0EDB6A38D0070EDB500208A8
:101AE00009E1030EDBAE04D059DB16AE10D00ED0E8
:101AF00055DB0DD0030EDBAE12D079DA020E3DDAE3
:101B0000F9DA166A176A15AE02D016681768E2DAB3
:101B10000C0E16C0DBFF0D0E17C0DBFF1AD0F70E40
:101B2000DBCF16F0F80EDBCF17F0020E165E000EBC
:101B3000175AF70E16C0DBFFF80E17C0DBFF16C0F2
:101B4000E9FF17C0EAFFD6DAC5DA0C0EDB6A0D0E24
:101B5000DB6A060EDB5005E1010EF36E050EF3CFD6
:101B6000DBFF150EDB6A160EDB6AD950370F146ED9
:101B7000000EDA20156E390E14C0DBFF3A0E15C0C8
:101B8000DBFF380EDB6A080EDB6A0A0EAEDADF50C6
:101B9000780A12E0200A10E0280A0CE0200A0AE085
:101BA0003F0A06E00D0A02E0200A08E1020E05D015
:101BB000080E03D0080EDF26100E97DA030EDBBEE8
:101BC00002D0DB92DB94DB50800B24E08ADAD890E1
:101BD000030EEB50000A08E6000EEE5C000EEE5815
:101BE000000EEE58000EEE5815E213DA09680A6886
:101BF0000B680C68F0EC16F00A0E00C0DBFF0B0E51
:101C000001C0DBFF0C0E02C0DBFF0D0E03C0DBFFCB
:101C10002D0E08D0030EDBA202D02B0E03D0DBA4C6
:101C200008D0200EF36E170EF3CFDBFF150EDB2A64
:101C300002D0170EDB6A050EDB5003E1B7D901E1D4
:101C400089D0280E146E320E156E000E166E070E19
:101C5000DBCF17F0186A196A1A6A17C009F018C0A2
:101C60000AF019C00BF01AC00CF0D3D9D4EC17F05D
:101C700014500024F36E15500120F46E165002200B
:101C8000F86EF4CFF7FFF3CFF6FF0800090EF5CF9B
:101C9000DBFF580EDF5C0FE1610EF36E090E7BD99E
:101CA0000AE3200E146E090EDBCFE7FF1450E75E47
:101CB000090EE7CFDBFF070EDBCF14F0156A166ABB
:101CC000176A0FDA14C009F015C00AF016C00BF03D
:101CD00017C00CF0EECF04F0EECF05F0EECF06F01B
:101CE000EFCF07F0D4EC17F007C0EDFF06C0EDFF13
:101CF00005C0EDFF04C0EFFF390EDBCFE9FFDB06C7
:101D00003A0EDBCFEAFF01E2DB06090EDBCFEFFF85
:101D1000150EDB2A4BD995E1030EDBA61DD06F0E05
:101D2000DF5C06E1C1D918E3150EDB285BDA14D0BD
:101D3000780EDF5C09E0580EDF5C06E0620EDF5CC7
:101D400003E0420EDF5C08E1020EF36E160EF3CFE5
:101D5000DBFF02D0150EDB6A030EDB50100B0EE02A
:101D6000040EDBCF14F0050EDB50D880145406E2CD
:101D7000060EDB5003E1040EDB5034DA95D90AE29B
:101D8000050EDBCFE7FF150EDB50E75E050EE7CF54
:101D9000DBFF02D0050EDB6A040EDBCF14F0160E5B
:101DA00045D9D880145414E2160EDBCFE6FF150E89
:101DB000DBCFE6FF040EDBCFE6FF050EDB50E5527E
:101DC000E75CE552D880E754E552D880E7545FD904
:101DD000030EDB50010B0BE1080EDB5008E0B2D81C
:101DE00001E08DD0080EDB50BED8080EDB6A170E5E
:101DF000DB5007E088D9170EF1D903E1151C01E18A
:101E00007ED0160EDB5016E07ED9300EE66E9FD8DF
:101E100002E1151C74E077D9DFCFE6FF38EC16F04D
:101E2000E552E552E552F4CF15F00001F31C02E152
:101E3000151C65E0050EDBCF14F0160EDB50D880C4
:101E4000145409E2050EDBCFE7FF160EDB50E75E08
:101E5000050EE7CFDBFF300EE66E050ECBD94FE166
:101E6000390EDB2ADBCFE9FF3A0E01E3DB2ADBCFB9
:101E7000EAFF090EEFCFDBFFDB500EE044D9090E7D
:101E8000ADD902E1151C3BE0390EDB2ADBCFE9FFBF
:101E90003A0EEDE3DB2AEBD755D831E1160EDBCF56
:101EA000E6FF080EC3D8E552E7245DD82ED0070E12
:101EB000DB50030A1CE0010A14E0030A07E07BD9A7
:101EC000DBCFEEFF020EDBCFEDFF1FD0F5D8196A96
:101ED00017AE02D0186819682CD8BCD819C0EEFF0C
:101EE00014D0EAD817BE186824D8B4D80ED063D955
:101EF000DBCFEFFF0AD07BD905E1151C03E1F368C6
:101F0000F46810D0FCD801E3DB2A79D924EF0BF078
:101F1000010EDBCF14F0020EDBCF15F014C0F3FF7F
:101F200015C0F4FF3B0EE15C02E2E16AE552E16EAE
:101F3000CBD029D9020E8AEF10F061D90800F550F4
:101F4000DF6E1200200EE66E080EFAEF10F038EC8D
:101F500016F0E552E552E552F3CF14F0F4CF15F048
:101F60000001F31C1200146E156AD950010F4DD9EF
:101F70001450EE261550ED221200185E000E195A6C
:101F8000F70E18C0DBFFF80E19C0DBFF18C0E9FF21
:101F900019C0EAFF1200DBCFF4FFF350F45C12002B
:101FA000DB50E76E040EE7CFDBFF12000A0EDBCF3B
:101FB00014F00B0EDBCF15F00C0EDBCF16F00D0E70
:101FC000DBCF17F014501510161017101200130E57
:101FD000EECFDBFF140EEDCFDBFF130EDBCF14F0E3
:101FE000140EDBCF15F00001800E15141200F70E51
:101FF000DBCF18F0F80EDBCF19F01200050EDB5026
:10200000E66ED950130F01D9E552E750EE6EED6A36
:1020100012000A0EDBCF04F00B0EDBCF05F00C0E26
:10202000DBCF06F00D0EDBCF07F01200DBCFE6FFB3
:10203000150EDBCFE6FF050EDB50E552E724E55237
:10204000E7241200DB50CED8010EF36E060EF3CF5C
:10205000DBFF1200EE50EFCFEAFFE96E16C0EEFF95
:1020600017C0EEFF18C0EEFF1200D9CFE6FFDACF9F
:10207000E6FFE1CFD9FFE2CFDAFF1200DFCFE6FFC4
:10208000E66AB0EC18F0E552E552F3501200E76E44
:10209000080EE7CFDBFF1200EECF14F0EECF15F005
:1020A000EFCF16F0176A1200050EDBCF14F0150EF5
:1020B000DB50D88014541200010EDBCF16F0020E54
:1020C000DBCF17F0186A1200E552E5CFDAFFE7CF51
:1020D000D9FF12000A0E14C0DBFF0B0E15C0DBFF88
:1020E0001200D9500A0F05EF11F0F36E070EF3CF6F
:1020F000DBFF1200EECF14F0EFCF15F01200010E4F
:10210000DB2A020E1200FC0EDBCFE6FFFD0EDBCF5A
:10211000E6FF1200145E000E155AF70E14C0DBFF26
:10212000F80E15C0DBFF14C0E9FF15C0EAFF12006E
:10213000DA20EA6EEF2AEECFF6FF000EEF22EECFA6
:10214000F7FFEF22EECFF8FF1200040EDBCFE6FF21
:10215000130EDB50E552E75C9ADFDB5004DF060E1E
:10216000DB501200090EDB500A0DF350DF24D00FB4
:10217000E76E090EE7CFDBFF9DEF0FF0DB50F36E4C
:10218000050ECBEF0FF0F70EDBCF14F0F80EDBCF20
:1021900015F01200DFCFE6FFA7EF0FF028DF030EE8
:1021A000ECDE4CEF10F0F9EC0AF0E552E552E552A6
:1021B000E55200091200BDDEEE50EFCFEAFFE96EF6
:1021C000010E1200130EDB50F36E040ECBEF0FF076
:1021D000040EDB50F36E090ECBEF0FF0DBCFE6FF02
:1021E000A7EF0FF0E76E050EE7CFDBFF12008BDFE6
:1021F000CAEF10F0DBCFE6FF86DFD3EF10F0D95047
:10220000F90FE96EFF0E98EF10F0E96E000EDA207C
:04221000EA6E120060
:0C221400D9CFE6FFE1CFD9FFFE0EDB5072
:10222000F00BE8380F0B300F00D0E552E7CFD9FFA5
:102230001200D9CFE6FFE1CFD9FFFE0EDB500F0B26
:10224000300F00D0E552E7CFD9FF1200D9CFE6FF1B
:10225000E1CFD9FFE6521DEC19F0C580C5B0FED71D
:10226000C5B0FED7D00EE66EB7EC16F0E5521DEC09
:1022700019F0E66AB7EC16F0E5521DEC19F0C582CC
:10228000C5B2FED7C5B2FED7D10EE66EB7EC16F0DA
:10229000E5521DEC19F0FEEC18F07F0BDF6E1DEC23
:1022A00019F0C59AC588C5B8FED7C5B8FED70001D4
:1022B0003A0EBA6FDFCFE6FFADDFE5520001BB6F2C
:1022C000DFCFE6FFB6DFE5520001BC6FBD6BFEEC71
:1022D00018F07F0BDF6E1DEC19F0C59AC588C5B8E4
:1022E000FED7C5B8FED700013A0EB76FDFCFE6FFC5
:1022F00091DFE5520001B86FDFCFE6FF9ADFE552CC
:102300000001B96FFEEC18F03F0BDF6E1DEC19F009
:10231000C59AC588C5B8FED7C5B8FED7DFCFE6FFDA
:1023200079DFE5520001B56FDFCFE6FF82DFE552CE
:102330000001B66FFEEC18F01DEC19F0C59AC588C7
:10234000C5B8FED7C5B8FED7FEEC18F03F0BDF6E60
:102350001DEC19F0C59AC588C5B8FED7C5B8FED71B
:10236000DFCFE6FF57DFE5520001AB6FDFCFE6FFBF
:1023700060DFE5520001AC6FFEEC18F01F0BDF6E62
:102380001DEC19F0C59AC588C5B8FED7C5B8FED7EB
:1023900000012F0EAD6FDFCFE6FF3CDFE5520001FD
:1023A000AE6FDFCFE6FF45DFE5520001AF6FFEEC19
:1023B00018F0DF6E1DEC19F0C58AC588C5B8FED7C8
:1023C000C5B8FED700012F0EB06FDFCFE6FF22DFCA
:1023D000E5520001B16FDFCFE6FF2BDFE5520001D0
:1023E000B26FB36BC584C5B4FED7C5B4FED7E55292
:0823F000E552E7CFD9FF12000E
:0823F800D9CFE6FFE1CFD9FFC8
:10240000030EE126FD0EDBCF14F0FE0EDBCF15F040
:10241000000E1416010E151615C014F0156A14C01E
:10242000DBFFFF0EE76EFD0EDBCF14F0FE0EDBCF01
:1024300015F0E7501416156A020E14C0DBFF1DECF0
:1024400019F0C580C5B0FED7C5B0FED7010EDB5070
:1024500006E0A20EE66EB7EC16F0E55205D0A00E2F
:10246000E66EB7EC16F0E5521DEC19F0020EDBCF6C
:10247000E6FFB7EC16F0E5521DEC19F0C582C5B2C7
:10248000FED7C5B2FED7010EDB5006E0A30EE66E06
:10249000B7EC16F0E55205D0A10EE66EB7EC16F0DB
:1024A000E5521DEC19F0FEEC18F0DF6E1DEC19F092
:1024B000C58AC588C5B8FED7C5B8FED7C584C5B41A
:1024C000FED7C5B4FED7DF50146E030EE15C03E205
:1024D00000D0E16AE552E16E1450E552E7CFD9FF32
:1024E0001200D9CFE6FFE1CFD9FF050EE126FC0EA1
:1024F000DB50DE6EDD6AFD0EDBCF14F0FE0EDBCFAF
:1025000015F0000E1416010E151615C014F0156AFC
:10251000020E14C0DBFFFF0EE76EFD0EDBCF14F0E2
:10252000FE0EDBCF15F0E7501416156A030E14C02B
:10253000DBFF040EDB6A1DEC19F0C580C5B0FED7C9
:10254000C5B0FED7020EDB5006E0A20EE66EB7EC79
:1025500016F0E55205D0A00EE66EB7EC16F0E55287
:102560001DEC19F0030EDBCFE6FFB7EC16F0E552D9
:102570001DEC19F0DFCFE6FFB7EC16F0E5521DECCD
:1025800019F0C584C5B4FED7C5B4FED7040EDB2A46
:10259000FD0EDBCFE6FFFE0EDBCFE6FF2DDFE552C3
:1025A000E552146E156A1450DF1803E11550DE521F
:1025B000DD1808E00A0EF36E040EDBCFF4FFF350D3
:1025C000F45CB9E3050EE15C02E2E16AE552E16E1A
:0825D000E552E7CFD9FF12002C
:0825D8000D0A2046494D210DBA
:1025E0000A00205072657373696F6E6520525354F0
:1025F0000020202020202046696D005465737465FA
:1026000020454550524F4D20455854002020202051
:1026100020204552524F00202020202020204F4BC8
:10262000002028733D524230206E3D524231292015
:102630003F00546573746520454550524F4D204905
:102640004E54005465737465205465636C61646F07
:10265000004465732E204449532A2065204C45448C
:102660003100546573746520525443002020205477
:1026700065737465205245534652002020205465EE
:1026800073746520415155454300202020546573E3
:1026900074652054454D50004465736C2E2052459E
:1026A0004C31204449500054657374652052454CA8
:1026B0004520320054657374652052454C452031E5
:1026C000002054657374652041444320285032290A
:1026D00000253035690020546573746520414443FA
:1026E0002028503129000D0A00204469676974656B
:1026F000210D0A0054657374652053657269616C1D
:10270000205258002050696373696D4C61620D0A54
:10271000000D0A2050696373696D6C61620D0A20B7
:1027200054657374652053657269616C2054580D4B
:102730000A003936303020384E31005465737465E4
:102740002053657269616C205458002020546573D1
:102750007465204368617665730054657374652001
:102760004C454473004465736C6967756520525429
:10277000432044495000202020546573746520375D
:102780002053656700202020202020204F6B002050
:1027900020205465737465204C4344005072657367
:1027A000732E20524231004C6967756520746F6446
:0727B0006F73204449500043
:0827B800D9CFE6FFE1CFD9FF04
:1027C000050EE126DE6ADD6A030EDB6A040E81CFA8
:1027D000DBFFDECF14F0DDCF15F0FD0EDBCF16F002
:1027E000FE0EDBCF17F01650145C175015580AE395
:1027F000D950FD0FE96EFF0EDA20EA6EEE50ED10B3
:1028000001E078D0030EDB5001E074D0020EDB6AE9
:10281000030EF36E020EDBCFF4FFF350F45C60E2C4
:10282000020EDB50EA6AC90FE96E000EEA22EF1CC5
:10283000811283B610D0280EE66EC2EC18F0E55275
:1028400083B609D083A6FED7020EDB28E76E030EFF
:10285000E7CFDBFF45D083B411D0280EE66EC2EC83
:1028600018F0E55283B40AD083A4FED7020EDB50E1
:10287000040FE76E030EE7CFDBFF32D083B211D037
:10288000280EE66EC2EC18F0E55283B20AD083A29D
:10289000FED7020EDB50070FE76E030EE7CFDBFF1C
:1028A0001FD083B011D0280EE66EC2EC18F0E552AE
:1028B00083B00AD083A0FED7020EDB500A0FE76E6A
:1028C000030EE7CFDBFF0CD0020EDB50EA6AC90F24
:1028D000E96E000EEA22EF508116020EDB2A98D72D
:1028E0000A0EE66EC2EC18F0E552050EDE26000E6A
:1028F000DD226FD7030EDB5002E1030EDB68030E0F
:10290000DB500B0802E1030EDB6A040EDB50816E24
:10291000030EDB50146E050EE15C03E200D0E16AA9
:0E292000E552E16E1450E552E7CFD9FF1200E8
:02292E00D9CFFF
:10293000E6FFE1CFD9FFFE0EDB50836EE552E7CF15
:10294000D9FF1200D9CFE6FFE1CFD9FF8482FE0E76
:10295000DBCFE6FFECDFE5528494060EE66EC2ECB8
:1029600018F0E5528492060EE66EC2EC18F0E552BD
:102970008482E552E7CFD9FF1200D9CFE6FFE1CF3D
:10298000D9FF8482FE0EDBCFE6FFD1DFE5528484DF
:10299000060EE66EC2EC18F0E5528492060EE66E64
:1029A000C2EC18F0E5528482E552E7CFD9FF12005D
:1029B00084928494280EE66EC2EC18F0E55284826C
:1029C000380EE66EBFDFE5520A0EE66EC2EC18F076
:1029D000E552380EE66EB6DFE552020EE66EC2EC48
:1029E00018F0E552380EE66EADDFE552080EE66EE1
:1029F000A9DFE5520F0EE66EA5DFE552010EE66E89
:102A0000A1DFE552380EE66E9DDFE552800EE66EE0
:102A100099DFE5521200D9CFE6FFE1CFD9FFE652A8
:102A2000DF6ADF50E76EFD0EDBCFE9FFFE0EDBCF86
:102A3000EAFFE750E926000EEA22EF5012E0DF50ED
:102A4000E76EFD0EDBCFE9FFFE0EDBCFEAFFE750BE
:102A5000E926000EEA22EF50E66E8FDFE552DF2A0C
:0C2A6000E0D7E552E552E7CFD9FF1200A5
:042A6C00D9CFE6FFD9
:102A7000E1CFD9FFFE0EDB500F0A4DE0010A48E01E
:102A8000030A43E0010A3EE0070A39E0010A34E0A4
:102A9000030A2FE0010A2AE00F0A25E0010A20E0DC
:102AA000030A1BE0010A16E0070A11E0010A0CE024
:102AB000030A07E0010A02E0000E31D03F0E2FD0DA
:102AC0002ED0060E2CD02BD05B0E29D028D04F0E46
:102AD00026D025D0660E23D022D06D0E20D01FD058
:102AE0007D0E1DD01CD0070E1AD019D07F0E17D026
:102AF00016D06F0E14D013D0770E11D010D07C0EDC
:102B00000ED00DD0580E0BD00AD05E0E08D007D0D4
:102B1000790E05D004D0710E02D001D000D0E5525C
:062B2000E7CFD9FF12000F
:0A2B2600D9CFE6FFDACFE6FFE1CFDA
:102B3000D9FFE2CFDAFFE652E652E652E652D9502A
:102B4000F90F146EFF0EDA20156E020E14C0DBFFB3
:102B5000030E15C0DBFF020EDBCFE6FF030EDBCF5B
:102B6000E6FFF90EDBCFE6FFFA0EDBCFE6FFFB0E4A
:102B7000DBCFE6FFD950FC0FE66EFF0EDA20E66EE3
:102B80000FEC0BF0146E070EE15C02E2E16AE55215
:102B9000E16E1450F3CFDEFFF4CFDDFFFC0EDBCF90
:102BA000E9FFFD0EDBCFEAFFEF6ADECF14F0DDCFE9
:102BB00015F014C0F3FF15C0F4FF040EE15C02E24F
:102BC000E16AE552E16EE552E5CFDAFFE7CFD9FFE2
:022BD0001200F1
:0E2BD2001E0EF66E000EF76E000EF86E00017D
:102BE0000900F550C46F0900F550C56F03E1C467D3
:102BF00001D03DD00900F550BF6F0900F550C06FFE
:102C00000900F550C16F09000900F550E96E09008F
:102C1000F550EA6E090009000900F550C26F09007D
:102C2000F550C36F09000900F6CFC6F0F7CFC7F023
:102C3000F8CFC8F0BFC0F6FFC0C0F7FFC1C0F8FFB3
:102C40000001C25302E1C35307E00900F550EE6EE4
:102C5000C207F8E2C307F9D7C6C0F6FFC7C0F7FF3F
:102C6000C8C0F8FF0001C407000EC55BBFD7120043
:102C7000D9CFE6FFDACFE6FFE1CFD9FFE2CFDAFF27
:102C8000FB0EDBCF14F0FC0EDBCF15F00001800E45
:102C900015141AE1FB0EDBCFE9FFFC0EDBCFEAFFD8
:102CA000EECFF3FFEDCFF4FFEE2A000EEF22F3CFCD
:102CB000E9FFF4CFEAFFFD0EDBCFEFFFEF50156A1F
:102CC000F36E15C0F4FF10D0FB0EDB50FE0806E1DA
:102CD000FD0EDBCFE6FFF0EC18F005D0FD0EDBCFEC
:102CE000E6FF03EC00F0E552E552E5CFDAFFE7CF6F
:042CF000D9FF1200F6
:0C2CF400D9CFE6FFDACFE6FFE1CFD9FF31
:102D0000E2CFDAFFAC6AAB6AFD0EDBB0AC88DBA2C7
:102D100002D0AC8CAB8CDBB4AC8EDBA602D0AB8823
:102D200001D0AB8ADBA802D0AC8401D0AC949E98D1
:102D3000DBAC02D09D8A01D09D9A9E9ADBAE02D078
:102D40009D8801D09D98FB0EDB50AF6EAC8AAB8E98
:102D5000949C948EAC50100B04E0AC50800B01E1BD
:0E2D6000948CE552E5CFDAFFE7CFD9FF1200E1
:022D6E00D9CFBB
:102D7000E6FFDACFE6FFE1CFD9FFE2CFDAFFFD0EC3
:102D8000DB50C96EC6AE02D0FF0E24D00F0EC614A3
:102D900008080FE00F0EC6140B080BE0C6889EA6AD
:102DA000FED7C750040B03E1C750010B10E0000E23
:102DB00011D00F0EC614080804E00F0EC6140B083D
:102DC00009E1C7B0FED71DEC19F0C5AC02D0FE0E6C
:102DD00001D0000EE552E5CFDAFFE7CFD9FF1200B0
:102DE00004500902F3CF00F0F4CF01F00A02F350CF
:102DF0000126000EF420026E04500B02F35002264E
:102E0000000EF420036E04500C02F350032605500C
:102E10000902F3500126F4500222000E032205504D
:102E20000A02F3500226F450032205500B02F3501D
:102E3000032606500902F3500226F45003220650DE
:102E40000A02F350032607500902F350032612002A
:102E5000FE0EE3CFE9FFFF0EE3CFEAFFF36AF46A69
:102E6000EE5203E0F34AF42AFBD71200FF0EE3CF41
:102E7000F8FFE552FF0EE3CFF7FFE552FF0EE3CF79
:102E8000F6FFE552E66AE66AE66A0900F55209E0ED
:102E9000FD0EE32A05E1FE0EE32A02E1FF0EE32A1E
:102EA000F4D7FD0EE3CF05F0FE0EE3CF06F0FF0EE4
:062EB000E3CF07F0120061
:0A2EB60007C013F006C012F006502A
:102EC0000B02F4CF05F0F3CF04F007500C02F4CF5F
:102ED00007F0F3CF06F00B02F3500526F45006225C
:102EE000E86A072212500C02F3500526F45006221D
:102EF000E86A07220CAE81EF17F01250065E1350FD
:102F0000075A13AE000C0B50065E0C50075A000C0B
:102F1000D9CFE6FFDACFE6FFE1CFD9FFE2CFDAFF84
:102F2000ACA2FED7FC0EDBCFE9FFFD0EDBCFEAFF44
:102F3000EF50E66E6DEC18F0E552FC0EDBCFE9FFCA
:102F4000DB2AFD0EDBCFEAFF01E3DB2AEF50E8E1ED
:0C2F5000E552E5CFDAFFE7CFD9FF120011
:042F5C00D9CFE6FFE4
:102F6000E1CFD9FFFE0EDB50A96EA680A85000D09D
:102F7000E552E7CFD9FF1200D9CFE6FFE1CFD9FF65
:102F8000FE0EDB50A96EFD0EDB50A86EA684550E1A
:102F9000A76EAA0EA76EA682A6B2FED7A69400D0F0
:082FA000E552E7CFD9FF120052
:082FA800036A026A016A006A73
:102FB000200EE76ED8900436053606360736003602
:102FC0000136023603360950005C0A5001580B5096
:102FD00002580C50035809E30950005E0A50015A88
:102FE0000B50025A0C50035A042AE72EE4D7120061
:102FF000D9CFE6FFDACFE6FFE1CFD9FFE2CFDAFFA4
:10300000C26AFD0EDB50C16EFC0EDB50380B146E35
:10301000FD0EDB50040DF350C00B1410C26EFC0EFD
:10302000DBAE03D09E9C9D8CF28CC280E552E5CF36
:08303000DAFFE7CFD9FF12001F
:08303800D9CFE6FFDACFE6FF75
:10304000E1CFD9FFE2CFDAFFE652F20E0001CD1751
:10305000ABAC03D0CD91ABB0CD81ABB4CD85ABB231
:10306000CD87AE50DF6EDF50E552E552E5CFDAFF97
:06307000E7CFD9FF1200BA
:0A307600D9CFE6FFDACFE6FFE1CF85
:10308000D9FFE2CFDAFF3F0EC716C66AC56AFD0E4A
:10309000DB50C612FC0EDB50C71294869488C68A99
:0C30A000E552E5CFDAFFE7CFD9FF1200C0
:0430AC00FF0EE350E0
:1030B0001E6EEF0E01D0F30EE76EE72E5DEF18F0F7
:1030C0000C0E1D6EE76AE72E63EF18F01D2E62EFFF
:0A30D00018F01E2E5BEF18F012003E
:0630DA00D9CFE6FFDACFBA
:1030E000E6FFE1CFD9FFE2CFDAFFACAC04D0AC9081
:1030F0000001CDB3AC80FD0EDB50AD6EE552E5CFE7
:08310000DAFFE7CFD9FF12004E
:08310800036A026A100EE76E73
:10311000D89006360736023603360B50025C0C5048
:10312000035805E30B50025E0C50035A062AE72EA3
:04313000F0D71200C2
:0C313400D9CFE6FFDACFE6FFE1CFD9FFEC
:10314000E2CFDAFFC70EC214146EFD0EDB50380B4F
:103150001410C26EE552E5CFDAFFE7CFD9FF1200B7
:10316000F36AF46AFF0EE124E96EFF0EE220EA6ED4
:10317000ED6607D02F0EEF6404D03A0EEF6001D059
:04318000F32A12001C
:0C318400FF0EE3501E6E480E01D04C0EF2
:10319000E76EE72EFED7E76AE72EFED71E2EF7D79B
:0431A0000000120019
:0C31A400000EF36E00EE00F0060E01D8E5
:1031B0001200EA6002D0EE6AFCD7F350E960120018
:0431C000EE6AFCD7E0
:0C31C40015EE00F025EE00F0F86A0F9CFC
:1031D000E9EC15F026EC19F049EC00F0FBD71200F1
:1031E000FF0EE350ACBA04D0AF6AAB8EAC8A949CAD
:0C31F000ACA2FED7AD6EF36EF46A1200C4
:0431FC000F0EC614D8
:10320000080804E00F0EC6140B0801E1C586C7A02C
:06321000FED7C9501200B8
:0A321600C450176E166AC35016105C
:08322000F36E17C0F4FF120069
:08322800303132333435363702
:09323000383961626364656600CF
:06323A001F0EC514FDE1AA
:08324000C750040BFAE1120073
:04324800C28412002A
:02324C0012006E
:02324E0001027B
:02325000040078
:020000040030CA
:0E00000000220D0EFFFFFBFFFFFFFFFFFFFFC3
:00000001FF
