:02000000EF29E6
:10000600831203130612F20108307202031827281E
:100016007208073CF000F101031CF1037008F100BF
:100026005B08F000710803191C28F00CF013FF3E62
:1000360016280130F0057018222886112328861507
:0A00460006160612F20A0728080049
:10005000831203137008F100F0010830FC007108EE
:10006000F40C03183728FC0B3028F101003403107E
:100070003C28F40C0318F107F10CF00CFC0B3928A8
:02008000080076
:100082008312031305145A08DB000320861108307B
:10009200FC00C930FD00FD0B4C28FC0B4C28000075
:1000A200000005100830FC00C930FD00FD0B572888
:0C00B200FC0B572800000000051408009B
:0E00BE008312031321088A0020088200080024
:1000CC008312031305145A08DB000320861508302D
:1000DC00FC00C930FD00FD0B7128FC0B71280000E1
:1000EC00000005100830FC00C930FD00FD0B7C2819
:0C00FC00FC0B7C2800000000051408002C
:100108008316031398188A280000842883125A0833
:040118009900080042
:0E011C000030831203138C1A0130F00008002B
:10012A0083120313051086113430FC00F130FD00F0
:10013A00FD0B9D28FC0B9D280000000005143030A3
:10014A00DA0041200D30FC00FB30FD00FD0BAB282E
:10015A00FC0BAB28000000003030DA0041200330ED
:10016A00FC009730FD00FD0BB828FC0BB8280000F6
:10017A0000003830DA0041200830DA0041200F3020
:10018A00DA0041200130DA0041203830DA0041201B
:08019A008030DA00412008006A
:1001A20083120313D701D801D9010508D6005408D8
:1001B2005802031DDE2853085702031CE528530882
:1001C20054040319E5286E295908031D6E29D50127
:1001D2000430550203185F295508B33EF00003307E
:1001E2000318013EF1007008A0007108A1005F2011
:1001F2008A110A12F00070088504861F172934300C
:10020200FC00F130FD00FD0B0429FC0B0429000069
:100212000000861F1729861F0F290C295508F00098
:100222000330F4002820700AD9005F29061F312903
:100232003430FC00F130FD00FD0B1D29FC0B1D29A3
:1002420000000000061F3129061F2829252955080C
:10025200F0000330F40028207008023ED9005F2924
:10026200861E4B293430FC00F130FD00FD0B37298E
:10027200FC0B372900000000861E4B29861E4229EE
:100282003F295508F0000330F40028207008033E8F
:10029200D9005F295508B33EF00003300318013E30
:1002A200F1007008A0007108A1005F208A110A12F3
:1002B200F000F00970088505D50AE9280D30FC0028
:1002C200FB30FD00FD0B6329FC0B632900000000DD
:1002D2000530D7070318D80AD8285908031D7329EF
:1002E200FF30D90059080B3A031D7829D901560865
:0802F20085005908F000080026
:1002FA0083120313D501530884000008D40054085C
:10030A00003A031992295408DA008420D50A5508BC
:0C031A00530784000008D4008429080068
:10032600831603139816903083129800831686144A
:10033600061183128C1EA2291A08F0009C290800B7
:1003460083120313D40154085307840000080319C9
:10035600B4295408530784000008DA006620D40A3A
:04036600A6290800BC
:10036A005F208A110A128000840AA00A0319A10ACE
:08037A00F003031DB529080082
:10038200831203131A08F100981CC92918121816AF
:060392007108F0000800F4
:1003980083120313F3017308223EF2007308530714
:1003A800F00054080318013EF1007008A00071081D
:1003B800A1005F208A110A12F000720884007008F8
:1003C80080007208840000080319EC29F30ACF2979
:0603D8002230F0000800D5
:1003DE000730831203139F00303083168500E730F9
:1003EE00860083128501860195203330831699008D
:1003FE00181593210130DA0041208030DA004120B7
:10040E005830D3000330D400CC217008D300A32180
:10041E00C230DA004120A630D3000330D400CC2104
:10042E007008D300A3211630D3000330D400CC21A2
:10043E007008D3007D21CF0104304F020318352AF6
:10044E0030304F07DA0084208430D3000330D400DC
:10045E00CC217008D3007D21CF0A232A0B30FB005C
:10046E002630FC005D30FD00FD0B3B2AFC0B3B2AC9
:10047E00FB0B3B2A000000000130DA0041208030E7
:10048E00DA0041204830D3000330D400CC2170086C
:10049E00D300A3219130D3000330D400CC217008B7
:1004AE00D3007D21CF0120304F0203189D2A0F303B
:1004BE004F05F000031D6E2AC030DA004120B73020
:1004CE00D3000330D400CC217008D3007D21D1019C
:1004DE00D2018E207008031D8A2A07305202031D96
:1004EE007A2AD030510203188A2AD10A0319D20A65
:1004FE000330FC009730FD00FD0B832AFC0B832A92
:10050E0000000000702A8E207008013A031D932A05
:10051E00C1217008D000952A2D30D0005008DA0085
:10052E0066205008DA008420CF0A5A2A0230FB00D7
:10053E000430FC00BA30FD00FD0BA32AFC0BA32AED
:10054E00FB0BA32A00000130DA0041208030DA00D4
:10055E0041203730D3000330D400CC217008D300B3
:10056E00A3216830D3000330D400CC217008D3000F
:10057E007D21CF0120304F020318E62A0F304F05A0
:10058E00F000031DD52AC030DA004120BA30D30066
:10059E000330D400CC217008D3007D21D030D3009D
:1005AE000730D400D1203030F0077008D00070082A
:1005BE00DA0066205008DA008420CF0AC12A023001
:1005CE00FB000430FC00BA30FD00FD0BEC2AFC0BE6
:1005DE00EC2AFB0BEC2A00000130DA0041208430BB
:1005EE00DA004120AF30D3000330D400CC217008A4
:1005FE00D300A321C130DA0041207630D30003307E
:10060E00D400CC217008D300A3219C30D30003303A
:0E061E00D400CC217008D3007D21142B152BA5
:10062C000D340A34203450346934633473346934EF
:10063C006D346C34613462340D340A3420345434E7
:10064C006534733474346534203453346534723403
:10065C00693461346C342034543458340D340A34D5
:02066C00003458
:10066E0054346534733474346534203454346534FE
:10067E0063346C34613464346F34203454345834FD
:02068E00003436
:1006900054346534733474346534203453346534DD
:1006A0007234693461346C34203452345834003438
:1006B00054346534733474346534203453346534BD
:1006C0007234693461346C34203454345834003416
:1006D0000D340A3420344134673475346134723453
:0C06E0006434653421340D340A340034D5
:1006EC005034723465347334733469346F346E340B
:0C06FC006534203452345334543400343C
:100708002034503469346334733469346D344C3470
:0A071800613462340D340A340034F9
:100722002034443469346734693474346534213490
:060732000D340A3400340E
:100738000D340A342034463449344D3421340D34D0
:040748000A3400343B
:10074C003934363430343034203438344E34313457
:02075C00003467
:08075E00463469346D340034A7
:080766000234043440348034F5
:06076E000D340A340034D2
:060774000D340A340034CC
:02400E006A2125
:00000001FF
