:0400000014EF00F009
:060008004482D4ED09F072
:100018004480E0CF0AF000F00AC0E0FF44901000EE
:100028008EEF0AF0010E50EC0AF0800E50EC0AF048
:10003800EC0E0E6EFE0E0F6E5DEC07F0070E926E64
:10004800C9EC0AF0020E54EC09F00BC012F00CC017
:1000580013F0000E156E0A0E146E7BEC0AF0D890A1
:100068001330236E12302B6E23C02CF0C50E50ECCB
:100078000AF02BC01FF02CC020F0250E216E000EB8
:10008800226EE0EC03F0275039EC0AF0285039ECE6
:100098000AF02E0E39EC0AF0295039EC0AF0430E1A
:1000A80039EC0AF0340E236EF20EE82EFED7232E1A
:1000B800FCD781B262EF00F064EF00F026EF00F0A9
:1000C80081A269EF00F06BEF00F064EF00F0010E21
:1000D80050EC0AF0800E50EC0AF0790E0E6EFF0E0E
:1000E8000F6E5DEC07F0828A828C020E54EC09F0E8
:1000F8000BC012F00CC013F0000E156E0A0E146E31
:100108007BEC0AF0D8901330236E12302B6E23C08C
:100118002CF0C50E50EC0AF02BC01FF02CC020F0BC
:10012800250E216E000E226EE0EC03F0275039EC0C
:100138000AF0285039EC0AF02E0E39EC0AF0295052
:1001480039EC0AF0430E39EC0AF0820E236EDE0E0B
:10015800E82EFED7232EFCD781B2B5EF00F0B7EF1B
:1001680000F079EF00F081A2BCEF00F0BEEF00F0E4
:10017800B7EF00F0829A829C9480010E50EC0AF04E
:10018800800E50EC0AF06A0E0E6EFF0E0F6E5DECDC
:1001980007F0D59AD596D58CD590D592D584D58E9D
:1001A800F28ACD82CD9ACD98F294000ED76E060EC3
:1001B800D66E7D0E2F6EF28E000ECF6E000ECE6EB6
:1001C800CD808284020E54EC09F00BC012F00CC0F2
:1001D80013F0000E156E0A0E146E7BEC0AF0D89020
:1001E8001330236E12302B6E23C02CF0C20E50EC4D
:1001F8000AF02BC01FF02CC020F0250E216E000E37
:10020800226EE0EC03F0275039EC0AF0285039EC64
:100218000AF02E0E39EC0AF0295039EC0AF0430E98
:1002280039EC0AF0C80E50EC0AF02DC01FF02EC0B1
:1002380020F0250E216E000E226EE0EC03F0265011
:1002480039EC0AF0275039EC0AF0285039EC0AF05A
:10025800295039EC0AF0520E39EC0AF0500E39ECFC
:100268000AF0530E39EC0AF01A0E236EF80EE82E37
:10027800FED7232EFCD700D081B245EF01F047EF1F
:1002880001F0E6EF00F081A24CEF01F04EEF01F033
:1002980047EF01F0F29E82940F0EC16E1200000E1D
:1002A8000F6E000E0E6E000E116E81CF10F0E6EF8D
:1002B80001F0000E126ED70E1224F66EF76AFE0ECB
:1002C800F7220800F550FF0A836E0D0E0D6EFC0E26
:1002D800E82EFED70D2EFCD781B075EF01F077EF31
:1002E80001F092EF01F0340E0D6EF20EE82EFED7FB
:1002F8000D2EFCD781B083EF01F085EF01F092EF6E
:1003080001F081A08AEF01F08CEF01F085EF01F098
:100318001250030DF328116EE6EF01F081B297EF4A
:1003280001F099EF01F0B5EF01F0340E0D6EF20E09
:10033800E82EFED70D2EFCD781B2A5EF01F0A7EF6E
:1003480001F0B5EF01F081A2ACEF01F0AEEF01F0E2
:10035800A7EF01F01250030DF350020F116EE6EFF4
:1003680001F081B4BAEF01F0BCEF01F0D8EF01F071
:10037800340E0D6EF20EE82EFED70D2EFCD781B48A
:10038800C8EF01F0CAEF01F0D8EF01F081A4CFEF78
:1003980001F0D1EF01F0CAEF01F01250030DF35054
:1003A800030F116EE6EF01F08368050E0E26000EAE
:1003B8000F22122A030E1264E4EF01F0E6EF01F0B7
:1003C8005FEF01F00B500E5C0C500F58D8A0EFEF08
:1003D80001F0F1EF01F0FAEF01F00B500C10D8A486
:1003E800F8EF01F0FAEF01F002EF02F01150D8B483
:1003F80000EF02F002EF02F05DEF01F01150D8A417
:1004080008EF02F00AEF02F00BEF02F011680B0E92
:100418001118D8A412EF02F014EF02F016EF02F050
:10042800000E116E10C081FF11501200010E50EC29
:100438000AF0800E50EC0AF02E0E0E6EFF0E0F6EB4
:100448005DEC07F0000E54EC09F00BC012F00CC084
:1004580013F0000E156E0A0E146E7BEC0AF012C033
:1004680018F013C019F0000E1B6ECC0E1A6E13ECA8
:1004780008F018502A6EC60E50EC0AF02AC01FF079
:10048800206A240E216E000E226EE0EC03F0275045
:1004980039EC0AF02E0E39EC0AF0285039EC0AF043
:1004A800560E39EC0AF01A0E236EF80EE82EFED717
:1004B800232EFCD700D081B264EF02F066EF02F081
:1004C80026EF02F081A26BEF02F06DEF02F066EF0B
:1004D80002F0010E50EC0AF0800E50EC0AF03D0ECE
:1004E8000E6EFF0E0F6E5DEC07F0010E54EC09F076
:1004F8000BC012F00CC013F0000E156E0A0E146E2D
:100508007BEC0AF012C018F013C019F0000E1B6E35
:10051800CC0E1A6E13EC08F018502A6EC60E50EC6A
:100528000AF02AC01FF0206A240E216E000E226EE7
:10053800E0EC03F0275039EC0AF02E0E39EC0AF003
:10054800285039EC0AF0560E39EC0AF01A0E236ED0
:10055800F80EE82EFED7232EFCD700D081B2B7EFD5
:1005680002F0B9EF02F079EF02F081A2BEEF02F0DB
:10057800C0EF02F0B9EF02F01200010E50EC0AF0E1
:10058800800E50EC0AF01E0E0E6EFF0E0F6E5DEC24
:1005980007F0C00E50EC0AF0DB0E0E6EFE0E0F6E6A
:1005A8005DEC07F0030E936E81A0DDEF02F0DFEF44
:1005B80002F0E6EF02F081B2E4EF02F0E6EF02F0BB
:1005C800D8EF02F081B2EBEF02F0EDEF02F047EF67
:1005D80003F081A2F2EF02F0F4EF02F0EDEF02F087
:1005E800000E166E0A0E156EA50E176ED8EC07F0E3
:1005F800000E116E0A0E106EBDEC08F0000E166E9D
:100608000A0E156E5A0E176ED8EC07F0000E116E12
:100618000A0E106EBDEC08F01E6E010E50EC0AF0CA
:10062800800E50EC0AF01E0E0E6EFF0E0F6E5DEC83
:1006380007F0C00E50EC0AF05A0E1E18D8A427EF87
:1006480003F029EF03F031EF03F0E00E0E6EFF0E1A
:100658000F6E5DEC07F037EF03F0CB0E0E6EFF0E5A
:100668000F6E5DEC07F0030E1D6E080E1C6E770E04
:10067800E82EFED71C2EFCD71D2EFAD700F0ADECC5
:1006880009F04EEF03F081A04CEF03F04EEF03F0BA
:1006980047EF03F0000E936E000E816E1200030EFA
:1006A800936E010E50EC0AF0800E50EC0AF00E0E1C
:1006B8000E6EFF0E0F6E5DEC07F0C00E50EC0AF0E8
:1006C800DB0E0E6EFE0E0F6E5DEC07F0030E936EE2
:1006D80081A071EF03F073EF03F07AEF03F081B2BA
:1006E80078EF03F07AEF03F06CEF03F081B27FEF5D
:1006F80003F081EF03F0D8EF03F081A286EF03F057
:1007080088EF03F081EF03F00A0ED6EC0AF0166EBC
:10071800165039EC0AF0A50E0B6E0A0E67EC0AF0BB
:100728005A0E0B6E0A0E67EC0AF00A0ED6EC0AF0A7
:10073800156E16C00BF00A0E67EC0AF0010E50ECAD
:100748000AF0800E50EC0AF00E0E0E6EFF0E0F6EC1
:100758005DEC07F0C00E50EC0AF05A0E1518D8A43C
:10076800B8EF03F0BAEF03F0C2EF03F0E00E0E6E3D
:10077800FF0E0F6E5DEC07F0C8EF03F0CB0E0E6EA8
:10078800FF0E0F6E5DEC07F0030E146E080E136E6D
:10079800770EE82EFED7132EFCD7142EFAD700F0CA
:1007A800ADEC09F0DFEF03F081A0DDEF03F0DFEF40
:1007B80003F0D8EF03F012001FC018F020C019F0A2
:1007C800270E1B6E100E1A6E13EC08F01850300F1F
:1007D80021C0D9FF22C0DAFFDF6E20EE01F02150E0
:1007E800D9262250DA22270E0E6E100E0D6E1FC06B
:1007F8000BF020C00CF0F1EC08F00BC018F00CC0A6
:1008080019F0030E1B6EE80E1A6E13EC08F0185060
:10081800300FDF6E20EE02F02150D9262250DA2266
:10082800030E0E6EE80E0D6E1FC00BF020C00CF00C
:10083800F1EC08F00BC018F00CC019F0000E1B6E9C
:10084800640E1A6E13EC08F01850300FDF6E20EEAD
:1008580003F02150D9262250DA22000E0E6E640EC3
:100868000D6E1FC00BF020C00CF0F1EC08F00BC0AF
:1008780018F00CC019F0000E1B6E0A0E1A6E13EC5D
:1008880008F01850300FDF6E20EE04F02150D92602
:100898002250DA221FC00BF020C00CF0000E0E6EA2
:1008A8000A0E0D6EF1EC08F00B50300FDF6E20EEE3
:1008B80005F02150D9262250DA22000EDF6E1200F0
:1008C800010E50EC0AF0800E50EC0AF0BF0E0E6ECE
:1008D800FF0E0F6E5DEC07F0C00E50EC0AF0DB0E59
:1008E8000E6EFE0E0F6E5DEC07F0030E936E81A088
:1008F80080EF04F082EF04F089EF04F081B287EF13
:1009080004F089EF04F07BEF04F081B28EEF04F07D
:1009180090EF04F0E1EF04F0948E949CA6EC0AF0BA
:10092800010E50EC0AF0800E50EC0AF0BF0E0E6E6D
:10093800FF0E0F6E5DEC07F0EA0E0C6EFF0E0D6EEB
:1009480082EC09F0000E166E16C013F00F0E131687
:10095800D8A4B1EF04F0B3EF04F0BCEF04F0C00E7C
:1009680050EC0AF0F00E0C6EFF0E0D6E82EC09F0E2
:10097800130E0C6E880E0B6E89EC06F0156E155072
:1009880039EC0AF015509BEC0AF0162A0F0E166483
:10099800D0EF04F0D2EF04F0A8EF04F0020E146ECA
:1009A800040E136EBA0EE82EFED7132EFCD7142EA3
:1009B800FAD700D0E1EC0AF0829C12000B6E18EF17
:1009C80005F03F0E5BEF05F0060E5BEF05F05B0EE2
:1009D8005BEF05F04F0E5BEF05F0660E5BEF05F081
:1009E8006D0E5BEF05F07D0E5BEF05F0070E5BEF1C
:1009F80005F07F0E5BEF05F06F0E5BEF05F0770EED
:100A08005BEF05F07C0E5BEF05F0580E5BEF05F031
:100A18005E0E5BEF05F0790E5BEF05F0710E5BEF94
:100A280005F0000E5BEF05F00B50000AD8B4E5EFB7
:100A380004F0010AD8B4E8EF04F0030AD8B4EBEFE5
:100A480004F0010AD8B4EEEF04F0070AD8B4F1EFC5
:100A580004F0010AD8B4F4EF04F0030AD8B4F7EFAD
:100A680004F0010AD8B4FAEF04F00F0AD8B4FDEF85
:100A780004F0010AD8B400EF05F0030AD8B403EF74
:100A880005F0010AD8B406EF05F0070AD8B409EF53
:100A980005F0010AD8B40CEF05F0030AD8B40FEF3B
:100AA80005F0010AD8B412EF05F015EF05F01200B1
:100AB800C1EC0AF0D00E87EC08F0000E87EC08F0C5
:100AC800C1EC0AF0D10E87EC08F0010ED1EC06F06B
:100AD8007F0B106E3A0E356E1050D0EC0AF0366E61
:100AE8001050DCEC0AF0376E000E386E010ED1ECB7
:100AF80006F07F0B106E3A0E326E1050D0EC0AF0F2
:100B0800336E1050DCEC0AF0346E010ED1EC06F0B6
:100B18003F0B106E1050D0EC0AF0306E1050DCEC29
:100B28000AF0316E010ED1EC06F0010ED1EC06F0A0
:100B38003F0B106E1050D0EC0AF03A6E1050DCECFF
:100B48000AF03B6E010ED1EC06F01F0B106E2F0E53
:100B58003C6E1050D0EC0AF03D6E1050DCEC0AF000
:100B68003E6E000ED1EC06F0106E2F0E3F6E105048
:100B7800D0EC0AF0406E1050DCEC0AF0416E000E2A
:100B8800426EB9EC0AF01200C30E926E010E936E1B
:100B9800010E946E000E956E000E966EF19E23EC7B
:100BA80009F00C0E50EC0AF0E9EC0AF0C9EC0AF076
:100BB8000F0EC16E070EB46E000E806E8282829A8E
:100BC800829C030E936E010E50EC0AF0800E50ECDE
:100BD8000AF0A40E0E6EFF0E0F6E5DEC07F0C00E4D
:100BE80050EC0AF0FD0E0E6EFE0E0F6E5DEC07F077
:100BF80081B201EF06F003EF06F0FCEF05F0ADEC73
:100C080009F01EEC0AF0FBEC09F064EC04F01AECB5
:100C180002F016EC00F09BEC07F00C0E18EC07F055
:100C280053EC03F0C1EC02F0010E50EC0AF0800E18
:100C380050EC0AF0D60E0E6EFF0E0F6E5DEC07F04C
:100C4800C00E50EC0AF0B20E0E6EFF0E0F6E5DEC89
:100C580007F02DEF06F014EF00F0000E106E0CBE3A
:100C68003AEF06F038EF06F040EF06F00B6C0C1E7A
:100C7800D8B00C2A010E106E0EBE47EF06F045EFF5
:100C880006F04BEF06F00D6C0E1ED8B00E2A0D5074
:100C98000E10D8B452EF06F054EF06F078EF06F0D5
:100CA800010E0F6E5CEF06F0D8900D360E360F2A47
:100CB8000EAE61EF06F063EF06F058EF06F00D5048
:100CC8000B5C0E500C58D8A06CEF06F06EEF06F0D7
:100CD80072EF06F00D500B5E0E500C5AD8900E3283
:100CE8000D320F2E63EF06F01050D8B47EEF06F0E9
:100CF80080EF06F084EF06F00B6C0C1ED8B00C2ABF
:100D08000BC00BF00CC00CF01200000E0F6E000EA2
:100D18000E6EABB492EF06F094EF06F09BEF06F080
:100D2800ABA299EF06F09BEF06F0AAEF06F0AB989E
:100D3800AB88AAEF06F0340E0D6EF20EE82EFED741
:100D48000D2EFCD7140E0E26000E0F220B500E5C33
:100D58000C500F58D8A0B3EF06F0B5EF06F0BEEF71
:100D680006F00B500C10D8A4BCEF06F0BEEF06F04E
:100D7800C5EF06F09EAAC3EF06F0C5EF06F09FEF99
:100D880006F09EAACAEF06F0CCEF06F0CFEF06F009
:100D9800AE50D0EF06F0A50E12000D6E000E0E6ECE
:100DA8008296B0EC0AF094888288000E0F6E8286D4
:100DB800B0EC0AF00F5007080B6E82B8E6EF06F0A9
:100DC800EAEF06F00C6A0C2AEBEF06F00C6A0B2A25
:100DD800F0EF06F0D8900C360B2EEEEF06F00C5024
:100DE8000E128296B0EC0AF00F2A070E0F64FFEF7E
:100DF80006F001EF07F0DBEF06F094980D50D8B439
:100E080008EF07F00AEF07F00DEF07F082980EEFF2
:100E180007F08288B0EC0AF08286B0EC0AF082967D
:100E2800B0EC0AF00E501200136E070E936E070E08
:100E38008112010E50EC0AF0820E50EC0AF0880E76
:100E48000E6EFF0E0F6E5DEC07F0C10E50EC0AF04F
:100E5800000E156E51EF07F0130E0C6E880E0B6E18
:100E680053EC01F0300F146E15C00BF00C6A000E35
:100E78000E6E0F0E0D6E31EC06F00B500C10D8A450
:100E880048EF07F04AEF07F04DEF07F0C10E50ECBE
:100E98000AF0145039EC0AF0152A1350155CD8A042
:100EA80058EF07F05AEF07F030EF07F0ADEC09F014
:100EB8001200000E126E7BEF07F012500E24106E17
:100EC800000E0F20116E10C0F6FF11C0F7FF000EC4
:100ED800F86E0F0EF76403D00800F55005D0F6CF72
:100EE800E9FFF7CFEAFFEF5039EC0AF0122A125067
:100EF8000E24106E000E0F20116E10C0F6FF11C0E8
:100F0800F7FF000EF86E0F0EF76403D00800F550D7
:100F180005D0F6CFE9FFF7CFEAFFEF500009D8A4D4
:100F280098EF07F09AEF07F061EF07F01200010E53
:100F380050EC0AF05CEC05F0800E50EC0AF0F90E6B
:100F48000E6EFF0E0F6E5DEC07F03A0E0E6E000E81
:100F58000F6E5DEC07F0C00E50EC0AF0F30E0E6E4B
:100F6800FF0E0F6E5DEC07F0300E0E6E000E0F6E6A
:100F78005DEC07F0030E146E8A0E136E560EE82E03
:100F8800FED7132EFCD7142EFAD781B2CEEF07F076
:100F9800D0EF07F09EEF07F081A2D5EF07F0D7EF6B
:100FA80007F0D0EF07F0120017C01BF01650010B26
:100FB800186E15C019F0000E1A6EC1EC0AF0185020
:100FC800D8B4E9EF07F0EBEF07F0F0EF07F0A20E67
:100FD80087EC08F0F3EF07F0A00E87EC08F0195043
:100FE80087EC08F01B5087EC08F0B9EC0AF01A2AD5
:100FF80015C010F016C011F0BDEC08F01B18D8B4DD
:1010080008EF08F00AEF08F012EF08F0090E1A646A
:1010180010EF08F012EF08F0E1EF07F01200000EF1
:101028001D6E000E1C6E1A501B10D8B41EEF08F06F
:1010380020EF08F048EF08F0010E1E6E28EF08F0C8
:10104800D8901A361B361E2A1BAE2DEF08F02FEF4C
:1010580008F024EF08F0D8901C361D361A50185C9A
:101068001B501958D8A03BEF08F03DEF08F042EFAD
:1010780008F01A50185E1B50195A1C80D8901B3261
:101088001A321E2E2FEF08F01CC018F01DC019F0E0
:101098001200000E066E000E056E03500410D8B440
:1010A80058EF08F05AEF08F082EF08F0010E076ECB
:1010B80062EF08F0D89003360436072A04AE67EFCB
:1010C80008F069EF08F05EEF08F0D89005360636AC
:1010D8000350015C04500258D8A075EF08F077EF70
:1010E80008F07CEF08F00350015E0450025A0580B6
:1010F800D89004320332072E69EF08F005C001F0DA
:1011080006C002F012000D6E8296B0EC0AF0000ED6
:101118000E6E0E5007080B6E0DC00CF00B2A97EFE1
:1011280008F0D8900C320B2E95EF08F0010E0C1633
:101138000C3A82500C18EF0B0C18826E8286B0ECB9
:101148000AF08296B0EC0AF00E2A070E0E64AFEF92
:1011580008F0B1EF08F08DEF08F09488B0EC0AF0D1
:101168008286B0EC0AF0829694988288B0EC0AF0F5
:1011780012001150010B146E10C013F0C1EC0AF0EC
:101188001450D8B4CAEF08F0CCEF08F0D1EF08F04B
:10119800A20E87EC08F0D4EF08F0A00E87EC08F058
:1011A800135087EC08F0C1EC0AF01450D8B4DFEF04
:1011B80008F0E1EF08F0E6EF08F0A30E87EC08F07E
:1011C800E9EF08F0A10E87EC08F0010ED1EC06F06B
:1011D800126EB9EC0AF0125012000D500E10D8B46D
:1011E800F8EF08F0FAEF08F01EEF09F0010E0F6EA5
:1011F80002EF09F0D8900D360E360F2A0EAE07EF23
:1012080009F009EF09F0FEEF08F00D500B5C0E50E5
:101218000C58D8A012EF09F014EF09F018EF09F0F4
:101228000D500B5E0E500C5AD8900E320D320F2E08
:1012380009EF09F00BC00BF00CC00CF012008492FF
:101248008494340E0E6EF20EE82EFED70E2EFCD7C6
:101258008482380E50EC0AF00D0E0E6EFC0EE82E4D
:10126800FED70E2EFCD7380E50EC0AF0030E0E6E89
:10127800980EE82EFED70E2EFCD7380E50EC0AF04A
:10128800080E50EC0AF00F0E50EC0AF0010E50EC6C
:101298000AF0380E50EC0AF0800E50EC0AF01200FA
:1012A800116E11C00DF00D460D46C2500D18C30B3E
:1012B8000D18C26E0D0EE82EFED700F0C282C2B223
:1012C80068EF09F06AEF09F063EF09F0C3CF0DF09A
:1012D800060E0E6ED8900D320E2E6EEF09F00D50E0
:1012E800C4CF0FF0106AD8900F361036D8900F364A
:1012F80010360F100B6E10500C6E1200000E116E8F
:10130800000E106E98EF09F010500C240E6E11505C
:101318000D200F6E0EC0F6FF0FC0F7FF0800F55046
:101328009BEC0AF0104A112A10500C240E6E115032
:101338000D200F6E0EC0F6FF0FC0F7FF0800F55026
:101348000009D8A4AAEF09F0ACEF09F088EF09F07A
:10135800120081B2B2EF09F0B4EF09F0ADEF09F075
:10136800020E0C6E040E0B6EBA0EE82EFED70B2E74
:10137800FCD70C2EFAD700D081A2C5EF09F0C7EF31
:1013880009F0C0EF09F0020E0C6E040E0B6EBA0ED7
:10139800E82EFED70B2EFCD70C2EFAD700D0120061
:1013A80006002F062F50D8A4DCEF09F0DEEF09F075
:1013B800F4EF09F0CF50086ECE50016E08C002F06D
:1013C800000E046E070E036E4DEC08F001C02DF000
:1013D80002C02EF07D0E2F6E000ECF6E000ECE6E68
:1013E800F294000ED76E060ED66E44921100010ECE
:1013F80050EC0AF0800E50EC0AF0960E0E6EFF0EBE
:101408000F6E5DEC07F00F0EC16E3C0E806E020E83
:10141800E2EC04F0836EADEC09F0080EE2EC04F0A7
:10142800836EADEC09F0000E806E0B0EC16E000EDF
:10143800836E12000C0E50EC0AF0010E50EC0AF00C
:10144800800E50EC0AF04C0E0E6EFF0E0F6E5DEC27
:1014580007F0C00E50EC0AF05B0E0E6EFF0E0F6E1A
:101468005DEC07F0ADEC09F012000D6E84820D50B2
:10147800E5EC0AF08484080E0C6ECA0EE82EFED73E
:101488000C2EFCD78492080E0C6ECA0EE82EFED7DE
:101498000C2EFCD7848212000D6E84820D50E5EC70
:1014A8000AF08494080E0C6ECA0EE82EFED70C2E95
:1014B800FCD78492080E0C6ECA0EE82EFED70C2EAE
:1014C800FCD7848212000C6E0CC0A9FF0BC0A8FFC9
:1014D800A684550EA76EAA0EA76EA682A6B277EFAF
:1014E8000AF079EF0AF072EF0AF0A694120012508F
:1014F8001402F3CF16F0F4CF17F012501502F35080
:10150800172613501402F350172616C012F017C0EE
:1015180013F0120000EE2DF0170EEE6AE806FDE15A
:1015280044904492000EF86E0001C8EF05F00B6E6F
:101538000BC0ADFFACA2A3EF0AF0A5EF0AF09EEF37
:101548000AF01200330EAF6EAC84AC9CAC8AAC9837
:10155800AB8EAB9CAB88120000F000F000F000F0FE
:1015680000F000F000F000F0120082868298B0ECE3
:101578000AF08288B0EC0AF0120082868288B0EC09
:101588000AF08298B0EC0AF01200010EC26E0B0E3F
:10159800C16E010EC06E12000B6E0B380F0B0F0BD5
:1015A800300F12000B6E0BC0A9FFA680A8501200C6
:1015B8000B6E0B500F0B300F1200AB9EAC9AAB9812
:1015C80012000B6E0BC083FF1200949882868288EB
:0215D8001200FF
:10FED600000804020120284E3D52423020593D526E
:10FEE600423129203F00546573742054454D5045D6
:10FEF6005241545552450052544320616E6420527B
:10FF0600454C312044495000546573742045455092
:10FF1600524F4D20494E5400546573742045455048
:10FF2600524F4D2045585400205465737420414467
:10FF360043202850312900205465737420414443DE
:10FF460020285032290020202054657374204C4309
:10FF560044204C310020202054657374204C4344C7
:10FF6600204C32002020205465737420436F6F6C40
:10FF7600657200202020546573742048656174659D
:10FF8600720054657374204B6579626F6172640008
:10FF960020202054657374203720536567005475FC
:10FFA600726E206F6666206F6E6C790020507265E7
:10FFB600737320524553455400546573742053653A
:10FFC6007269616C002020202020204552524F008B
:10FFD600202020202020454E4400202020202020C4
:10FFE600204F4B002054797065210D0A00202020F7
:0AFFF6002020005254433A2000007E
:020000040020DA
:08000000FFFFFFFFFFFFFFFF00
:020000040030CA
:0E000000FF02181EFF8180FF0FC00FE00F40AF
:0200000400F00A
:1000000000112233445566778899AABBCCDDEEFFF8
:00000001FF
