:10000000BFEF02F00000000000EF00F00000000071
:0A0010000000000000000000F3D71C
:0A001C00210E0D6E0D2EFED712000E
:100026000F0E0C6E470E0D6E0D2EFED70C2EFCD746
:06003600000000001200B2
:06003C00000000001200AC
:10004200086A096A100E0C6E01340836093604502B
:10005200085E0550D8A0053C095ED8B007D0045010
:1000620008260550D8B0053C0926D890003601363E
:060072000C2EEAD712007B
:10007800010198BF02D0839E01D0838E98BD02D023
:10008800839C01D0838C98BB02D0839A01D0838A49
:1000980098B902D0839801D0838868B102D084844B
:1000A80001D084948482C6DF849298B702D0839E5C
:1000B80001D0838E98B502D0839C01D0838C98B3ED
:1000C80002D0839A01D0838A98B102D0839801D054
:1000D800838868B102D0848401D084948482AADFA2
:0E00E800849268A102D09BDF01D094DF120049
:0E00F600ACB202D00000FCD791C1ADFF1200E9
:100104000101956B050E955D0AE295519325E16E0B
:10011400000E9421E26E200EE66E952BF3D79551D6
:100124009325E16E000E9421E26EE66A95079551DF
:100134009325966F000E9421976F0A0E046E000E9D
:10014400056E91C100F092C101F079DF08C000F0A2
:1001540009C001F0300E002696C1E1FF97C1E2FF0D
:1001640000C0E6FF0A0E046E000E056E91C100F099
:1001740092C101F064DF00C091F101C092F1000E60
:10018400011802E1000E001801E102D09507CFD753
:02019400120057
:0E0196000101689191C198F16CDF688112003F
:0C01A4000E0E0D6E0D2EFED70000120096
:1001B00001018A6B87C1E9FF88C1EAFFEECF89F1AF
:1001C0008951000A0EE089C191F195DF01018A2B66
:1001D0008A518725E96E000E8821EA6EEECF89F1FB
:0401E000EFD7120043
:0A01E400000E9EBA010E006E12001C
:1001EE000101896B89518725E96E000E8821EA6E1F
:1001FE00EE520BE089518725E96E000E8821EA6EDA
:0C020E00EECF91F1C1DF892BEDD712007B
:10021A000B6A0A6A096A00500402F4CF09F0F3CFA4
:10022A0008F001500502F4CF0BF0F3CF0AF00050AA
:10023A000502F3500926F4500A22E86A0B220150FB
:10024A000402F3500926F4500A22E86A0B2208C075
:10025A0000F009C001F00AC002F00BC003F012005E
:10026A00F60E01016D6F000E6E6F910E6F6F010E2B
:10027A00706F100E796F050E7A6F000E7B6F000E8D
:10028A007C6FE40E756F010E766F000E776F000EAD
:10029A00786FFF0E716FFF0E726F000E736F000E94
:1002AA00746FAC8A900EAB6E948E949C9EAA03D007
:0802BA00AECF00F0FBD71200EB
:1002C2000900F5CFE6FF0006FBE10106F9E11200A5
:1002D200969296949598959A959C959E84928494DC
:1002E200839E839C839A83989DDE9CDE9BDE838A19
:1002F20083888482A2DE849295DE84829EDE84924A
:1003020091DE84829ADE84928DDE8398848295DEE9
:10031200849288DE848291DE8492839A838E8482A0
:100322008CDE84927FDE839E8388848286DE849242
:100332008398848282DE849275DE84827EDE849259
:10034200838884827ADE84926DDE8398848275DE6D
:100352008492838E838C838A838884826EDE8492E5
:0803620061DE01016881120057
:10036A0001018D6B8E6B87C18FF188C190F1800E70
:10037A008819006E800E005C02E1000E875D0BE2B8
:10038A00010E8D6F000E8E6F875100088F6F88C126
:10039A0090F1000E90578FC191F190C192F189C1ED
:1003AA0093F18AC194F1A9DE060E8B6F000E8C6F51
:1003BA00000E006E8C51005C02E18B51000819E2BC
:1003CA008B518925E16E8C518A21E26E010E8B5D7B
:1003DA00006E000E8C59016E00508925E96E01509D
:1003EA008A21EA6EEECFE6FF010E8B5F000E8C5B70
:1003FA00DFD789C1E1FF8AC1E2FF200EE66E8D5187
:10040A008E111AE08B6B8C6B8B518925E96E8C519E
:10041A008A21EA6EEE50200A03E18B4B8C2BF4D72B
:10042A00010E8B5F000E8C5B8B518925E16E8C511E
:0A043A008A21E26E2D0EE66E12001C
:1004440032D03F0E006E1200060E006E12005B0EDC
:10045400006E12004F0E006E1200660E006E120047
:100464006D0E006E12007D0E006E1200070E006EFF
:1004740012007F0E006E12006F0E006E1200770ED7
:10048400006E12007C0E006E1200580E006E1200F8
:100494005E0E006E1200790E006E1200710E006E78
:1004A4001200006A120001018751000ACAE0875154
:1004B400010ACAE08751020ACAE08751030ACAE066
:1004C4008751040ACAE08751050ACAE08751060A1F
:1004D400CAE08751070ACAE08751080ACAE087516F
:1004E400090ACAE087510A0ACAE087510B0ACAE01E
:1004F40087510C0ACAE087510D0ACAE087510E0AD7
:0C050400CAE087510F0ACAE0CCD71200F1
:10051000AECF01F0ABA202D0AB98AB8801C000F027
:020520001200C7
:10052200FF0E0101696FFF0E6A6FFF0E6B6FFF0E08
:100532006C6FC26AC00EC212C18CC18EC280120020
:10054200C26AC00EC212C18CC18E87C100F00036D1
:10055200009000360090003600900050C212C28017
:1005620020DEC284C2A401D0FDD7C4CF01F0006A4C
:0C057200C3500012000E0112C2901200D3
:10057E00D2EC06F0060EC16EC30E926E010E936E95
:10058E00010E946E956A966AF19E9CDE330EAF6EE6
:10059E00AC8464DEBFDF030E936E010E986F65DDD3
:1005AE00800E986F62DDAA0E876F000E886F18DEC0
:1005BE00C00E986F5ADD9F0E876F000E886F10DE8B
:1005CE0081A201D0FDD7010E986F4FDD800E986F7E
:1005DE004CDD920E876F000E886F02DE400E986F14
:1005EE0044DD110E916FD0DD190E916FCDDD150E1C
:1005FE00916FCADD130E916FC7DD130E916FC4DDBF
:10060E00150E916FC1DD190E916FBEDD110E916F3A
:10061E00BBDD0E0E916FB8DD110E916FB5DD0E0EB6
:10062E00916FB2DD050E916FAFDD0E0E916FACDDE9
:10063E00140E916FA9DD0A0E916FA6DD110E916F4A
:10064E00A3DDC00E986F11DD7D6B100E7D5D13E284
:10065E00010E7D15916F98DD020E0B6E040E0C6E61
:10066E00BA0E0D6E0D2EFED70C2EFCD70B2EFAD712
:10067E0000007D2BEAD7010E986FF7DC800E986F85
:10068E00F4DCBA0E876F000E886FAADD200E7D6F28
:10069E00800E7D5D18E20F0E7D15016E0150000A71
:1006AE0003E1C00E986FE1DC7DC191F16DDD820E2C
:1006BE000C6EDD0E0D6E0D2EFED70C2EFCD700002F
:1006CE0000007D2BE5D7020E0B6E040E0C6EBA0EDB
:1006DE000D6E0D2EFED70C2EFCD70B2EFAD700006A
:1006EE00010E986FC2DC800E986FBFDCE00E876F34
:1006FE00000E886F75DDC00E986FB7DCD60E876F53
:10070E00000E886F6DDD060E0B6E130E0C6EAD0EA9
:10071E000D6E0D2EFED70C2EFCD70B2EFAD7000029
:10072E000000010E986FA1DC800E986F9EDCC70E44
:10073E00876F000E886F54DD060EC16E7D6B040E42
:10074E007D5D32E20CD0200E806E15D0100E806EC4
:10075E0012D0080E806E0FD0040E806E0CD07D511C
:10076E00000AF1E07D51010AF1E07D51020AF1E04B
:10077E007D51030AF1E07E6B100E7E5D13E27EC1A9
:10078E0087F159DE00C083FF030E0B6E080E0C6E50
:10079E00770E0D6E0D2EFED70C2EFCD70B2EFAD724
:1007AE007E2BEAD77D2BCBD7020EC16E836A030E4A
:1007BE00936E010E986F59DC800E986F56DC810E89
:1007CE00876F000E886F0CDDC00E986F4EDC2F0EFB
:1007DE00876F000E886F04DD81A201D0FDD7936A6A
:1007EE00010E986F42DC830E986F3FDC240E876FEC
:1007FE00000E886FF5DC7E6B030E7E5D1AE2010E35
:10080E007D6F7D51000813E27DC181FF7DC183FFA5
:10081E00030E0B6E080E0C6E770E0D6E0D2EFED7A0
:10082E000C2EFCD70B2EFAD77D377D91EAD77E2B77
:10083E00E3D7816A836A7D6B040E7D5D12E2FF0E43
:10084E00811AFF0E831A030E0B6E080E0C6E770EB6
:10085E000D6E0D2EFED70C2EFCD70B2EFAD77D2B40
:10086E00EBD7010E986F01DC800E986F3CEC00F018
:10087E00150E876F000E886FB3DC7E6B060EC16E91
:10088E00928A7F0E7E15016E01507F0A1DE03F0E8B
:10089E00936E81A07E8181A27E8381A47E8581A6B6
:1008AE007E8781A87E8981AA7E8B80AA7E8D936A9F
:1008BE007EC181FF1A0E0C6EF80E0D6E0D2EFED738
:1008CE000C2EFCD70000DDD7060E0B6E130E0C6E31
:1008DE00AD0E0D6E0D2EFED70C2EFCD70B2EFAD7AD
:1008EE0000000000816A020EC16E948E949C010E6F
:1008FE00986F3CEC00F0800E986F3CEC00F03A0ED6
:10090E00876F000E886F6CDCC40E986F3CEC00F0A5
:10091E00780E876F000E886F63DC570E876F000EA0
:10092E00886F3FDC7D6B040E7D5D0DE2300E7D2504
:10093E00916F7BEC00F04A0E0101876F000E886FFD
:10094E0030DC7D2BF0D70B0E0B6E260E0C6E5D0E73
:10095E000D6E0D2EFED70C2EFCD70B2EFAD70000E7
:10096E000000010E986F3CEC00F0800E986F3CEC8E
:10097E0000F0ED0E876F000E886F32DC290E876F48
:10098E00010E886F0EDC7D6B200E7D5D3CE20F0E3E
:10099E007D15006E0AE1C00E986F3CEC00F0260E3D
:1009AE00876F010E886FD8EC00F07F6B806B13DCC5
:1009BE00005213E1070E805D02E1D00E7F5D0DE265
:1009CE007F4B802B030E0C6E970E0D6E0D2EFED7E9
:1009DE000C2EFCD700000000EAD7F2EC00F000521B
:1009EE0004E08FDD00C07EF103D02D0E01017E6F7D
:1009FE007EC191F1CBEC00F07EC191F17BEC00F069
:100A0E0001017D2BC1D7020E0B6E040E0C6EBA0EB9
:100A1E000D6E0D2EFED70C2EFCD70B2EFAD7000026
:100A2E00010E986F3CEC00F0800E986F3CEC00F0DD
:100A3E00160E876F010E886FF7EC00F07D6BC80EF7
:100A4E007D5D41E2876B76DD0A0E046E000E056E4B
:100A5E000DEC01F0CC0E046E000E056E21EC00F0D4
:100A6E0000C07EF1C60E0101986F3CEC00F07EC115
:100A7E0087F1000E886F810E896F010E8A6F6EDC12
:100A8E008551200A05E1300E916FCBEC00F004D0B9
:100A9E0085C191F1CBEC00F02C0E916FCBEC00F0F8
:100AAE0086C191F1CBEC00F0560E916FCBEC00F0BD
:100ABE001A0E0C6EF80E0D6E0D2EFED70C2EFCD7E8
:100ACE0000007D2BBCD7010E986F3CEC00F0800E21
:100ADE00986F3CEC00F0340E876F010E886FF7ECC8
:100AEE0000F07D6BC80E7D5D42E2010E876F22DD48
:100AFE000A0E046E000E056E0DEC01F0CC0E046EA7
:100B0E00000E056E21EC00F000C07EF1C60E010154
:100B1E00986F3CEC00F07EC187F1000E886F810E5D
:100B2E00896F010E8A6F1ADC8551200A05E1300E9D
:100B3E00916FCBEC00F004D085C191F1CBEC00F0BD
:100B4E002C0E916FCBEC00F086C191F1CBEC00F046
:100B5E00560E916FCBEC00F01A0E0C6EF80E0D6E59
:100B6E000D2EFED70C2EFCD700007D2BBBD79490FC
:100B7E009690010E986F3CEC00F0800E986F3CEC56
:100B8E0000F05B0E876F010E886FF7EC00F07D6B47
:100B9E00050E7D5D11E28270060E0B6E130E0C6E4D
:100BAE00AD0E0D6E0D2EFED70C2EFCD70B2EFAD7DA
:100BBE00000000007D2BECD78290010E986F3CEC6C
:100BCE0000F0800E986F3CEC00F04E0E876F010E19
:100BDE00886FF7EC00F07D6B050E7D5D11E2847081
:100BEE00060E0B6E130E0C6EAD0E0D6E0D2EFED789
:100BFE000C2EFCD70B2EFAD7000000007D2BECD765
:100C0E008490010E986F3CEC00F0800E986F3CECD7
:100C1E0000F0440E876F010E886FF7EC00F0C00EE7
:100C2E00986F3CEC00F0070E876F010E886FF7ECA3
:100C3E0000F0FD0E876F000E886FD8EC00F0FFD726
:020C4E00FFD7CE
:100DA40010EE15F0530E006E020E016E500EF66E2C
:0E0DB4000C0EF76E000EF86E61EC01F01200EE
:0F0C5000202054657374652043686176657300D6
:0B0C5F005465737465204C454473001D
:0B0C6A0050726573732E20524231005F
:100C750054657374652053657269616C205458001E
:0D0C85002050696373696D4C61620D0A00B7
:100C92000D0A2050696373696D6C61620D0A2054FC
:100CA200657374652053657269616C2054580D0A2E
:010CB2000041
:090CB3003936303020384E310092
:100CBC004465736C696775652052544320444950F0
:010CCC000027
:0D0CCD002020205465737465204C434400C2
:0B0CDA0050726573732E2052423100EF
:100CE5004C6967756520746F646F732044495000C3
:0D0CF5002020205465737465204C4344009A
:0F0D0200202020546573746520372053656700E7
:0A0D1100202020202020204F6B003E
:0D0D1B002020205465737465204C43440073
:100D280054657374652053657269616C205258006C
:0A0D38000D0A2046494D210D0A0066
:0F0D4200205072657373696F6E652052535400B1
:100D51002054657374652041444320285031290093
:030D61000D0A0078
:0B0D640020446967697465210D0A00D6
:100D6F002054657374652041444320285032290074
:0A0D7F0020202020202046696D008E
:0D0D890054657374652052454C45203200BE
:0D0D960054657374652052454C45203100B2
:020000040030CA
:0D000100220F0EFF0181FF0FC00FE00F4026
:00000001FF
