:02000000542C7E
:1008A8008313203084004D305B248301352F64008E
:1008B8008001840A04060319003404065C2CF00045
:1008C800700883120313990083160313981C6D2C68
:1008D8006E2C682C08008316031318139816181228
:1008E800181583120313981718131816193083163E
:1008F800031399000800F2000310003003180130B8
:10090800F100721C882C892C8D2C7308F00070085B
:10091800F1070310F30D0310F20CF208031D952CD8
:10092800962C852C71080800F80003100030031875
:100938000130F900A82C7908780784000008CC2435
:100948000130F7007708F9077908780784008313DE
:100958008008031DB02CB12C9F2C0800F400031054
:10096800003003180130F500C22C750874078400A4
:10097800000863240130F3007308F507750874074D
:10098800840083138008031DCA2CCB2CB92C0800C3
:10099800F6008312031305147608E0258312031367
:1009A80086150330F4000030F5000C26831203137B
:1009B80005100330F4000030F5000C2683120313F1
:1009C80005140800F6008312031305147608E025C1
:1009D8008312031386110330F4000030F5000C264F
:1009E8008312031305100330F4000030F5000C26C1
:1009F8008312031305140800FE00FE1F082D83133D
:100A08007E188317000808000408FE0005308A00D5
:100A18007E088207003402340434403480340D34B4
:100A28000A342034503469346334733469346D348F
:100A38006C34613462340D340A34203454346534EF
:100A480073347434653420345334653472346934FF
:100A580061346C342034543458340D340A3400343E
:100A68005434653473347434653420345434653400
:100A780063346C34613464346F34203454345834FF
:100A88000034543465347334743465342034533446
:100A980065347234693461346C34203452345834D7
:100AA8000034543465347334743465342034533426
:100AB80065347234693461346C34203454345834B5
:100AC80000340D340A3420344134673475346134C9
:100AD80072346434653421340D340A3400345034AB
:100AE800723465347334733469346F346E346534F6
:100AF800203452345334543400342034503469345C
:100B08006334733469346D344C34613462340D3475
:100B18000A34003420344434693467346934743412
:100B2800653421340D340A3400340D340A34203449
:100B3800463449344D3421340D340A3400343934C0
:100B4800363430343034203438344E343134003490
:100B5800463469346D3400340030F6000030F70054
:100B6800C02D1430F4000030F5000C261430F607C0
:100B78000318F70A0030F70779087702031DC62D16
:100B880078087602031CC92DCA2DD02D790878045F
:100B9800031DCF2DD02DD62D831203138C1ED52DDA
:100BA800D62DB52D831203138C1EDB2DDC2DDE2DE7
:100BB8001A08DF2DFF300800F10083120313061214
:100BC8000310003003180130F2007108F0007203BE
:100BD800FF3A073E013EF22D0310F00CFF3E031DC5
:100BE800F02D7018F82DFC2D831203138615FF2D98
:100BF800831203138611061606120130F0007008DE
:100C0800F20708307202031C0A2E0B2EE92D080089
:100C18000030F1000030F2002B2E031000300318D2
:100C28000130F30000000000000000000000013067
:100C3800F0007008F307C8307302031C242E252E19
:100C4800162E0130F1070318F20A0030F207750872
:100C58007202031D312E74087102031C342E352EC6
:100C6800112E080083120313051086111430F400A6
:100C78000030F5000C268312031305143030E624E7
:100C88000530F4000030F5000C263030E624013041
:100C9800F4000030F5000C263830E6240830E6244D
:100CA8000F30E6240130E6243830E6248030E6248C
:100CB8000800F1000310003003180130F200682E1C
:100CC8000130F0007008F207710872070925F0007A
:100CD8007208203E84007008831380008008031D7A
:0A0CE800762E772E642E20300800CF
:100CFC00003083120313CD000030CE0003100030FF
:100D0C0003180130D0000508CF000B2F0310003062
:100D1C0003180130D10004305102031C962E972E7B
:100D2C00982EFE2E5108013E0925F6007608850402
:100D3C00861FA12EA22EBA2E1430F4000030F5001E
:100D4C000C2683120313861FAC2EAD2EBA2E861BD7
:100D5C00B02EB12EAD2E0330F30051087F24013E8E
:100D6C0083120313D000FE2E061FBD2EBE2ED62ED0
:100D7C001430F4000030F5000C2683120313061F08
:100D8C00C82EC92ED62E061BCC2ECD2EC92E033026
:100D9C00F30051087F24023E83120313D000FE2E71
:100DAC00861ED92EDA2EF22E1430F4000030F50007
:100DBC000C2683120313861EE42EE52EF22E861AC1
:100DCC00E82EE92EE52E0330F30051087F24033E74
:100DDC0083120313D000FE2E5108013E0925FF3A61
:100DEC00F600760885050130F6007608D107912EBD
:100DFC000530F4000030F5000C2605308312031387
:100E0C00CD070318CE0A0030CE0778084E02031D1A
:100E1C00112F77084D02031C142F152F1B2F780848
:100E2C007704031D1A2F1B2F1F2F5008031D1F2F74
:100E3C008C2ED008031D232F242F262FFF30D000FB
:100E4C0050080B3A031D2B2F2C2F312F0310003081
:100E5C0003180130D0004F088500500808000730F7
:100E6C009F003030831603138500E7308600031093
:100E7C000030031801308312031385000310003077
:100E8C0003180130860036266F240130E6248030AA
:100E9C00E62447305D269824C230E62495305D2642
:100EAC00982405305D26B22403100030031801305D
:100EBC0083120313D3005308303E632473305D2632
:100ECC00B2240130FA007A0883120313D3070430DA
:100EDC005302031C722F732F612FE830F400033080
:100EEC00F5000C260130E6248030E62437305D26F0
:100EFC00982480305D26B224031000300318013092
:100F0C0083120313D30053080F39031D8E2F8F2F19
:100F1C00942FC030E62492305D26B224D030F800F5
:100F2C000730F900B02583120313D2005208CC24E9
:100F3C0083120313520863240130FA007A088312D7
:100F4C000313D30720305302031CAD2FAE2F892F70
:100F5C006430F4000030F5000C260130E6248030BB
:100F6C00E62426305D26982457305D26B2240310E3
:100F7C0000300318013083120313D30053080F39C8
:100F8C00031DC92FCA2FCF2FC030E62492305D2607
:100F9C00B224D030F7000730F8007E26303E8312A2
:100FAC000313D2005208CC24831203135208632477
:100FBC000130FA007A0883120313D307203053024E
:100FCC00031CE92FEA2FC42F6430F4000030F50025
:100FDC000C260130E6248430E6249E305D269824CD
:100FEC00C130E62465305D2698248B305D26B22412
:040FFC00FE2F00289C
:02400E00313F40
:00000001FF
