:060000000A128A11122809
:10000800FE00030E83120313A4000408A5000A08C7
:10001800A6007F08A7000A128A15342D0A128A1131
:100028001528F801D101D2018313A0308400CD3006
:100038000A128A15C32383010A128A112328FF3062
:100048008316031385008601013087008801890122
:100058000A128A15F8260A128A110A128A15BB236F
:100068000A128A110A128A15E0230A128A110A1240
:100078008A15D5230A128A110F30831603139F009D
:1000880007309C00851283120313851601300A126B
:100098008A1531240A128A1180300A128A153124ED
:1000A8000A128A11E53083120313AF008830B000BA
:1000B8000A128A157C240A128A1140300A128A15FB
:1000C80031240A128A1111300A128A11DC270A1205
:1000D8008A1119300A128A11DC270A128A1115307E
:1000E8000A128A11DC270A128A1113300A128A119D
:1000F800DC270A128A1113300A128A11DC270A1225
:100108008A1115300A128A11DC270A128A1119304D
:100118000A128A11DC270A128A1111300A128A116E
:10012800DC270A128A110E300A128A11DC270A12F9
:100138008A1111300A128A11DC270A128A110E302C
:100148000A128A11DC270A128A1105300A128A114A
:10015800DC270A128A110E300A128A11DC270A12C9
:100168008A1114300A128A11DC270A128A110A30FD
:100178000A128A11DC270A128A1111300A128A110E
:10018800DC270A128A11C0300A128A1531240A1291
:100198008A1183120313D001103050020318F0287B
:1001A800500801390A128A11DC270A128A116430B0
:1001B80083120313A8000030A9000A128A155524D7
:1001C8000A128A11013083120313C4004408D007AD
:1001D80010305002031CD428851201300A128A15E7
:1001E80031240A128A1180300A128A1531240A121F
:1001F8008A11E53083120313AF008830B0000A1269
:100208008A157C240A128A11203083120313C40031
:100218004408D000803050020318392950080F399B
:10022800031D1C29C0300A128A1531240A128A11AA
:100238008312031350080A128A11DC270A128A1142
:10024800323083120313A8000030A9000A128A155D
:1002580055240A128A11013083120313C40044087A
:10026800D00780305002031C12296430A8000030E7
:10027800A9000A128A1555240A128A1101300A1295
:100288008A1531240A128A1180300A128A153124FB
:100298000A128A11E53083120313AF008830B000C8
:1002A8000A128A157C240A128A11C0300A128A1589
:1002B80031240A128A11273083120313AF008930C0
:1002C800B0000A128A157C240A128A11F4308312AB
:1002D8000313A8000130A9000A128A1555240A122E
:1002E8008A1101300A128A1531240A128A118030C3
:1002F8000A128A1531240A128A119E3083120313B6
:10030800AF008830B0000A128A157C240A128A11BC
:10031800831203138617D001043050020318C8292A
:100328001030C400500A9A290310C40DFF3E031D63
:10033800982944088600CF0110304F020318C029BD
:100348004F080A128A154D270A128A1183120313BD
:100358008800C830A8000030A9000A128A15552460
:100368000A128A11013083120313C4004408CF070C
:1003780010304F02031CA4290130C4004408D007E0
:1003880004305002031C9429880101300A128A158E
:1003980031240A128A1183300A128A1531240A126A
:1003A8008A11083083120313AF008930B0000A1293
:1003B8008A157C240A128A1183120313CF01033091
:1003C8004F0203180C2AD001D00A1030500203182B
:1003D800042A50088600C830A8000030A9000A1274
:1003E8008A1555240A128A11831203135008C4006F
:1003F8004407C5004508D00010305002031CED2901
:100408000130C4004408CF0703304F02031CE7291A
:100418008601D001043050020318292A0F30C40085
:1004280044088606C830A8000030A9000A128A15B8
:1004380055240A128A11013083120313C400440898
:10044800D00704305002031C122A01300A128A1500
:1004580031240A128A1180300A128A1531240A12AC
:100468008A11AD3083120313AF008830B0000A122E
:100478008A157C240A128A1183120313CF010F30C4
:10048800831203134F05C4000F30440603196B2A67
:100498000F3083160313860083120313061C4F14B0
:1004A800861CCF14061D4F15861DCF158316031302
:1004B8008601831203134F0886000A30A800003013
:1004C800A9000A128A1555240A128A11432A86019C
:1004D80083160313860183120313860101300A125F
:1004E8008A1531240A128A1180300A128A15312499
:1004F8000A128A11213083120313AF008830B0002A
:100508000A128A157C240A128A11C0300A128A1526
:1005180031240A128A11623083120313AF00883023
:10052800B0000A128A157C240A128A110330831635
:10053800031386008312061CA32A86189E2A06180F
:10054800322B0A30AD000030AE000A128A1562263E
:100558000A128A1183120313C4004408CF004F08FB
:100568000A128A11DC270A128A110A30831203132D
:10057800B3000030B400A530C4004408B5000A1226
:100588008A15A6270A128A110A3083120313B300A8
:100598000030B4005A30C4004408B5000A128A1565
:1005A800A6270A128A110A3083120313AD000030FD
:1005B800AE000A128A1562260A128A1183120313E0
:1005C800C4004408D0000A30B3000030B4004F081B
:1005D800C4004408B5000A128A15A6270A128A110F
:1005E80001300A128A1531240A128A1180300A123F
:1005F8008A1531240A128A11213083120313AF009D
:100608008830B0000A128A157C240A128A11C03078
:100618000A128A1531240A128A115A3083120313D6
:100628005006031D1B2B1D30AF008930202BFD30D9
:1006380083120313AF008830B0000A128A157C2495
:100648000A128A11E83083120313A8000330A900A4
:100658000A128A1555240A128A11362B831203139B
:10066800861C322B8316031386018312031386011B
:1006780001300A128A1531240A128A1180300A12AE
:100688008A1531240A128A11BC3083120313AF0071
:100698008830B0000A128A157C240A128A11C030E8
:1006A8000A128A1531240A128A116230831203133E
:1006B800AF008830B0000A128A157C240A128A1109
:1006C80003308316031386008312061C6D2B8618CD
:1006D800682B0618412C831603138717071301305C
:1006E8000A128A1531240A128A1180300A128A15D0
:1006F80031240A128A11523083120313AF00883052
:10070800B0000A128A157C240A128A11C4300A120F
:100718008A1531240A128A113B3083120313AF0061
:100728008930B0000A128A157C240A128A11003016
:1007380083120313A9008830AA000A128A15A62476
:100748000A128A1183120313D001043050020318CD
:10075800C92B5008303E0A128A15CB230A128A1177
:10076800D83083120313A9008830AA000A128A1508
:10077800A6240A128A11013083120313C400440804
:10078800D00704305002031CAD2BE830A80003301A
:10079800A9000A128A1555240A128A1101300A1270
:1007A8008A1531240A128A1180300A128A153124D6
:1007B8000A128A11423083120313AF008830B00046
:1007C8000A128A157C240A128A11F2308312031342
:1007D800A9008830AA000A128A15A6240A128A11CA
:1007E80083120313D001203050020318382C50080C
:1007F8000F39031D102CC0300A128A1531240A1231
:100808008A111A3083120313A9008930AA000A1228
:100818008A15A6240A128A11D03083120313AE0057
:100828000730AF000A128A15D0240A128A118312DF
:100838000313C4004408CF004F080A128A11DC27AA
:100848000A128A11831203134F080A128A15CB233E
:100858000A128A11013083120313C4004408D00716
:1008680020305002031CFB2B6430A8000030A90084
:100878000A128A1555240A128A110B30831603139B
:100888009F0001300A128A1531240A128A11803019
:100898000A128A1531240A128A113230831203137C
:1008A800AF008830B0000A128A157C240A128A1117
:1008B80083120313D001C83050020318D62CCC3051
:1008C800B8000030B90001300A128A15A9250A12A9
:1008D8008A11831203132908B3002808B2000A30CA
:1008E800B4000030B5000A128A150E240A128A11C3
:1008F800831203133308BB003208BA000A128A15A0
:10090800E5250A128A11831203133808C400440823
:10091800CF00C6300A128A1531240A128A118312AE
:1009280003134F08C400C5014408C0004508C100AE
:100938004930C6004608C2000A128A1134270A1232
:100948008A11831203134C080A128A11DC270A122F
:100958008A112C300A128A11DC270A128A11831292
:1009680003134D080A128A11DC270A128A1156301D
:100978000A128A11DC270A128A110A308312031319
:10098800A8000030A9000A128A1555240A128A11F3
:10099800013083120313C4004408D007C830500242
:1009A800031C632C01300A128A1531240A128A1199
:1009B80080300A128A1531240A128A11CA30831229
:1009C8000313AF008830B0000A128A157C240A127B
:1009D8008A1183120313D0016430500203186E2D5C
:1009E80000300A128A15A9250A128A1183120313E4
:1009F8002908B3002808B2000A30B4000030B50056
:100A08000A128A150E240A128A1183120313320855
:100A1800C4003308C5000310C50CC40C0310C50C72
:100A2800C40C0310C50CC40C44086A3EC700450832
:100A38000318013EFF3EC800C5300A128A1531244A
:100A48000A128A11831203134808C1004708C0001C
:100A58004930C4004408C2000A128A1134270A1215
:100A68008A11831203134B080A128A11DC270A120F
:100A78008A11831203134C080A128A11DC270A12FE
:100A88008A112C300A128A11DC270A128A11831261
:100A980003134D080A128A11DC270A128A114330FF
:100AA8000A128A11DC270A128A110A3083120313E8
:100AB800A8000030A9000A128A1555240A128A11C2
:100AC800013083120313C4004408D0076430500275
:100AD800031CF42C01300A128A1531240A128A11D7
:100AE80080300A128A1531240A128A117130831251
:100AF8000313AF008830B0000A128A157C240A124A
:100B08008A11831203130715D001643050020318A9
:100B1800072E00300A128A15A9250A128A11831293
:100B280003132908B3002808B2000A30B4000030C3
:100B3800B5000A128A150E240A128A1183120313A9
:100B48003208C4003308C5000310C50CC40C0310D8
:100B5800C50CC40C0310C50CC40C44086A3EC7007D
:100B680045080318013EFF3EC800C5300A128A1521
:100B780031240A128A11831203134808C100470856
:100B8800C0004930C4004408C2000A128A11342740
:100B98000A128A11831203134B080A128A11DC27DE
:100BA8000A128A11831203134C080A128A11DC27CD
:100BB8000A128A112C300A128A11DC270A128A11A9
:100BC800831203134D080A128A11DC270A128A11AC
:100BD80043300A128A11DC270A128A110A3083125A
:100BE8000313A8000030A9000A128A1555240A1216
:100BF8008A11013083120313C4004408D0076430FB
:100C08005002031C8D2D071101300A128A15312458
:100C18000A128A1180300A128A1531240A128A119E
:100C2800803083120313AF008830B0000A128A158F
:100C38007C240A128A118316031381128111011070
:100C4800811001158B168312031390149012101241
:100C58000B11063081007D30C4004408F8008B1762
:100C68008F018E0110148714D0019630500203189A
:100C7800FE2E00300A128A15A9250A128A1183123B
:100C880003132908B3002808B2000A30B400003062
:100C9800B5000A128A150E240A128A118312031348
:100CA8003208C4003308C5000310C50CC40C031077
:100CB800C50CC40C0310C50CC40C44086A3EC7001C
:100CC80045080318013EFF3EC800C2300A128A15C3
:100CD80031240A128A11831203134808C1004708F5
:100CE800C0004930C4004408C2000A128A113427DF
:100CF8000A128A11831203134B080A128A11DC277D
:100D08000A128A11831203134C080A128A11DC276B
:100D18000A128A112C300A128A11DC270A128A1147
:100D2800831203134D080A128A11DC270A128A114A
:100D380043300A128A11DC270A128A11C8300A12B3
:100D48008A1531240A128A11831203135208C1002A
:100D58005108C0004930C4004408C2000A128A1170
:100D680034270A128A11831203134A080A128A11B5
:100D7800DC270A128A11831203134B080A128A11FC
:100D8800DC270A128A11831203134C080A128A11EB
:100D9800DC270A128A11831203134D080A128A11DA
:100DA800DC270A128A1152300A128A11DC270A1229
:100DB8008A1150300A128A11DC270A128A1153301C
:100DC8000A128A11DC270A128A110A3083120313C5
:100DD800A8000030A9000A128A1555240A128A119F
:100DE800013083120313C4004408D0079630500220
:100DF800031C3D2E8B13871001300A128A153124EB
:100E08000A128A1180300A128A1531240A128A11AC
:100E1800313083120313AF008930B0000A128A15EB
:100E28007C240A128A11C0300A128A1531240A1247
:100E38008A118F3083120313AF008830B0000A1272
:100E48008A157C240A128A11133083120313A9000D
:100E58008930AA000A128A15A6240A128A11332F89
:100E6800103083120313B8002730B9004108BB00C3
:100E78004008BA000A128A15E5250A128A11831257
:100E880003133808303EC300420884004308831324
:100E98008000E830B8000330B9004108AB004008D2
:100EA800AA001030A8002730A9000A128A150025C8
:100EB8000A128A11831203132908BB002808BA00F2
:100EC8000A128A15E5250A128A11831203133808B3
:100ED800303EC300420A8400430883138000643014
:100EE800B8000030B9004108AB004008AA00E8305B
:100EF800A8000330A9000A128A1500250A128A11CF
:100F0800831203132908BB002808BA000A128A159D
:100F1800E5250A128A11831203133808303EC300EC
:100F28004208023E84004308831380000A30B80058
:100F38000030B9004108AB004008AA006430A8009E
:100F48000030A9000A128A1500250A128A11831294
:100F580003132908BB002808BA000A128A15E525D8
:100F68000A128A11831203133808303EC30042085C
:100F7800033E84004308831380000A30A800003031
:100F8800A9004108AB004008AA000A128A150025EA
:100F9800831203132808303EC3004208043E84002D
:100FA8004308831380004208053E8400800108003E
:100FB80083120313AE0089142E080A128A15B5236A
:100FC8000A128A118312031309140330A80000308F
:100FD800A9000A128A1555240A128A1183120313CA
:100FE80089100330A8000030A9000A128A15552478
:100FF80083120313891408000D340A342034503442
:1010080069346334733469346D346C3461346234F4
:101018000D340A34203454346534733474346534EC
:101028002034533465347234693461346C34203478
:10103800543458340D340A34003454346534733419
:1010480074346534203445344534503452344F3484
:101058004D34203445345834543400342034543416
:10106800653473347434653420344134443443343F
:10107800203428345034323429340034543465341C
:1010880073347434653420345334653472346934B9
:1010980061346C3420345234583400345434653458
:1010A8007334743465342034533465347234693499
:1010B80061346C34203454345834003420342834A7
:1010C80073343D345334313420346E343D34533426
:1010D8003234293420343F3400342034203420344E
:1010E80054346534733474346534203441345134A1
:1010F80055344534433400342034203420345434B7
:10110800653473347434653420345234453453347C
:1011180046345234003420345034723465347334D5
:10112800733469346F346E34653420345234533434
:101138005434003420342034203454346534733427
:101148007434653420343734203453346534673488
:1011580000342034203454346534733474346534A2
:10116800203443346834613476346534733400345D
:1011780054346534733474346534203453346534EA
:101188007234693461346C343F3400342034203490
:10119800203454346534733474346534203454340E
:1011A80045344D3450340034203450346934633479
:1011B800733469346D344C34613462340D340A3418
:1011C8000034203420342034543465347334743477
:1011D800653420344C3443344434003420344434AB
:1011E8006934673469347434653421340D340A340D
:1011F8000034203420342034203420342034453442
:10120800523452344F3400345434653473347434A3
:10121800653420344C3445344434733400340D344C
:101228000A342034463449344D3421340D340A34D8
:101238000034203420342034203420342034203426
:101248004F344B34003420342034203420342034BC
:10125800203420344F346B3400342034203420348C
:10126800203420342034463469346D340034393421
:10127800363430343034203438344E343134003459
:10128800FF1B4E2983137F1883170008840A03194C
:10129800FF0A08007F087F398A000408840A0319B6
:0412A800FF0A8200B7
:101760000000000000000000080083120313A8001E
:101770002808880008008316031307128312031336
:1017800087150716080064008001840A04060319FF
:1017900000340406C42B83120313A8002808990000
:1017A0008316031398180800D02B013083120313FB
:1017B0009F000B30831603139F0001309B0008002D
:1017C000673083160313990018139816181218150A
:1017D00083120313981718131816080083120313A3
:1017E000871507160A128A15B0230A128A15831262
:1017F000031307120A128A15B02308008312031379
:10180000871507120A128A15B0230A128A15831245
:10181000031307160A128A15B02308008312031354
:10182000B601B701321C1A2C3408B6070318B70AE0
:101830003508B70701300310B40DB50DFF3E031D89
:101840001B2C01300310B30CB20CFF3E031D222CE5
:1018500032083304031D122C3708B3003608B200D7
:10186000080083120313AE0089142E080A128A1589
:10187000B5230A128A158312031309100330A80036
:101880000030A9000A128A1555240A128A158312FB
:10189000031389100330A8000030A9000A128A152A
:1018A0005524831203138914080083120313AB0118
:1018B000AC0129082C02031D5F2C28082B020318F9
:1018C0000800AD01C8302D020318752C000000007F
:1018D000000000000000013083120313AA002A0850
:1018E000AD07C8302D02031C662C0130AB0703186E
:1018F000AC0A0030AC07592C83120313B201320832
:101900002F07840030080318300AFF000A128A15D6
:1019100044210A128A15003A0319080032082F07D9
:10192000840030080318300AFF000A128A15442187
:101930000A128A150A128A11DC270A128A15013046
:1019400083120313B1003108B2077F2C83120313F3
:10195000AC012C08290784002A0803182A0AFF0072
:101960000A128A1544210A128A15003A031908003E
:101970002C08290784002A0803182A0AFF000A12E3
:101980008A1544210A128A150A128A15CB230A12D3
:101990008A15013083120313AB002B08AC07A92C66
:1019A00083120313B001B1011819D82C981CEC2C28
:1019B00018121816EC2C1430A8000030A9000A12D6
:1019C0008A1555240A128A15143083120313B0079E
:1019D0000318B10A0030B1072F083102031DF22CA1
:1019E0002E083002031CF82C2E082F04031DFA2C9D
:1019F0008C1EDB2C8C1EFE2C1A080800A53008005B
:101A0000831203132808290403192F2DAD01AD0AF1
:101A1000A91B162D01300310A80DA90DFF3E031DB3
:101A20000B2D0130AC002C08AD07082D29082B0226
:101A3000031D1C2D28082A02031C242D2808AA0295
:101A40002908031CAB03AB0201300310A90CA80C3E
:101A5000FF3E031D252D0130AD02031D162D2B0861
:101A6000A9002A08A80008000130F8027808031D20
:101A70005F2D10100730F0000030F1000E08A000BC
:101A8000A1010F08A200A3012208A300A2012008BF
:101A90002204F20021082304F3000A128A156D259E
:101AA0000A128A15710883120313D2007008D1003C
:101AB0007D30A0002008F8008F018E0110140B115A
:101AC000063081002708FF0026088A0025088400C8
:101AD000240E8300FE0E7E0E0900F501F60170084B
:101AE00071040319A42DF701F70AF11B832D0130AE
:101AF0000310F00DF10DFF3E031D782D0130F400B1
:101B00007408F707752D01300310F50DF60DFF3E33
:101B1000031D842D71087302031D902D700872023D
:101B2000031C992D7008F2027108031CF303F302E1
:101B3000751401300310F10CF00CFF3E031D9A2DBB
:101B40000130F702031D832D7608F1007508F000BF
:101B5000080083120313B100B42D0130B22D0930F7
:101B6000B22D11309F00BF2D3108003A0319AD2D61
:101B7000013A0319AF2D033A0319B12DBF2D1F15DB
:101B80001F19C02D831603131E0883120313AA0006
:101B900006300310AA0CFF3E031DC92D2A08AB0016
:101BA000AC011E08AD00AE010310AD0DAE0D03106B
:101BB000AD0DAE0D2B082D04AF002C082E04B00087
:101BC0002F08A8003008A900080083120313BD01E4
:101BD000BE013808390403191E2EBF01BF0AB91B04
:101BE000FD2D01300310B80DB90DFF3E031DF22D80
:101BF0000130BC003C08BF07EF2D01300310BD0DC4
:101C0000BE0DFF3E031DFE2D39083B02031D0A2EAB
:101C100038083A02031C132E3808BA023908031C8C
:101C2000BB03BB023D1401300310B90CB80CFF3EDE
:101C3000031D142E0130BF02031DFD2D3E08B90007
:101C40003D08B800080083120313AA008711AB01F6
:101C500008302B020318522E2A08A8002B03FF3A43
:101C6000073E013E352E0310A80CFF3E031D332E08
:101C700028080139A900A90E07082906EF39290605
:101C8000870087150A128A15B0230A128A15831253
:101C9000031387110130A8002808AB0708302B0276
:101CA000031C2C2E07160A128A15B0230A128A1555
:101CB0008312031387150A128A15B02383120313A4
:101CC00087110800831203132E080139AF002F0873
:101CD000B2002D08AF002F08B1000A128A15EE23BA
:101CE0000A128A158312031332080319792EA230BF
:101CF0007A2EA0300A128A1523260A128A15831218
:101D0000031331080A128A1523260A128A150A12A9
:101D10008A15EE230A128A15831203133208031957
:101D2000932EA330942EA1300A128A1523260A126C
:101D30008A1501300A128A15AB260A128A158312F7
:101D40000313AF002F08B0000A128A15FE23831276
:101D500003133008080083120313AA00AB01871194
:101D6000831603130716831203130716AC010830FA
:101D70002C020318DD2E87150A128A15B0230A12C9
:101D80008A1583120313070E0139A8002C03FF3AAA
:101D9000073E013ECD2E0310A80DFF3E031DCB2EA6
:101DA0002808A9002908AB0487110130A8002808D9
:101DB000AC0708302C02031CBB2E8316031307123A
:101DC000831203132A080319E72E0712E82E0716B9
:101DD0000A128A15B0230A128A1583120313871573
:101DE0000A128A15B0238312031387112B080800E7
:101DF00083120313891009101430A8000030A900C1
:101E00000A128A1555240A128A158312031389149B
:101E100038300A128A1531240A128A1505308312C5
:101E20000313A8000030A9000A128A1555240A12CB
:101E30008A1538300A128A1531240A128A1501309F
:101E400083120313A8000030A9000A128A15552432
:101E50000A128A1538300A128A1531240A128A1594
:101E600008300A128A1531240A128A150F300A1214
:101E70008A1531240A128A1501300A128A15312472
:101E80000A128A1538300A128A1531240A128A1564
:101E900080300A128A153124080083120313A80027
:101EA000732F3F300800063008005B3008004F30C9
:101EB0000800663008006D3008007D3008000730EB
:101EC00008007F3008006F300800773008007C3051
:101ED0000800583008005E30080079300800713082
:101EE0000800003008002808003A0319512F013A71
:101EF0000319532F033A0319552F013A0319572F8A
:101F0000073A0319592F013A03195B2F033A0319B2
:101F10005D2F013A03195F2F0F3A0319612F013A20
:101F20000319632F033A0319652F013A0319672F29
:101F3000073A0319692F013A03196B2F033A031962
:101F40006D2F013A03196F2F712F080083120313AD
:101F50003508B600B7013608BB003708BC003408A6
:101F60000139B6003608B8003308B6003608B900A3
:101F7000BA010A128A15EE230A128A158312031374
:101F800038080319C52FA230C62FA0300A128A15AF
:101F900023260A128A158312031339080A128A1596
:101FA00023260A128A15831203133B080A128A1584
:101FB00023260A128A150A128A15FE230A128A1586
:101FC000013083120313B6003608BA073408AE0096
:101FD0003308AD000A128A1562260A128A15831286
:101FE0000313B600B7013C083706031DF92F3B0861
:101FF0003606031908000A303A0203180800B92F00
:04400E00AAFFBCFF4A
:00000001FF
