:060000000A128A11122809
:10000800FF00030883160313D8000408D9000A0860
:10001800DA007E08DB000A168A115C2F0A168A119C
:100028008A2C3F30831603138600831203130618A5
:100038001E281F2820283E1486182328242825280F
:10004800BE140619282829282A283E1586192D287D
:100058002E282F28BE15061A3228332834283E1693
:10006800861A372838283928BE16851A3C283D288C
:100078003E283E170310003003180130831603137F
:100088008600831203133E0886000A30A000003061
:10009800A1000A168A11AB250A128A1183120313CA
:1000A8003E087F397F3A031D5A285B281528F4300B
:1000B800A0000130A1000A168A11AB250A128A1184
:1000C8000310003003180130831203138600023036
:1000D800831603139F008717071301300A168A1126
:1000E8000B250A128A1180300A168A110B250A126A
:1000F8008A11DE3083120313A0001330A1000A1600
:100108008A1157250A128A110A168A11A2240A127C
:100118008A11C4300A168A110B250A128A113C303A
:1001280083120313A0001230A1000A168A11572562
:100138000A128A110A168A11A2240A128A11EA30AE
:1001480083120313A0001430A1000A168A11572540
:100158000A128A110A168A11C4240A128A11031073
:1001680000300318013083120313BF003F08303EEC
:100178000A168A11EB220A128A11F7308312031326
:10018800A0001230A1000A168A1157250A128A11F6
:100198000A168A11C4240A128A1101308312031321
:1001A800B3003308BF0704303F02031CDC28DD28F6
:1001B800BA28E830A0000330A1000A168A11AB253E
:1001C8000A128A1101300A168A110B250A128A119D
:1001D80080300A168A110B250A128A11EE30831212
:1001E8000313A0001330A1000A168A1157250A121A
:1001F8008A110A168A11A2240A128A11C930831296
:100208000313A0001230A1000A168A1157250A12FA
:100218008A110A168A11C4240A128A11031000309E
:100228000318013083120313BF003F080F39031D61
:100238001E291F293529C0300A168A110B250A12D2
:100248008A11123083120313A0001230A1000A167B
:100258008A1157250A128A110A168A11C4240A1209
:100268008A11D03083120313A4000730A5000A16A0
:100278008A11DC250A128A1183120313BE003E0874
:100288000A168A1131250A128A11831203133E08AD
:100298000A168A11EB220A128A11013083120313FB
:1002A800B3003308BF0720303F02031C5C295D29D7
:1002B80019296430A0000030A1000A168A11AB2564
:1002C8000A128A1101300A168A110B250A128A119C
:1002D80080300A168A110B250A128A11FE30831201
:1002E8000313A0001330A1000A168A1157250A1219
:1002F8008A110A168A11A2240A128A1103100030E0
:100308000318013083120313BF0000300A168A1144
:1003180049260A128A118313831203132208A6019D
:10032800A6072108A501A5070A30A7000030A800E4
:100338000A168A1180250A128A118313831203135D
:100348002608AD01AD072508AC01AC07CC30AE00DE
:100358000030AF000A168A1111270A128A11831376
:10036800831203132C08BE00C6300A168A110B2507
:100378000A128A11831203133E08B300B40133082A
:10038800B0003408B1003630B5003508B2000A12A2
:100398008A1529210A128A118312031339080A16A9
:1003A8008A1131250A128A112C300A168A11312530
:1003B8000A128A11831203133A080A168A11312580
:1003C8000A128A1156300A168A1131250A128A1120
:1003D8000A3083120313A0000030A1000A168A1104
:1003E800AB250A128A11013083120313B3003308B4
:1003F800BF07C8303F02031C022A032A892901309B
:100408000A168A110B250A128A1180300A168A11D7
:100418000B250A128A11CE3083120313A000133061
:10042800A1000A168A1157250A128A110A168A117A
:10043800A2240A128A110310003003180130831213
:100448000313BF0001300A168A1149260A128A11BD
:100458008313831203132208A601A6072108A50106
:10046800A5070A30A7000030A8000A168A118025BF
:100478000A128A118313831203132608AD01AD07EC
:100488002508AC01AC07CC30AE000030AF000A162E
:100498008A1111270A128A118313831203132C0855
:1004A800BE00C6300A168A110B250A128A11831259
:1004B80003133E08B300B4013308B0003408B10098
:1004C8003630B5003508B2000A128A1529210A12F9
:1004D8008A118312031339080A168A1131250A1260
:1004E8008A112C300A168A1131250A128A118312B0
:1004F80003133A080A168A1131250A128A1156304E
:100508000A168A1131250A128A110A308312031336
:10051800A0000030A1000A168A11AB250A128A1120
:10052800013083120313B3003308BF07C8303F02FA
:10053800031C9F2AA02A262A8316031307100910D2
:1005480001300A168A110B250A128A1180300A1600
:100558008A110B250A128A11113083120313A00085
:100568001330A1000A168A1157250A128A110A1691
:100578008A11A2240A128A110310003003180130CC
:1005880083120313BF0001308706F430A000013046
:10059800A1000A168A11AB250A128A1101308312AA
:1005A8000313B3003308BF0705303F02031CDD2ADD
:1005B800DE2AC72A071001300A168A110B250A12EB
:1005C8008A1180300A168A110B250A128A11043002
:1005D80083120313A0001330A1000A168A115725AD
:1005E8000A128A110A168A11A2240A128A11031001
:1005F80000300318013083120313BF00013089064D
:10060800F430A0000130A1000A168A11AB250A12A5
:100618008A11013083120313B3003308BF07053072
:100628003F02031C182B192B022B091003308316C9
:100638000313860001300A168A110B250A128A1143
:1006480080300A168A110B250A128A115430831237
:100658000313A0001330A1000A168A1157250A12A5
:100668008A110A168A11A2240A128A11C0300A169F
:100678008A110B250A128A11D43083120313A000A1
:100688001230A1000A168A1157250A128A110A1671
:100698008A11A2240A128A11831203138618552B71
:1006A800562B502B01300A168A110B250A128A1173
:1006B80080300A168A110B250A128A1138308312E3
:1006C8000313A0001330A1000A168A1157250A1235
:1006D8008A110A168A11A2240A128A11073083166F
:1006E800031385000A168A1145220A128A1103107B
:1006F80000300318013083120313BF0002300A16BA
:100708008A1149260A128A118313831203132208B5
:10071800A601A6072108A501A5070A30A7000030F1
:10072800A8000A168A1180250A128A118312031357
:100738002508B3002608B40001300310B40CB30C2C
:10074800FF3E031DA12B3308BC003408BD00C53093
:100758000A168A110B250A128A11831203133D08FF
:10076800B101B1073C08B001B0073630B300330817
:10077800B2000A128A1529210A128A118312031358
:1007880038080A168A1131250A128A1183120313AE
:1007980039080A168A1131250A128A112C300A16CC
:1007A8008A1131250A128A11831203133A080A168C
:1007B8008A1131250A128A1143300A168A11312505
:1007C8000A128A11143083120313A0000030A1000A
:1007D8000A168A11AB250A128A11013083120313F3
:1007E800B3003308BF0764303F02031CFC2BFD2B0A
:1007F800822B01300A168A110B250A128A118030C1
:100808000A168A110B250A128A11903083120313D3
:10081800A0001330A1000A168A1157250A128A115E
:100828000A168A11A2240A128A1183120313871640
:100838000310003003180130BF0002300A168A1175
:1008480049260A128A118313831203132208A60168
:10085800A6072108A501A5070A30A7000030A800AF
:100868000A168A1180250A128A1183120313250891
:10087800B3002608B40001300310B40CB30CFF3EDB
:10088800031D402C3308BC003408BD00C5300A16CF
:100898008A110B250A128A11831203133D08B1012C
:1008A800B1073C08B001B0073630B3003308B200D6
:1008B8000A128A1529210A128A1183120313380889
:1008C8000A168A1131250A128A118312031339086C
:1008D8000A168A1131250A128A112C300A168A1131
:1008E80031250A128A11831203133A080A168A114B
:1008F80031250A128A1143300A168A1131250A1243
:100908008A11323083120313A0000030A1000A16A6
:100918008A11AB250A128A11013083120313B3001E
:100928003308BF0764303F02031C9B2C9C2C212CEE
:10093800871283160313071401300A168A110B2530
:100948000A128A1180300A168A110B250A128A1196
:100958009F3083120313A0001330A1000A168A11D6
:1009680057250A128A110A168A11A2240A128A1114
:10097800831603138112811101108110011583124E
:1009880003138B169014901210120B11063081006D
:100998007D30F8008B1703100030031801308F00EA
:1009A80003100030031801308E00101407150310CF
:1009B800003003180130BF0002300A168A11492698
:1009C8000A128A118313831203132208A601A607A9
:1009D8002108A501A5070A30A7000030A8000A16BB
:1009E8008A1180250A128A11831203132508B3007D
:1009F8002608B40001300310B40CB30CFF3E031DED
:100A0800FF2C3308BC003408BD00C2300A168A1116
:100A18000B250A128A11831203133D08B101B1078D
:100A28003C08B001B0073630B3003308B2000A12F0
:100A38008A1529210A128A118312031338080A1603
:100A48008A1131250A128A118312031339080A16EA
:100A58008A1131250A128A112C300A168A11312579
:100A68000A128A11831203133A080A168A113125C9
:100A78000A128A1143300A168A1131250A128A117C
:100A8800C8300A168A110B250A128A1177088312B0
:100A98000313B101B1077608B001B0073630B300CF
:100AA8003308B2000A128A1529210A128A11831200
:100AB800031337080A168A1131250A128A1183127C
:100AC800031338080A168A1131250A128A1183126B
:100AD800031339080A168A1131250A128A1183125A
:100AE80003133A080A168A1131250A128A1152305C
:100AF8000A168A1131250A128A1150300A168A11EB
:100B080031250A128A1153300A168A1131250A1220
:100B18008A110A3083120313A0000030A1000A16BC
:100B28008A11AB250A128A11013083120313B3000C
:100B38003308BF0796303F02031CA32DA42DE02CD9
:100B48008B1307110630831603139F001830831286
:100B58000313870001300A168A110B250A128A111D
:100B680080300A168A110B250A128A11293083123D
:100B78000313A0001230A1000A168A1157250A1281
:100B88008A110A168A11A2240A128A110A128A11D3
:100B980081260A128A11C0300A168A110B250A12F8
:100BA8008A1140300A168A11A2240A128A11D030FA
:100BB80083120313A0000730A1000A168A11AB257F
:100BC8000A128A110310003003180130831203132C
:100BD800BF000A128A1181260A128A11C0300A1629
:100BE8008A110B250A128A114A300A168A11A22480
:100BF8000A128A11F43083120313A0000130A100F5
:100C08000A168A11AB250A128A11013083120313BE
:100C1800B3003308BF0714303F02031C142E152EEF
:100C2800ED2D033083160313860001300A168A114E
:100C38000B250A128A1180300A168A110B250A120E
:100C48008A11523083120313A0001430A1000A162F
:100C58008A1157250A128A110A168A11A2240A1221
:100C68008A11C0300A168A110B250A128A11D4304B
:100C780083120313A0001230A1000A168A11572507
:100C88000A128A110A168A11A2240A128A118312D8
:100C980003138618502E512E4B2EF830831603134B
:100CA800860001300A168A110B250A128A11823031
:100CB8000A168A110B250A128A1146308312031369
:100CC800A0001330A1000A168A1157250A128A11AA
:100CD8000A168A11A2240A128A11C1300A168A1128
:100CE8000B250A128A1103100030031801308312F1
:100CF8000313BF000A128A15F42A0A128A15022061
:100D08000A128A11D0300A168A1182260A128A110A
:100D180000300A168A1182260A128A110A128A15C6
:100D280002200A128A11D1300A168A1182260A1262
:100D38008A11F2010314F20D0A128A156B200A12A5
:100D48008A117F39F4003A30F300730883120313D1
:100D5800CF0074080A168A112B230A128A11F3008D
:100D6800730883120313D00074080A168A116422C8
:100D78000A128A11F300730883120313D1000310B7
:100D8800003003180130D200F2010314F20D0A12E8
:100D98008A156B200A128A117F39F4003A30F30061
:100DA800730883120313CC0074080A168A112B23C4
:100DB8000A128A11F300730883120313CD00740812
:100DC8000A168A1164220A128A11F3007308831220
:100DD8000313CE00F2010314F20D0A128A156B20D8
:100DE8000A128A113F39F40074080A168A112B2353
:100DF8000A128A1183120313CA0074080A168A1188
:100E080064220A128A11F300730883120313CB00B9
:100E1800F2010314F20D0A128A156B200A128A11C4
:100E2800F2010314F20D0A128A156B200A128A11B4
:100E38003F39F40074080A168A112B230A128A1102
:100E480083120313C00074080A168A1164220A1256
:100E58008A11F300730883120313C100F20103140B
:100E6800F20D0A128A156B200A128A111F39F40032
:100E78002F30F300730883120313C20074080A1694
:100E88008A112B230A128A11F300730883120313A1
:100E9800C30074080A168A1164220A128A11F30020
:100EA800730883120313C4000310003003180130C1
:100EB800F2000A128A156B200A128A11F4002F30E8
:100EC800F300730883120313C50074080A168A1105
:100ED8002B230A128A11F300730883120313C60026
:100EE80074080A168A1164220A128A11F300730818
:100EF80083120313C7000310003003180130C80021
:100F08000A168A1163240A128A110800F000C22FF7
:100F18003F30F100F42F0630F100F42F5B30F10080
:100F2800F42F4F30F100F42F6630F100F42F6D30BC
:100F3800F100F42F7D30F100F42F0730F100F42F89
:100F48007F30F100F42F6F30F100F42F7730F1008B
:100F5800F42F7C30F100F42F5830F100F42F5E307C
:100F6800F100F42F7930F100F42F7130F100F42FF3
:100F78000310003003180130F100F42F7008003A14
:100F880003198C2F013A03198F2F033A0319922F53
:100F9800013A0319952F073A0319982F013A0319B3
:100FA8009B2F033A03199E2F013A0319A12F0F3AD9
:100FB8000319A42F013A0319A72F033A0319AA2FDB
:100FC800013A0319AD2F073A0319B02F013A031953
:100FD800B32F033A0319B62F013A0319B92FBC2FBF
:100FE8007108080020342034203420342034203480
:080FF80020344F344B34003467
:1010040083120313871507160A168A1133220A124C
:101014008A158312031307120A168A1133220A123D
:101024008A15080083120313891009111430A000D3
:101034000030A1000A168A11AB250A128A15831200
:101044000313891438300A168A110B250A128A15DB
:10105400053083120313A0000030A1000A168A1180
:10106400AB250A128A1538300A168A110B250A1282
:101074008A15013083120313A0000030A1000A1660
:101084008A11AB250A128A1538300A168A110B25E3
:101094000A128A1508300A168A110B250A128A15B3
:1010A4000F300A168A110B250A128A1501300A1606
:1010B4008A110B250A128A1538300A168A110B2553
:1010C4000A128A1580300A168A110B250A128A150B
:1010D4000800031000300318013083120313A0002A
:1010E40087118316031307168312031307160310BD
:1010F400003003180130A10087150A168A11332223
:101104000A128A15003083120313071A0130F00003
:101114002103FF3A073E013E91280310F00DFF3EE4
:10112400031D8F287008F1007108A0048711013095
:10113400F0007008A10708302102031CA228A3288C
:101144007E288316031307127208031DAA28AE28EB
:10115400831203130712B1288312031307160A1606
:101164008A1133220A128A158312031387150A1669
:101174008A1133220A128A15831203138711200855
:101184000800831203132E08F300F4017308AA0065
:101194007408AB002D080139A8002C08A70003101F
:1011A400003003180130A9000A128A1502200A121D
:1011B4008A15831203132808031DE128E828A230A6
:1011C4000A168A1182260A128A15EE28A0300A16F7
:1011D4008A1182260A128A158312031327080A1613
:1011E4008A1182260A128A15831203132A080A1600
:1011F4008A1182260A128A150A168A1163240A128F
:101204008A150130F300730883120313A9072D080C
:10121400A601A6072C08A501A5070A168A11AD2761
:101224000A128A15F300F401831203132B087406BF
:10123400031D1E292A087306031921292229282996
:101244000A302902031C27292829D62808008312DA
:1012540003133108AD01AD073008AC01AC07103001
:10126400AE002730AF000A168A1111270A128A1518
:101274008313831203132C08303EF50032088400D4
:10128400750880003108A101A1073008A001A0075A
:101294001030A2002730A3000A168A1110260A1261
:1012A4008A158313831203132108AD01AD072008A7
:1012B400AC01AC07E830AE000330AF000A168A1167
:1012C40011270A128A158313831203132C08303E44
:1012D400F5003208013E8400750880003108A10140
:1012E400A1073008A001A007E830A2000330A30042
:1012F4000A168A1110260A128A15831383120313FD
:101304002108AD01AD072008AC01AC076430AE0084
:101314000030AF000A168A1111270A128A158313A6
:10132400831203132C08303EF5003208023E840079
:10133400750880003108A101A1073008A001A007A9
:101344006430A2000030A3000A168A1110260A1283
:101354008A158313831203132108AD01AD072008F6
:10136400AC01AC070A30AE000030AF000A168A1197
:1013740011270A128A158313831203132C08303E93
:10138400F5003208033E8400750880003108A1018D
:10139400A1073008A001A0070A30A2000030A30072
:1013A4000A168A1110260A128A158313831203134C
:1013B4002008303EF5003208043E840075088000A1
:1013C40003103208053E8400003003180130800009
:1013D4000800003083120313A3000030A40003109C
:1013E400003003180130A5000608A200A22A031049
:1013F400003003180130A6002608E63E84001430AD
:101404000318013E0A168A1100220A128A15FF3AAD
:10141400F400740886048819102A112A282A143022
:10142400A0000030A1000A168A11AB250A128A1501
:101434008312031388191F2A202A282A881D232A85
:10144400242A202A2608013EA500912A08192B2ABD
:101454002C2A432A1430A0000030A1000A168A1155
:10146400AB250A128A158312031308193A2A3B2A58
:10147400432A081D3E2A3F2A3B2A2608043EA5008B
:10148400912A8818462A472A5E2A1430A000003080
:10149400A1000A168A11AB250A128A1583120313B6
:1014A4008818552A562A5E2A881C592A5A2A562AE6
:1014B4002608073EA500912A0818612A622A792A7B
:1014C4001430A0000030A1000A168A11AB250A12BC
:1014D4008A15831203130818702A712A792A081CA2
:1014E400742A752A712A26080A3EA500912A26081C
:1014F400E63E840014300318013E0A168A110022C5
:101504000A128A15F400740886050130F400740880
:10151400A60703302602031C902A912AFE290530CF
:10152400A0000030A1000A168A11AB250A128A1500
:10153400053083120313A3070318A40A0030A40779
:1015440028082402031DA82A27082302031CAB2A07
:10155400AC2AB22A28082704031DB12AB22AB62AC3
:101564002508031DB62AF929A508031DBA2ABB2A92
:10157400BD2AFF30A50025080B3A031DC22AC32A41
:10158400C82A0310003003180130A5002208860081
:10159400250808000F30831603138800DC308312FB
:1015A4000313A7000530A8000A128A15EB210A12BA
:1015B4008A15303E83120313BE0003100030031853
:1015C4000130831603138800831203133E080A169E
:1015D4008A1131250A128A15013083120313B300CC
:1015E4003308BF070E303F02031CF92AFA2ACC2A1B
:1015F400033083160313860001300A168A110B2563
:101604000A128A1580300A168A110B250A128A15C5
:10161400303083120313A0001430A1000A168A117B
:1016240057250A128A150A168A11A2240A128A1543
:10163400C0300A168A110B250A128A150E3083123D
:101644000313A0001430A1000A168A1157250A12A8
:101654008A150A168A11A2240A128A1503308316DF
:10166400031386008312061C382B392B3D2B861856
:101674003C2B3D2B342B0618402B412BC42B0A301A
:101684000A168A11DF220A128A1583120313BE0076
:101694003E080A168A1131250A128A15A530F1006E
:1016A4000A300A168A1175240A128A155A30F10072
:1016B4000A300A168A1175240A128A150A300A1683
:1016C4008A11DF220A128A1583120313BF003E080F
:1016D400F1000A300A168A1175240A128A1501309B
:1016E4000A168A110B250A128A1580300A168A11E5
:1016F4000B250A128A15303083120313A00014300C
:10170400A1000A168A1157250A128A150A168A1187
:10171400A2240A128A15C0300A168A110B250A124D
:101724008A15831203133F085A3A031D9A2B9B2BE5
:10173400AA2BF630A0000730A1000A168A115725FB
:101744000A128A150A168A11A2240A128A15B82BBB
:10175400B330A0001230A1000A168A1157250A12CC
:101764008A150A168A11A2240A128A15E8308312ED
:101774000313A0000330A1000A168A11AB250A1234
:101784008A15C82B861CC72BC82BC42B01300A16FC
:101794008A110B250A128A1580300A168A110B2524
:1017A4000A128A15413083120313A0001430A100D9
:1017B4000A168A1157250A128A150A168A11A224B2
:1017C4000A128A15C0300A168A110B250A128A15C4
:1017D4000E3083120313A0001430A1000A168A11DC
:1017E40057250A128A150A168A11A2240A128A1582
:1017F40003308316031386008312061C022C032C69
:10180400072C8618062C072CFE2B06180A2C0B2CEA
:10181400A92C0A30A5000030A6000A168A11AD27AB
:101824000A128A1583120313BE003E080A168A118F
:1018340031250A128A150A3083120313AC000030D2
:10184400AD00A530B3003308AE000A128A15C320D8
:101854000A128A150A3083120313AC000030AD005B
:101864005A30B3003308AE000A128A15C3200A1294
:101874008A150A3083120313A5000030A6000A1645
:101884008A11AD270A128A1583120313BF000A3086
:10189400AC000030AD003E08B3003308AE000A12BD
:1018A4008A15C3200A128A1501300A168A110B25DB
:1018B4000A128A1580300A168A110B250A128A1513
:1018C400413083120313A0001430A1000A168A11B8
:1018D40057250A128A150A168A11A2240A128A1591
:1018E400C0300A168A110B250A128A1583120313B3
:1018F4003F085A3A031D7F2C802C8F2CF630A00011
:101904000730A1000A168A1157250A128A150A16E9
:101914008A11A2240A128A159D2CB330A000123019
:10192400A1000A168A1157250A128A150A168A1165
:10193400A2240A128A15E83083120313A00003308C
:10194400A1000A168A11AB250A128A15AD2C861C31
:10195400AC2CAD2CA92C03100030031801308316D5
:10196400031386000310003003180130831203139D
:10197400860001300A168A110B250A128A15803056
:101984000A168A110B250A128A15153083120313BD
:10199400A0001230A1000A168A1157250A128A15CE
:1019A4000A168A11A2240A128A15C0300A168A114C
:1019B4000B250A128A15723083120313A000133008
:1019C400A1000A168A1157250A128A150A168A11C5
:1019D400A2240A128A150B3083120313A0001230BA
:1019E400A1000A168A1157250A128A150A168A11A5
:1019F400C4240A128A15FD2C0A128A1112280630F0
:101A0400831603139F00C330850001308600013024
:101A140087000310003003180130880003100030E1
:101A240003180130890081130A128A1514200A123E
:101A34008A150A168A114E220A128A150A168A1162
:101A4400AE230A128A150A168A1145220A128A1529
:101A5400033083160313860001300A168A110B25FE
:101A64000A128A1580300A168A110B250A128A1561
:101A7400BE3083120313A0001330A1000A168A118A
:101A840057250A128A150A168A11A2240A128A15DF
:101A9400C0300A168A110B250A128A15D430831213
:101AA4000313A0001230A1000A168A1157250A1246
:101AB4008A150A168A11A2240A128A15831203139C
:101AC4008618652D662D602D01300A168A110B25A6
:101AD4000A128A1580300A168A110B250A128A15F1
:101AE4001E3083120313A0001330A1000A168A11BA
:101AF40057250A128A150A168A11A2240A128A156F
:101B040040300A168A110B250A128A1511300A165A
:101B14008A1131250A128A1519300A168A113125BB
:101B24000A128A1515300A168A1131250A128A15E5
:101B340013300A168A1131250A128A1513300A162F
:101B44008A1131250A128A1515300A168A1131258F
:101B54000A128A1519300A168A1131250A128A15B1
:101B640011300A168A1131250A128A150E300A1606
:101B74008A1131250A128A1511300A168A11312563
:101B84000A128A150E300A168A1131250A128A158C
:101B940005300A168A1131250A128A150E300A16E2
:101BA4008A1131250A128A1514300A168A11312530
:101BB4000A128A150A300A168A1131250A128A1560
:101BC40011300A168A1131250A128A15C0300A16F4
:101BD4008A110B250A128A150310003003180130EC
:101BE40083120313BF003F0801390A168A113125F5
:101BF4000A128A15643083120313A0000030A10076
:101C04000A168A11AB250A128A15013083120313AE
:101C1400B3003308BF0710303F02031C122E132EEB
:101C2400F52D01300A168A110B250A128A15803007
:101C34000A168A110B250A128A151E308312031301
:101C4400A0001330A1000A168A1157250A128A151A
:101C54000A168A11A2240A128A1520308312031349
:101C6400BF003F080F39031D382E392E3F2EC030D8
:101C74000A168A110B250A128A15831203133F08C8
:101C84000A168A1131250A128A1532308312031377
:101C9400A0000030A1000A168A11AB250A128A1589
:101CA400013083120313B3003308BF0780303F02AF
:101CB400031C5D2E5E2E332E6430A0000030A10084
:101CC4000A168A11AB250A128A1501300A168A11DE
:101CD4000B250A128A1580300A168A110B250A125E
:101CE4008A151E3083120313A0001330A1000A16B4
:101CF4008A1157250A128A150A168A11A2240A1271
:101D04008A15C0300A168A110B250A128A151F304B
:101D140083120313A0001230A1000A168A1157255A
:101D24000A128A150A168A11A2240A128A15F43094
:101D340083120313A0000130A1000A168A11AB25F7
:101D44000A128A1501300A168A110B250A128A15FD
:101D540080300A168A110B250A128A1581308312E3
:101D64000313A0001330A1000A168A1157250A1282
:101D74008A150A168A11A2240A128A1506308316B5
:101D840003139F0003100030031801308312031360
:101D9400BF00D82E20308500E62E10308500E62EB8
:101DA40008308500E62E04308500E62E3F08003A10
:101DB4000319CC2E013A0319CF2E033A0319D22E5C
:101DC400013A0319D52EE62E031000300318013012
:101DD400BE003E080A128A118A270A128A15831243
:101DE40003138800C830A0000030A1000A168A112D
:101DF400AB250A128A15013083120313B30033088A
:101E0400BE0710303E02031C082F092FEB2E0130B1
:101E1400B3003308BF0704303F02031C122F132FF3
:101E2400D82E0230831603139F00031000300318CA
:101E340001308312031388000330831603138600D2
:101E440001300A168A110B250A128A1580300A16E7
:101E54008A110B250A128A151F3083120313A0005E
:101E64001430A1000A168A1157250A128A150A1677
:101E74008A11A2240A128A15C0300A168A110B2567
:101E84000A128A15D43083120313A0001230A10061
:101E94000A168A1157250A128A150A168A11A224CB
:101EA4000A128A15831203138618592F5A2F542F96
:101EB4000310003003180130831603138600013029
:101EC4000A168A110B250A128A1583300A168A11FA
:101ED4000B250A128A15BE3083120313A000123098
:101EE400A1000A168A1157250A128A150A168A11A0
:101EF400A2240A128A150310003003180130831239
:101F04000313BE00BF010314BF0D3F0886003F0842
:101F14008800C830A0000030A1000A168A11AB2541
:101F24000A128A15831203133F08B3003307BF0054
:101F3400BF08031D9E2F9F2F872F0130B300330846
:101F4400BE0703303E02031CA82FA92F842F0310C1
:101F540000300318013086000310003003180130EC
:101F640088000310003003180130BF00FF30B300B5
:101F740033088606FF30B30033088806C830A00053
:101F84000030A1000A168A11AB250A128A15013005
:101F940083120313B3003308BF0704303F02031C4A
:101FA400D42FD52FB82F01300A168A110B250A1207
:101FB4008A1580300A168A110B250A128A15633095
:101FC40083120313A0001330A1000A168A115725A7
:101FD4000A128A150A168A11A2240A128A150310F3
:101FE40000300318013083120313BE000630831639
:0C1FF40003139F0085160A128A11522860
:10220000FE0011308A007E08820700000A128A153B
:022210006B2839
:10240000FE00FE1F082A83137E18831700080800A9
:102410008A00040882000D340A34203446344934DA
:102420004D3421340D340A34003420342034203427
:10243000203420342034463469346D340034203460
:102440002034203420342034203420344F346B3472
:102450000034543465347334743465342034523465
:102460005434433400340000000000000000000039
:1024700000000000000008003934363430343034B5
:10248000203438344E343134003402308316031390
:102490009F004930831203139F0008008316031323
:1024A00007128312031387150716080064008001C2
:1024B000840A0406031900340406572AF000700841
:1024C0008312031388000800F00070080F39303EB3
:0224D000080002
:10256600203420342034203420342034453452346E
:1025760052344F340034543465347334743465340F
:1025860020344C34453444347334003420344434D9
:102596006934673469347434653421340D340A344B
:1025A6000034503472346534733473342E3420342A
:1025B6005234423431340034F00070088312031769
:1025C6008D00831603170C14831203170C080800DA
:1025D600F000700883120313990083160313981CE6
:1025E600F52AF62AF02A0800203450346934633478
:1025F600733469346D344C34613462340D340A34C6
:1026060000345434653473347434653420345234AD
:1026160045344C3445342034323400345434653433
:102626007334743465342034523445344C34453470
:10263600203431340034203420342034543465348A
:1026460073347434653420344C34433444340034A5
:10265600F1007108F00004300310F00CFF3E031D7A
:102666002F2B70080F39303E0800203420342034D8
:1026760054346534733474346534203454344534F6
:102686004D34503400345434653473347434653402
:1026960020345434653463346C34613464346F34B8
:1026A60000344434653473346C342E34203452345C
:1026B60045344C34313420344434493450340034B5
:1026C60020342034543465347334743465342034FF
:1026D60043346834613476346534733400342034DA
:1026E6005034723465347334733469346F346E34F1
:1026F6006534203452345334543400342034203476
:1027060020345434653473347434653420343734A7
:102716002034533465346734003420342034203474
:10272600543465347334743465342034413451344C
:102736005534453443340034203420342034543462
:102746006534733474346534203452344534533428
:10275600463452340034831603131813981618128D
:102766001815831203139817181318163230831688
:102776000313990008004C346934673475346534A2
:10278600203474346F3464346F34733420344434F6
:10279600493450340034203454346534733474343A
:1027A600653420344134443443342034283450349E
:1027B6003234293400345434653473347434653413
:1027C6002034533465347234693461346C342034C3
:1027D60054345834003454346534733474346534A2
:1027E6002034533465347234693461346C342034A3
:1027F60052345834003420345434653473347434C9
:10280600653420344134443443342034283450343D
:102816003134293400342034283473343D3452346E
:102826004234303420346E343D3452344234313400
:10283600293420343F3400344434653473346C34E2
:10284600693467347534653420345234543443342F
:1028560020344434493450340034543465347334A9
:1028660074346534203445344534503452344F344E
:102876004D34203449344E345434003454346534A1
:10288600733474346534203445344534503452340A
:102896004F344D34203445345834543400344434A1
:1028A600653473342E3420344434493453342A3452
:1028B6002034653420344C344534443431340034C7
:1028C60083120313871507120A168A1133220A1672
:1028D6008A118312031307160A168A1133220A165F
:1028E6008A110800F0007008831203178D00710822
:1028F6008C00831603170C1555308D00AA308D00F9
:102906008C148C18872C882C842C0C110800F6014A
:10291600F701F80183134030840054300A168A11F7
:1029260056220A168A11A0308400CD300A168A1162
:1029360056220A168A1183010A128A15012D83125C
:102946000313A3000310003003180130A400BA2CAF
:1029560024082307840000080A168A1131250A165E
:102966008A110130F400740883120313A4072408A3
:102976002307840083138008031DC22CC32CAB2CB1
:10298600080083120313A20003100030031801305D
:10299600A300DC2C23082207840000080A168A11EB
:1029A600EB220A168A110130F4007408831203130D
:1029B600A30723082207840083138008031DE42C41
:1029C600E52CCD2C080001340234043400340D34D7
:1029D6000A342034503469346334733469346D34C2
:1029E6006C34613462340D340A3420345434653422
:1029F6007334743465342034533465347234693432
:102A060061346C342034543458340D340A34003470
:102A1600F40083120313891474080A168A115E22BD
:102A26000A168A118312031309110330A00000301D
:102A3600A1000A168A11AB250A168A1183120313FE
:102A460089100330A0000030A1000A168A11AB25B8
:102A56000A168A11831203138914080083120313BA
:102A6600A200891422080A168A115E220A168A1101
:102A76008312031309150330A0000030A1000A16C3
:102A86008A11AB250A168A118312031389100330A3
:102A9600A0000030A1000A168A11AB250A168A1179
:102AA6008312031389140800031000300318013041
:102AB600F300612D0130F0007008F3078312031351
:102AC6002108F1002008F0007308700784007108DF
:102AD6000318710A0A168A1100220A168A11F200D0
:102AE6007308A03E84007208831380008008031DCB
:102AF6007D2D7E2D5D2DA03008000030831203133E
:102B0600A3000030A400251C892D8A2D902D2708AE
:102B1600A3070318A40A2808A40701300310A70D69
:102B2600A80DFF3E031D912D01300310A60CA50C28
:102B3600FF3E031D982D26082504031DA32DA42D55
:102B4600862D2408A601A6072308A501A5070800C7
:102B56000030F1000030F200CF2D031000300318D2
:102B66000130F3000000000000000000000000003B
:102B760000000000000000000130F0007008F307BC
:102B8600C8307302031CC82DC92DB52D0130F107BD
:102B96000318F20A0030F2078312031321087202A7
:102BA600031DD72D20087102031CDA2DDB2DB02D55
:102BB6000800003083120313A2000030A300F42D96
:102BC6001430A0000030A1000A168A11AB250A169F
:102BD6008A11143083120313A2070318A30A0030C4
:102BE600A30725082302031DFA2D24082202031C2D
:102BF600FD2DFE2D042E25082404031D032E042E70
:102C0600082E8C1E072E082EE32D8C1E0B2E0C2E46
:102C16000E2E1A080F2EFF30080083120313230806
:102C260022040319172E182E482EF1010314F10D54
:102C3600272E01300310A20DA30DFF3E031D1D2EEE
:102C46000130F0007008F107A31F2A2E2B2E1C2E30
:102C560023082102031D312E22082002031C342ED4
:102C6600352E3B2E2208A0022308031CA103A10235
:102C760001300310A30CA20CFF3E031D3C2E0130B5
:102C8600F102031D472E482E2B2E08008312031334
:102C9600A000562E41309F00612E49309F00612EC4
:102CA60051309F00612E2008003A03194D2E013A3B
:102CB6000319502E033A0319532E612E1F151F199F
:102CC600652E662E622E1E08F000F1010230F2001B
:102CD6000310F00DF10DF20B6B2E831603131E0875
:102CE600F30006300310F30CFF3E031D752E730828
:102CF600700483120313A1007108A2000800F100FA
:102D06008312031387110310003003180130F200F9
:102D16007108F0007203FF3A073E013E942E03103D
:102D2600F00CFF3E031D922E70189A2E9E2E8312D3
:102D360003130716A12E83120313071287150A160B
:102D46008A1133220A168A1183120313871101305E
:102D5600F0007008F20708307202031CB32EB42E7E
:102D66008B2E07160A168A1133220A168A11831227
:102D7600031387150A168A1133220A168A1183123B
:102D8600031387110800003083160313CF000030A9
:102D9600D000540853040319D12ED22E0A2FCE0187
:102DA6000314CE0DE12E01300310D30DD40DFF3EDA
:102DB600031DD72E0130CD004D08CE07D41FE42EBB
:102DC600E52ED62E01300310CF0DD00DFF3E031D8C
:102DD600E62E54085202031DF22E53085102031C1C
:102DE600F52EF62EFD2E5308D1025408031CD203ED
:102DF600D2024F1401300310D40CD30CFF3E031D36
:102E0600FE2E0130CE02031D092F0A2FE52E500893
:102E1600D201D2074F08D101D10708000030831232
:102E26000313A9000030AA002F082E0403191C2F33
:102E36001D2F552FAB010314AB0D2C2F01300310A2
:102E4600AE0DAF0DFF3E031D222F0130F4007408B6
:102E5600AB07AF1F2F2F302F212F01300310A90DE5
:102E6600AA0DFF3E031D312F2F082D02031D3D2FF6
:102E76002E082C02031C402F412F482F2E08AC028F
:102E86002F08031CAD03AD02291401300310AF0C4B
:102E9600AE0CFF3E031D492F0130AB02031D542F1C
:102EA600552F302F2A08AD01AD072908AC01AC0714
:102EB60008000130F802F808031D622F632F9C2FCB
:102EC6008312031310100F0883160313D500D601BF
:102ED6000830D7000310D50DD60DD70B6D2F8312F2
:102EE60003130E08831603135504D1005608D200A7
:102EF6000730D3000030D4000A168A11C6260A16F7
:102F06008A118313831603135208F701F707510832
:102F1600F601F6077D30F800031000300318013083
:102F2600831203138F0003100030031801308E0044
:102F3600101483120B1106308100831603135B08ED
:102F4600FE005A088A005908840058088300FF0EBC
:102F56007F0E09008312031326080139A4002508F1
:102F6600A2000A128A1502200A168A118312031376
:102F76002408031DBF2FC62FA2300A168A118226E7
:102F86000A168A11CC2FA0300A168A1182260A1632
:102F96008A118312031322080A168A1182260A1638
:102FA6008A110A128A1502200A168A11831203133D
:102FB6002408031DDF2FE62FA3300A168A11822666
:102FC6000A168A11EC2FA1300A168A1182260A16D1
:102FD6008A11F2010314F20D0A128A156B200A16E1
:102FE6008A1183120313A3000A168A1163240A1690
:0A2FF6008A11831203132308080058
:02400E00323F3F
:00000001FF
