:020000040000FA
:100000001228A000FA30A1006400A10B0428A00B64
:10001000022808008800000089140E288910013089
:100020000120080085018601870188018901831666
:10003000DF308500FF308600FF3087000030880009
:1000400004308900DF30810000308B0007309F00D2
:100050008312031A2A28203084008001840A0408AD
:10006000803A031D2D28091030300A20033001206A
:1000700030300A2030300A2038300A2001300A207F
:10008000013001200C300A2006300A2080300A207E
:10009000091441300A202F300A2044300A20203031
:1000A0000A2070300A206F300A2072300A20203077
:1000B0000A2052300A2043300A2020300A20203003
:1000C0000A2028300A2050300A2032300A202930F5
:1000D0000A200910C0300A20091454300A202E309A
:1000E0000A2043300A2041300A2052300A2047308B
:1000F0000A2041300A203A300A2020300A202030DD
:100100000A2020300A2078300A2035300A2030308A
:100110000A2075300A2073300A206400A301831678
:1001200085108312851003300120831685148312F5
:1001300000000E30A400A40B9B28A30FA028A32826
:10014000851C9828A528FF30A300C9300A2009146F
:10015000230E0F39A4000A30240230300318373040
:1001600024070A2023080F39A4000A302402303063
:0C0170000318373024070A2009108D28DE
:02400E00353F3C
:00000001FF
