:020000040000FA
:100000005428A000FA30A1006400A10B0428A00B22
:10001000022808008800000089140E288910013089
:10002000012008002310091001300A2001300120AE
:1000300082300A2009144D300A204F300A205330F4
:100040000A2041300A2049300A2043300A204F302C
:100050000A2020300A2045300A204E300A2047303E
:100060000A202E300A200910C1300A20091443301A
:100070000A2055300A2052300A2053300A204F30CF
:100080000A2020300A204D300A204F300A20443008
:100090000A2055300A204C300A204F300A202030E8
:1000A0000A2032300A200800850186018701880174
:1000B00089018316DF308500FF308600FF3087001E
:1000C0000030880004308900DF30810000308B0070
:1000D00007309F008312031A6C28203084008001AF
:1000E000840A0408803A031D6F2823140910303055
:1000F0000A200330012030300A2030300A20383006
:100100000A2001300A20013001200C300A2006307C
:100110000A2009146400061C9928861CB628061DAE
:10012000D328861DF028C830A200231C8A2812205C
:100130008A28A20803198A28A20B8A2809100130EC
:100140000A200130012080300A20091454300A208E
:1001500045300A2043300A204C300A2041300A2022
:1001600020300A2030300A2023148A28A2080319DC
:100170008A28A20B8A28091001300A2001300120A8
:1001800088300A20091454300A2045300A204330B0
:100190000A204C300A2041300A2020300A20313019
:1001A0000A2023148A28A20803198A28A20B8A2865
:1001B000091001300A2001300120C0300A20091442
:1001C00054300A2045300A2043300A204C300A209F
:1001D00041300A2020300A2032300A2023148A2895
:1001E000A20803198A28A20B8A28091001300A20C4
:1001F00001300120C8300A20091454300A2045304B
:100200000A2043300A204C300A2041300A20203096
:0A0210000A2033300A2023148A2844
:02400E00353F3C
:00000001FF
