:0400000054EF00F0C9
:0E0008005682FACF1BF0FBCF1CF024ED09F05E
:100018005680D8CF01F0E8CF02F0E0CF03F0FACF56
:1000280004F0FBCF05F0E9CF06F0EACF07F0E1CF07
:1000380008F0E2CF09F0D9CF0AF0DACF0BF0F3CF0E
:100048000CF0F4CF0DF0F6CF0EF0F7CF0FF0F8CF9D
:1000580010F0F5CF11F000F011C0F5FF10C0F8FF57
:100068000FC0F7FF0EC0F6FF0DC0F4FF0CC0F3FF82
:100078000BC0DAFF0AC0D9FF09C0E2FF08C0E1FFE0
:1000880007C0EAFF06C0E9FF05C0FBFF04C0FAFF8E
:1000980003C0E0FF02C0E8FF01C0D8FF569010007F
:1000A800F9EF0BF0C30E926E010E936E010E946E73
:1000B800000E956E000E966EF19E20EC0AF04BEC49
:1000C8000CF006EC0CF029EC0CF00F0EC16E070ECC
:1000D800B46E030E936E010EC2EC0BF0800EC2ECF0
:1000E8000BF04D0E2F6EFE0E306E7AEC09F0C00E3E
:1000F800C2EC0BF09B0E2F6EFF0E306E7AEC09F0FF
:1001080081B2FED7010EC2EC0BF0800EC2EC0BF0F0
:10011800830E2F6EFF0E306E7AEC09F0000E000190
:100128008D6F090E00018D6501D00CD0000E2A6E6E
:10013800C80E296E92EC0BF0180EC2EC0BF0000101
:100148008D2BEFD7000E00018D6F090E00018D6514
:1001580001D00CD0000E2A6EC80E296E92EC0BF05E
:100168001C0EC2EC0BF000018D2BEFD7000E000126
:100178008D6F090E00018D6501D00CD0000E2A6E1E
:10018800C80E296E92EC0BF0100EC2EC0BF00001B9
:100198008D2BEFD7000E00018D6F090E00018D65C4
:1001A80001D00CD0000E2A6EC80E296E92EC0BF00E
:1001B800140EC2EC0BF000018D2BEFD7400EC2ECF1
:1001C8000BF0110EADEC0BF0190EADEC0BF0150E9B
:1001D800ADEC0BF0130EADEC0BF0130EADEC0BF019
:1001E800150EADEC0BF0190EADEC0BF0110EADECDD
:1001F8000BF00E0EADEC0BF0110EADEC0BF00E0E7D
:10020800ADEC0BF0050EADEC0BF00E0EADEC0BF0FB
:10021800140EADEC0BF00A0EADEC0BF0110EADECBC
:100228000BF0C00EC2EC0BF0000E00018D6F0F0E2C
:1002380000018D6501D00ED000018D51010BADEC90
:100248000BF0000E2A6E640E296E92EC0BF0000182
:100258008D2BEDD7010EC2EC0BF0800EC2EC0BF02B
:10026800830E2F6EFF0E306E7AEC09F0200E00011F
:100278008D6F200E00018D6101D016D08DC03DF02C
:100288000F0E3D16D8A403D0C00EC2EC0BF000012F
:100298008D51ADEC0BF0000E2A6E320E296E92ECE9
:1002A8000BF000018D2BE5D7000E2A6E640E296E27
:1002B80092EC0BF0010EC2EC0BF0800EC2EC0BF0CE
:1002C800830E2F6EFF0E306E7AEC09F0C00EC2EC72
:1002D8000BF0DA0E2F6EFF0E306E7AEC09F0010E7D
:1002E8002A6EF40E296E92EC0BF0010EC2EC0BF0A4
:1002F800800EC2EC0BF0F70E2F6EFF0E306E7AEC0C
:1003080009F08282010E2A6EF40E296E92EC0BF02F
:100318008292010EC2EC0BF0800EC2EC0BF0220EA2
:100328002F6EFF0E306E7AEC09F00F0EC16E000EC4
:1003380000018D6F030E00018D650AD030D0200EAC
:1003480005D0100E03D0080E01D0040E806E0ED01A
:1003580000018D51000AD8B4F2D7010AD8B4F1D7F8
:10036800030AD8B4F0D7010AD8B4EFD7000E0001B9
:100378008C6F0F0E00018C6501D00ED000018C51DE
:10038800CEEC08F0836E000E2A6EC80E296E92EC31
:100398000BF000018C2BEDD700018D2BCBD70B0E6A
:1003A800C16E000E836E030E936E010EC2EC0BF04D
:1003B800800EC2EC0BF0FA0E2F6EFD0E306E7AEC4A
:1003C80009F0C00EC2EC0BF09B0E2F6EFF0E306EC4
:1003D8007AEC09F081B2FED7000E936E010EC2ECE2
:1003E8000BF0830EC2EC0BF0B10E2F6EFF0E306EC9
:1003F8007AEC09F0000E00018C6F020E00018C658A
:1004080001D01BD0010E00018D6F00018D5100013C
:10041800D8B410D08DC081FF8DC083FF000E2A6E26
:10042800C80E296E92EC0BF000018D51020DF3CF2E
:100438008DF0EBD700018C2BE0D7000E816E000EFB
:10044800836E000E00018D6F030E00018D6501D0D3
:100458000DD0FF0E811AFF0E831A000E2A6EC80EE9
:10046800296E92EC0BF000018D2BEED7010EC2EC39
:100478000BF0800EC2EC0BF0310E2F6EFF0E306EBB
:100488007AEC09F0000E00018C6F0F0EC16E928A93
:100498003F0E936EC00EC2EC0BF07D0E2F6EFE0E5B
:1004A800306E7AEC09F081B0FED7C60EC2EC0BF0C4
:1004B800E10E2F6EFF0E306E7AEC09F0010E2A6EF7
:1004C800F40E296E92EC0BF0C00EC2EC0BF08C0E01
:1004D8002F6EFE0E306E7AEC09F081B2FED7C60E92
:1004E800C2EC0BF0E10E2F6EFF0E306E7AEC09F0C5
:1004F800010E2A6EF40E296E92EC0BF0C00EC2ECBF
:100508000BF09B0E2F6EFE0E306E7AEC09F081B464
:10051800FED7C60EC2EC0BF0E10E2F6EFF0E306E4A
:100528007AEC09F0010E2A6EF40E296E92EC0BF0AB
:10053800C00EC2EC0BF0AA0E2F6EFE0E306E7AECD7
:1005480009F081B6FED7C60EC2EC0BF0E10E2F6E95
:10055800FF0E306E7AEC09F0010E2A6EF40E296E49
:1005680092EC0BF0C00EC2EC0BF0B90E2F6EFE0E23
:10057800306E7AEC09F081B8FED7C60EC2EC0BF0EB
:10058800E10E2F6EFF0E306E7AEC09F0010E2A6E26
:10059800F40E296E92EC0BF0C00EC2EC0BF0D70EE5
:1005A8002F6EFE0E306E7AEC09F081BAFED7C60EB9
:1005B800C2EC0BF0E10E2F6EFF0E306E7AEC09F0F4
:1005C800010E2A6EF40E296E92EC0BF0C00EC2ECEE
:1005D8000BF0C80E2F6EFE0E306E7AEC09F080BA62
:1005E800FED7C60EC2EC0BF0E10E2F6EFF0E306E7A
:1005F8007AEC09F0010E2A6EF40E296E92EC0BF0DB
:10060800000E816E0B0EC16E010EC2EC0BF0800E57
:10061800C2EC0BF06D0E2F6EFE0E306E7AEC09F008
:10062800C00EC2EC0BF0E90E2F6EFD0E306E7AECA8
:1006380009F0030E936E81B081A201D0FCD781B07E
:100648006FD0948E949CC40EC2EC0BF0EE0E2F6EFD
:10065800FF0E306E7AEC09F0B70E2A6EFD0E2B6E87
:10066800A6EC0AF0000E00018D6F030E00018D65E7
:1006780001D00ED000018D51300F30EC0CF05C0E23
:100688002A6EFF0E2B6EA6EC0AF000018D2BEDD71B
:10069800030E2A6EE80E296E92EC0BF0010EC2ECE6
:1006A8000BF0800EC2EC0BF05D0E2F6EFE0E306E5E
:1006B8007AEC09F0900E2A6EFF0E2B6EA6EC0AF06B
:1006C800000E00018D6F1F0E00018D6501D022D034
:1006D8008DC03DF00F0E3D16D8A409D0C00EC2EC57
:1006E8000BF0C30E2A6EFF0E2B6EA6EC0AF0070E57
:1006F8002F6ED00E2E6E4AEC0BF000018C6F0001AD
:100708008C51ADEC0BF000018C5130EC0CF0000179
:100718008D2BD9D7000E2A6E640E296E92EC0BF041
:10072800010EC2EC0BF0800EC2EC0BF02D0E2F6EFA
:10073800FE0E306E7AEC09F0000E00018D6FC70EC8
:1007480000018D6501D040D0000E4EEC0AF029C0A2
:1007580030F02AC031F0000E336E0A0E326ED7EC3C
:100768000BF030C036F031C037F0000E396ECC0EC9
:10077800386ED0EC0AF0365000018C6FC60EC2EC11
:100788000BF08CC080F00001816B860E0001826F37
:10079800000E0001836F51EC07F000018951ADECA8
:1007A8000BF02C0EADEC0BF000018A51ADEC0BF008
:1007B800560EADEC0BF0000E2A6E0A0E296E92EC66
:1007C8000BF000018D2BBBD7010EC2EC0BF0800E95
:1007D800C2EC0BF03D0E2F6EFE0E306E7AEC09F077
:1007E800000E00018D6FC70E00018D6501D040D04D
:1007F800010E4EEC0AF029C030F02AC031F0000E8C
:10080800336E0A0E326ED7EC0BF030C036F031C0C2
:1008180037F0000E396ECC0E386ED0EC0AF0365038
:1008280000018C6FC60EC2EC0BF08CC080F000018A
:10083800816B860E0001826F000E0001836F51EC00
:1008480007F000018951ADEC0BF02C0EADEC0BF06C
:1008580000018A51ADEC0BF0560EADEC0BF0000E1A
:100868002A6E0A0E296E92EC0BF000018D2BBBD775
:1008780094909690010EC2EC0BF0800EC2EC0BF037
:10088800690E2F6EFF0E306E7AEC09F0000E000133
:100898008D6F040E00018D6501D00AD08270010EA3
:1008A8002A6EF40E296E92EC0BF000018D2BF1D715
:1008B8008290010EC2EC0BF0800EC2EC0BF0760EAB
:1008C8002F6EFF0E306E7AEC09F0000E00018D6F6E
:1008D800040E00018D6501D00AD08470010E2A6EC5
:1008E800F40E296E92EC0BF000018D2BF1D7849059
:1008F800030E936E010EC2EC0BF0800EC2EC0BF0EF
:10090800F50E2F6EFE0E306E7AEC09F0C00EC2ECBA
:100918000BF09B0E2F6EFF0E306E7AEC09F081B251
:10092800FED7010EC2EC0BF0800EC2EC0BF0400EAD
:100938002F6EFF0E306E7AEC09F0070E926E29ECDE
:100948000CF0000E00018D6F630E00018D6501D063
:100958003FD0020E4EEC0AF029C030F02AC031F028
:10096800000E336E0A0E326ED7EC0BF0D890313091
:100978003D6E30300001846F3DC085F0C50EC2EC7D
:100988000BF084C080F085C081F0860E0001826F74
:10099800000E0001836F51EC07F000018851ADECA7
:1009A8000BF000018951ADEC0BF02C0EADEC0BF007
:1009B80000018A51ADEC0BF0430EADEC0BF0000ECC
:1009C8002A6E140E296E92EC0BF000018D2BBCD709
:1009D800010EC2EC0BF0800EC2EC0BF0E60E2F6E8F
:1009E800FE0E306E7AEC09F0828A000E00018D6FDF
:1009F800630E00018D6501D03FD0020E4EEC0AF067
:100A080029C030F02AC031F0000E336E0A0E326E63
:100A1800D7EC0BF0D89031303D6E30300001846F48
:100A28003DC085F0C50EC2EC0BF084C080F085C0D7
:100A380081F0860E0001826F000E0001836F51EC79
:100A480007F000018851ADEC0BF000018951ADECC5
:100A58000BF02C0EADEC0BF000018A51ADEC0BF055
:100A6800430EADEC0BF0000E2A6E320E296E92EC9E
:100A78000BF000018D2BBCD7829A9480010EC2EC3A
:100A88000BF0800EC2EC0BF0040E2F6EFF0E306ED2
:100A98007AEC09F0D59AD596D58CD590D592D5848F
:100AA800D58EF28ACD82CD9ACD98F294000ED76E6B
:100AB800060ED66E7D0E416EF28E000ECF6E000EC3
:100AC800CE6ECD808284000E00018D6F950E0001E0
:100AD8008D6501D067D0020E4EEC0AF029C030F0C7
:100AE8002AC031F0000E336E0A0E326ED7EC0BF0CE
:100AF800D89031303D6E30300001846F3DC085F0B4
:100B0800C20EC2EC0BF084C080F085C081F0860E66
:100B18000001826F000E0001836F51EC07F00001A5
:100B28008851ADEC0BF000018951ADEC0BF02C0EA7
:100B3800ADEC0BF000018A51ADEC0BF0430EADECBF
:100B48000BF0C80EC2EC0BF03FC080F040C081F043
:100B5800860E0001826F000E0001836F51EC07F0D2
:100B680000018751ADEC0BF000018851ADEC0BF0A2
:100B780000018951ADEC0BF000018A51ADEC0BF08E
:100B8800520EADEC0BF0500EADEC0BF0530EADEC7D
:100B98000BF0000E2A6E0A0E296E92EC0BF0000183
:100BA8008D2B94D7F29E82940F0EC16E010EC2EC6B
:100BB8000BF0800EC2EC0BF0C60E2F6EFF0E306EDF
:100BC8007AEC09F062EC08F0C00EC2EC0BF0420EB1
:100BD8002F6E000E306E7AEC09F0070E2A6ED00EDA
:100BE800296E92EC0BF0000E00018D6F130E0001C0
:100BF8008D6501D014D062EC08F0C00EC2EC0BF089
:100C08004C0E2F6E000E306E7AEC09F0010E2A6E33
:100C1800F40E296E92EC0BF000018D2BE7D7030E32
:100C2800936E010EC2EC0BF0800EC2EC0BF0D80EE6
:100C38002F6EFD0E306E7AEC09F0C00EC2EC0BF090
:100C48009B0E2F6EFF0E306E7AEC09F081B2FED744
:100C5800F80E936E010EC2EC0BF0820EC2EC0BF094
:100C68004E0E2F6EFF0E306E7AEC09F0C10EC2ECFC
:100C78000BF0000E00018D6F13D00F0E956E050E50
:100C88002F6EDC0E2E6EDAEC07F0300F00018C6F41
:100C9800000E956E00018C51ADEC0BF000018D2B10
:100CA8000D0E00018D65E9D7030E936E010EC2EC9F
:100CB8000BF0800EC2EC0BF00B0E2F6EFE0E306E9A
:100CC8007AEC09F0C00EC2EC0BF0E90E2F6EFD0EA7
:100CD800306E7AEC09F0030E936E81B081A201D0D8
:100CE800FCD781B045D00A0E3CEC0CF000018C6FAB
:100CF80000018C51ADEC0BF0A50E296E0A0EEAEC42
:100D08000BF05A0E296E0A0EEAEC0BF00A0E3CECB8
:100D18000CF000018D6F8CC029F00A0EEAEC0BF084
:100D2800010EC2EC0BF0800EC2EC0BF00B0E2F6E16
:100D3800FE0E306E7AEC09F0C00EC2EC0BF05A0EC3
:100D480000018D19D8A407D0D00E2F6EFF0E306E7B
:100D58007AEC09F006D0A60E2F6EFF0E306E7AECF4
:100D680009F0030E2A6EE80E296E92EC0BF002D001
:100D780081A2FED7010EC2EC0BF0800EC2EC0BF084
:100D88001C0E2F6EFE0E306E7AEC09F0C00EC2EC0F
:100D98000BF0E90E2F6EFD0E306E7AEC09F0030EA3
:100DA800936E81B081A201D0FCD781B054D0000EDF
:100DB8002F6E0A0E2E6E22EC0BF000018C6F0001D4
:100DC8008C51ADEC0BF0000E346E0A0E336EA50E8E
:100DD800356EEEEC09F0000E346E0A0E336E5A0EC4
:100DE800356EEEEC09F0000E2F6E0A0E2E6E22EC18
:100DF8000BF000018D6F000E346E0A0E336E8CC03E
:100E080035F0EEEC09F0010EC2EC0BF0800EC2ECEE
:100E18000BF01C0E2F6EFE0E306E7AEC09F0C00E31
:100E2800C2EC0BF05A0E00018D19D8A407D0D00ED1
:100E38002F6EFF0E306E7AEC09F006D0A60E2F6EDC
:100E4800FF0E306E7AEC09F0030E2A6EE80E296E5A
:100E580092EC0BF002D081A2FED7000E936E000E2A
:100E6800816E010EC2EC0BF0800EC2EC0BF0E40EAA
:100E78002F6EFF0E306E7AEC09F0C00EC2EC0BF04C
:100E8800130E2F6EFF0E306E7AEC09F0BC0E2A6E30
:100E9800FF0E2B6EA6EC0AF0FFD780C036F081C09B
:100EA80037F0270E396E100E386ED0EC0AF0365037
:100EB800300F82C0D9FF83C0DAFFDF6E000120EE59
:100EC80001F08251D9268351DA22270E2C6E100E9A
:100ED8002B6E80C029F081C02AF071EC0BF029C07C
:100EE80036F02AC037F0030E396EE80E386ED0ECB3
:100EF8000AF03650300FDF6E000120EE02F082510A
:100F0800D9268351DA22030E2C6EE80E2B6E80C090
:100F180029F081C02AF071EC0BF029C036F02AC004
:100F280037F0000E396E640E386ED0EC0AF0365089
:100F3800300FDF6E000120EE03F08251D926835175
:100F4800DA22000E2C6E640E2B6E80C029F081C050
:100F58002AF071EC0BF029C036F02AC037F0000EE9
:100F6800396E0A0E386ED0EC0AF03650300FDF6E4C
:100F7800000120EE04F08251D9268351DA2280C084
:100F880029F081C02AF0000E2C6E0A0E2B6E71EC2F
:100F98000BF02950300FDF6E000120EE05F0825172
:100FA800D9268351DA22000EDF6E1200000E326E4F
:100FB800000E316E000E336E81CF30F065D0000E1A
:100FC800346E020E346401D055D03450010DB30E86
:100FD800F324F66EFD0EF420F76E0800F550FF0AB4
:100FE800811283B60CD0000E2A6E140E296E92EC74
:100FF8000BF083B604D083A6FED734282CD083B454
:101008000DD0000E2A6E140E296E92EC0BF083B4EC
:1010180005D083A4FED73450040F1DD083B20DD061
:10102800000E2A6E140E296E92EC0BF083B205D0D6
:1010380083A2FED73450070F0ED083B00ED0000E17
:101048002A6E140E296E92EC0BF083B006D083A0A2
:10105800FED734500A0F336E0DD03450010DB30E45
:10106800F324F66EFD0EF420F76E0800F550811695
:10107800342AA7D7000E2A6E050E296E92EC0BF0C3
:10108800050E3126000E32222E50315C2F50325878
:10109800D8A004D02E502F10D8A403D03350D8B4E1
:1010A8008ED73350D8B433680B0E3318D8A402D077
:1010B800000E336E30C081FF3350120021EC0CF06B
:1010C800D00E7BEC0AF0000E7BEC0AF021EC0CF061
:1010D800D10E7BEC0AF0010EBAEC09F07F0B2E6EF4
:1010E8003A0E516E2E5036EC0CF0526E2E5042ECE9
:1010F8000CF0536E000E546E010EBAEC09F07F0B23
:101108002E6E3A0E4E6E2E5036EC0CF04F6E2E5060
:1011180042EC0CF0506E010EBAEC09F03F0B2E6E4B
:101128002E5036EC0CF04C6E2E5042EC0CF04D6EFE
:10113800010EBAEC09F0010EBAEC09F03F0B2E6E65
:101148002E5036EC0CF0426E2E5042EC0CF0436EF2
:10115800010EBAEC09F01F0B2E6E2F0E446E2E50A6
:1011680036EC0CF0456E2E5042EC0CF0466E000E3C
:10117800BAEC09F02E6E2F0E476E2E5036EC0CF09E
:10118800486E2E5042EC0CF0496E000E4A6E19EC77
:101198000CF01200296E22D03F0E1200060E12002B
:1011A8005B0E12004F0E1200660E12006D0E12003A
:1011B8007D0E1200070E12007F0E12006F0E120035
:1011C800770E12007C0E1200580E12005E0E1200EE
:1011D800790E1200710E1200000E12002950000A3A
:1011E800D8B4DAD7010AD8B4D9D7030AD8B4D8D72B
:1011F800010AD8B4D7D7070AD8B4D6D7010AD8B4C1
:10120800D5D7030AD8B4D4D7010AD8B4D3D70F0A8C
:10121800D8B4D2D7010AD8B4D1D7030AD8B4D0D712
:10122800010AD8B4CFD7070AD8B4CED7010AD8B4A0
:10123800CDD7030AD8B4CCD7010AD8B4CBD7CCD7EA
:101248000600E9CF1DF0EACF1EF0E1CF1FF0E2CF94
:1012580020F0D9CF21F0DACF22F0F3CF23F0F4CF6A
:1012680024F0F6CF25F0F7CF26F0F8CF27F0F5CF0A
:1012780028F041064150D8A416D0CF50196ECE5050
:10128800126E19C013F0000E156E070E146EF9ECED
:101298000AF012C03FF013C040F07D0E416E000E00
:1012A800CF6E000ECE6EF294000ED76E060ED66E7E
:1012B80028C0F5FF27C0F8FF26C0F7FF25C0F6FFB6
:1012C80024C0F4FF23C0F3FF22C0DAFF21C0D9FFF6
:1012D80020C0E2FF1FC0E1FF1EC0EAFF1DC0E9FFFA
:1012E8001CC0FBFF1BC0FAFF56921100000E336EA4
:1012F8001ED03350010D2FC031F030C032F0F35002
:101308003126F450322231C0F6FF32C0F7FF000E0A
:10131800F86E0F0EF76403D00800F55005D0F6CF2D
:10132800E9FFF7CFEAFFEF50ADEC0BF0332A33506B
:10133800010D2FC031F030C032F0F3503126F45097
:10134800322231C0F6FF32C0F7FF000EF86E0F0EE2
:10135800F76403D00800F55005D0F6CFE9FFF7CFC2
:10136800EAFFEF500009D8B41200C3D72B6E000E65
:101378002C6E829694888288000E2D6E070E2D643E
:1013880001D019D0828610EC0CF02D500008296E7F
:10139800070E292682A803D02A6A2A2A01D02A6A97
:1013A800292A02D0D8902A36292EFCD72A502C1266
:1013B80082962D2AE3D794982B50D8B402D08298DD
:1013C80001D0828810EC0CF0828610EC0CF082962A
:1013D8002C50120035C03BF03C6A3450010B386E7B
:1013E80033C039F0000E3A6E21EC0CF03850D8B406
:1013F80004D0A20E7BEC0AF003D0A00E7BEC0AF01E
:1014080039507BEC0AF03B507BEC0AF019EC0CF0FD
:101418003A2A33C02EF034C02FF022EC0BF0366E8F
:10142800376A3B50361804E13C503718D8B41200DC
:10143800090E3A64D9D7120084928494000E2A6E59
:10144800140E296E92EC0BF08482380EC2EC0BF06D
:10145800000E2A6E050E296E92EC0BF0380EC2ECC7
:101468000BF0000E2A6E010E296E92EC0BF0380E6E
:10147800C2EC0BF0080EC2EC0BF00F0EC2EC0BF036
:10148800010EC2EC0BF0380EC2EC0BF0800EC2EC71
:101498000BF012002F6E07D0010E03D0050E01D0FD
:1014A800090EC26E0AD02F50000AD8B4F5D7010A27
:1014B800D8B4F4D7030AD8B4F3D7C282C2B2FED7DD
:1014C800C3CF2BF0060E2C6ED8902B322C2EFCD7C7
:1014D8002B50C4CF2DF02E6AD8902D362E36D890AA
:1014E8002D362E362D10296E2E502A6E12002B6E98
:1014F8008296000E2C6E070E2C6401D01BD02C5047
:101508000008296E070E29262BC02AF0292A02D0A6
:10151800D8902A32292EFCD7010E2A162A3A825050
:101528002A18EF0B2A18826E828610EC0CF082962D
:101538002C2AE1D7828810EC0CF0828610EC0CF093
:1015480082961200000E2E6E13D02E50010D2AC066
:101558002CF02BC02DF0F3502C26F4502D222CC04B
:10156800F6FF2DC0F7FF0800F55030EC0CF02E2ADE
:101578002E50010D2AC02CF02BC02DF0F3502C2634
:10158800F4502D222CC0F6FF2DC0F7FF0800F550AF
:101598000009D8B41200D9D7000E3C6E000E3B6E7D
:1015A80038503910D8B41CD0010E3A6E04D0D890F7
:1015B800383639363A2A39AEFAD7D8903B363C36DF
:1015C8003850365C39503758D8A005D03850365E78
:1015D8003950375A3B80D890393238323A2EEDD7C5
:1015E8003BC036F03CC037F01200000E176E000EFC
:1015F800166E14501510D8B41CD0010E186E04D0F5
:10160800D89014361536182A15AEFAD7D89016364B
:1016180017361450125C15501358D8A005D0145022
:10162800125E1550135A1680D89015321432182E9F
:10163800EDD716C012F017C013F012002F50010B8F
:10164800326E2EC031F021EC0CF03250D8B404D0F8
:10165800A20E7BEC0AF003D0A00E7BEC0AF031500E
:101668007BEC0AF021EC0CF03250D8B404D0A30E75
:101678007BEC0AF003D0A10E7BEC0AF0010EBAEC69
:1016880009F0306E19EC0CF030501200000E316E7B
:10169800000E306EABB402D0ABA20DD0AB98AB88C5
:1016A8000AD0000E2A6E140E296E92EC0BF0140E5E
:1016B8003026000E31222E50305C2F503158D8A0E1
:1016C80004D02E502F10D8A402D09EAAEAD79EAAE2
:1016D80002D0AE501200A50E12002B502C10D8B418
:1016E80018D0010E2D6E04D0D8902B362C362D2A0A
:1016F8002CAEFAD72B50295C2C502A58D8A004D0ED
:101708002B50295E2C502A5AD8902C322B322D2E51
:10171800F1D729C029F02AC02AF01200000E2C6E39
:10172800000E2B6E0FD0000E2D6EC70E2D6401D04B
:1017380007D000F000F000F000F000F02D2AF5D7F7
:101748002B4A2C2A29502B5C2A502C58D8B012002E
:10175800EAD72E6E84822E5047EC0CF08484000E5B
:101768002A6E030E296E92EC0BF08492000E2A6EFC
:10177800030E296E92EC0BF0848212002E6E848286
:101788002E5047EC0CF08494000E2A6E030E296E3E
:1017980092EC0BF08492000E2A6E030E296E92ECE6
:1017A8000BF08482120030503202F3CF34F0F4CFC1
:1017B80035F030503302F350352631503202F350B1
:1017C800352634C030F035C031F012002A6E2AC0F8
:1017D800A9FF29C0A8FFA684550EA76EAA0EA76E5A
:1017E800A682A6B2FED7A694120000EE3FF0170E0E
:1017F800EE6AE806FDE156905692000EF86E00017A
:1018080056EF00F0670EAF6EAC9CAC8AAC98AC8417
:10181800AB8EAB9CAB88120000F000F000F000F03B
:1018280000F000F000F000F012008286829810ECC0
:101838000CF0828810EC0CF012008286828810EC82
:101848000CF0829810EC0CF01200010EC26E0B0E18
:10185800C16E010EC06E1200296E29C0ADFFACB278
:101868001200FDD7296E29380F0B0F0B300F12000D
:10187800296E29C0A9FFA680A8501200296E2950F8
:101888000F0B300F1200296E29C083FF12009498A5
:0618980082868288120026
:10FDB20000010204000D0A2050696373696D6C61D1
:10FDC200620D0A2054657374652053657269616C13
:10FDD2002054580D0A004465732E204449532A20AA
:10FDE20065204C454431002028733D524230206E3C
:10FDF2003D52423129203F004465736C6967756545
:10FE02002052544320444950005465737465204580
:10FE12004550524F4D20494E54005465737465202D
:10FE2200454550524F4D2045585400205465737437
:10FE320065204144432028503129002054657374C1
:10FE420065204144432028503229004C696775657A
:10FE520020746F646F732044495000546573746555
:10FE62002053657269616C20525800546573746541
:10FE72002053657269616C20545800205242302030
:10FE8200202020202020202020002052423120202B
:10FE9200202020202020202000205242322020201A
:10FEA2002020202020202000205242332020202009
:10FEB20020202020202000205242342020202020F8
:10FEC20020202020200020524135202020202020E8
:10FED20020202020002052423520202020202020D7
:10FEE2002020200020202054657374652041515544
:10FEF2004543004465736C2E2052454C31204449E1
:10FF02005000202020546573746520524553465298
:10FF120000205072657373696F6E652052535400EE
:10FF220020202054657374652037205365670020B4
:10FF320020546573746520436861766573002020E0
:10FF42002054657374652054454D50005465737494
:10FF520065205465636C61646F0020506963736946
:10FF62006D4C61620D0A0054657374652052454CF4
:10FF72004520310054657374652052454C4520324A
:10FF8200002020205465737465204C4344002044B3
:10FF92006967697465210D0A0050726573732E20BA
:10FFA200524231002020202020204552524F00543E
:10FFB20065737465204C454473000D0A2046494D13
:10FFC200210D0A00546573746520525443002020A9
:10FFD20020202020204F4B00202020202020204FB6
:10FFE2006B0020202020202046696D0039363030F9
:0EFFF20020384E31002020204265657000004E
:020000040020DA
:08000000FFFFFFFFFFFFFFFF00
:020000040030CA
:0E000000FF06181EFF8180FF0FC00FE00F40AB
:0200000400F00A
:1000000000112233445566778899AABBCCDDEEFFF8
:00000001FF
