:020000040000FA
:0400000039EF0EF0D6
:0400080059EF07F0B5
:040018004AEF0DF0AE
:06002A00060EC16EFF0E80
:10003000926E936A010E946E956A966AAEEC0BF01E
:100040005BEC0EF0F4EC0DF045EC0EF0010EE56EFD
:100050009CEC0DF0E12A800EE56E9CEC0DF0E12A9F
:10006000000EE56E0F0EE56E860EE56E64EC0BF08D
:10007000030EE126400EE56E9CEC0DF0E12A110E18
:10008000E56E75EC0DF0E12A190EE56E75EC0DF0DC
:10009000E12A150EE56E75EC0DF0E12A130EE56E02
:1000A00075EC0DF0E12A130EE56E75EC0DF0E12A0A
:1000B000150EE56E75EC0DF0E12A190EE56E75EC86
:1000C0000DF0E12A110EE56E75EC0DF0E12A0E0E31
:1000D000E56E75EC0DF0E12A110EE56E75EC0DF094
:1000E000E12A0E0EE56E75EC0DF0E12A050EE56EC7
:1000F00075EC0DF0E12A0E0EE56E75EC0DF0E12ABF
:10010000140EE56E75EC0DF0E12A0A0EE56E75EC45
:100110000DF0E12A110EE56E75EC0DF0E12AC00E2E
:10012000E56E9CEC0DF0E12A006A100E005CD8B080
:10013000ADEF00F0010E0014016E0150E56E75EC9C
:100140000DF0E12A000EE56E640EE56E10EC0DF088
:10015000020EE126002A95EF00F0010EE56E9CEC00
:100160000DF0E12A800EE56E9CEC0DF0E12A000E08
:10017000E56E0F0EE56E860EE56E64EC0BF0030E79
:10018000E126200E006E800E005CD8B0E1EF00F09A
:1001900000500F0BD8A405D0C00EE56E9CEC0DF0FE
:1001A000E12A0050E56E75EC0DF0E12A000EE56ED7
:1001B000320EE56E10EC0DF0020EE126002AC3EFC0
:1001C00000F0000EE56E640EE56E10EC0DF0020E10
:1001D000E126010EE56E9CEC0DF0E12A800EE56E45
:1001E0009CEC0DF0E12A000EE56E0F0EE56E860E1A
:1001F000E56E64EC0BF0030EE126C00EE56E9CECA0
:100200000DF0E12A000EE56E0F0EE56E940EE56E20
:1002100064EC0BF0030EE126010EE56EF40EE56EC4
:1002200010EC0DF0020EE126010EE56E9CEC0DF0D7
:10023000E12A800EE56E9CEC0DF0E12A000EE56EE1
:100240000F0EE56E9E0EE56E64EC0BF0030EE126DC
:10025000818E006A040E005CD8B052EF01F0100EDF
:10026000816E005005E0E86CD8908136010FFDE307
:10027000016A100E015CD8B04FEF01F00150E56E3D
:1002800070EC08F0836EE12A000EE56EC80EE56E94
:1002900010EC0DF0020EE126012A39EF01F0002AE0
:1002A0002AEF01F0836A010EE56E9CEC0DF0E12A65
:1002B000830EE56E9CEC0DF0E12A000EE56E0F0E4C
:1002C000E56EAE0EE56E64EC0BF0030EE126006AFF
:1002D000030E005CD8B085EF01F0010E016E100E28
:1002E000015CD8B082EF01F001C081FF000EE56E25
:1002F000C80EE56E10EC0DF0020EE126D890013626
:100300006FEF01F0002A68EF01F0816A006A040EC5
:10031000005CD8B099EF01F00F0E811A000EE56E67
:10032000C80EE56E10EC0DF0020EE126002A87EFF4
:1003300001F0010EE56E9CEC0DF0E12A800EE56EF9
:100340009CEC0DF0E12A000EE56E0F0EE56EBA0E84
:10035000E56E64EC0BF0030EE126006A0F0E00144C
:10036000026E02500F0A02E1D5EF01F00F0E936EFC
:1003700081B0BCEF01F0008081B2C0EF01F00082DB
:1003800081B4C4EF01F0008481B6C8EF01F00086AB
:10039000936A00C081FF000EE56E0A0EE56E10EC58
:1003A0000DF0020EE126AEEF01F0816A010EE56E5E
:1003B0009CEC0DF0E12A800EE56E9CEC0DF0E12A3C
:1003C000000EE56E0F0EE56ECA0EE56E64EC0BF0E6
:1003D000030EE126C00EE56E9CEC0DF0E12A000E46
:1003E000E56E0F0EE56EDC0EE56E64EC0BF0030EB1
:1003F000E126030E936E81A001EF02F081B2FBEFC4
:1004000001F081B06DEF02F00A0EE56E2DEC0EF0FA
:10041000006EE12A0050E56E75EC0DF0E12AA50EA4
:10042000E56E0A0EE56EC3EC0DF0020EE1265A0EE3
:10043000E56E0A0EE56EC3EC0DF0020EE1260A0E23
:10044000E56E2DEC0EF0016EE12A0050E56E0A0E0D
:10045000E56EC3EC0DF0020EE126010EE56E9CEC9C
:100460000DF0E12A800EE56E9CEC0DF0E12A000E05
:10047000E56E0F0EE56ECA0EE56E64EC0BF0030E32
:10048000E126C00EE56E9CEC0DF0E12A01505A0AFF
:1004900002E14DEF02F059EF02F0000EE56E0F0E93
:1004A000E56EEC0EE56E64EC0BF0030EE12663EFF7
:1004B00002F0000EE56E0F0EE56EF60EE56E64ECD2
:1004C0000BF0030EE126030EE56EE80EE56E10EC70
:1004D0000DF0020EE12670EF02F081A26DEF02F046
:1004E000936A816A010EE56E9CEC0DF0E12A800EA4
:1004F000E56E9CEC0DF0E12A000EE56E100EE56E47
:10050000020EE56E64EC0BF0030EE126C00EE56E04
:100510009CEC0DF0E12A000EE56E0F0EE56EDC0E90
:10052000E56E64EC0BF0030EE126030E936E81A0E2
:100530009DEF02F081B297EF02F081B015EF03F06A
:10054000000EE56E0A0EE56EC3EC09F0006E020EB9
:10055000E1260050E56E75EC0DF0E12AA50EE56E82
:10056000000EE56E0A0EE56EEFEC08F0030EE126D4
:100570005A0EE56E000EE56E0A0EE56EEFEC08F021
:10058000030EE126000EE56E0A0EE56EC3EC09F0DF
:10059000016E020EE1260050E56E000EE56E0A0EB9
:1005A000E56EEFEC08F0030EE126010EE56E9CEC23
:1005B0000DF0E12A800EE56E9CEC0DF0E12A000EB4
:1005C000E56E100EE56E020EE56E64EC0BF0030EA8
:1005D000E126C00EE56E9CEC0DF0E12A01505A0AAE
:1005E00002E1F5EF02F001EF03F0000EE56E0F0EF1
:1005F000E56EEC0EE56E64EC0BF0030EE1260BEFFE
:1006000003F0000EE56E0F0EE56EF60EE56E64EC7F
:100610000BF0030EE126030EE56EE80EE56E10EC1E
:100620000DF0020EE12618EF03F081A215EF03F0A2
:10063000936A816A010EE56E9CEC0DF0E12A800E52
:10064000E56E9CEC0DF0E12A000EE56E100EE56EF5
:10065000140EE56E64EC0BF0030EE126C40EE56E9D
:100660009CEC0DF0E12A000EE56E100EE56E240EF6
:10067000E56E64EC0BF0030EE126000EE56E100E45
:10068000E56E2E0EE56EF8EC0BF0030EE126016A26
:10069000040E015CD8B062EF03F0300E0124026E4C
:1006A0000250E56E20EC0EF0E12A000EE56E100E11
:1006B000E56E500EE56EF8EC0BF0030EE126012A14
:1006C00048EF03F0030EE56EE80EE56E10EC0DF05A
:1006D000020EE126010EE56E9CEC0DF0E12A800E83
:1006E000E56E9CEC0DF0E12A000EE56E100EE56E55
:1006F0005E0EE56E64EC0BF0030EE126000EE56E77
:10070000100EE56E6E0EE56EF8EC0BF0030EE126B2
:10071000016A200E015CD8B0B7EF03F001500F0B57
:10072000D8A40FD0C00EE56E9CEC0DF0E12A000EAF
:10073000E56E100EE56E7A0EE56EF8EC0BF0030E2A
:10074000E126070EE56ED00EE56ECCEC0CF0006EE7
:10075000020EE1260050E56E75EC0DF0E12A005026
:10076000E56E20EC0EF0E12A012A89EF03F0000E7D
:10077000E56E640EE56E10EC0DF0020EE126010E42
:10078000E56E9CEC0DF0E12A800EE56E9CEC0DF020
:10079000E12A000EE56E100EE56E7E0EE56E64EC4D
:1007A0000BF0030EE126C80E016E010EE56E88EC1B
:1007B0000CF0026EF3CF03F0E12A0350E56E025015
:1007C000E56E000EE56E0A0EE56E14EC0BF0026E9F
:1007D000F3CF03F0040EE126000EE56ECC0EE56EBD
:1007E0000350E56E0250E56E6FEC0AF0026EF3CF37
:1007F00003F0040EE1260250006EC60EE56E9CEC7E
:100800000DF0E12A026A000E046E800E036E800E67
:10081000056E0550E56E0450E56E0350E56E02501E
:10082000E56E0050E56E39EC06F0050EE12600019C
:100830008351E56E75EC0DF0E12A2C0EE56E75EC3A
:100840000DF0E12A00018451E56E75EC0DF0E12A0E
:10085000560EE56E75EC0DF0E12A000EE56E0A0EFF
:10086000E56E10EC0DF0020EE126012ED5EF03F03F
:10087000010EE56E9CEC0DF0E12A800EE56E9CEC1D
:100880000DF0E12A000EE56E100EE56E8E0EE56E9F
:1008900064EC0BF0030EE126640E006E000EE56EB4
:1008A00088EC0CF0016EF3CF02F0E12A0250E56E05
:1008B0000150E56E000EE56E510EE56E14EC0BF086
:1008C000016EF3CF02F0040EE126000EE56E640E19
:1008D000E56E0250E56E0150E56E6FEC0AF0016EB8
:1008E000F3CF02F0040EE126C50EE56E9CEC0DF090
:1008F000E12A000E046E800E036E800E056E055018
:10090000E56E0450E56E0350E56E0250E56E015051
:10091000E56E39EC06F0050EE12600018251E56E28
:1009200075EC0DF0E12A00018351E56E75EC0DF0D8
:10093000E12A2C0EE56E75EC0DF0E12A00018451E0
:10094000E56E75EC0DF0E12A430EE56E75EC0DF0E9
:10095000E12A000EE56E0A0EE56E10EC0DF0020EB7
:10096000E126002E4EEF04F0010EE56E9CEC0DF03A
:10097000E12A800EE56E9CEC0DF0E12A000EE56E9A
:10098000100EE56E9C0EE56E64EC0BF0030EE12696
:100990008284640E006E000EE56E88EC0CF0036E2F
:1009A000F3CF04F0E12A0450E56E0350E56E000E2B
:1009B000E56E510EE56E14EC0BF0036EF3CF04F010
:1009C000040EE126000EE56E640EE56E0450E56E41
:1009D0000350E56E6FEC0AF0016EF3CF02F0040EE7
:1009E000E126C50EE56E9CEC0DF0E12A000E046ECA
:1009F000800E036E800E056E0550E56E0450E56EA8
:100A00000350E56E0250E56E0150E56E39EC06F0DC
:100A1000050EE12600018251E56E75EC0DF0E12A2C
:100A200000018351E56E75EC0DF0E12A2C0EE56EA8
:100A300075EC0DF0E12A00018451E56E75EC0DF0C6
:100A4000E12A430EE56E75EC0DF0E12A000EE56E2D
:100A50000A0EE56E10EC0DF0020EE126002ECBEF33
:100A600004F08294010EE56E9CEC0DF0E12A800EFC
:100A7000E56E9CEC0DF0E12A000EE56E100EE56EC1
:100A8000AC0EE56E64EC0BF0030EE126D59AD5961C
:100A9000D58CD590D592D584D58EF28ACD82CD9A3B
:100AA000CD98F294D76A060ED66E7D0E00018E6F39
:100AB000F28ECF6ACE6ACD808282960E006E000ED4
:100AC000E56E88EC0CF0036EF3CF04F0E12A0450DD
:100AD000E56E0350E56E000EE56E510EE56E14EC0A
:100AE0000BF0036EF3CF04F0040EE126000EE56E6A
:100AF000640EE56E0450E56E0350E56E6FEC0AF08F
:100B0000016EF3CF02F0040EE126C20EE56E9CECFE
:100B10000DF0E12A000E046E800E036E800E056E4D
:100B20000550E56E0450E56E0350E56E0250E56E2B
:100B30000150E56E39EC06F0050EE1260001825108
:100B4000E56E75EC0DF0E12A00018351E56E75EC60
:100B50000DF0E12A2C0EE56E75EC0DF0E12A000196
:100B60008451E56E75EC0DF0E12A430EE56E75ECEF
:100B70000DF0E12AC80EE56E9CEC0DF0E12A000EA6
:100B8000026E800E016E800E036E0350E56E025001
:100B9000E56E0150E56E00018751E56E000186515A
:100BA000E56E39EC06F0050EE12600018151E56E97
:100BB00075EC0DF0E12A00018251E56E75EC0DF047
:100BC000E12A00018351E56E75EC0DF0E12A000188
:100BD0008451E56E75EC0DF0E12A520EE56E75EC70
:100BE0000DF0E12A500EE56E75EC0DF0E12A530E82
:100BF000E56E75EC0DF0E12A000EE56E0A0EE56E6D
:100C000010EC0DF0020EE126002E5FEF05F0F29ED3
:100C10008292010EE56E9CEC0DF0E12A800EE56EED
:100C20009CEC0DF0E12A000EE56E100EE56EBC0E98
:100C3000E56E64EC0BF0030EE126C00EE56E9CEC55
:100C40000DF0E12A000EE56E100EE56EC60EE56EA3
:100C500064EC0BF0030EE126000EE56E100EE56E5F
:100C6000D60EE56EF8EC0BF0030EE12636EF06F03B
:100C70001200D9CFE5FFE1CFD9FF00C0E5FF01C0E9
:100C8000E5FF02C0E5FF03C0E5FF04C0E5FF05C0C6
:100C9000E5FF06C0E5FF07C0E5FF08C0E5FF09C0A6
:100CA000E5FF020EDBCF00F0030EDBCF01F0040EF8
:100CB000DBCF02F0050EDBCF03F0060EDBCF04F036
:100CC000270EE56E100EE56E0150E56E0050E56EE4
:100CD0006FEC0AF0056EF3CF06F0040EE126300E3D
:100CE000052605C0E5FF02C0E9FF03C0F3FF04507D
:100CF0006FEC0EF00250010F056E000E0320066E21
:100D0000000E0420076E270EE56E100EE56E0150F2
:100D1000E56E0050E56E67EC09F0086EF3CF09F060
:100D2000040EE126030EE56EE80EE56E0950E56E51
:100D30000850E56E6FEC0AF0086EF3CF09F0040E70
:100D4000E126300E082608C0E5FF05C0E9FF06C011
:100D5000F3FF07506FEC0EF00250020F056E000E0D
:100D60000320066E000E0420076E030EE56EE80EEB
:100D7000E56E0150E56E0050E56E67EC09F0086E17
:100D8000F3CF09F0040EE126000EE56E640EE56E69
:100D90000950E56E0850E56E6FEC0AF0086EF3CF6F
:100DA00009F0040EE126300E082608C0E5FF05C054
:100DB000E9FF06C0F3FF07506FEC0EF00250030F7F
:100DC000056E000E0320066E000E0420076E000E56
:100DD000E56E640EE56E0150E56E0050E56E67EC61
:100DE00009F0086EF3CF09F0040EE126000EE56E5F
:100DF0000A0EE56E0950E56E0850E56E6FEC0AF0DC
:100E0000086EF3CF09F0040EE126300E082608C064
:100E1000E5FF05C0E9FF06C0F3FF07506FEC0EF0D9
:100E20000250040F056E000E0320066E000E042013
:100E3000076E000EE56E0A0EE56E0150E56E00507D
:100E4000E56E67EC09F0006EF3CF01F0040EE126C9
:100E5000300E002600C0E5FF05C0E9FF06C0F3FF25
:100E600007506FEC0EF0050E0226000E0322000E56
:100E70000422000EE56E02C0E9FF03C0F3FF045038
:100E80006FEC0EF0E4CF09F0E4CF08F0E4CF07F008
:100E9000E4CF06F0E4CF05F0E4CF04F0E4CF03F0B4
:100EA000E4CF02F0E4CF01F0E4CF00F0E4CFD9FFCB
:100EB0001200E8CFE5FFD8CFE5FFE0CFE5FFF3CFA5
:100EC000E5FFF4CFE5FFE9CFE5FFEACFE5FFFACF95
:100ED000E5FFFBCFE5FFD9CFE5FFE1CFD9FF00C0AC
:100EE000E5FF01C0E5FF02C0E5FF03C0E5FF00012B
:100EF0008E0700018E51D8A4A2EF07F0CD90CFCF7E
:100F000000F0016A0050036E026ACECF00F0016A61
:100F10000050021201500312000EE56E070EE56E3E
:100F20000350E56E0250E56E6FEC0AF00001866F2B
:100F3000F3CF87F0040EE1267D0E00018E6FCF6A9D
:100F4000CE6ACD80F294D76A060ED66EE4CF03F057
:100F5000E4CF02F0E4CF01F0E4CF00F0E4CFD9FF1A
:100F6000E4CFFBFFE4CFFAFFE4CFEAFFE4CFE9FFF1
:100F7000E4CFF4FFE4CFF3FFE4CFE0FFE4CFD8FF0A
:100F8000E4CFE8FF10002020205465737465204CE6
:100F900043440000202020202020204F6B002020F0
:100FA00020546573746520372053656700005465CD
:100FB000737465204C45447300002020546573749D
:100FC000652043686176657300005465737465201D
:100FD000454550524F4D20494E5400002028733D46
:100FE0005331206E3D533229203F00002020202025
:100FF0002020204F4B002020202020204552524FFF
:101000000000546573746520454550524F4D20458E
:101010005854000054657374652053657269616C9F
:10102000205458003936303020384E3100000D0A37
:101030002050696373696D6C61620D0A2054657399
:1010400074652053657269616C2054580D0A000064
:101050002050696373696D4C61620D0A000054652C
:101060007374652053657269616C20525800204486
:101070006967697465210D0A00000D0A000020549B
:101080006573746520414443202850322900202094
:101090002054657374652054454D50002020205421
:1010A000657374652041515545430000202020544C
:1010B000657374652052455346520000202020205D
:1010C000202046696D00205072657373696F6E65EC
:1010D0002052535400000D0A2046494D210D0A00AC
:1010E000D9CFE5FFE1CFD9FF00C0E5FF020EDBCF8E
:1010F00000F0100E005CD8B0E9EF08F001C0E5FF89
:1011000002C0E5FF026A00340236E8340236FC0B06
:10111000016E000EFB6E110EFA6E320E01260250A9
:10112000FA22D8B0FB2A0150E4CF02F0E4CF01F05C
:10113000F96EB9EF08F0BCEF08F0BFEF08F0C2EFAE
:1011400008F0C5EF08F0C8EF08F0CBEF08F0CEEFDD
:1011500008F0D1EF08F0D4EF08F0D7EF08F0DAEF9D
:1011600008F0DDEF08F0E0EF08F0E3EF08F0E6EF5D
:1011700008F03F0EEAEF08F0060EEAEF08F05B0E0B
:10118000EAEF08F04F0EEAEF08F0660EEAEF08F01B
:101190006D0EEAEF08F07D0EEAEF08F0070EEAEFB9
:1011A00008F07F0EEAEF08F06F0EEAEF08F0770E16
:1011B000EAEF08F07C0EEAEF08F0580EEAEF08F0CC
:1011C0005E0EEAEF08F0790EEAEF08F0710EEAEF32
:1011D00008F0E86AE4CF00F0E4CFD9FF1200D9CFDD
:1011E000E5FFE1CFD9FF00C0E5FF01C0E5FF02C088
:1011F000E5FF03C0E5FF04C0E5FF05C0E5FF06C04D
:10120000E5FF07C0E5FF08C0E5FF020EDBCF00F0F9
:10121000030EDBCF01F0040EDBCF02F0036A046A99
:10122000010E0114056E0550046E056A0050056E2E
:10123000066A066A12EC0EF00450D8B427EF09F0E3
:10124000A20EE56E42EC0CF0E12A2CEF09F0A00EA4
:10125000E56E42EC0CF0E12A0550E56E42EC0CF034
:10126000E12A0250076E0750E56E42EC0CF0E12ACD
:1012700004EC0EF0062A0150E56E0050E56EC3EC5A
:1012800009F0076E020EE126086A0250071805E110
:101290000350081802E152EF09F00A0E065CD8A0CC
:1012A0001AEF09F0E4CF08F0E4CF07F0E4CF06F03E
:1012B000E4CF05F0E4CF04F0E4CF03F0E4CF02F094
:1012C000E4CF01F0E4CF00F0E4CFD9FF1200D9CF92
:1012D000E5FFE1CFD9FF00C0E5FF01C0E5FF02C097
:1012E000E5FF03C0E5FF04C0E5FF05C0E5FF06C05C
:1012F000E5FF020EDBCF00F0030EDBCF01F0040EA2
:10130000DBCF02F0050EDBCF03F0046A056A03446D
:10131000010B066E06B011D00250022603360350B0
:10132000015C02E10250005C04E2D8900332023218
:1013300004D0052A05C004F0EAD70350015C02E19D
:101340000250005C04E30250005E0350015AD89042
:101350000332023204C005F004060550EEE101C07C
:10136000F3FF0050E4CF06F0E4CF05F0E4CF04F043
:10137000E4CF03F0E4CF02F0E4CF01F0E4CF00F0DB
:10138000E4CFD9FF1200D9CFE5FFE1CFD9FF00C0EC
:10139000E5FF01C0E5FF02C0E5FF03C0E5FF020E67
:1013A000DBCF00F0030EDBCF01F0026A010E011467
:1013B000036E0350026E036A016A12EC0EF00250D3
:1013C000D8B4EAEF09F0A20EE56E42EC0CF0E12A87
:1013D000EFEF09F0A00EE56E42EC0CF0E12A0050B0
:1013E000E56E42EC0CF0E12A12EC0EF00250D8B49B
:1013F00001EF0AF0A30EE56E42EC0CF0E12A06EFD5
:101400000AF0A10EE56E42EC0CF0E12A010EE56E49
:101410001AEC0AF0006EE12A04EC0EF00050E4CF62
:1014200003F0E4CF02F0E4CF01F0E4CF00F0E4CF2A
:10143000D9FF1200D9CFE5FFE1CFD9FF00C0E5FF0A
:1014400001C0E5FF02C0E5FF03C0E5FF04C0E5FF02
:10145000020EDBCF00F0016A829694888288070E24
:10146000026ED88002AED890D8B052EF0AF08286D1
:1014700050EC0EF0036A82B8032A03C004F0025055
:101480000BE006E6E86CD8900436010FFDE304D0CB
:10149000D8900432010FFDE3045001128296020637
:1014A00031EF0AF094980050D8B45AEF0AF08298BD
:1014B0005BEF0AF0828850EC0EF0828650EC0EF062
:1014C00082960150E4CF04F0E4CF03F0E4CF02F0C1
:1014D000E4CF01F0E4CF00F0E4CFD9FF1200D9CF80
:1014E000E5FFE1CFD9FF00C0E5FF01C0E5FF02C085
:1014F000E5FF03C0E5FF04C0E5FF05C0E5FF06C04A
:10150000E5FF07C0E5FF020EDBCF00F0030EDBCFE7
:1015100001F0040EDBCF02F0050EDBCF03F0046A0E
:10152000056A100E066E0144010B076E010E0716C8
:101530000050002601360450042605360750D8A472
:1015400004800350055C02E10250045C05E3025094
:10155000045E0350055A0080062EE5D701C0F3FF54
:101560000050E4CF07F0E4CF06F0E4CF05F0E4CF7D
:1015700004F0E4CF03F0E4CF02F0E4CF01F0E4CFD5
:1015800000F0E4CFD9FF1200F20EF66E1C0EF76EDB
:10159000000EF86E0900F550056E0900F550066E54
:1015A00004E1056702D013EF0BF00900F550006E5F
:1015B0000900F550016E0900F550026E090009009E
:1015C000F550E96E0900F550EA6E090009000900BE
:1015D000F550036E0900F550046E09000900F6CFBE
:1015E00007F0F7CF08F0F8CF09F000C0F6FF01C010
:1015F000F7FF02C0F8FF035002E1045009E00900C0
:10160000F550EE6EF5CF7EFF0306F6E20406F7D73F
:1016100007C0F6FF08C0F7FF09C0F8FF050601E2A2
:101620000606D0EF0AF01200D9CFE5FFE1CFD9FFCF
:1016300000C0E5FF01C0E5FF02C0E5FF03C0E5FF14
:10164000020EDBCF00F0030EDBCF01F0040EDBCF88
:1016500002F0050EDBCF03F000500001886F01504F
:10166000896F025000018A6F03508B6F000188510F
:1016700000018A03F3CF00F0F4CF01F00050000125
:101680008C6F01508D6F0001885100018B03F3CFE7
:1016900000F00001895100018A03F3CF01F00150ED
:1016A000002600018D51002600508D6F8DC0F3FF84
:1016B0008C51E4CF03F0E4CF02F0E4CF01F0E4CFAB
:1016C00000F0E4CFD9FF1200D9CFE5FFE1CFD9FF79
:1016D00000C0E5FF01C0E5FF02C0E5FF03C0E5FF74
:1016E00004C0E5FF05C0E5FF06C0E5FF020EDBCF45
:1016F00000F0030EDBCF01F0040EDBCF02F0036A33
:1017000003500024046EE86A0120056EE86A022096
:10171000066E04C0E9FF05C0F3FF0650E3EC0DF0D0
:10172000046E0450D8B49DEF0BF00450E56E75ECD8
:101730000DF0E12A032A80EF0BF0E4CF06F0E4CFAE
:1017400005F0E4CF04F0E4CF03F0E4CF02F0E4CFFF
:1017500001F0E4CF00F0E4CFD9FF1200D9CFE5FFCC
:10176000E1CFD9FF84928490000EE56E140EE56EF1
:1017700010EC0DF0020EE1268482380EE56E9CEC32
:101780000DF0E12A000EE56E050EE56E10EC0DF091
:10179000020EE126380EE56E9CEC0DF0E12A000EFB
:1017A000E56E010EE56E10EC0DF0020EE126380E2E
:1017B000E56E9CEC0DF0E12A080EE56E9CEC0DF058
:1017C000E12A0F0EE56E9CEC0DF0E12A010EE56EAC
:1017D0009CEC0DF0E12A380EE56E9CEC0DF0E12A50
:1017E000800EE56E9CEC0DF0E12AE4CFD9FF1200EB
:1017F000D9CFE5FFE1CFD9FF00C0E5FF01C0E5FF8C
:1018000002C0E5FF03C0E5FF04C0E5FF05C0E5FF3A
:1018100006C0E5FF020EDBCF00F0030EDBCF01F0C8
:10182000040EDBCF02F0036A03500024046EE86A62
:101830000120056EE86A0220066E04C0E9FF05C0BB
:10184000F3FF0650E3EC0DF0046E0450D8B431EF12
:101850000CF00450E56E20EC0EF0E12A032A14EFA0
:101860000CF0E4CF06F0E4CF05F0E4CF04F0E4CFD1
:1018700003F0E4CF02F0E4CF01F0E4CF00F0E4CFD6
:10188000D9FF1200D9CFE5FFE1CFD9FF00C0E5FFB6
:1018900001C0E5FF02C0E5FF020EDBCF00F082963B
:1018A000070E016ED88001AED890D8B078EF0CF05A
:1018B00000C002F001500BE006E6E86CD89002325E
:1018C000010FFDE304D0D8900236010FFDE3010EB5
:1018D00002160250010BE838F46E8250EF0BF41040
:1018E000826E828650EC0EF08296010652EF0CF06A
:1018F000828850EC0EF0828650EC0EF08296E4CF97
:1019000002F0E4CF01F0E4CF00F0E4CFD9FF120001
:10191000D9CFE5FFE1CFD9FF00C0E5FF01C0E5FF6A
:1019200002C0E5FF03C0E5FF020EDBCF00F0C70EEB
:10193000C216070E00160038E840F80B016E015081
:10194000C212C284006AC2B4002A0050010A02E135
:10195000A2EF0CF0C4CF00F0016A0050026E022624
:101960000134036ED89002360336C344E844030BB7
:10197000006E016A005002120150031203C0F3FF0F
:101980000250E4CF03F0E4CF02F0E4CF01F0E4CF63
:1019900000F0E4CFD9FF1200D9CFE5FFE1CFD9FFA6
:1019A00000C0E5FF01C0E5FF02C0E5FF03C0E5FFA1
:1019B000020EDBCF00F0030EDBCF01F0026A036AF8
:1019C0000150035C02E10050025CD8A0EDEF0CF086
:1019D00000500110D8A4FEEF0CF09EBAFEEF0CF000
:1019E000000EE56E140EE56E10EC0DF0020EE12611
:1019F000140E0226D8B0032AE0EF0CF09EAA04EFE2
:101A00000DF0AE5005EF0DF0E868E4CF03F0E4CF41
:101A100002F0E4CF01F0E4CF00F0E4CFD9FF1200F0
:101A2000D9CFE5FFE1CFD9FF00C0E5FF01C0E5FF59
:101A300002C0E5FF03C0E5FF04C0E5FF020EDBCFF7
:101A400000F0030EDBCF01F0026A036A0150035C71
:101A500002E10050025CD8B03DEF0DF0C80E046EFC
:101A600000000000000000000000042E30EF0DF028
:101A7000022AD8B0032A26EF0DF0E4CF04F0E4CF19
:101A800003F0E4CF02F0E4CF01F0E4CF00F0E4CFC4
:101A9000D9FF1200E8CFE5FFD8CFE5FFE0CFE5FFA3
:101AA000F3CFE5FFF4CFE5FFE9CFE5FFEACFE5FFB0
:101AB000FACFE5FFFBCFE5FFD9CFE5FFE1CFD9FFB7
:101AC000E4CFD9FFE4CFFBFFE4CFFAFFE4CFEAFF96
:101AD000E4CFE9FFE4CFF4FFE4CFF3FFE4CFE0FF8E
:101AE000E4CFD8FFE4CFE8FF1000D9CFE5FFE1CF86
:101AF000D9FF00C0E5FF020EDBCF00F0848200506A
:101B0000E56E65EC0EF0E12A8480000EE56E030EB2
:101B1000E56E10EC0DF0020EE1268492000EE56EEB
:101B2000030EE56E10EC0DF0020EE1268482E4CF88
:101B300000F0E4CFD9FF1200D9CFE5FFE1CFD9FF04
:101B400000C0E5FF020EDBCF00F084820050E56E9E
:101B500065EC0EF0E12A8490000EE56E030EE56E52
:101B600010EC0DF0020EE1268492000EE56E030EDD
:101B7000E56E10EC0DF0020EE1268482E4CF00F059
:101B8000E4CFD9FF1200D9CFE5FFE1CFD9FF00C0E4
:101B9000E5FF020EDBCFA9FF030EDBCFA8FFA68473
:101BA000550EA76EAA0EA76EA682006AA6B2002ADC
:101BB0000050010A02E1D5EF0DF0A694E4CF00F049
:101BC000E4CFD9FF1200E8AE04D0F3CFEAFFEE5025
:101BD0001200E8BC08D0E9CFF6FFF3CFF7FFF86EAC
:101BE0000900F55012001200D9CFE5FFE1CFD9FF6F
:101BF000AC9CAC8AAC98AC84AB8EAB9CAB88190E19
:101C0000AF6EE4CFD9FF1200D9CFE5FFE1CFD9FF06
:101C10008286829850EC0EF0828850EC0EF0E4CF71
:101C2000D9FF1200D9CFE5FFE1CFD9FF82868288A4
:101C300050EC0EF0829850EC0EF0E4CFD9FF120079
:101C4000D9CFE5FFE1CFD9FF020EDBCFADFFACA2CC
:101C500027EF0EF0E4CFD9FF1200D9CFE5FFE1CF97
:101C6000D9FF020EDBCFA9FFA680A850E4CFD9FF91
:101C7000120012EEFFF022EEFFF0F86AA68EA69C8C
:101C8000C4EC0AF015EC00F0FFD7D9CFE5FFE1CFA7
:101C9000D9FF040EC16E490EC26EE4CFD9FF120007
:101CA000D9CFE5FFE1CFD9FF000000000000000020
:101CB000E4CFD9FF1200D9CFE5FFE1CFD9FF949847
:101CC00082868288E4CFD9FF1200D9CFE5FFE1CF29
:101CD000D9FF020EDBCF83FFE4CFD9FF1200E8AEBD
:101CE00005D0F3CFEAFFE4CFEEFF1200E8AC12001C
:101CF00012000100001D00008F0000000100000024
:021D00000000E1
:020000040030CA
:0E000000FFFAFDFEFFFFFAFFFFFFFFFFFFFF0D
:00000001FF
