:020000040000FA
:06000000C0EF11F0120038
:020006001200E6
:0600080001EF0AF01200F6
:02000E000102ED
:020010000400EA
:060018005CEF0AF012008B
:02001E000100DF
:0C0020000E000000CE00000004000000F4
:04002C00D9CFE6FF43
:10003000E1CFD9FFE652DF6ADF50DF2A106E116A86
:1000400010BE1168FD0EDB501024F66EFE0EDB5064
:100050001120F76E0800F550E66EDFCFE9FFEA6A7F
:10006000E9BEEA68830EE926000EEA22E552E7506F
:10007000EF6E01E0E1D7840E106E000E116E10C01D
:10008000F3FF11C0F4FF00D0E552E552E7CFD9FFEE
:100090001200D9CFE6FFE1CFD9FF0A0EE126060E06
:1000A000C16EC30E926E010E936E946E956A966A3F
:1000B000F19EDDEC0EF04AEC0FF0C9EC0FF0F9EC1C
:1000C00010F0030E936E010EE66E9FEC0EF0E552FB
:1000D000800EE66E9FEC0EF0E5527C0EE66E180E7A
:1000E000E66EA4DFE552E552F3CF10F0F4CF11F045
:1000F00010C0E6FF11C0E6FF16EC0FF0E552E55226
:10010000C00EE66E9FEC0EF0E552710EE66E180E14
:10011000E66E8CDFE552E552F3CF10F0F4CF11F02C
:1001200010C0E6FF11C0E6FF16EC0FF0E552E552F5
:1001300081B2FED7010EE66E9FEC0EF0E552800E06
:10014000E66E9FEC0EF0E552640EE66E180EE66E5B
:100150006DDFE552E552F3CF10F0F4CF11F010C08F
:10016000E6FF11C0E6FF16EC0FF0E552E552400E37
:10017000E66E9FEC0EF0E552110EE66EBEEC0EF050
:10018000E552190EE66EBEEC0EF0E552150EE66E67
:10019000BEEC0EF0E552130EE66EBEEC0EF0E5522C
:1001A000130EE66EBEEC0EF0E552150EE66EBEECDA
:1001B0000EF0E552190EE66EBEEC0EF0E552110E91
:1001C000E66EBEEC0EF0E5520E0EE66EBEEC0EF0E4
:1001D000E552110EE66EBEEC0EF0E5520E0EE66E26
:1001E000BEEC0EF0E552050EE66EBEEC0EF0E552EA
:1001F0000E0EE66EBEEC0EF0E552140EE66EBEEC90
:100200000EF0E5520A0EE66EBEEC0EF0E552110E4F
:10021000E66EBEEC0EF0E552C00EE66E9FEC0EF000
:10022000E552DF6A100EDF5C0FE2DF50010BE66E75
:10023000BEEC0EF0E552640EE66EE66A38EC11F0A4
:10024000E552E552DF2AEED7010EE66E9FEC0EF086
:10025000E552800EE66E9FEC0EF0E552640EE66EFF
:10026000180EE66EE3DEE552E552F3CF10F0F4CF60
:1002700011F010C0E6FF11C0E6FF16EC0FF0E552DA
:10028000E552200EDF6EDF50106E116AD8901150CB
:1002900004E6800E105C000E115816E2DF500F0BC2
:1002A00005E1C00EE66E9FEC0EF0E552DFCFE6FFF3
:1002B000BEEC0EF0E552320EE66EE66A38EC11F056
:1002C000E552E552DF2ADFD7640EE66EE66A38ECC7
:1002D00011F0E552E552010EE66E9FEC0EF0E5528C
:1002E000800EE66E9FEC0EF0E552640EE66E180E80
:1002F000E66E9CDEE552E552F3CF10F0F4CF11F03C
:1003000010C0E6FF11C0E6FF16EC0FF0E552E55213
:10031000C00EE66E9FEC0EF0E5525A0EE66E180E19
:10032000E66E84DEE552E552F3CF10F0F4CF11F023
:1003300010C0E6FF11C0E6FF16EC0FF0E552E552E3
:10034000F40EE66E010EE66E38EC11F0E552E55261
:10035000010EE66E9FEC0EF0E552800EE66E9FEC0D
:100360000EF0E5524B0EE66E180EE66E5FDEE552BD
:10037000E552F3CF10F0F4CF11F010C0E6FF11C03A
:10038000E6FF16EC0FF0E552E552060EC16EDF6A8D
:10039000040EDF5C33E2DF50030A10E0010A0BE0D9
:1003A000030A06E0010A01E00CD0200E806E09D09D
:1003B000100E806E06D0080E806E03D0040E806E84
:1003C00000D0010EDB6A100EF36E010EDBCFF4FFDE
:1003D000F350F45C11E2010EDBCFE6FF4DEC10F0C0
:1003E000E552836EC80EE66EE66A38EC11F0E5520F
:1003F000E552010EDB2AE7D7DF2ACAD7020EC16E0B
:10040000836A030E936E010EE66E9FEC0EF0E552CA
:10041000800EE66E9FEC0EF0E5523A0EE66E180E78
:10042000E66E04DEE552E552F3CF10F0F4CF11F0A2
:1004300010C0E6FF11C0E6FF16EC0FF0E552E552E2
:10044000C00EE66E9FEC0EF0E552710EE66E180ED1
:10045000E66EECDDE552E552F3CF10F0F4CF11F08B
:1004600010C0E6FF11C0E6FF16EC0FF0E552E552B2
:1004700081B2FED7936A010EE66E9FEC0EF0E55254
:10048000830EE66E9FEC0EF0E5522F0EE66E180E10
:10049000E66ECCDDE552E552F3CF10F0F4CF11F06B
:1004A00010C0E6FF11C0E6FF16EC0FF0E552E55272
:1004B000010EDB6A030EF36E010EDBCFF4FFF35087
:1004C000F45C17E2010EDF6EDF5000080FE2DF5030
:1004D000816EDF50836EC80EE66EE66A38EC11F06E
:1004E000E552E552DF50E824DF6EEED7010EDB2A3D
:1004F000E1D7816A836ADF6A040EDF5C0BE2811E4A
:10050000831EC80EE66EE66A38EC11F0E552E5523D
:10051000DF2AF2D7010EE66E9FEC0EF0E552800E58
:10052000E66E9FEC0EF0E552200EE66E180EE66EBB
:100530007DDDE552E552F3CF10F0F4CF11F010C09D
:10054000E6FF11C0E6FF16EC0FF0E552E552010E92
:10055000DB6A060EC16E928A010EDB507F0B7F08AC
:100560002AE03F0E936E81B002D0010EDB8081B293
:1005700002D0010EDB8281B402D0010EDB8481B691
:1005800002D0010EDB8681B802D0010EDB8881BA71
:1005900002D0010EDB8A80BA02D0010EDB8C936A96
:1005A000010EDB50816E0A0EE66EE66A38EC11F041
:1005B000E552E552D1D7F40EE66E010EE66E38EC48
:1005C00011F0E552E552816A020EC16E948E949C40
:1005D000010EE66E9FEC0EF0E552800EE66E9FEC8B
:1005E0000EF0E552100EE66E180EE66E1FDDE552B7
:1005F000E552F3CF10F0F4CF11F010C0E6FF11C0B8
:10060000E6FF16EC0FF0E552E552C40EE66E9FECE5
:100610000EF0E552070EE66E180EE66E07DDE552A7
:10062000E552F3CF10F0F4CF11F010C0E6FF11C087
:10063000E6FF16EC0FF0E552E552E60EE66E170EF9
:10064000E66EF4DCE552E552F3CF10F0F4CF11F092
:1006500010C0E6FF11C0E6FFE0EC0FF0E552E552F6
:10066000DF6A040EDF5C1BE2300EDF24E66ED3ECA3
:100670000FF0E552D90EE66E170EE66ED7DCE552A6
:10068000E552F3CF10F0F4CF11F010C0E6FF11C027
:10069000E6FFE0EC0FF0E552E552DF2AE2D7E80E84
:1006A000E66E030EE66E38EC11F0E552E552010EEF
:1006B000E66E9FEC0EF0E552800EE66E9FEC0EF0BB
:1006C000E552C90EE66E170EE66EB0DCE552E55255
:1006D000F3CF10F0F4CF11F010C0E6FF11C0E6FF29
:1006E00016EC0FF0E552E552BE0EE66E170EE66E02
:1006F0009DDCE552E552F3CF10F0F4CF11F010C0BD
:10070000E6FF11C0E6FFE0EC0FF0E552E552DF6ACC
:10071000200EDF5C34E2DF500F0B18E1C00EE66EF6
:100720009FEC0EF0E552BB0EE66E170EE66E7EDC19
:10073000E552E552F3CF10F0F4CF11F010C0E6FF10
:1007400011C0E6FFE0EC0FF0E552E552D00EE66E88
:10075000070EE66E0BEC10F0E552E552E76E010E67
:10076000E7CFDBFFDBCFE6FFBEEC0EF0E552010E7C
:10077000DBCFE6FFD3EC0FF0E552DF2AC9D7640EDA
:10078000E66EE66A38EC11F0E552E552010EE66ECF
:100790009FEC0EF0E552800EE66E9FEC0EF0E552F7
:1007A000AB0EE66E170EE66E41DCE552E552F3CF76
:1007B00010F0F4CF11F010C0E6FF11C0E6FF16EC08
:1007C0000FF0E552E552DF6ADF50106E116AD890E3
:1007D000115004E6C80E105C000E115855E2E66A8E
:1007E000FEEC10F0E552F3CF10F0F4CF11F00A0E4A
:1007F0001102F3CF11F01002F3CF10F0F4501126D4
:10080000CC0E0B6E0C6A10C006F011C007F09AEC0B
:1008100011F006C010F007C011F0010E10C0DBFF90
:10082000C60EE66E9FEC0EF0E552D950040FE66E50
:10083000000EDA20E66E010EDBCFE6FFE66A66EC1C
:100840000AF0E552E552E552E552070EDBCFE6FF2E
:10085000BEEC0EF0E5522C0EE66EBEEC0EF0E5524C
:10086000080EDBCFE6FFBEEC0EF0E552560EE66E4C
:10087000BEEC0EF0E5520A0EE66EE66A38EC11F0B8
:10088000E552E552DF2AA0D7010EE66E9FEC0EF08E
:10089000E552800EE66E9FEC0EF0E5529B0EE66E82
:1008A000170EE66E16EC00F0E552E552F3CF10F0AD
:1008B000F4CF11F010C0E6FF11C0E6FF16EC0FF008
:1008C000E552E552DF6ADF50106E116AD890115080
:1008D00004E6C80E105C000E115856E2010EE66EDA
:1008E000FEEC10F0E552F3CF10F0F4CF11F00A0E49
:1008F0001102F3CF11F01002F3CF10F0F4501126D3
:10090000CC0E0B6E0C6A10C006F011C007F09AEC0A
:1009100011F006C010F007C011F0010E10C0DBFF8F
:10092000C60EE66E9FEC0EF0E552D950040FE66E4F
:10093000000EDA20E66E010EDBCFE6FFE66A66EC1B
:100940000AF0E552E552E552E552070EDBCFE6FF2D
:10095000BEEC0EF0E5522C0EE66EBEEC0EF0E5524B
:10096000080EDBCFE6FFBEEC0EF0E552560EE66E4B
:10097000BEEC0EF0E5520A0EE66EE66A38EC11F0B7
:10098000E552E552DF2A9FD794909690010EE66ECD
:100990009FEC0EF0E552800EE66E9FEC0EF0E552F5
:1009A0008E0EE66E170EE66E16EC00F0E552E5527E
:1009B000F3CF10F0F4CF11F010C0E6FF11C0E6FF46
:1009C00016EC0FF0E552E552DF6A050EDF5C0BE234
:1009D0008270F40EE66E010EE66E38EC11F0E55210
:1009E000E552DF2AF2D78290010EE66E9FEC0EF000
:1009F000E552800EE66E9FEC0EF0E552810EE66E3B
:100A0000170EE66E16EC00F0E552E552F3CF10F04B
:100A1000F4CF11F010C0E6FF11C0E6FF16EC0FF0A6
:100A2000E552E552DF6A050EDF5C0BE28470F40EDE
:100A3000E66E010EE66E38EC11F0E552E552DF2A63
:100A4000F2D78490030E936E010EE66E9FEC0EF0CB
:100A5000E552800EE66E9FEC0EF0E552720EE66EE9
:100A6000170EE66E16EC00F0E552E552F3CF10F0EB
:100A7000F4CF11F010C0E6FF11C0E6FF16EC0FF046
:100A8000E552E552C00EE66E9FEC0EF0E552710E97
:100A9000E66E180EE66E16EC00F0E552E552F3CF66
:100AA00010F0F4CF11F010C0E6FF11C0E6FF16EC15
:100AB0000FF0E552E55281B2FED7010EE66E9FECD3
:100AC0000EF0E552800EE66E9FEC0EF0E552640EDD
:100AD000E66E170EE66E16EC00F0E552E552F3CF27
:100AE00010F0F4CF11F010C0E6FF11C0E6FF16ECD5
:100AF0000FF0E552E552070E926EF9EC10F0DF6A46
:100B0000640EDF5C5CE2020EE66EFEEC10F0E55275
:100B1000F3CF10F0F4CF11F00A0E1102F3CF11F061
:100B20001002F3CF10F0F4501126010E0F0B05E068
:100B3000D89011321032E806FBE1020E10C0DBFF44
:100B4000030E11C0DBFFC50EE66E9FEC0EF0E55202
:100B5000D950040FE66E000EDA20E66E020EDBCFEF
:100B6000E6FF030EDBCFE6FF66EC0AF0E552E55246
:100B7000E552E552060EDBCFE6FFBEEC0EF0E55285
:100B8000070EDBCFE6FFBEEC0EF0E5522C0EE66E54
:100B9000BEEC0EF0E552080EDBCFE6FFBEEC0EF029
:100BA000E552430EE66EBEEC0EF0E552140EE66E14
:100BB000E66A38EC11F0E552E552DF2AA1D7010EC2
:100BC000E66E9FEC0EF0E552800EE66E9FEC0EF0A6
:100BD000E552550EE66E170EE66E16EC00F0E55285
:100BE000E552F3CF10F0F4CF11F010C0E6FF11C0C2
:100BF000E6FF16EC0FF0E552E552828ADF6A640EDA
:100C0000DF5C5CE2020EE66EFEEC10F0E552F3CF24
:100C100010F0F4CF11F00A0E1102F3CF11F0100210
:100C2000F3CF10F0F4501126010E0F0B05E0D89011
:100C300011321032E806FBE1020E10C0DBFF030E9A
:100C400011C0DBFFC50EE66E9FEC0EF0E552D950E9
:100C5000040FE66E000EDA20E66E020EDBCFE6FF32
:100C6000030EDBCFE6FF66EC0AF0E552E552E552F3
:100C7000E552060EDBCFE6FFBEEC0EF0E552070EA6
:100C8000DBCFE6FFBEEC0EF0E5522C0EE66EBEECBE
:100C90000EF0E552080EDBCFE6FFBEEC0EF0E5529B
:100CA000430EE66EBEEC0EF0E552320EE66EE66ADC
:100CB00038EC11F0E552E552DF2AA1D7829A9480F0
:100CC000010EE66E9FEC0EF0E552800EE66E9FEC94
:100CD0000EF0E552460EE66E170EE66E16EC00F0CC
:100CE000E552E552F3CF10F0F4CF11F010C0E6FF5B
:100CF00011C0E6FF16EC0FF0E552E552D59AD596F5
:100D0000D58CD590D592D584D58EF28ACD82CD9AC8
:100D1000CD98F294D76A060ED66E00017D0E806FD4
:100D2000F28ECF6ACE6ACD808284DF6ADF50106E89
:100D3000116AD890115004E6960E105C000E1158FE
:100D400001E398D0020EE66EFEEC10F0E552F3CF10
:100D500010F0F4CF11F00A0E1102F3CF11F01002CF
:100D6000F3CF10F0F4501126010E0F0B05E0D890D0
:100D700011321032E806FBE1020E10C0DBFF030E59
:100D800011C0DBFFC20EE66E9FEC0EF0E552D950AB
:100D9000040FE66E000EDA20E66E020EDBCFE6FFF1
:100DA000030EDBCFE6FF66EC0AF0E552E552E552B2
:100DB000E552060EDBCFE6FFBEEC0EF0E552070E65
:100DC000DBCFE6FFBEEC0EF0E5522C0EE66EBEEC7D
:100DD0000EF0E552080EDBCFE6FFBEEC0EF0E5525A
:100DE000430EE66EBEEC0EF0E552C80EE66E9FECCA
:100DF0000EF0E552D950040FE66E000EDA20E66ED2
:100E000081C0E6FF82C0E6FF66EC0AF0E552E552DB
:100E1000E552E552050EDBCFE6FFBEEC0EF0E552E3
:100E2000060EDBCFE6FFBEEC0EF0E552070EDBCF81
:100E3000E6FFBEEC0EF0E552080EDBCFE6FFBEEC9F
:100E40000EF0E552520EE66EBEEC0EF0E552500E7C
:100E5000E66EBEEC0EF0E552530EE66EBEEC0EF002
:100E6000E5520A0EE66EE66A38EC11F0E552E552FC
:100E7000DF2A5CD7F29E8294060EC16E010EE66EEA
:100E80009FEC0EF0E552800EE66E9FEC0EF0E55200
:100E90003C0EE66E170EE66E16EC00F0E552E552DB
:100EA000F3CF10F0F4CF11F010C0E6FF11C0E6FF51
:100EB00016EC0FF0E552E552F3EC0DF0C00EE66EC5
:100EC0009FEC0EF0E552B00EE66E000EE66E16ECEC
:100ED0000FF0E552E552D00EE66E070EE66E38ECE6
:100EE00011F0E552E552DF6A140EDF5C19E2F3EC13
:100EF0000DF0C00EE66E9FEC0EF0E552BA0EE66EF7
:100F0000000EE66E16EC0FF0E552E552F40EE66EBA
:100F1000010EE66E38EC11F0E552E552DF2AE4D717
:100F2000030E936E010EE66E9FEC0EF0E552800EFE
:100F3000E66E9FEC0EF0E5522B0EE66E170EE66E97
:100F400016EC00F0E552E552F3CF10F0F4CF11F0BB
:100F500010C0E6FF11C0E6FF16EC0FF0E552E552B7
:100F6000C00EE66E9FEC0EF0E552710EE66E180EA6
:100F7000E66E16EC00F0E552E552F3CF10F0F4CF38
:100F800011F010C0E6FF11C0E6FF16EC0FF0E552BD
:100F9000E55281B2FED7F80E936E010EE66E9FEC1D
:100FA0000EF0E552820EE66E9FEC0EF0E5521D0E3D
:100FB000E66E170EE66E16EC00F0E552E552F3CF42
:100FC00010F0F4CF11F010C0E6FF11C0E6FF16ECF0
:100FD0000FF0E552E552C10EE66E9FEC0EF0E552C1
:100FE000DF6A0E0EDF5C17E20F0E956EDC0EE66E0A
:100FF000050EE66E12EC0DF0E552E552300FE76E8D
:10100000010EE7CFDBFF956ADBCFE6FFBEEC0EF00B
:10101000E552DF2AE6D7030E936E010EE66E9FECD3
:101020000EF0E552800EE66E9FEC0EF0E5520C0ECF
:10103000E66E170EE66E16EC00F0E552E552F3CFC1
:1010400010F0F4CF11F010C0E6FF11C0E6FF16EC6F
:101050000FF0E552E552C00EE66E9FEC0EF0E55241
:10106000FB0EE66E160EE66E16EC00F0E552E5524B
:10107000F3CF10F0F4CF11F010C0E6FF11C0E6FF7F
:1010800016EC0FF0E552E552030E936E8150010B02
:1010900004E08150020B01E0F9D781B085D00A0E3F
:1010A000E66E74EC11F0E552E76E010EE7CFDBFF60
:1010B000DBCFE6FFBEEC0EF0E552A50EE66E0A0EA3
:1010C000E66E82EC11F0E552E5525A0EE66E0A0E1B
:1010D000E66E82EC11F0E552E5520A0EE66E74EC13
:1010E00011F0E552DF6E010EDBCFE6FF0A0EE66E71
:1010F00082EC11F0E552E552010EE66E9FEC0EF027
:10110000E552800EE66E9FEC0EF0E5520C0EE66E98
:10111000170EE66E16EC00F0E552E552F3CF10F034
:10112000F4CF11F010C0E6FF11C0E6FF16EC0FF08F
:10113000E552E552C00EE66E9FEC0EF0E5525A0EF7
:10114000DF5C15E1F10EE66E160EE66E16EC00F0B1
:10115000E552E552F3CF10F0F4CF11F010C0E6FFE6
:1011600011C0E6FF16EC0FF0E552E55214D0E60E82
:10117000E66E160EE66E16EC00F0E552E552F3CF81
:1011800010F0F4CF11F010C0E6FF11C0E6FF16EC2E
:101190000FF0E552E552E80EE66E030EE66E38EC0F
:1011A00011F0E552E55202D081A2FED7010EE66EA3
:1011B0009FEC0EF0E552800EE66E9FEC0EF0E552CD
:1011C000D50EE66E160EE66E16EC00F0E552E55210
:1011D000F3CF10F0F4CF11F010C0E6FF11C0E6FF1E
:1011E00016EC0FF0E552E552C00EE66E9FEC0EF0E5
:1011F000E552FB0EE66E160EE66E16EC00F0E552BA
:10120000E552F3CF10F0F4CF11F010C0E6FF11C09B
:10121000E6FF16EC0FF0E552E552030E936E815097
:10122000010B04E08150020B01E0F9D781B08FD0AF
:101230000A0EE66EE66A46EC0CF0E552E552E76E01
:10124000010EE7CFDBFFDBCFE6FFBEEC0EF0E55291
:10125000A50EE66E0A0EE66EE66AA5EC0CF0E55207
:10126000E552E5525A0EE66E0A0EE66EE66AA5EC07
:101270000CF0E552E552E5520A0EE66EE66A46ECDF
:101280000CF0E552E552DF6E010EDBCFE6FF0A0EF1
:10129000E66EE66AA5EC0CF0E552E552E552010E69
:1012A000E66E9FEC0EF0E552800EE66E9FEC0EF0BF
:1012B000E552D50EE66E160EE66E16EC00F0E5521F
:1012C000E552F3CF10F0F4CF11F010C0E6FF11C0DB
:1012D000E6FF16EC0FF0E552E552C00EE66E9FEC0D
:1012E0000EF0E5525A0EDF5C15E1F10EE66E160EB9
:1012F000E66E16EC00F0E552E552F3CF10F0F4CFB5
:1013000011F010C0E6FF11C0E6FF16EC0FF0E55239
:10131000E55214D0E60EE66E160EE66E16EC00F000
:10132000E552E552F3CF10F0F4CF11F010C0E6FF14
:1013300011C0E6FF16EC0FF0E552E552E80EE66E3E
:10134000030EE66E38EC11F0E552E55202D081A2B0
:10135000FED7936A816A010EE66E9FEC0EF0E552AD
:10136000800EE66E9FEC0EF0E552CB0EE66E160E8A
:10137000E66E16EC00F0E552E552F3CF10F0F4CF34
:1013800011F010C0E6FF11C0E6FF16EC0FF0E552B9
:10139000E552C00EE66E9FEC0EF0E552BC0EE66E16
:1013A000160EE66E16EC00F0E552E552F3CF10F0A3
:1013B000F4CF11F010C0E6FF11C0E6FF16EC0FF0FD
:1013C000E552E552B20EE66E160EE66E16EC00F031
:1013D000E552E552F3CF10F0F4CF11F010C0E6FF64
:1013E00011C0E6FFE0EC0FF0E552E552FFD70A0E20
:1013F000E15C02E2E16AE552E16EE552E7CFD9FF36
:101400001200DACFE4FFE2CFDAFFE9CFE4FFEACF60
:10141000E4FFF6CFE4FFF7CFE4FFF3CFE4FFF4CF30
:10142000E4FFFACFE4FF00EE00F0100EE80403E35F
:10143000EECFE4FFFBD7E6520001800780511EE1AA
:10144000CD90CF50146E14C015F0146ACE50141005
:10145000816F15C082F0070E0B6E0C6A81C006F01A
:1014600082C007F09AEC11F006C081F007C082F04C
:1014700000017D0E806FCF6ACE6ACD80F294D76A6C
:10148000060ED66EE55200EE0FF0100EE80403E3F0
:10149000E5CFEDFFFBD7E5CFFAFFE5CFF4FFE5CFD2
:1014A000F3FFE5CFF7FFE5CFF6FFE5CFEAFFE5CFA6
:1014B000E9FFE5CFDAFF1100DACFE4FFE2CFDAFF90
:0C14C000E6520000E552E5CFDAFF110013
:0414CC00D9CFE6FF8F
:1014D000E1CFD9FFFD0EDBCF10F0FE0EDBCF11F018
:1014E000100E0B6E270E0C6E10C006F011C007F028
:1014F0009AEC11F006C010F007C011F0300E102663
:10150000000E1122FB0EDBCFE9FFFC0EDBCFEAFF62
:1015100010C0EFFFFD0EDBCF10F0FE0EDBCF11F0A1
:10152000100E0B6E270E0C6E10C006F011C007F0E7
:101530009AEC11F002C010F003C011F0E80E0B6E2F
:10154000030E0C6E10C006F011C007F09AEC11F0FB
:1015500006C010F007C011F0300E1026000E112248
:10156000010EE76EFB0EDBCFE9FFFC0EDBCFEAFFDF
:10157000E750E926000EEA2210C0EFFFFD0EDBCF98
:1015800010F0FE0EDBCF11F0E80E0B6E030E0C6EAA
:1015900010C006F011C007F09AEC11F002C010F074
:1015A00003C011F0640E0B6E0C6A10C006F011C07F
:1015B00007F09AEC11F006C010F007C011F0300EE1
:1015C0001026000E1122020EE76EFB0EDBCFE9FFA4
:1015D000FC0EDBCFEAFFE750E926000EEA2210C03E
:1015E000EFFFFD0EDBCF10F0FE0EDBCF11F0640E2F
:1015F0000B6E0C6A10C006F011C007F09AEC11F0E7
:1016000002C010F003C011F00A0E0B6E0C6A10C07D
:1016100006F011C007F09AEC11F006C010F007C0F8
:1016200011F0300E1026000E1122030EE76EFB0E95
:10163000DBCFE9FFFC0EDBCFEAFFE750E926000E27
:10164000EA2210C0EFFFFD0EDBCF10F0FE0EDBCF65
:1016500011F00A0E0B6E0C6A10C006F011C007F0F4
:101660009AEC11F002C010F003C011F0300E1026F9
:10167000000E1122040EE76EFB0EDBCFE9FFFC0E1D
:10168000DBCFEAFFE750E926000EEA2210C0EFFFA9
:10169000050EE76EFB0EDBCFE9FFFC0EDBCFEAFFAA
:1016A000E750E926000EEA22EF6AE552E7CFD9FFBC
:0216B000120026
:0E16B2000D0A2046494D210D0A002050726598
:1016C0007373696F6E6520525354002020202020D0
:1016D0002046696D00546573746520454550524F2E
:1016E0004D20455854002020202020204552524FA4
:1016F00000202020202020204F4B002028733D5226
:101700004230206E3D52423129203F0054657374AF
:101710006520454550524F4D20494E540054657345
:101720007465205465636C61646F004465732E209A
:101730004449532A2065204C454431005465737454
:101740006520525443002020205465737465205254
:101750004553465200202020546573746520415142
:101760005545430020202054657374652054454D31
:1017700050004465736C2E2052454C312044495032
:101780000054657374652052454C45203200546501
:101790007374652052454C452031002054657374A4
:1017A0006520414443202850322900205465737439
:1017B00065204144432028503129000D0A0020446F
:1017C0006967697465210D0A005465737465205357
:1017D000657269616C205258002050696373696DAD
:1017E0004C61620D0A000D0A2050696373696D6CCB
:1017F00061620D0A205465737465205365726961D6
:101800006C2054580D0A003936303020384E3100E3
:1018100054657374652053657269616C2054580077
:1018200020205465737465204368617665730054A5
:1018300065737465204C454473004465736C696737
:10184000756520525443204449500020202054659F
:1018500073746520372053656700202020202020E6
:10186000204F6B002020205465737465204C434446
:101870000050726573732E20524231004C696775B7
:0C1880006520746F646F732044495000B1
:04188C00D9CFE6FFCB
:10189000E1CFD9FF030EE126FD0EDBCF10F0FE0EE7
:1018A000DBCF11F0000E1016010E111611C010F052
:1018B000116A10C0DBFFFF0EE76EFD0EDBCF10F0EC
:1018C000FE0EDBCF11F0E7501016116A020E10C0A9
:1018D000DBFF4EEC0FF0010EDB5006E0A20EE66ED1
:1018E0005AEC0FF0E55205D0A00EE66E5AEC0FF060
:1018F000E552020EDBCFE6FF5AEC0FF0E5524EEC5C
:101900000FF0010EDB5006E0A30EE66E5AEC0FF06E
:10191000E55205D0A10EE66E5AEC0FF0E552010E2D
:10192000E66E84EC0FF0E552DF6E54EC0FF0DF5002
:10193000106E030EE15C03E200D0E16AE552E16E55
:101940001050E552E7CFD9FF1200D9CFE6FFE1CF23
:10195000D9FF050EE126FC0EDB50DE6EDD6AFD0EC2
:10196000DBCF10F0FE0EDBCF11F0000E1016010ED3
:10197000111611C010F0116A020E10C0DBFFFF0E2D
:10198000E76EFD0EDBCF10F0FE0EDBCF11F0E7505F
:101990001016116A030E10C0DBFF040EDB6A4EEC5A
:1019A0000FF0020EDB5006E0A20EE66E5AEC0FF0CE
:1019B000E55205D0A00EE66E5AEC0FF0E552030E8C
:1019C000DBCFE6FF5AEC0FF0E552DFCFE6FF5AEC33
:1019D0000FF0E55254EC0FF0040EDB2AFD0EDBCFC6
:1019E000E6FFFE0EDBCFE6FF51DFE552E552106E5B
:1019F000116A1050DF1803E11150DE52DD1808E0C3
:101A00000A0EF36E040EDBCFF4FFF350F45CC7E371
:101A1000050EE15C02E2E16AE552E16EE552E7CFD4
:041A2000D9FF1200D8
:0C1A2400D9CFE6FFE1CFD9FF050EE12687
:101A3000DE6ADD6A030EDB6A040E81CFDBFFDECFD8
:101A400010F0DDCF11F0FD0EDBCF12F0FE0EDBCF7C
:101A500013F01250105C135011580AE3D950FD0FC7
:101A6000E96EFF0EDA20EA6EEE50ED1001E082D052
:101A7000030EDB5001E07ED0020EDB6A030EF36E34
:101A8000020EDBCFF4FFF350F45C68E2020EDB5091
:101A9000EA6ACE0FE96E000EEA22EF1C811283B6CD
:101AA00012D0140EE66EE66A38EC11F0E552E552FB
:101AB00083B609D083A6FED7020EDB28E76E030E9D
:101AC000E7CFDBFF4BD083B413D0140EE66EE66A8B
:101AD00038EC11F0E552E55283B40AD083A4FED766
:101AE000020EDB50040FE76E030EE7CFDBFF36D0AC
:101AF00083B213D0140EE66EE66A38EC11F0E552AC
:101B0000E55283B20AD083A2FED7020EDB50070F44
:101B1000E76E030EE7CFDBFF21D083B013D0140EA6
:101B2000E66EE66A38EC11F0E552E55283B00AD071
:101B300083A0FED7020EDB500A0FE76E030EE7CF3D
:101B4000DBFF0CD0020EDB50EA6ACE0FE96E000E0E
:101B5000EA22EF508116020EDB2A90D7050EE66EC0
:101B6000E66A38EC11F0E552E552050EDE26000E6D
:101B7000DD2265D7030EDB5002E1030EDB68030EA6
:101B8000DB500B0802E1030EDB6A040EDB50816EB2
:101B9000030EDB50106E050EE15C03E200D0E16A3B
:0E1BA000E552E16E1050E552E7CFD9FF12007A
:021BAE00D9CF8D
:101BB000E6FFE1CFD9FFFE0EDB50F00BE8380F0B4C
:101BC000300F00D0E552E7CFD9FF1200D9CFE6FFA2
:101BD000E1CFD9FFFE0EDB500F0B300F00D0E552E6
:101BE000E7CFD9FF1200D9CFE6FFE1CFD9FFE65208
:101BF0004EEC0FF0D00EE66E5AEC0FF0E552E66AAE
:101C00005AEC0FF0E5524EEC0FF0D10EE66E5AECA6
:101C10000FF0E552010EE66E84EC0FF0E5527F0BFB
:101C2000DF6E00013A0EBF6FDFCFE6FFC0DFE55287
:101C30000001C06FDFCFE6FFC9DFE5520001C16FD1
:101C4000C26B010EE66E84EC0FF0E5527F0BDF6E87
:101C500000013A0EBC6FDFCFE6FFA9DFE5520001BD
:101C6000BD6FDFCFE6FFB2DFE5520001BE6F010EB0
:101C7000E66E84EC0FF0E5523F0BDF6EDFCFE6FF40
:101C800096DFE5520001BA6FDFCFE6FF9FDFE55236
:101C90000001BB6F010EE66E84EC0FF0E552010E01
:101CA000E66E84EC0FF0E5523F0BDF6EDFCFE6FF10
:101CB0007EDFE5520001B06FDFCFE6FF87DFE55240
:101CC0000001B16F010EE66E84EC0FF0E5521F0BC0
:101CD000DF6E00012F0EB26FDFCFE6FF68DFE55247
:101CE0000001B36FDFCFE6FF71DFE5520001B46F93
:101CF000E66A84EC0FF0E552DF6E00012F0EB56F3F
:101D0000DFCFE6FF54DFE5520001B66FDFCFE6FF1D
:101D10005DDFE5520001B76FB86B54EC0FF0E55290
:081D2000E552E7CFD9FF1200E4
:081D2800D9CFE6FFE1CFD9FF9E
:101D3000FE0EDB50836EE552E7CFD9FF1200D9CFFC
:101D4000E6FFE1CFD9FF8482FE0EDBCFE6FFECDFBA
:101D5000E5528494030EE66EE66A38EC11F0E55223
:101D6000E5528492030EE66EE66A38EC11F0E55215
:101D7000E5528482E552E7CFD9FF1200D9CFE6FFC2
:101D8000E1CFD9FF8482FE0EDBCFE6FFCDDFE55247
:101D90008484030EE66EE66A38EC11F0E552E552F3
:101DA0008492030EE66EE66A38EC11F0E552E552D5
:101DB0008482E552E7CFD9FF120084928494140EF6
:101DC000E66EE66A38EC11F0E552E5528482380E90
:101DD000E66EB5DFE552050EE66EE66A38EC11F008
:101DE000E552E552380EE66EAADFE552010EE66EC8
:101DF000E66A38EC11F0E552E552380EE66E9FDFE8
:101E0000E552080EE66E9BDFE5520F0EE66E97DF99
:101E1000E552010EE66E93DFE552380EE66E8FDF77
:101E2000E552800EE66E8BDFE5521200D9CFE6FF59
:101E3000E1CFD9FFE652DF6ADF50E76EFD0EDBCF60
:101E4000E9FFFE0EDBCFEAFFE750E926000EEA22AB
:101E5000EF5012E0DF50E76EFD0EDBCFE9FFFE0E24
:101E6000DBCFEAFFE750E926000EEA22EF50E66EEC
:101E700085DFE552DF2AE0D7E552E552E7CFD9FF0B
:021E800012004E
:0E1E8200000000000000000000000000000052
:101E900000001200949882868288120082868288CE
:101EA000F0DF829841EF0FF082868298EADF828825
:101EB00041EF0FF0D9CFE6FFE1CFD9FFE65282968E
:101EC000070EDF6EDFCF10F0103414E2FE0EDB5091
:101ED000DF5206E0DFCFF3FFE8327F0BF306FCE1D1
:101EE000010BE8B08288E8A082988286CADF8296D9
:101EF000DF06E8D78288C5DF8286C3DF8296E55297
:101F0000E552E7CFD9FF1200D9CFE6FFE1CFD9FFE5
:101F1000020EE126010EDB6A829694888288070E03
:101F2000DF6EDFCF10F010341AE28286AADF825013
:101F3000100B01E0010EDF5206E0DFCFF3FFE846B1
:101F4000FE0BF306FCE1106E010EDBCFE7FF105035
:101F5000E712010EE7CFDBFF8296DF06E2D7949807
:101F6000FE0EDB5002E0829801D082888ADF8286F2
:101F700088DF8296010EDB50106E020EE15C03E2F8
:101F800000D0E16AE552E16E1050E552E7CFD9FF8B
:021F900012003D
:0E1F9200AC9CAC8AAC98AC84AB8EAB9CAB889C
:101FA000320EAF6E1200D9CFE6FFE1CFD9FFFE0EA1
:101FB000DB50AD6EACA2FED7E552E7CFD9FF1200E1
:101FC000D9CFE6FFE1CFD9FFE652DF6ADF50E76EF7
:101FD000FD0EDBCFE9FFFE0EDBCFEAFFE750E9267F
:101FE000000EEA22EF5012E0DF50E76EFD0EDBCF6D
:101FF000E9FFFE0EDBCFEAFFE750E926000EEA22FA
:10200000EF50E66ED0DFE552DF2AE0D7E552E55229
:10201000E7CFD9FF1200D9CFE6FFE1CFD9FF020EFB
:10202000E126DE6ADD6ADECF10F0DDCF11F0FD0EB5
:10203000DBCF12F0FE0EDBCF13F01250105C13500A
:10204000115809E3D950FD0FE96EFF0EDA20EA6E50
:10205000EE50ED100FE19E50200B0CE1140EE66ED9
:10206000E66A38EC11F0E552E552140EDE26000E59
:10207000DD22D9D79EAA03D0AE5003D002D0FF0EE6
:1020800000D0106E020EE15C02E2E16AE552E16E00
:0A2090001050E552E7CFD9FF12000F
:06209A00D9CFE6FFE1CF03
:1020A000D9FFFE0EDB500F0A4DE0010A48E0030A9B
:1020B00043E0010A3EE0070A39E0010A34E0030A7E
:1020C0002FE0010A2AE00F0A25E0010A20E0030AB6
:1020D0001BE0010A16E0070A11E0010A0CE0030AFE
:1020E00007E0010A02E0000E31D03F0E2FD02ED0C3
:1020F000060E2CD02BD05B0E29D028D04F0E26D028
:1021000025D0660E23D022D06D0E20D01FD07D0E9C
:102110001DD01CD0070E1AD019D07F0E17D016D0A4
:102120006F0E14D013D0770E11D010D07C0E0ED0BD
:102130000DD0580E0BD00AD05E0E08D007D0790E05
:1021400005D004D0710E02D001D000D0E552E7CF07
:04215000D9FF1200A1
:0C2154001E0EF66E000EF76E000EF86E08
:1021600000010900F550C96F0900F550CA6F03E17D
:10217000C96701D03DD00900F550C46F0900F55082
:10218000C56F0900F550C66F09000900F550E96EEA
:102190000900F550EA6E090009000900F550C76F03
:1021A0000900F550C86F09000900F6CFCBF0F7CF52
:1021B000CCF0F8CFCDF0C4C0F6FFC5C0F7FFC6C065
:1021C000F8FF0001C75302E1C85307E00900F550CA
:1021D000EE6EC707F8E2C807F9D7CBC0F6FFCCC050
:1021E000F7FFCDC0F8FF0001C907000ECA5BBFD7DB
:0221F0001200DB
:0E21F200020EC16E490EC26E1200D9CFE6FF7A
:10220000E1CFD9FFFE0EDB50020A0BE0030A06E025
:10221000010A01E009D0410EC26E06D0490EC26E1D
:1022200003D0510EC26E00D0C284C2B4FED7C450D7
:10223000126E136AD89012361336D89012361336AF
:10224000060EC3CFE7FF070B04E0E742E79EE80670
:10225000FCE1E75000011210106E13C011F010C025
:10226000F3FF11C0F4FF00D0E552E7CFD9FF120011
:10227000D9CFE6FFE1CFD9FF030EE126DE6ADD6AA2
:10228000DECF10F0DDCF11F0FD0EDBCF12F0FE0E31
:10229000DBCF13F01250105C135011581BE2020EEA
:1022A000DB6A020EDB50106E116AD890115004E602
:1022B000C80E105C000E115808E20000000000007B
:1022C00000000000020EDB2AECD7DF2A010E01E33A
:1022D000DB2AD6D7030EE15C02E2E16AE552E16E49
:0822E000E552E7CFD9FF12001F
:0822E800D9CFE6FFE1CFD9FFD9
:1022F000FE0EDB50A96EA680A85000D0E552E7CFB5
:10230000D9FF1200D9CFE6FFE1CFD9FFFE0EDB5097
:10231000A96EFD0EDB50A86EA684550EA76EAA0E00
:10232000A76EA682A6B2FED7A69400D0E552E7CF4C
:04233000D9FF1200BF
:0C233400036A026A100EE76ED8900636AD
:102340000736023603360B50025C0C50035805E387
:102350000B50025E0C50035A062AE72EF0D71200EB
:10236000000EF36E00EE00F0060E01D81200EA60D7
:1023700002D0EE6AFCD7F350E9601200EE6AFCD797
:1023800015EE00F025EE00F0F86A0F9CAAEC10F0B4
:0C23900003EC00F049EC00F0FBD7120059
:020000040030CA
:0E00000000220D0EFFFFFBFFFFFFFFFFFFFFC3
:00000001FF
